:10400000FDC000000BC1000009C1000007C1000095
:1040100005C1000003C1000001C10000FFC0000095
:10402000FDC00000FBC00000F9C00000F7C00000A8
:10403000F5C00000F3C00000F1C00000EFC00000B8
:10404000EDC00000EBC00000E9C00000E7C00000C8
:10405000E5C00000E3C00000E1C00000DFC00000D8
:10406000DDC00000DBC00000D9C00000D7C00000E8
:10407000D5C00000D3C00000D1C00000CFC00000F8
:10408000CDC00000CBC00000C9C00000C7C0000008
:10409000C5C00000C3C00000C1C00000BFC0000018
:1040A000BDC00000BBC00000B9C00000B7C0000028
:1040B000B5C00000B3C00000B1C00000AFC0000038
:1040C000ADC00000ABC00000A9C00000A7C0000048
:1040D000A5C00000A3C00000A1C000009FC0000058
:1040E0009DC000009BC0000099C0000097C0000068
:1040F00095C0000093C0000091C000008FC0000078
:104100008DC000008BC0000089C0000087C0000087
:1041100085C0000083C0000081C000007FC0000097
:104120007DC000007BC0000079C0000077C00000A7
:1041300075C0000073C0000071C000006FC00000B7
:104140006DC000006BC0000069C0000067C00000C7
:1041500065C0000063C0000061C000005FC00000D7
:104160005DC000005BC0000059C0000057C00000E7
:1041700055C0000053C0000051C000004FC00000F7
:104180004DC000004BC0000049C0000047C0000007
:1041900045C0000043C0000041C000003FC0000017
:1041A0003DC000003BC0000039C0000037C0000027
:1041B00035C0000033C0000031C000002FC0000037
:1041C0002DC000002BC0000029C0000027C0000047
:1041D00025C0000023C0000021C000001FC0000057
:1041E0001DC000001BC0000019C0000017C0000067
:1041F00015C0000013C0000011C0000011241FBE34
:10420000CFEFCDBFD7E2DEBF20E2A0E0B0E201C039
:104210001D92A130B207E1F721D3BBC5F1CE3BB768
:104220008BBFFB0186913BBF08953BB78BBFFB0162
:10423000879196913BBF089542E08CC041E08AC0CF
:104240008093C00188278093C1018093C20147E019
:1042500071D0CB0108958093C40148E06BC0809178
:10426000D00108953BB748E17AC03BB74AE177C037
:104270003BB7882799278BBF40E271C03BB78BBF04
:10428000CB0142E26CC03BB70B0143E268C0EE27B2
:10429000FF2719BEDC0143E24093CA0150E82DE933
:1042A0000D901D9020933400E89532965A95C1F7F1
:1042B000112408953BB76BBFFA0119BEDC0140E041
:1042C0004093CA0150E0879197918D939D935A95A1
:1042D000D1F73BBF08953BB78BBFCB0144E23FC052
:1042E0003BB78BBFCB0145E23AC03BB746E237C094
:1042F0003BB78BBFCB014AE232C03BB78BBFCB0190
:104300004CE22DC03BB78BBFCB014DE228C048E348
:1043100011C049E30FC028ED2093340021E0209321
:10432000CC0108952091CF0127FDFCCF22272093B7
:10433000CA0108954093CA0128ED31E0209334006A
:104340003093CB016091C4017091C5018091C60189
:1043500099270895FC014093CA0184910895FC01B6
:104360004093CA012DE920933400E89511243BBF06
:1043700008954F925F926F927F929F92AF92BF92F9
:10438000CF92DF92EF92FF920F931F93CF93DF9321
:10439000CDB7DEB7CF50D140CDBFDEBF5C018FE0DF
:1043A00091E0FE01EF5DFE4FDE01119601900D924E
:1043B0000197E1F7CB5DDE4F9880C552D140C65DD5
:1043C000DE4F488059806A807B80CA52D140CC5DE4
:1043D000DE4F8881C452D140833009F4A1C008F077
:1043E00077C0882309F47AC0823009F04EC0CA5DD4
:1043F000DE4F88819981AA81BB81C652D14081302C
:10440000F4E09F07A105B10508F082C0B301A20145
:10441000480F591F6A1F7B1F4130544061057105C9
:1044200008F073C0E1E04E165E066104710408F006
:104430006CC0411451046104710439F18E01025DB4
:104440001E4FC12CD12C760108C0CA5DDE4F888179
:104450009981AA81BB81C652D140F80161918F0137
:104460008C0D9D1DA1D1FFEFCF1ADF0AEF0AFF0AC5
:10447000C65DDE4F88819981AA81BB81CA52D14035
:10448000C816D906EA06FB0600F39D824A865B86BB
:104490006C867D868FE091E0FE013196D50101901A
:1044A0000D920197E1F7C501C15FDE4FCDBFDEBFC1
:1044B000DF91CF911F910F91FF90EF90DF90CF9000
:1044C000BF90AF909F907F906F905F904F900895B6
:1044D000863609F18737C9F6A9D1D7CFCA5DDE4F35
:1044E000688179818A819B81C652D140611110C057
:1044F00061302FE372078105910550F44114E1E02A
:104500005E066104710409F458C083E0982EBDCFA3
:1045100092E0992EBACF412C512C32015394B5CF51
:10452000CA5DDE4F88819981AA81BB81C652D14084
:10453000813024E09207A105B10550F7B301A20133
:10454000480F591F6A1F7B1F413054406105710598
:10455000E0F6F1E04F165F0661047104B0F6411415
:1045600051046104710409F490CF8E01025F1F4F62
:10457000C12CD12C760108C0CA5DDE4F888199819B
:10458000AA81BB81C652D1408C0D9D1DF8D0F80187
:1045900081938F01FFEFCF1ADF0AEF0AFF0AC65D92
:1045A000DE4F88819981AA81BB81CA52D140C81649
:1045B000D906EA06FB0600F368CF21E0AE01425DB2
:1045C0005E4F16D13FD161CF222309F45BC030E2A8
:1045D0003093520038E0309350003091510033FF57
:1045E000FCCF611538E4730738EE830731E0930799
:1045F00009F482C0611534E2730734EF8307910533
:1046000009F47CC0611532E173073AE7830791052D
:1046100009F44BC0611539E073073DE38307910549
:1046200009F46EC0603834E873073EE183079105F2
:1046300009F460C0603432E473073FE083079105FA
:1046400009F462C0603231EA730737E083079105ED
:1046500009F458C0603930ED730733E083079105E2
:1046600009F454C0683438EE730731E083079105CC
:1046700009F44EC06432744F8105910509F04AC0B7
:1046800084E414C032E2309352003AE03093500098
:104690003091510031FFFCCF3091510033FDA1CF5B
:1046A0003091510033FFF8CF9CCF8CE098ED94BF50
:1046B000222399F023E02093400094BF809341008F
:1046C000442329F088ED84BF81E08093420088ED87
:1046D00084BF81E080938000089521E02093400012
:1046E00094BF8093410094BF82E080935600209352
:1046F0006000E6CF8CE1DACF80E0D8CF84E0D6CF7F
:1047000084E1D4CF8CE2D2CF84E2D0CF84E3CECF89
:104710008CE3CCCF80E0089588ED84BF81E0809366
:1047200080000895FC01308181E090E0062E01C0F8
:10473000880F0A94EAF78095832380837096E60FAA
:10474000F11D8081422B807C482B40830895FC0121
:10475000308181E090E0062E01C0880F0A94EAF7CC
:10476000382B30837096E60FF11D8081807C842B7E
:104770008083211103C08081876080830895209108
:10478000CF0127FDFCCF8093C0019093C10110920F
:10479000C20186E08093CA0188ED84BF81E08093E6
:1047A000CB018091C40108952091CF0127FDFCCF5A
:1047B0002091CF0121FF08C026E32093CA0128EDF4
:1047C00024BF21E02093CB0123E32093CA018093EF
:1047D000C0019093C1011092C2016093C40185E3AE
:1047E0008093CA0188ED84BF81E08093CB01089556
:1047F000CF92DF92EF92FF92CF93DF931F92CDB7CC
:10480000DEB76B017C01CA01298341DD2981C70123
:10481000B601211109C05FDD0F90DF91CF91FF90AC
:10482000EF90DF90CF907ECD5BDDF6CF80910020C2
:104830008F3F21F06FEF8FEF93E0B6DF8FEF809324
:104840000020089580910020813121F061E18FEFF7
:1048500093E0AADF81E1809300200895CF93DF9356
:10486000CDB7DEB7C052D240CDBFDEBF11E0C05FD2
:10487000DE4F1883C051D14082E0CF5EDE4F888387
:10488000C151D14003E0CE5EDE4F0883C251D1401A
:1048900043DF21E041E060E078E488EE91E094DEDF
:1048A0008FEF93E06CDF8093002020E040E065E034
:1048B00080E696E04CDF80E28093650688E0809396
:1048C000850620E040E063E080E896E040DF20E0FD
:1048D00040E062E080E896E025DF0093A50A1093AF
:1048E000A60A1092A70A8091A40A88618093A40A5C
:1048F00030E080E090E0DC01AE01435E5D4F5A01A4
:10490000FE013E964F014F5051407A01EF5EFD4F40
:104910006F0120E2522E40E1242E332433942C0EDA
:104920003D1EF5E02F0E311C40E151E04C0F5D1FA4
:10493000435F5F4FC15EDD4F48835983CF51D24003
:1049400050E1652E772473946C0E7D1E56E0650E43
:10495000711C85010097A105B10509F47BC08A325D
:10496000E5EE9E07A105B10509F477C0823DF9E7A0
:104970009F07F4E0AF07B10509F4BBC08C3F2EE5FB
:10498000920725E0A207B10509F467C0843A43EF16
:10499000940748E0A407B10509F45FC08E3C58EDC8
:1049A000950759E0A507B10509F457C08539E2E735
:1049B0009E07A105B10509F059C0509266060196FF
:1049C000A11DB11D8038FDE69F07FDE0AF07B105D1
:1049D00009F475C02091A10A27FFBCCF8091A00ADD
:1049E000323009F4AFC008F48CC0343009F46FC021
:1049F00008F496C0353009F078C050926706CB5E57
:104A0000DE4F8883C551D140F3018091A10A87FF11
:104A1000FCCF8091A00A8193EC15FD05B1F7FE0152
:104A2000E05FFE4F80E090E02191820F911DE01742
:104A3000F107D1F7D5012D913C918217930709F425
:104A400089C030E080E090E0DC010097A105B1056D
:104A500009F085CF50926506B2CF50926506853930
:104A6000E2E79E07A105B10509F4A7CF8F3BF7E563
:104A70009F07F1E0AF07B10509F49FCF87362CEE11
:104A8000920724E0A207B10509F497CF813941EDDF
:104A9000940745E0A407B10509F48FCF893356E6A2
:104AA000950759E0A507B10509F487CF8336EBE4F4
:104AB0009E07EAE0AE07B10509F081CF7ECF2091D5
:104AC00000202F3F51F180E090E0DC0183CFCC5EED
:104AD000DE4F8883C451D140CD5EDE4F8881C35103
:104AE000D140863609F48EC035E080E090E0DC01EC
:104AF00031CF5092650683ED99E7A4E0B0E030E055
:104B000069CF3323B9F0313081F7823009F099CF82
:104B100032E080E090E0DC011DCF0C9400005ACF21
:104B2000CD5EDE4F8883C351D14034E080E090E019
:104B3000DC0110CF31E08130C1F230E080E090E064
:104B4000DC0108CF833009F07CCF33E080E090E0D7
:104B5000DC0100CFCC5EDE4F8881C451D140811191
:104B600070CFEDB7FEB7EF50F140EDBFFEBFADB770
:104B7000BEB71196FE01E05FFE4F8FE091E001901D
:104B80000D920197E1F7CE010196F3DBFE0131961C
:104B9000CDBFDEBF80E090E02091A10A25FFFCCFD1
:104BA000DF0121912093A00A2C91820F911DD70142
:104BB0008D939C93EE15FF0579F78091A10A85FFEF
:104BC000FCCFF70180818093A00A8091A10A85FF24
:104BD000FCCFC15FDE4F8881CF50D1408093A00AC7
:104BE0008C81873709F02DCF8D8181112ACF80915B
:104BF000A10A85FFFCCF0C94000030E080E090E03B
:104C0000DC01A8CEF1018091A10A87FFFCCF809141
:104C1000A00A8193C15EDD4F48815981CF51D240B6
:104C2000E417F50781F78091A10A87FFFCCF8091F7
:104C3000A00AD5018C938091A10A87FFFCCF8091B7
:104C4000A00AC25EDD4F8883CE51D240CF5EDE4FD8
:104C50002881C151D140C05FDE4F8881C051D14011
:104C600090E0820F911DCE5EDE4F2881C251D1406F
:104C7000820F911DCD5EDE4F2881C351D140820F3E
:104C8000911DCC5EDE4F4881C451D140840F911DEF
:104C9000CB5EDE4F2881C551D140820F911DCA5E87
:104CA000DE4F2881C651D140820F911DC95EDE4F73
:104CB0002881C751D140820F911DC85EDE4F2881E7
:104CC000C851D140820F911DC75EDE4F2881C95166
:104CD000D140820F911DC65EDE4F2881CA51D1405E
:104CE000820F911DC55EDE4F2881CB51D140820FCE
:104CF000911DC45EDE4F2881CC51D140820F911DA1
:104D0000F501208131812817390709F09ACE411128
:104D100098CE4DB75EB74F5051404DBF5EBFADB757
:104D2000BEB71196FE01E05FFE4F8FE091E001906B
:104D30000D920197E1F7CE0101961BDBFE01319642
:104D4000CDBFDEBF80E090E02091A10A25FFFCCF1F
:104D5000DF0121912093A00A2C91820F911DD70190
:104D60008D939C93E815F90579F78091A10A85FF49
:104D7000FCCFF70180818093A00A8091A10A85FF72
:104D8000FCCFC15FDE4F8881CF50D1408093A00A15
:064D900058CEF894FFCF9D
:0400000300004000B9
:00000001FF
