:020000022000DC
:10000000FDC0000011C100000FC100000DC10000C3
:100010000BC1000009C1000007C1000005C10000BC
:1000200003C1000001C10000FFC00000FDC00000CE
:10003000FBC00000F9C00000F7C00000F5C00000E0
:10004000F3C00000F1C00000EFC00000EDC00000F0
:10005000EBC00000E9C00000E7C00000E5C0000000
:10006000E3C00000E1C00000DFC00000DDC0000010
:10007000DBC00000D9C00000D7C00000D5C0000020
:10008000D3C00000D1C00000CFC00000CDC0000030
:10009000CBC00000C9C00000C7C00000C5C0000040
:1000A000C3C00000C1C00000BFC00000BDC0000050
:1000B000BBC00000B9C00000B7C00000B5C0000060
:1000C000B3C00000B1C00000AFC00000ADC0000070
:1000D000ABC00000A9C00000A7C00000A5C0000080
:1000E000A3C00000A1C000009FC000009DC0000090
:1000F0009BC0000099C0000097C0000095C00000A0
:1001000093C0000091C000008FC000008DC00000AF
:100110008BC0000089C0000087C0000085C00000BF
:1001200083C0000081C000007FC000007DC00000CF
:100130007BC0000079C0000077C0000075C00000DF
:1001400073C0000071C000006FC000006DC00000EF
:100150006BC0000069C0000067C0000065C00000FF
:1001600063C0000061C000005FC000005DC000000F
:100170005BC0000059C0000057C0000055C000001F
:1001800053C0000051C000004FC000004DC000002F
:100190004BC0000049C0000047C0000045C000003F
:1001A00043C0000041C000003FC000003DC000004F
:1001B0003BC0000039C0000037C0000035C000005F
:1001C00033C0000031C000002FC000002DC000006F
:1001D0002BC0000029C0000027C0000025C000007F
:1001E00023C0000021C000001FC000001DC000008F
:1001F0001BC0000019C0000017C0000011241FBE62
:10020000CFEFCDBFDFE3DEBF01E00CBF18BE19BEEC
:100210001ABE1BBE20E2A0E0B0E201C01D92A130D8
:10022000B207E1F72CD3C6C5EBCE3BB78BBFFB01C2
:1002300086913BBF08953BB78BBFFB018791969199
:100240003BBF089542E08CC041E08AC08093C0016A
:1002500088278093C1018093C20147E071D0CB0110
:1002600008958093C40148E06BC08091D001089547
:100270003BB748E17AC03BB74AE177C03BB7882734
:1002800099278BBF40E271C03BB78BBFCB0142E2E5
:100290006CC03BB70B0143E268C0EE27FF2719BED5
:1002A000DC0143E24093CA0150E02DE90D901D901E
:1002B00020933400E89532965A95C1F71124089599
:1002C0003BB76BBFFA0119BEDC0140E04093CA01A5
:1002D00050E0879197918D939D935A95D1F73BBFAD
:1002E00008953BB78BBFCB0144E23FC03BB78BBF08
:1002F000CB0145E23AC03BB746E237C03BB78BBFC4
:10030000CB014AE232C03BB78BBFCB014CE22DC0E0
:100310003BB78BBFCB014DE228C048E311C049E396
:100320000FC028ED2093340021E02093CC010895E4
:100330002091CF0127FDFCCF22272093CA010895E9
:100340004093CA0128ED31E0209334003093CB0173
:100350006091C4017091C5018091C60199270895EB
:10036000FC014093CA0184910895FC014093CA01A5
:100370002DE920933400E89511243BBF08954F9256
:100380005F926F927F929F92AF92BF92CF92DF92D5
:10039000EF92FF920F931F93CF93DF93CDB7DEB70A
:1003A000CF50D240CDBFDEBF5C018FE092E0FE01B6
:1003B000EE5DFD4FDE01119601900D920197E1F780
:1003C000CA5DDD4F9880C652D240C55DDD4F488082
:1003D00059806A807B80CB52D240CB5DDD4F8881D3
:1003E000C552D240833009F4ABC008F078C08823EE
:1003F00009F47BC0823009F04FC0C95DDD4F8881B0
:100400009981AA81BB81C752D2408130F8E09F0711
:10041000A105B10508F08BC0B301A201480F591F17
:100420006A1F7B1F413058406105710508F07CC090
:10043000E1E04E16E2E05E066104710408F074C06B
:10044000411451046104710439F18E01015D1D4FA5
:10045000C12CD12C760108C0C95DDD4F88819981FE
:10046000AA81BB81C752D240F80161918F018C0DE6
:100470009D1DABD1FFEFCF1ADF0AEF0AFF0AC55D62
:10048000DD4F88819981AA81BB81CB52D240C816A9
:10049000D906EA06FB0600F39D824A865B866C86D7
:1004A0007D868FE092E0FE013196D50101900D929C
:1004B0000197E1F7C501C15FDD4FCDBFDEBFDF9121
:1004C000CF911F910F91FF90EF90DF90CF90BF9051
:1004D000AF909F907F906F905F904F900895863679
:1004E00049F18737C9F6B3D1D7CFC95DDD4F6881F0
:1004F00079818A819B81C752D2408B019C01117006
:1005000022273327012B022B032B89F461302EEF96
:10051000720721E08207910550F44114E2E05E0683
:100520006104710409F45AC083E0982EB5CF92E0BB
:10053000992EB2CF412C22E0522E612C712CACCFDF
:10054000C95DDD4F88819981AA81BB81C752D240A4
:10055000813028E09207A105B10548F7B301A20157
:10056000480F591F6A1F7B1F4130584061057105B4
:10057000D8F6F1E04F16F2E05F0661047104A0F6D0
:10058000411451046104710409F486CF8E01025FA5
:100590001F4FC12CD12C760108C0C95DDD4F888169
:1005A0009981AA81BB81C752D2408C0D9D1DF8D084
:1005B000F80181938F01FFEFCF1ADF0AEF0AFF0ADC
:1005C000C55DDD4F88819981AA81BB81CB52D24024
:1005D000C816D906EA06FB0600F35ECF21E0AE019D
:1005E000415D5D4F16D13FD157CF222309F45BC047
:1005F00030E23093520038E0309350003091510097
:1006000033FFFCCF611538E4730738EE830731E020
:10061000930709F482C0611534E2730734EF83074E
:10062000910509F47CC0611532E173073AE783074D
:10063000910509F44BC0611539E073073DE3830769
:10064000910509F46EC0603834E873073EE1830712
:10065000910509F460C0603432E473073FE083071A
:10066000910509F462C0603231EA730737E083070D
:10067000910509F458C0603930ED730733E0830702
:10068000910509F454C0683438EE730731E08307EC
:10069000910509F44EC06432744F8105910509F04B
:1006A0004AC084E414C032E2309352003AE03093FE
:1006B00050003091510031FFFCCF3091510033FD9B
:1006C000A1CF3091510033FFF8CF9CCF8CE098ED53
:1006D00094BF222399F023E02093400094BF80939D
:1006E0004100442329F088ED84BF81E080934200DB
:1006F00088ED84BF81E080938000089521E02093FD
:10070000400094BF8093410094BF82E080935600E4
:1007100020936000E6CF8CE1DACF80E0D8CF84E090
:10072000D6CF84E1D4CF8CE2D2CF84E2D0CF84E3A1
:10073000CECF8CE3CCCF80E0089588ED84BF81E0FC
:10074000809380000895FC01308181E090E0062EC6
:1007500001C0880F0A94EAF78095832380837096FE
:10076000E60FF11D8081422B807C482B4083089549
:10077000FC01308181E090E0062E01C0880F0A94D0
:10078000EAF7382B30837096E60FF11D8081807C6C
:10079000842B8083211103C080818760808308952A
:1007A0002091CF0127FDFCCF8093C0019093C10120
:1007B0001092C20186E08093CA0188ED84BF81E077
:1007C0008093CB018091C40108952091CF0127FD32
:1007D000FCCF2091CF0121FF08C026E32093CA015E
:1007E00028ED24BF21E02093CB0123E32093CA010D
:1007F0008093C0019093C1011092C2016093C40123
:1008000085E38093CA0188ED84BF81E08093CB01AA
:100810000895CF92DF92EF92FF92CF93DF931F92D2
:10082000CDB7DEB76B017C01CA01298336DD298192
:10083000C701B601211109C054DD0F90DF91CF919E
:10084000FF90EF90DF90CF9073CD50DDF6CF809189
:1008500000208F3F21F06FEF8FEF97E0B6DF8FEF33
:1008600080930020089580910020813121F061E182
:100870008FEF97E0AADF81E1809300200895CF9366
:10088000DF93CDB7DEB7C052D440CDBFDEBF11E09D
:10089000C05FDD4F1883C051D24082E0CF5EDD4F94
:1008A0008883C151D24003E0CE5EDD4F0883C25140
:1008B000D24043DF21E041E060E078E488EE91E05F
:1008C00094DE8FEF97E06CDF8093002020E040E023
:1008D00066E080E096E04CDF80E48093050688E0E7
:1008E0008093A50620E040E063E080EA96E040DFE8
:1008F00020E040E062E080EA96E025DF0093A50B6F
:100900001093A60B1092A70B8091A40B8861809383
:10091000A40B30E080E090E0DC01AE01435E5B4F71
:100920005A01FE013E964F014F5052407A01EF5E50
:10093000FB4F6F0120E4522E40E1242E42E0342E82
:100940002C0E3D1EF5E02F0E311C40E152E04C0F05
:100950005D1F435F5F4FC15EDB4F48835983CF51BB
:10096000D44050E1652E52E0752E6C0E7D1E56E08F
:10097000650E711C85010097A105B10509F47BC0C6
:100980008A32E5EE9E07A105B10509F477C0823DE4
:10099000F9E79F07F4E0AF07B10509F4BBC08C3F4E
:1009A0002EE5920725E0A207B10509F467C0843A55
:1009B00043EF940748E0A407B10509F45FC08E3CFB
:1009C00058ED950759E0A507B10509F457C08539D9
:1009D000E2E79E07A105B10509F059C0509206064D
:1009E0000196A11DB11D8038FDE69F07FDE0AF0710
:1009F000B10509F475C02091A10B27FFBCCF8091F0
:100A0000A00B323009F4AFC008F48CC0343009F4C4
:100A10006FC008F496C0353009F078C050920706D0
:100A2000CB5EDD4F8883C551D240F3018091A10B8D
:100A300087FFFCCF8091A00B8193EC15FD05B1F7EA
:100A4000FE01E05FFD4F80E090E02191820F911D5B
:100A5000E017F107D1F7D5012D913C91821793074B
:100A600009F489C030E080E090E0DC010097A10546
:100A7000B10509F085CF50920506B2CF5092050618
:100A80008539E2E79E07A105B10509F4A7CF8F3BA1
:100A9000F7E59F07F1E0AF07B10509F49FCF87366F
:100AA0002CEE920724E0A207B10509F497CF813913
:100AB00041ED940745E0A407B10509F48FCF8933D0
:100AC00056E6950759E0A507B10509F487CF8336A7
:100AD000EBE49E07EAE0AE07B10509F081CF7ECFD7
:100AE000209100202F3F51F180E090E0DC0183CF86
:100AF000CC5EDD4F8883C451D240CD5EDD4F88810E
:100B0000C351D240863609F48EC035E080E090E0D3
:100B1000DC0131CF5092050683ED99E7A4E0B0E007
:100B200030E069CF3323B9F0313081F7823009F0FA
:100B300099CF32E080E090E0DC011DCF0C94000002
:100B40005ACFCD5EDD4F8883C351D24034E080E080
:100B500090E0DC0110CF31E08130C1F230E080E084
:100B600090E0DC0108CF833009F07CCF33E080E0F7
:100B700090E0DC0100CFCC5EDD4F8881C451D240D3
:100B8000811170CFEDB7FEB7EF50F240EDBFFEBF61
:100B9000ADB7BEB71196FE01E05FFD4F8FE092E06A
:100BA00001900D920197E1F7CE010196E8DBFE017D
:100BB0003196CDBFDEBF80E090E02091A10B25FFF4
:100BC000FCCFDF0121912093A00B2C91820F911D6E
:100BD000D7018D939C93EE15FF0579F78091A10BBA
:100BE00085FFFCCFF70180818093A00B8091A10B42
:100BF00085FFFCCFC15FDD4F8881CF50D24080930D
:100C0000A00B8C81873709F02DCF8D8181112ACFE0
:100C10008091A10B85FFFCCF0C94000030E080E0B8
:100C200090E0DC01A8CEF1018091A10B87FFFCCF01
:100C30008091A00B8193C15EDB4F48815981CF51D8
:100C4000D440E417F50781F78091A10B87FFFCCF13
:100C50008091A00BD5018C938091A10B87FFFCCFD5
:100C60008091A00BC25EDB4F8883CE51D440CF5E13
:100C7000DD4F2881C151D240C05FDD4F8881C05116
:100C8000D24090E0820F911DCE5EDD4F2881C2518F
:100C9000D240820F911DCD5EDD4F2881C351D240DD
:100CA000820F911DCC5EDD4F4881C451D240840F2C
:100CB000911DCB5EDD4F2881C551D240820F911D21
:100CC000CA5EDD4F2881C651D240820F911DC95E98
:100CD000DD4F2881C751D240820F911DC85EDD4F84
:100CE0002881C851D240820F911DC75EDD4F2881F7
:100CF000C951D240820F911DC65EDD4F2881CA5175
:100D0000D240820F911DC55EDD4F2881CB51D2406C
:100D1000820F911DC45EDD4F2881CC51D240820FDD
:100D2000911DF501208131812817390709F09ACEEC
:100D3000411198CE4DB75EB74F5052404DBF5EBF88
:100D4000ADB7BEB71196FE01E05FFD4F8FE092E0B8
:100D500001900D920197E1F7CE01019610DBFE01A3
:100D60003196CDBFDEBF80E090E02091A10B25FF42
:100D7000FCCFDF0121912093A00B2C91820F911DBC
:100D8000D7018D939C93E815F90579F78091A10B14
:100D900085FFFCCFF70180818093A00B8091A10B90
:100DA00085FFFCCFC15FDD4F8881CF50D24080935B
:080DB000A00B58CEF894FFCF10
:0400000320000000D9
:00000001FF
