:100000000C94FE000C941B010C941B010C941B011E
:100010000C941B010C941B010C941B010C941B01F0
:100020000C941B010C941B010C941B010C941B01E0
:100030000C941B010C941B010C941B010C941B01D0
:100040000C941B010C941B010C941B010C941B01C0
:100050000C94D0040C941B010C94F8060C941B0116
:100060000C941B010C941B010C941B010C941B01A0
:100070000C941B010C941B010C941B010C941B0190
:100080000C941B010C941B010C941B010C941B0180
:100090000C941B010C941B010C941B010C941B0170
:1000A0000C941B010C941B010C941B010C9468090B
:1000B0000C941B010C941B010C941B010C941B0150
:1000C0000C941B010C941B010C941B010C941B0140
:1000D0000C941B010C941B010C941B010C941B0130
:1000E0000C941B010C941B010C94340A0C941B09F6
:1000F0000C941B010C941B010C941B010C941B0110
:100100000C941B010C941B010C941B010C941B01FF
:100110000C941B010C941B010C941B010C941B01EF
:100120000C941B010C941B010C941B010C941B01DF
:100130000C941B010C942B0B0C941B010C941B01B5
:100140000C941B010C941B010C941B010C941B01BF
:100150000C941B010C941B010C941B010C941B01AF
:100160000C941B010C941B010C941B010C941B019F
:100170000C941B010C941B010C941B010C941B018F
:100180000C941B010C941B010C941B010C941B017F
:100190000C941B010C941B010C941B010C941B016F
:1001A0000C941B010C941B010C941B010C941B015F
:1001B0000C941B010C941B010C941B010C941B014F
:1001C0000C941B010C941B010C941B010C941B013F
:1001D0000C941B010C941B010C941B010C941B012F
:1001E0000C941B010C941B010C941B010C941B011F
:1001F0000C941B010C941B010C941B0111241FBEB9
:10020000CFEFCDBFD7E2DEBF10E2A0E0B0E2E4E581
:10021000FAE102C005900D92AC35B107D9F724E29E
:10022000ACE5B0E201C01D92A73CB207E1F70E9425
:100230005C010C94280D0C9400008F92AF92BF9239
:10024000CF92DF92EF920F9381E090E29F938F9392
:10025000812CA12CB12C85ECC82E80E2D82EE12C6B
:1002600000E021E040E061E080E894E00E944D037E
:100270000F900F900F91EF90DF90CF90BF90AF90C5
:100280008F90089508950C945B0108950895089542
:100290000895089508950895089508950895089576
:1002A000089508950895089508950895089580E0A3
:1002B000089580E0089508950E941D018091A20094
:1002C00087688093A2007894FFCFFF920F931F93CB
:1002D000CF93DF938C01C7E0D0E0F12C09C0F1107F
:1002E0000CC0CE010E94E70C2196C032D10579F0F6
:1002F000F80161918F016111F2CF60E0CE010E949F
:10030000E70CFF24F3942196C032D10589F7DF91E1
:10031000CF911F910F91FF900895CF93962F803228
:1003200008F47FC0282F30E020523109F901E45A47
:10033000FF4D5081220F331FF901E45AFF4DC08158
:10034000F901E45AFF4D20813181209362203093DE
:1003500063209093C520252F2F702C9FC02D112432
:10036000EAE0EC0FE093C6208093C7202FEF2093A4
:10037000C82050615093C92041116BC080915E200C
:1003800090915F20A0916020B09161208093CA205D
:100390009093CB20A093CC20B093CD2020915C20D3
:1003A00030915D202093CE203093CF208E2F90E08F
:1003B0008E3F9105A4F5209162203091632040E0AA
:1003C000842F90E0F901E80FF91F5081FC01E05300
:1003D000FF4D50834F5F4C13F3CF2091C6202E5F0B
:1003E00030E021503109121613060CF09FC080E056
:1003F00090E040E050E0FC01EB53FF4D8081580F4E
:100400004F5F842F90E082179307ACF3F901EB5311
:10041000FF4D508380910020813009F46BC0CF9153
:1004200008958D30E0F7282F30E0F901E15BFF4DB2
:100430005081220F331FF901EB5CFF4DC081F901A0
:10044000E55EFF4D2081318120936220309363204F
:1004500080CF20914C084091762050917720609178
:1004600078207091792020FF21C04F5F5F4F6F4F40
:100470007F4F4093CA205093CB206093CC20709341
:10048000CD2020916008309161082093CE203093D8
:10049000CF20883009F08ACF933009F087CF1092AF
:1004A000CE201092CF20E091C62080CF4093CA206A
:1004B0005093CB206093CC207093CD202091600886
:1004C000309161082093CE203093CF20F0916720A7
:1004D000F03DF9F62F303105E0F64F5F5F4F6F4F7B
:1004E0007F4F4093CA205093CB206093CC207093D1
:1004F000CD20CFCF83E88093A200C091A30A909132
:10050000A30A9C7F9093A30A6091C6206E5F85EC3E
:1005100090E20E94A8099091A30A8C2F8370892BE6
:100520008093A30A87E88093A20079CF50E06ECF32
:10053000CF93E091C8232E2F30E024303105BCF05A
:1005400090E020E030E0F901E453FC4D4081F901F6
:10055000EE52FC4D40839F5F292F30E0E091C8238D
:100560004E2F50E0435051092417350764F3809310
:10057000C723EA5FE093C8238091CB2380618093F7
:10058000CB2380914C0880FF40C0809176209091D1
:100590007720A0917820B09179200196A11DB11DFE
:1005A0008093CC239093CD23A093CE23B093CF23DD
:1005B00080916008909161088093D0239093D1231B
:1005C000F0E0E853FC4D10826091C82340E0262FF4
:1005D00030E080E090E0F901E853FC4DDC01A953E4
:1005E000BC4D20818C91280F20834F5F6091C823E0
:1005F000262F30E0842F90E02817390764F7809188
:100600000020813079F1CF910895809176209091EA
:100610007720A0917820B09179208093CC2390937B
:10062000CD23A093CE23B093CF23209160083091A7
:1006300061082093D0233093D12340916720403D1F
:1006400009F0BECF2F30310508F0BACF0196A11DB9
:10065000B11D8093CC239093CD23A093CE23B09350
:10066000CF23AECF83E88093A200C091A30A9091DC
:10067000A30A9C7F9093A30A6E5F87EC93E20E948B
:10068000A8099091A30A8C2F8370892B8093A30AC9
:1006900087E88093A200CF9108953F924F925F9296
:1006A0006F927F928F929F92AF92BF92CF92DF9282
:1006B000EF92FF920F931F93CF93DF93CDB7DEB7E7
:1006C0003C01962E142FF22E4C885D880E94480C17
:1006D00021E041E060E078E488EE91E00E94A00B28
:1006E00081E08093480060926D2070926E2090921D
:1006F0006F2010937020E09271208093722083E02D
:1007000080937320F09274200093752010927620CD
:1007100010927720109278201092792010927A20EF
:1007200010927B2082E090E00E94D20C382E83E071
:1007300090E00E94D20C982E8FEF981609F4C5C055
:10074000F31409F494C06FED80E090E00E94E70C90
:100750006F2D82E090E00E94E70C61E083E090E082
:100760000E94E70C0E94430180E090E00E94D20CBE
:100770008E3E09F488C080E680937C2080E48093DC
:100780007D200E9445010E944601A0926B20B092FC
:100790006C20C0926920D0926A208092682087E005
:1007A00090E00E94D20C8F3F09F4CDC00EE710E21A
:1007B000E6EFEE2EFF24FA94C7018D5690427C019D
:1007C000C701800F911F0E94D20CF80181938F0105
:1007D000F0E207391F07A1F789E1EEE7F0E2A7E9A8
:1007E000B0E201900D928A95E1F721E042E15AE7EB
:1007F00067E080E498E00E94C70CE091672081E008
:100800008E0F80936720F0E0ED5EFF4D808190E0D9
:100810000197809368089093690881E08093470866
:1008200020E040E065E080E696E00E94690C80E20E
:100830008093650640E060E081E090E00E94B208AD
:100840000E94100986E790E2DF91CF911F910F91EE
:10085000FF90EF90DF90CF90BF90AF909F908F90E0
:100860007F906F905F904F903F900C94CB0A91E0F7
:10087000991269CF0E94430180E090E00E94D20C5F
:100880008E3E09F078CF81E090E00E94D20C8093F8
:100890007C20A114B10499F0760185010C0D1D1D79
:1008A000F0E26F2E712CC3010E94D20CF7018193EC
:1008B0007F01FFEF6F1A7F0AE016F106A1F780E8CB
:1008C00080937D200E94460160CF6F2D82E090E0F2
:1008D0000E94E70C61E083E090E00E94E70C82E078
:1008E00090E00E94D20C382E83E090E00E94D20C5F
:1008F000982E8201A7E06A2E712CE12C0CC0E11029
:100900000FC0C3010E94E70CFFEF6F1A7F0A80E25D
:100910006816710491F0F80161918F016111EFCFB8
:1009200060E0C3010E94E70CEE24E394FFEF6F1A2E
:100930007F0A80E26816710471F76FED80E090E045
:100940000E94E70CFDCE720107E010E0D12C0BC035
:10095000D1100EC0C8010E94E70C0F5F1F4F00327C
:10096000110509F423CFF70161917F016111F0CFE7
:1009700060E0C8010E94E70CDD24D394EECF0E9412
:10098000420120E280E092EEA4E0B0E00197A109EC
:10099000B1090097A105B105C9F720936706F2CF09
:1009A0008091762090917720A0917820B091792045
:1009B0000196A11DB11D8093762090937720A0937E
:1009C0007820B09379200E94030B8EE090E0809312
:1009D00068089093690881E0809367200E944C0129
:1009E00080914C08806180934C080E944E010E94C7
:1009F000500140917C2047FD03C0842F8370B2C01A
:100A0000842F8370813009F0ADC086E790E2809337
:100A100062209093632083E08093C5208EE08093D2
:100A2000C62088E08093C7208FEF8093C82084E1A0
:100A30008093C92080914C0880FF18C08091762057
:100A400090917720A0917820B09179200196A11DF6
:100A5000B11D8093CA209093CB20A093CC20B0935B
:100A6000CD20809160089091610826C08091762009
:100A700090917720A0917820B09179208093CA201E
:100A80009093CB20A093CC20B093CD2020916008F0
:100A90003091610850916720503D71F42F3031053D
:100AA00058F40196A11DB11D8093CA209093CB20CC
:100AB000A093CC20B093CD201092CE201092CF20C6
:100AC0008091762090917720A0917820B091792024
:100AD0008093D0209093D120A093D220B093D320A4
:100AE0002091C6202E5F30E02150310912161306E6
:100AF00084F450E060E080E090E0FC01EB53FF4DB7
:100B00008081680F5F5F852F90E082179307ACF3B9
:100B100001C060E0F901EB53FF4D6083809100203C
:100B2000813029F583E88093A200C091A30A9091B7
:100B3000A30A9C7F9093A30A6091C6206E5F85EC08
:100B400090E20E94A8099091A30A8C2F8370892BB0
:100B50008093A30A87E88093A20040917C20842F91
:100B6000837000C0882339F0813019F400C092E00E
:100B700003C091E001C094E080917620892321F0A8
:100B800080E28093660605C046FF03C080E2809342
:100B900065060E944D0180914C0884FF06C080913B
:100BA0006620811102C00E94BF041895CF92DF9287
:100BB000FF920F931F93CF93DF9300D0CDB7DEB793
:100BC0008D3040F4E82FF0E0DF01A15BBF4D9C9138
:100BD000961759F080E00F900F90DF91CF911F9101
:100BE0000F91FF90DF90CF900895EE0FFF1FEB5C09
:100BF000FF4D608171816217730761F7883009F4D6
:100C0000A1C08A3009F45BC08B3009F18C3011F738
:100C10008A01B7E0CB2ED12CF12C0DC0F11010C001
:100C2000C6010E94E70CFFEFCF1ADF0A80E2C81668
:100C3000D10409F43FC0F80161918F016111EECF39
:100C400060E0C6010E94E70CFF24F394ECCFFA01A8
:100C50008081813009F4B9C0823009F4A5C08430A4
:100C600011F081E0B8CF6EEE80E090E00E94E70CDA
:100C700060917C2081E090E00E94E70C80916B20E5
:100C800090916C20892BB1F000E010E0E091692098
:100C9000F0916A20E00FF11F6081C80180960E94E8
:100CA000E70C0F5F1F4F80916B2090916C2008170D
:100CB000190760F383E08093662081E08CCFFA010E
:100CC000808186FD04C080E2809366068081109159
:100CD0007C20837F80937C20FA01808185FF41C046
:100CE00015FF59C083FF10C081E08093B32010929C
:100CF000B1208093B2201092B02080917C20877F19
:100D000080937C20FA018081837079F4812F837035
:100D100009F4A7CF1092B32049835A830E94490156
:100D200049815A81FA0180818370813029F18330B1
:100D300009F097CF1370133009F493CF0E944B0141
:100D400081E049CFFA0180819181A281B3818093B2
:100D5000762090937720A0937820B093792081E03B
:100D60003ACF15FFBFCF49835A830E94480149817A
:100D70005A81FA018081B6CF812F8370813009F4C6
:100D800070CF49835A830E944A0149815A81FA01EE
:100D900080818370CCCF49835A830E944701498167
:100DA0005A81FA0180819ECF80E090E049835A8386
:100DB0000E94D20C49815A818E3E09F00BCF83E00C
:100DC00080936620FA0180814ACF87E990E24983C7
:100DD0005A830E9465016FED80E090E00E94E70C6D
:100DE00083E08093662049815A81FA01808134CF63
:100DF0000E94080B0E944C0180916808909169083C
:100E0000E091672021E02E0F20936720E770F0E04B
:100E1000ED5EFF4D3081830F911D809368089093A4
:100E2000690820FD2DC180910020813071F482E09D
:100E30008093850683E88093A2008091A30A8F7C2B
:100E40008093A30A87E88093A2008091BA20811141
:100E500003C08091B9200FC081508093BA208823AD
:100E600019F08091B92007C01092BA201092B920D1
:100E70001092B420A1C0882309F49EC0A091C5217E
:100E8000B091C6218091C8238F3F59F01091C9239A
:100E90005091CA230091CB232CECE22E23E2F22EB8
:100EA0000AC01091CB235091CC230091CD239EEC0E
:100EB000E92E93E2F92EFD01319681F090E040E0B9
:100EC00020E030E0E901C953DC4D2881420F9F5FEB
:100ED000292F30E02E173F07A8F301C040E0E95367
:100EE000FC4D9081491366C05F3F09F063C090914B
:100EF000C723913099F51D31B0F41D3008F026C19B
:100F0000E12FF0E0E15BFF4D908109131FC1193023
:100F100009F017C1809160089091610880937A2050
:100F200090937B200EC1602F812F0E9457019091DA
:100F30007C2094FD3FC0811103C08091C82306C06E
:100F400041E061E0812F0E948D0134C090E0883F34
:100F5000910584F589E00E9498022CC0CD01049788
:100F6000202F2F70622F70E00E940B0D1D3138F47E
:100F70009B01A701602F812F0E94D60506C09B010F
:100F8000A701602F812F0E94590190917C2094FD30
:100F900011C0882331F041E062E0812F0E948D0171
:100FA00009C08091C82390E0883F91051CF48AE035
:100FB0000E9498021092B92080910020813009F09F
:100FC0005CC08091880680FF46C08091642090912B
:100FD00065200196883B2BE0920729F080936420DE
:100FE000909365203CC010926420109265208091FF
:100FF0007C20982F93709130E9F486FD03C090E235
:1010000090936606982F907F90937C2083FF0BC06F
:101010001092B12081E08093B2201092B020892FED
:10102000877F80937C201092B3200E944901909189
:10103000002001C091E01092B7201092B8201092C9
:10104000B5201092B6208091A30A8C7F8093A30ACA
:10105000913029F012C0109264201092652083E82C
:101060008093A2008091A30A80638093A30A87E8FB
:101070008093A20082E0809386060E944F0102C006
:101080000E94500180916620882339F0815080931E
:101090006620811102C00E944E0C8091B2208823EC
:1010A000E1F08091672083708230B9F48091B020A4
:1010B0008D3060F4893009F04EC020916008309185
:1010C000610820937A2030937B2045C08F5F809306
:1010D000B0208C3111F41092B2208091B32088237B
:1010E00011F1809167208370F1F48091B120E82F95
:1010F000F0E0E45AFF4D6081805E0E945701882332
:1011000039F08091B12041E061E0805E0E948D0164
:101110008091B1208F5F8093B120909168208913D6
:1011200002C01092B3200E944D0180914C0884FFB0
:1011300006C080916620811102C00E94BF041895EC
:1011400011C080917C2084FFFBCE34CF90917C2015
:1011500094FFFCCE2FCF41E061E00E948D01809191
:10116000B020B4CFFF920F931F93CF93DF9300D0A3
:10117000CDB7DEB789839A83F62E142F20E040E0A6
:1011800061E080E896E00E94690C20E040E060E0C9
:1011900080E896E00E94540C01E021E040E063E02A
:1011A00080E896E00E94810C82E08093860683E0CE
:1011B0008093A50A89818093A60A8F2D90E18902E8
:1011C000B00111248A818F70862B8093A70A112386
:1011D00029F08091A40A84608093A40A88E0809317
:1011E000850620E040E063E080E896E00E94690C1C
:1011F00020E040E062E080E896E00E94540C80919C
:10120000880680FF05C08091A30A8C7F8093A30A83
:101210000F900F90DF91CF911F910F91FF90089544
:10122000E0EAFAE084818861848380EE81838381AF
:101230008063838308951F920F920FB60F9211243B
:101240002F933F934F935F936F937F938F939F93CE
:10125000AF93BF93EF93FF930E9453012091B72068
:101260003091B820C90101968093B7209093B8209F
:10127000F901E953FE4D20812093A00A811522E057
:101280009207F9F02091B5203091B6202817390740
:1012900029F48091A30A8C7F8093A30A0E945401B1
:1012A000FF91EF91BF91AF919F918F917F916F913E
:1012B0005F914F913F912F910F900FBE0F901F9014
:1012C00018951092B7201092B82080E090E0DACF05
:1012D0001F920F920FB60F9211242F933F934F93AB
:1012E0005F936F937F938F939F93AF93BF93EF938E
:1012F000FF930E9455018091880680FD23C02091B4
:10130000B7203091B8208091B5209091B620281751
:10131000390729F08091A30A83608093A30A0E9471
:101320005601FF91EF91BF91AF919F918F917F9166
:101330006F915F914F913F912F910F900FBE0F9042
:101340001F9018958091A30A8C7F8093A30AE7CF02
:10135000BF92CF92DF92EF92FF920F931F93CF93A2
:10136000DF936C01B62E8091880680FD05C08091C8
:10137000A30A83608093A30A0091B5201091B62040
:10138000C0E0D2E0C01BD10BEB2CF12CCE15DF0559
:1013900060F1A701B601C80189539E4D0E941F0D3F
:1013A0008091B7209091B820E00EF11EE092B52018
:1013B000F092B620E11422E0F20609F448C00817C2
:1013C0001907B8F5E816F906A0F18FEFE81AF80A40
:1013D000E092B720F092B820E11422E0F20649F53D
:1013E0001092B7201092B82024C0AE01B601C801F7
:1013F00089539E4D0E941F0DBC1AEB2CF12CBE018F
:101400006C0D7D1DA70187EC91E20E941F0D80915C
:10141000B7209091B820E092B520F092B62008173E
:10142000190788F42FEFE21AF20AE092B720F0923F
:10143000B820DF91CF911F910F91FF90EF90DF9037
:10144000CF90BF900895E816F90660F7F2CF10929A
:10145000B5201092B620892B61F781E090E080934F
:10146000B7209093B820E5CF1F920F920FB60F923E
:1014700011242F933F934F935F936F937F938F9399
:101480009F93AF93BF93EF93FF930E94510190916D
:10149000A00AE091B42081E08E0F8093B420F0E0A8
:1014A000E953FC4D90838130E9F0843019F190E0EC
:1014B0002091C5213091C6218217930749F10E94DE
:1014C0005201FF91EF91BF91AF919F918F917F91C9
:1014D0006F915F914F913F912F910F900FBE0F90A1
:1014E0001F9018958091C72381508230D0F11092BF
:1014F000B420E5CF8091C8238F3F01F190E08E3F6B
:101500009105A9F302968093C5219093C621D7CF68
:1015100020910020213061F12091C8232F3F29F133
:1015200022E030E0821B930B8093C5219093C6216B
:101530001092B42081E08093B920C1CF8091C8235C
:101540009091C92304968F3F910509F080F6809110
:10155000C9239091CA2304968093C5219093C621F4
:10156000AECF82E38093BA20AACF24E030E0DACF76
:1015700082E08093850683E88093A2008091A30A8D
:101580008F7C8093A30A87E88093A2008091C52175
:101590009091C621C1CFCF93DF9300D0CDB7DEB7F6
:1015A00023E130E029833A838093C1209093C220C5
:1015B0009C012F5F3F4F2093BF203093C0202F5FAF
:1015C0003F4F2093BD203093BE2003968093BB20D5
:1015D0009093BC2083E08093B50989818093B609FC
:1015E0008A818F708093B70920E040E067E080E651
:1015F00096E00E94690C88E08093B4090F900F90E8
:10160000DF91CF9108951092C3201092C4200895C5
:101610002091C3203091C420C90101968093C3203A
:101620009093C4208430910571F050F0863091057C
:1016300030F08830910538F08E3C974021F00895C5
:1016400022303105E0F721E04CE250E066E080E036
:1016500099E00C94B70CE091C120F091C220208158
:101660002A3A71F4E091BF20F091C02040814F3AB6
:1016700069F41895E091BD20F091BE2080811CC0D6
:10168000E091BF20F091C020908101C0942F9A3A40
:1016900051F4E091BD20F091BE2030813F3A51F4E9
:1016A00018954AEA18C0E091BD20F091BE208081D3
:1016B000492F02C0832F4AEA8A3A51F4E091BB20B5
:1016C000F091BC2080818F3A29F418953AEA03C042
:1016D000382F01C03AEA8091C3209091C420843011
:1016E0009105C9F030F48130910569F0029779F0E5
:1016F00022C087309105A9F08E3C27E09207A1F027
:101700000697C9F40BC08AEA8093B00914C08FEA27
:101710008093B00910C02093B0090DC04093B00968
:101720000AC03093B00907C0E091BB20F091BC2003
:1017300080818093B00980E099E00E94C20C1895E6
:10174000222309F45BC030E23093520038E030933A
:1017500050003091510033FFFCCF611538E473071E
:1017600038EE830731E0930709F482C0611534E253
:10177000730734EF8307910509F47CC0611532E1EA
:1017800073073AE78307910509F44BC0611539E007
:1017900073073DE38307910509F46EC0603834E8B0
:1017A00073073EE18307910509F460C0603432E4B9
:1017B00073073FE08307910509F462C0603231EAA4
:1017C000730737E08307910509F458C0603930ED9D
:1017D000730733E08307910509F454C0683438EE89
:1017E000730731E08307910509F44EC06432744FEA
:1017F0008105910509F04AC084E414C032E23093B7
:1018000052003AE0309350003091510031FFFCCF4C
:101810003091510033FDA1CF3091510033FFF8CF0B
:101820009CCF8CE098ED94BF222399F023E0209385
:10183000400094BF80934100442329F088ED84BF89
:1018400081E08093420088ED84BF81E08093800036
:10185000089521E02093400094BF8093410094BFFD
:1018600082E08093560020936000E6CF8CE1DACFCF
:1018700080E0D8CF84E0D6CF84E1D4CF8CE2D2CF41
:1018800084E2D0CF84E3CECF8CE3CCCF80E0089548
:1018900088ED84BF81E080938000089588ED84BF47
:1018A00083E080938000FFCFFC01308181E090E0F5
:1018B000062E01C0880F0A94EAF78095832380835F
:1018C0007096E60FF11D8081422B807C482B40836F
:1018D0000895FC01308181E090E0062E01C0880F60
:1018E0000A94EAF7382B30837096E60FF11D808159
:1018F000807C842B8083211103C08081876080835A
:1019000008950F93FC013185842F90E0880F991F73
:10191000A3E0B0E0082E01C0AA0F0A94EAF7A09550
:10192000A323082E01C0660F0A94EAF7A62BA1870D
:1019300041110FC00023A9F02287248581E090E0A7
:10194000042E01C0880F0A94EAF7282B24870F91F0
:101950000895413091F7011108C08385822B838758
:10196000ECCF8285822B8287E8CF2387E6CFFC01EC
:1019700010828CE081874150510946A357A32683EA
:1019800060830895FC0110822CE021870895FC01FA
:1019900010828CE081874150510946A357A32683CA
:1019A000608308952091CF0127FDFCCF8093C00173
:1019B0009093C1011092C20186E08093CA0188ED24
:1019C00084BF81E08093CB018091C4010895209170
:1019D000CF0127FDFCCF2091CF0121FF08C026E3D6
:1019E0002093CA0128ED24BF21E02093CB0123E3FB
:1019F0002093CA018093C0019093C1011092C2014B
:101A00006093C40185E38093CA0188ED84BF81E0BF
:101A10008093CB010895AA1BBB1B51E107C0AA1FED
:101A2000BB1FA617B70710F0A61BB70B881F991F7F
:101A30005A95A9F780959095BC01CD010895FB01B9
:101A4000DC0102C001900D9241505040D8F708953A
:041A5000F894FFCF38
:101A540001436C6F636B53796E6368726F6E697A5E
:101A64006572000F10100F100F10106D206F207092
:101A7400207120722073207420752076207A207CB7
:101A8400207D207E200100010001000100010001F1
:101A94000001000100010001000100010019000221
:0C1AA40001010101010101040201010126
:00000001FF
