:1000000049C100006DC100006BC1000069C1000062
:1000100067C1000065C1000063C1000061C100004C
:100020005FC100005DC100005BC1000059C100005C
:1000300057C1000055C100000C942C2951C100008B
:100040000C9452290C9478290C94FE290C940C2AB7
:100050000C94AE3345C100000C94113641C1000030
:100060003FC100003DC100003BC1000039C100009C
:100070000C94323A35C1000033C1000031C1000098
:100080002FC100002DC100002BC1000029C10000BC
:1000900027C1000025C1000023C1000021C10000CC
:1000A0001FC100001DC100001BC1000019C10000DC
:1000B00017C1000015C1000013C100000C94CB2B28
:1000C0000FC100000DC100000BC1000009C10000FC
:1000D00007C100000C948B0803C1000001C100009F
:1000E000FFC00000FDC00000FBC00000F9C0000020
:1000F000F7C00000F5C00000F3C00000F1C0000030
:100100000C94C72DEDC000000C943F2CE9C00000FA
:10011000E7C00000E5C00000E3C00000E1C000004F
:10012000DFC00000DDC00000DBC00000D9C000005F
:10013000D7C000000C94AB08D3C00000D1C00000B1
:10014000CFC00000CDC00000CBC000000C94BD08A3
:10015000C7C00000C5C00000C3C00000C1C000008F
:100160000C944C2E0C94A72DBBC00000B9C000000D
:10017000B7C00000B5C00000B3C00000B1C00000AF
:100180000C941A2A0C94DD270C9489380C94B82B03
:100190000C94E92AA5C00000A3C00000A1C0000083
:1001A0009FC000009DC000009BC0000099C00000DF
:1001B0000C94CF2C95C0000093C0000091C00000AB
:1001C0008FC000008DC000008BC0000089C00000FF
:1001D00087C0000085C0000083C000000C94613916
:1001E0000C942D387DC000007BC0000079C0000059
:1001F00077C0000075C0000073C00000CE19C6199A
:10020000BE19B619EC19DC19E41949191419A21709
:100210006E195419A6199E19AE192F199319881918
:10022000A217C717E717071827184718671887185E
:10023000A718C618E41BDC1BD41BCC1BC41BBC1B9F
:10024000B41BAC1B971B281A6B1B631B5B1B531B3C
:100250004B1B431B3B1B331B281AF31AEB1AE01AE8
:10026000D51ACA1AB51A9B1A811A071A281A4A1ED1
:100270001F1EF41DC91D9E1D731D481D1D1DF21C52
:10028000D01CAC1C881C641C401C1C1CF81B111BC3
:10029000731B4D1A11241FBECFEFCDBFDFE3DEBFAE
:1002A00000E00CBF18BE19BE1ABE1BBE12E2A0E0D1
:1002B000B0E2EAEFF5E700E00BBF02C007900D9255
:1002C000AC3BB107D9F71BBE2EE3ACEBB2E201C0E9
:1002D0001D92A63AB207E1F70E94FF2C0C94FB3A5C
:1002E0008FCE482F50E041505109FA01E050F04EB6
:1002F000608188E080930607809306078093060755
:1003000084E08093260792E0909326079093260737
:1003100090932607909325079093250790932507A0
:10032000909326078093260790932607909326079D
:100330009093260790932507909325079093250780
:10034000909326078093250790932607909326077E
:100350009093260790932507909325079093250760
:1003600090932607262F30E067FDDCC18093260797
:1003700082E0809326078093260780932607809348
:100380002507809325078093250780932607C901B9
:10039000880F991F87FDFFC184E08093260782E0C4
:1003A000809326078093260780932607809325074E
:1003B000809325078093250780932607C901880F1E
:1003C000991F880F991F87FDE2C184E0809326075B
:1003D00082E08093260780932607809326078093E8
:1003E0002507809325078093250780932607C90159
:1003F000880F991F880F991F880F991F87FDC3C108
:1004000084E08093260782E0809326078093260766
:1004100080932607809325078093250780932507DF
:1004200080932607C90182959295907F9827807FB7
:10043000982787FDA4C184E08093260782E08093FB
:1004400026078093260780932607809325078093AD
:1004500025078093250780932607C901880F991FD8
:1004600082959295907F9827807F982787FD83C1FA
:1004700084E08093260782E08093260780932607F6
:10048000809326078093250780932507809325076F
:1004900080932607C9010024969587950794969521
:1004A00087950794982F802D87FD61C184E0809304
:1004B000260782E0809326078093260780932607ED
:1004C000809325078093250780932507809326072F
:1004D0003695322F22273795279584E027FF44C190
:1004E0008093250792E09093260790932607909398
:1004F00026079093250790932507909325079093BF
:10050000260728E020930507FA01E05EFF4D3081C1
:1005100020930607209306072093060724E02093E4
:10052000260790932607909326079093260790938B
:1005300025079093250790932507909326072093EE
:10054000260790932607909326079093260790936B
:1005500025079093250790932507909326072093CE
:10056000260790932607909326079093260790934B
:100570002507909325079093250790932607832FAF
:1005800090E037FDEEC02093260722E02093260757
:1005900020932607209326072093250720932507DD
:1005A00020932507209326079C01220F331F27FD48
:1005B000D4C024E02093260722E02093260720932E
:1005C00026072093260720932507209325072093AD
:1005D0002507209326079C01220F331F220F331F6C
:1005E00027FDB7C024E02093260722E020932607AA
:1005F000209326072093260720932507209325077D
:1006000020932507209326079C01220F331F220FDA
:10061000331F220F331F27FD98C024E020932607A5
:1006200022E0209326072093260720932607209375
:1006300025072093250720932507209326079C0153
:1006400022953295307F3227207F322727FD79C0CF
:1006500024E02093260722E02093260720932607F4
:10066000209326072093250720932507209325070D
:10067000209326079C01220F331F22953295307F4D
:100680003227207F322727FD58C024E020932607F9
:1006900022E0209326072093260720932607209305
:1006A00025072093250720932507209326079C01E3
:1006B0000024369527950794369527950794322F71
:1006C000202D27FD36C024E02093260722E020932A
:1006D000260720932607209326072093250720939B
:1006E000250720932507209326079695982F88277E
:1006F0009795879587FF19C084E08093250782E04E
:1007000080932607809326078093260780932507EA
:1007100080932507809325078093260788E08093A0
:10072000050708958093250723CE84E0809326074C
:10073000E6CF24E020932507C9CF24E020932507A6
:10074000A7CF24E02093250786CF24E02093250718
:1007500067CF24E02093250748CF24E02093250786
:100760002BCF2093250711CF80932607BBCE84E0A3
:10077000809325079ECE84E0809325077CCE84E07D
:10078000809325075BCE84E0809325073CCE84E0F0
:10079000809325071DCE84E08093250700CE482F47
:1007A00050E041505109FA01E050F04E608180E282
:1007B00080930607809306078093060784E0809362
:1007C000260792E09093260790932607909326079A
:1007D00090932507909325079093250790932607DC
:1007E00080932607909326079093260790932607D9
:1007F00090932507909325079093250790932607BC
:1008000080932507909326079093260790932607B9
:10081000909325079093250790932507909326079B
:10082000262F30E067FDDCC18093260782E08093AD
:1008300026078093260780932607809325078093B9
:1008400025078093250780932607C901880F991FE4
:1008500087FDFFC184E08093260782E0809326070E
:10086000809326078093260780932507809325078A
:100870008093250780932607C901880F991F880F49
:10088000991F87FDE2C184E08093260782E0809370
:100890002607809326078093260780932507809359
:1008A00025078093250780932607C901880F991F84
:1008B000880F991F880F991F87FDC3C184E080931B
:1008C000260782E0809326078093260780932607D9
:1008D000809325078093250780932507809326071B
:1008E000C90182959295907F9827807F982787FDF0
:1008F000A4C184E08093260782E08093260780933A
:1009000026078093260780932507809325078093E9
:10091000250780932607C901880F991F8295929514
:10092000907F9827807F982787FD83C184E08093FC
:10093000260782E080932607809326078093260768
:1009400080932507809325078093250780932607AA
:10095000C9010024969587950794969587950794E5
:10096000982F802D87FD61C184E08093260782E067
:100970008093260780932607809326078093250778
:100980008093250780932507809326073695322F7D
:1009900022273795279584E027FF44C180932507B8
:1009A00092E09093260790932607909326079093C2
:1009B000250790932507909325079093260720E21B
:1009C00020930507FA01E05EFF4D30812093060772
:1009D000209306072093060724E020932607909390
:1009E00026079093260790932607909325079093C8
:1009F0002507909325079093260720932607909329
:100A000026079093260790932607909325079093A7
:100A10002507909325079093260720932607909308
:100A20002607909326079093260790932507909387
:100A300025079093250790932607832F90E037FD95
:100A4000EEC02093260722E0209326072093260756
:100A50002093260720932507209325072093250719
:100A6000209326079C01220F331F27FDD4C024E0CA
:100A70002093260722E02093260720932607209321
:100A800026072093250720932507209325072093E9
:100A900026079C01220F331F220F331F27FDB7C0EB
:100AA00024E02093260722E02093260720932607A0
:100AB00020932607209325072093250720932507B9
:100AC000209326079C01220F331F220F331F220F72
:100AD000331F27FD98C024E02093260722E02093AF
:100AE0002607209326072093260720932507209387
:100AF000250720932507209326079C0122953295F0
:100B0000307F3227207F322727FD79C024E02093D1
:100B1000260722E020932607209326072093260706
:100B20002093250720932507209325072093260748
:100B30009C01220F331F22953295307F3227207F70
:100B4000322727FD58C024E02093260722E0209377
:100B50002607209326072093260720932507209316
:100B6000250720932507209326079C01002436950E
:100B700027950794369527950794322F202D27FD2A
:100B800036C024E02093260722E0209326072093F6
:100B900026072093260720932507209325072093D7
:100BA0002507209326079695982F88279795879550
:100BB00087FF19C084E08093250782E08093260791
:100BC0008093260780932607809325078093250727
:100BD000809325078093260780E280930507089578
:100BE0008093250723CE84E080932607E6CF24E078
:100BF00020932507C9CF24E020932507A7CF24E021
:100C00002093250786CF24E02093250767CF24E093
:100C10002093250748CF24E0209325072BCF20934E
:100C2000250711CF80932607BBCE84E0809325074C
:100C30009ECE84E0809325077CCE84E080932507B8
:100C40005BCE84E0809325073CCE84E0809325072B
:100C50001DCE84E08093250700CE482F50E0415000
:100C60005109FA01E050F04E608180E88093060758
:100C7000809306078093060784E08093260792E01E
:100C80009093260790932607909326079093250725
:100C90009093250790932507909326078093260726
:100CA0009093260790932607909326079093250705
:100CB0009093250790932507909326078093250707
:100CC00090932607909326079093260790932507E5
:100CD000909325079093250790932607262F30E0C1
:100CE00067FDDCC18093260782E08093260780930E
:100CF00026078093260780932507809325078093F6
:100D0000250780932607C901880F991F87FDFFC11A
:100D100084E08093260782E080932607809326074D
:100D200080932607809325078093250780932507C6
:100D300080932607C901880F991F880F991F87FD87
:100D4000E2C184E08093260782E0809326078093A7
:100D50002607809326078093250780932507809395
:100D6000250780932607C901880F991F880F991FAF
:100D7000880F991F87FDC3C184E08093260782E016
:100D80008093260780932607809326078093250764
:100D9000809325078093250780932607C9018295B4
:100DA0009295907F9827807F982787FDA4C184E043
:100DB0008093260782E080932607809326078093FE
:100DC0002607809325078093250780932507809326
:100DD0002607C901880F991F82959295907F9827C1
:100DE000807F982787FD83C184E08093260782E077
:100DF00080932607809326078093260780932507F4
:100E0000809325078093250780932607C901002436
:100E1000969587950794969587950794982F802D9A
:100E200087FD61C184E08093260782E080932607D6
:100E300080932607809326078093250780932507B4
:100E400080932507809326073695322F22273795E2
:100E5000279584E027FF44C18093250792E0909373
:100E60002607909326079093260790932507909343
:100E70002507909325079093260720E820930507E0
:100E8000FA01E05EFF4D30812093060720930607AC
:100E90002093060724E0209326079093260790933B
:100EA0002607909326079093250790932507909304
:100EB0002507909326072093260790932607909363
:100EC00026079093260790932507909325079093E4
:100ED0002507909326072093260790932607909343
:100EE00026079093260790932507909325079093C4
:100EF000250790932607832F90E037FDEEC02093BF
:100F0000260722E020932607209326072093260712
:100F10002093250720932507209325072093260754
:100F20009C01220F331F27FDD4C024E02093260705
:100F300022E020932607209326072093260720935C
:100F400025072093250720932507209326079C013A
:100F5000220F331F220F331F27FDB7C024E0209339
:100F6000260722E0209326072093260720932607B2
:100F700020932507209325072093250720932607F4
:100F80009C01220F331F220F331F220F331F27FD17
:100F900098C024E02093260722E020932607209380
:100FA00026072093260720932507209325072093C3
:100FB0002507209326079C0122953295307F322702
:100FC000207F322727FD79C024E02093260722E0E6
:100FD0002093260720932607209326072093250792
:100FE0002093250720932507209326079C01220F95
:100FF000331F22953295307F3227207F322727FDFD
:1010000058C024E02093260722E02093260720934F
:101010002607209326072093250720932507209352
:101020002507209326079C010024369527950794D1
:10103000369527950794322F202D27FD36C024E0C2
:101040002093260722E0209326072093260720934B
:101050002607209325072093250720932507209313
:1010600026079695982F88279795879587FF19C00B
:1010700084E08093250782E08093260780932607EB
:101080008093260780932507809325078093250763
:101090008093260780E880930507089580932507AD
:1010A00023CE84E080932607E6CF24E02093250713
:1010B000C9CF24E020932507A7CF24E0209325075C
:1010C00086CF24E02093250767CF24E020932507CF
:1010D00048CF24E0209325072BCF2093250711CF5D
:1010E00080932607BBCE84E0809325079ECE84E0C4
:1010F000809325077CCE84E0809325075BCE84E037
:10110000809325073CCE84E0809325071DCE84E0A4
:101110008093250700CE80E49AE00E94C82F21E04A
:101120004AEF50E065E080E099E00E94AD2F109218
:10113000352381E080933423E0EEF6E088E3858375
:101140008583868321E040E250E061E080E499E01D
:101150000E94BD2F189581E080933423E0EEF6E0E5
:1011600088E385838583868321E040E250E061E067
:1011700080E499E00E94BD2F18958091342387FD6B
:101180000BC098E39093E5069093E5069093E606EE
:101190008F5F8093342338C1803809F035C180E4F3
:1011A00099E00E94C82F84E5809385068093860687
:1011B000809385068091880683FF03C020E030E29B
:1011C00002C020E030E08091880685FF03C080E007
:1011D00090E202C080E090E040918806042E000C6E
:1011E000550B4427550F441F5527542F442752951C
:1011F000550F507E64E56093860660938506609186
:10120000880663FD30616091880665FD906160919C
:10121000880667FD506164E56093860660938506E5
:101220006091880663FD38606091880665FD98606E
:101230006091880667FD586064E560938606609358
:1012400085066091880663FD34606091880665FDBF
:1012500094606091880667FD546064E5609386063B
:10126000609385066091880663FD32606091880610
:1012700065FD92606091880667FD526064E5609349
:101280008606609385066091880663FD31606091F3
:10129000880665FD91606091880667FD516064E590
:1012A00060938606609385066091880663FD2068DA
:1012B0006091880665FD80686091880667FD4068DA
:1012C00064E560938606609385066091880663FDF9
:1012D00020646091880665FD80646091880667FDE2
:1012E000406464E560938606609385066091880695
:1012F00063FD20626091880665FD806260918806CA
:1013000067FD406264E560938606609385066091A0
:10131000880663FD20616091880665FD80616091AB
:10132000880667FD406164E56093860660938506E4
:101330006091880663FD28606091880665FD88607D
:101340006091880667FD486064E560938606609357
:1013500085066091880663FD24606091880665FDBE
:1013600084606091880667FD446064E5609386064A
:10137000609385066091880663FD2260609188060F
:1013800065FD82606091880667FD426064E5609358
:101390008606609385066091880663FD21606091F2
:1013A000880665FD81606091880667FD416064E59F
:1013B00060938606A09135236A2F70E0FB01EE0F43
:1013C000FF1F6E0F7F1FFB01EE0FFF1FEF53FC4D42
:1013D00020833183FB01EE0FFF1FED53FC4D808313
:1013E0009183660F771FFB01EB53FC4D40835183C4
:1013F00081E08A0F80933523843031F410923523B5
:1014000061E086E40E94B73418958F92AF92BF9244
:10141000CF92DF92EF920F938AE392E29F938F93A2
:1014200087E3882E94EFA92EB12C26E6C22E23E264
:10143000D22EE12C05E022E040E062E080E198E07D
:101440000E9433320F900F900F91EF90DF90CF906A
:10145000BF90AF908F900895E0E8F6E081E086833A
:1014600082E0868380E098E00E94B82F80E090E0E0
:101470000E941C1F80E090E00E94502080E090E0DD
:101480000E94842110927E238EE793E2C9C5CF93F8
:1014900021E040E060E080EE96E00E945F2FC1E036
:1014A000C093E60621E040E061E080E496E00E941F
:1014B0005F2F21E040E064E080E496E00E945F2F2F
:1014C00021E040E065E080E496E00E945F2F80E04C
:1014D00090E00E94B8220E94831E2FEF8FE493ECCD
:1014E000215080409040E1F700C000000E94931E10
:1014F0002FEF87EA91E6215080409040E1F700C04D
:10150000000087E00E94BD1E81E20E94F21E2FEFC4
:1015100083ED90E3215080409040E1F700C000004F
:101520000E948B1E0E94512E2FEF83ED90E32150DD
:1015300080409040E1F700C000000E9425140E9406
:10154000251682E380933E238091080782FFC09393
:101550003422CF910895E6E6F3E281E390E58083BB
:10156000918314821582168217821086118688EF65
:101570009FE7808B918B87E0828B138A92E0948B1C
:10158000958B86E0868B108E118E128E24E630E0CD
:10159000238F348F22E330E0258F368F2AE030E02E
:1015A000278F30A311A225E332E822A333A314A28C
:1015B00015A281E086A387A315A692AB94E093AB16
:1015C00084AB83E08093B82384E294EF8093B923C3
:1015D0009093BA2380ED97E08093BB239093BC2334
:1015E00080E392EF8093BD239093BE231092BF239C
:1015F0001092C023E0EEF3E2108211821282138275
:1016000014821582168217828CE390EF8093E82370
:101610009093E9238093EA239093EB230895CF934B
:10162000DF9386E693E269D30E94702C88E793E209
:10163000E8D3C6E6D3E21B8A8AE793E2FDD38BE7C1
:1016400093E213D48CE793E229D481E993E219D68B
:101650000E94082D0E94CA1E18AA19AADF91CF91D4
:101660000895809178230C94A31E80E00C94A31E0F
:10167000CF931092C522C1E0C0936024C093BD22D5
:1016800010927E238EE793E2CBD480E098E00E9414
:10169000B82F80E090E00E941C1F80E090E00E9444
:1016A000502080E090E00E9484210E94082DE0E814
:1016B000F6E0C68382E08683CF91089581E080932F
:1016C000C5220C94082D0895089508958091412015
:1016D000893019F18A30A9F0883021F08F5F80932A
:1016E0004120089584EC80933F2384E0809340233D
:1016F00081E08093BC221092402089E080934120B9
:10170000089582EC80933F2383E08093BC22109263
:10171000402081E080934120089581EC80933F2315
:1017200082E08093BC22109240208AE08093412086
:10173000089580914020811108C08091BC228230A0
:1017400029F08330D9F0813091F0089561E08EE383
:1017500093E20E94F819809340208823B1F380918E
:1017600040238F771092D9238093DA2308958EE354
:1017700093E20E94931780934020089561E08EE3E6
:1017800093E20E94F819809340208823F1F220917F
:1017900040238091D9239091DA23822B8093D923FF
:1017A0009093DA2361E087E40C94B734809144206D
:1017B00087FD05C08150809344208F3F51F0809178
:1017C000352287FD05C08150809335228F3F69F017
:1017D000089581E08093050780E88093E606809372
:1017E000E50682E080930607EACF0C94AB2C0895BF
:1017F0000895089508950895089590EE980F9733E9
:1018000040F490E08097FC01E350FE4D20812617C4
:1018100011F080E00895880F991FFC01ED54FF4DF1
:101820000190F081E02D199581E0089590EE980FD8
:10183000973348F4E82FF0E0B097DF01A350BE4D96
:101840009C91961711F080E00895EE0FFF1FDF01C5
:10185000A157BE4D8D919C9182179307A1F7EB5B29
:10186000FF4D0190F081E02DCA011994109266237A
:10187000109267238091280681FF53C081E090E099
:10188000809366239093672333E020E040912806FD
:1018900040FF06C03093662320936723832F922F47
:1018A0002091E80620FD04C02091280723FD4AC0AE
:1018B0002091E80620FF04C02091280723FF3CC0A8
:1018C0002091E80620FF04C02091280723FD2EC0A8
:1018D0002091080720FD05C08062809366239093C5
:1018E00067232091E80627FD33C0209144202F3F35
:1018F00009F0806420914220222389F09061209198
:101900004320222331F090648093662390936723D1
:10191000089590688093662390936723089590625A
:10192000EECF32E020E080E090E0B0CF80618093A5
:10193000662390936723CCCF88608093662390932F
:101940006723BECF84608093662390936723B0CFD4
:101950008064CBCFFC018081918180936823909338
:10196000692381E00895FC018081918120914320C9
:10197000222321F0813CFFE89F0730F480936A2303
:1019800090936B2381E0089580E00895FC018081AD
:10199000918120914320222321F0813CFFE89F0781
:1019A00030F480936C2390936D2381E0089580E060
:1019B0000895FC018081918120914320222321F010
:1019C000813CFFE89F0730F480936E2390936F2350
:1019D00081E0089580E008958091080685FB8827BE
:1019E00080F980937D2308958091000A8111809170
:1019F0007E2380937E230895FC01808191819C0148
:101A0000225031092F353A4E30F480938123909340
:101A1000822381E0089580E00895FC018081918116
:101A20009C012150310920363A4E30F480938323B3
:101A30009093842381E0089580E00895FC018081E3
:101A40009181809385239093862381E00895FC0102
:101A5000808191819C012858334121363A4E30F4DF
:101A6000809388239093892381E0089580E00895EE
:101A7000FC018081982F9C7F21F480938A2381E050
:101A8000089580E00895FC018081982F9C7F21F4C7
:101A900080938B2381E0089580E00895FC0180818C
:101AA000982F907F21F480938C2381E0089580E02B
:101AB0000895FC018081982F907F21F480938D23DD
:101AC00081E0089580E0089580918806982F9170B4
:101AD00080FF09C028E198E08091880681FD922F5F
:101AE00090939123089520E1F7CF8091E8068695A1
:101AF0008170809392239091280796FD05C090E015
:101B0000892B80939223089592E0892B80939223CE
:101B1000089580E00895DC019096E8EBF3E28E9161
:101B2000829383E2E839F807D1F781E00895FC0158
:101B30008081803220F48093B82381E0089580E092
:101B40000895FC01808191819C0128583341213600
:101B50003A4E30F48093B9239093BA2381E00895EC
:101B600080E00895FC0180819181883EFDEF9F0710
:101B700030F48093BB239093BC2381E0089580E0F0
:101B80000895FC0180819181883EFDEF9F0730F42C
:101B90008093BD239093BE2381E0089580E0089553
:101BA000FC018081982F9C7F21F48093BF2381E0EA
:101BB000089580E00895FC01808191818093C12384
:101BC0009093C22381E00895FC01808191818093EC
:101BD000D9239093DA2381E00895FC0180818093DA
:101BE000DB2381E00895FC0180818093DC2381E088
:101BF0000895FC0180818093DD2381E00895FC013C
:101C000080818093DE2381E00895FC0180818093B0
:101C1000DF2381E00895FC0170816181528143815D
:101C20003481258196818781E0EEF3E270836183C0
:101C300052834383348325839683878381E0089589
:101C4000FC01808191818093E8239093E92381E0D6
:101C50000895FC01808191818093EA239093EB2386
:101C600081E00895FC01808191818093EC23909321
:101C7000ED2381E00895FC01808191818093FC2314
:101C80009093FD2381E00895FC01808191818093F0
:101C90000C2490930D2481E00895FC0180819181B2
:101CA00080931C2490931D2481E00895FC01808181
:101CB000918180932C2490932D2481E00895FC0140
:101CC0008081918180933C2490933D2481E008950C
:101CD0000895FC018081918180934C2490934D2440
:101CE00081E00895FC018081918180937F2390930E
:101CF00080230E94082D81E00895CF93DF93FC019B
:101D0000C081D181C0936123D0936223C0FF06C0FC
:101D100081E08093260682E080932506C1FF06C0FD
:101D200082E08093260681E080932506C2FF06C0EC
:101D300081E08093E60688E080932507C3FF0AC010
:101D40008091E80680FF44C081E08093E50688E04A
:101D500080932607C4FF0AC08091E80680FF34C044
:101D600081E08093E50688E0809325070E94082D96
:101D7000C5FF0EC08FEF8093442082E0809305075B
:101D800081E08093050790E89093E606809306072C
:101D9000C6FF03C08AE080934420C7FD1DC0D4FF66
:101DA00003C081E080934220D5FD10924220D6FFEF
:101DB00003C081E080934320D7FD1092432056DD7D
:101DC00081E0DF91CF91089581E080938606C8CFAE
:101DD00081E080938606B8CF0E949B1EE0CFCF9310
:101DE000DF93FC01C081D181CE01969587950E9439
:101DF000B822C0937623D093772381E0DF91CF91EF
:101E00000895CF93FC01C081C03108F0CFE08C2F42
:101E10000E94A31EC093782381E0CF910895CF93B1
:101E2000FC01C081C7FDCFE78C2F0E94DE1EC0934E
:101E3000792381E0CF910895CF93FC01C081CC2319
:101E400059F0C13208F0C0E28C2F0E947101C0939A
:101E50007A2381E0CF910895C1E08C2F0E94710117
:101E6000C0937A2381E0CF910895CF93FC01C08184
:101E7000CC2359F0C13208F0C0E28C2F0E94CF036E
:101E8000C0937B2381E0CF910895C1E08C2F0E9405
:101E9000CF03C0937B2381E0CF910895CF93FC01C2
:101EA000C081CC2359F0C13208F0C0E28C2F0E94CF
:101EB0002D06C0937C2381E0CF910895C1E08C2F43
:101EC0000E942D06C0937C2381E0CF910895CF938B
:101ED000FC01C0818C2F8C7F79F48FEF8C0F8230C6
:101EE00070F0C11104C08091000B81112CC0C0930F
:101EF000872381E0CF91089580E0CF91089580916C
:101F0000000B8111F4CF409188235091892356957D
:101F100047955695479521E065E080E09BE00E945B
:101F2000AD2F81E080938506809192238F74846425
:101F30008093922361E08CE30E94B734C23039F081
:101F40001092C222D4CF81E08093C222D0CF61E030
:101F500082E30E94B734F4CFCF93DF93EC01888102
:101F600080FF0AC088E080932606809326061092A0
:101F7000C12280932506888181FF0AC080E8809372
:101F80002606809326061092C0228093250688811B
:101F900082FF0AC080E28093260680932606109274
:101FA000BF2280932506888183FD29C084FD18C047
:101FB00085FF04C081E080934606888186FF04C0C7
:101FC00080E28093A606888187FF04C080E1809329
:101FD000A606888180938F2381E0DF91CF910895B9
:101FE00082E0809386068091922387788068809330
:101FF000922361E08CE30E94B7348881D9CF81E0DD
:1020000080938606809192238B74806480939223C0
:1020100061E08CE30E94B7340E94082D8881C6CF0E
:10202000CF93FC01C0818C2F8C7F51F520918323AD
:10203000309184238091812390918223821793078A
:10204000F8F08FEF8C0F8330F0F0C11127C0809132
:102050000708807F09F095C08091000A811108C0AF
:102060008091080685FF1AC08091E80680FF16C09F
:1020700081E08093860680E09AE00E94B82F5CC0E1
:1020800080E0CF91089580917F2390918023823CBE
:10209000F1E09F0741F08B37924029F0C0937E23F7
:1020A00081E0CF9108958091E80680FF08C080917B
:1020B000E80680FFF3CF8091080685FFEFCFC3309D
:1020C000F1F5809100088823B9F18091E82390917F
:1020D000E9232091EA233091EB238217930760F5DF
:1020E0004091BB235091BC234817590728F54091D4
:1020F000B9235091BA2324173507F0F496958795A4
:10210000019780932C0890932D08C9019695879587
:10211000019780932E0890932F0880910C08806C73
:1021200080930C0880910708806180930708809154
:1021300007088064809307080E94082DAFCF21E034
:102140004DE750E066E080E09AE00E94AD2F81E02C
:1021500080938506109262241092632410925E246C
:1021600010925F2410925C2410925D24809192233F
:102170008F7484648093922361E08CE30E94B7346F
:10218000DBCF809107088F708093070881E08093F0
:1021900086060E94082D60CFCF93DF93EC018881E3
:1021A00080FD67C081FD5DC082FD44C083FF14C017
:1021B0008091E80680FD2AC081E0809385068091A9
:1021C00092238F7484648093922361E08CE30E9455
:1021D000B7340E94082D888184FD34C085FF04C077
:1021E00081E080934506888186FF04C080E2809369
:1021F000A506888187FF04C080E18093A5068881B9
:1022000080938E2381E0DF91CF9108958091E8063D
:1022100080FFD5CF8091080685FFD1CF80917F23A5
:1022200090918023823C21E0920731F28B379240DB
:1022300031F6C2CF80916E2390916F230E9484214A
:102240008881B4CF82E080938506809192238F7835
:1022500088688093922361E08CE30E94B734888180
:10226000BDCF80916C2390916D230E945020888176
:102270009BCF80916A2390916B230E941C1F8881C1
:1022800091CFCF93DF93EC01888180FDB0C088E0CF
:1022900080932606809326061092C12280932506FD
:1022A000888181FD9DC080E8809326068093260664
:1022B0001092C02280932506888182FD7AC080E238
:1022C00080932606809326061092BF2280932506CF
:1022D000888183FF77C08091E80680FD38C081E067
:1022E00080938506809192238F74846480939223D7
:1022F00061E08CE30E94B734888184FF4CC082E0A7
:1023000080938506809192238F78886880939223AA
:1023100061E08CE30E94B734888185FF38C081E09A
:1023200080934506888186FF28C080E28093A506B9
:10233000888187FD28C080E18093A6060E94082D31
:1023400088818093912381E0DF91CF9108958091DE
:10235000E80680FFC7CF8091080685FFC3CF809134
:102360007F2390918023823C21E0920709F4B7CF2C
:102370008B37924009F0B6CFB2CF80E28093A606A9
:10238000888187FFD8CF80E18093A506D7CF81E0F1
:1023900080934606C7CF82E0809386068091922381
:1023A000877880688093922361E08CE30E94B73441
:1023B000B3CF80916E2390916F230E9484218881F6
:1023C00083FD89CF81E080938606809192238B7470
:1023D00080648093922361E08CE30E94B7348CCFB9
:1023E00080916C2390916D230E94502065CF809145
:1023F0006A2390916B230E941C1F52CFCF93DF93CF
:10240000EC01888180FD5FC081FD55C082FD4BC01D
:1024100083FF18C08091880680FD73C08091E80614
:1024200080FD59C081E080938506809192238F744E
:1024300084648093922361E08CE30E94B7340E940D
:10244000082D888184FF12C082E0809387068091E6
:10245000880681FD23C080919223877880688093CD
:10246000922361E08CE30E94B734888185FF04C029
:1024700081E080934706888186FF04C080E28093D4
:10248000A706888187FF04C080E18093A706888122
:102490008093902381E0DF91CF91089580919223E2
:1024A0008F788868DCCF80916E2390916F230E9493
:1024B0009B268881ADCF80916C2390916D230E94E3
:1024C00059258881A3CF80916A2390916B230E9424
:1024D0001724888199CF8091E80680FFA6CF80914C
:1024E000080685FFA2CF80917F2390918023823CB4
:1024F00021E0920709F496CF8B37924009F095CFEF
:1025000091CF81E080938606809192238B748064C2
:102510008093922361E08CE30E94B73490CFCF93F5
:10252000FC01C081CC2349F08091400A882371F0DE
:10253000C093C02381E0CF91089580E099E00E948C
:10254000B82FC093C02381E0CF91089521E048E0E7
:1025500050E067E080E49AE00E94BD2FC093C02362
:1025600081E0CF910895FC018091432081111AC030
:102570008081918180936A2390936B2382819381E0
:1025800080936C2390936D238481958180936E2337
:1025900090936F2380819181809370239093712316
:1025A00081E0089580819181813C2FE8920728F491
:1025B00022813381213C3F48E8F280E00895109267
:1025C000932380910008882361F035E091E123E0B6
:1025D00080918723813061F0823069F0909393235A
:1025E00008953CE098E12AE0809187238130A1F7AB
:1025F00020939323089530939323089580E00895C2
:1026000080E008950895089508950895089508951F
:1026100008950895089508950895089508950895D2
:1026200008950895089508950895089508950895C2
:1026300008950895089508950895089508950895B2
:1026400008950895089508950895089508950895A2
:102650000895089508950895089508950895089592
:1026600008950895CF93FC01C081C0FF04C08091FC
:102670000008882301F1C1FD78C0C2FD7FC0C3FD01
:1026800007C0C4FD0EC0C093932381E0CF9108958D
:10269000809100088823A9F381E080936024C4FF1F
:1026A000F2CF8091000B882319F081E08093C22241
:1026B00010928723E8CF10926024109261244091F9
:1026C000BB235091BC232091B9233091BA234217E8
:1026D0005307E0F66091BD237091BE236217730724
:1026E000A8F681E080934606109200089CE0909343
:1026F00009083695279521503109209326083093F3
:102700002708569547954150510940932808509302
:102710002908769567956150710960932A0870932E
:102720002B0880930608809307089091070894600F
:102730009093070893E19093010895E09093000827
:1027400090918A23923019F180918B23823081F10C
:102750008091400A81118FCF21E047E050E067E08F
:1027600080E49AE00E94BD2F86CF8091000B8823E1
:1027700061F181E080938723C2FF81CF8091000BBC
:10278000882309F440C082E08093872378CF90911A
:10279000E80690FDD9CF80938506809192238F74AF
:1027A00084648093922361E08CE30E94B734CCCFA1
:1027B00080938506809192238F78886880939223F6
:1027C00061E08CE30E94B734C3CF409188235091DD
:1027D0008923569547955695479521E065E080E019
:1027E0009BE00E94AD2F81E080938506809192232B
:1027F0008F7484648093922361E08CE30E94B734E9
:102800001092C222B6CF40918823509189235695C9
:1028100047955695479521E065E080E09BE00E9452
:10282000AD2F81E080938506809192238F7484641C
:102830008093922361E08CE30E94B73461E082E3ED
:102840000E94B7341092C2229ECFCF92DF92EF92B5
:10285000FF920F931F93CF93DF9320E040E065E05A
:1028600080E096E00E944A2F20E048E167E080E0A7
:1028700096E00E944A2F20E040E161E080EE96E081
:102880000E944A2F20E040E166E080E297E00E944B
:102890004A2F20E040E063E080E896E00E944A2F63
:1028A00020E040E065E080E896E00E944A2F20E0CA
:1028B00040E067E080E896E00E944A2F20E048E18F
:1028C00062E080E097E00E944A2F20E040E062E072
:1028D00080EE96E00E944A2F20E040E164E080E62E
:1028E00096E00E944A2F20E040E166E080E696E014
:1028F0000E944A2F20E040E166E080EA96E00E94D4
:102900004A2F20E040E167E080EA96E00E944A2FEB
:1029100020E040E161E080E096E00E944A2F20E064
:1029200040E162E080E096E00E944A2F20E040E132
:1029300062E080E496E00E944A2F20E040E163E0FC
:1029400080E496E00E944A2F00E020E240E061E04F
:1029500080E096E00E94772F22E040E061E080EE88
:1029600096E00E94772F20E440E061E080E297E06B
:102970000E94772F24E041E061E080E097E00E9430
:10298000772F24E041E061E080EE96E00E94772F0F
:1029900021E040E060E080EE96E00E945F2F21E0C1
:1029A00040E063E080E297E00E945F2F21E040E09A
:1029B00064E080E297E00E945F2F21E040E060E069
:1029C00080E896E00E945F2F21E040E061E080E82F
:1029D00096E00E945F2F21E040E065E080E297E012
:1029E0000E945F2F21E040E067E080E297E00E94D4
:1029F0005F2F21E040E060E080E296E00E945F2FE0
:102A000021E040E061E080E296E00E945F2F21E05B
:102A100040E060E080E097E00E945F2F21E040E02E
:102A200067E080EE96E00E945F2F21E040E062E0E8
:102A300080E296E00E945F2F21E040E066E080E2C5
:102A400096E00E945F2F21E040E064E080E296E0A3
:102A50000E945F2F21E040E063E080E296E00E9468
:102A60005F2F21E040E067E080E296E00E945F2F68
:102A700021E040E065E080E296E00E945F2F21E0E7
:102A800040E067E080E696E00E945F2F21E040E0B2
:102A900065E080E696E00E945F2F21E040E062E082
:102AA00080E896E00E945F2F21E040E064E080E84B
:102AB00096E00E945F2F21E040E066E080E896E02B
:102AC0000E945F2F21E040E063E080EE96E00E94EC
:102AD0005F2F21E040E064E080EE96E00E945F2FEF
:102AE00021E040E065E080EE96E00E945F2F21E06B
:102AF00048E261E080E097E00E945F2F21E040E043
:102B000061E080E297E00E945F2F21E040E062E018
:102B100080E297E00E945F2F21E040E063E080E0E8
:102B200097E00E945F2F21E040E065E080E097E0C1
:102B30000E945F2F21E040E067E080E097E00E9484
:102B40005F2F21E040E061E080E496E00E945F2F8B
:102B500021E040E064E080E496E00E945F2F21E005
:102B600040E065E080E496E00E945F2F21E040E0D5
:102B700060E080E496E00E945F2F21E040E065E0A5
:102B800080EA96E00E945F2F21E040E064E080EA66
:102B900096E00E945F2F60EE76E021E0EB012E834D
:102BA000A0E2B7E058E015965C93159790E1159672
:102BB0009C93159700E816E0F801268332E03683EF
:102BC00080E216968C93169740E816964C931697CB
:102BD000E0E2F6E025833683C12CC7E0DC2EE60177
:102BE0002E83EB014E8364E0F62EF58270E4E72E2F
:102BF000E5829583558345838583E0E6F6E0468349
:102C00008683F801F6829683E6825E839E838E83B6
:102C1000E6013D8316963C9316971696FC925D83CB
:102C20008D834D83E0E4F6E03583968386832683A7
:102C3000E0EAF6E086839683DF91CF911F910F91B2
:102C4000FF90EF90DF90CF90089521E048E260E0A0
:102C500080EA96E00E945F2F20E040E061E080EA99
:102C600096E00E945F2FE0EAF6E082E086832AE6A3
:102C70002A95F1F700C091E095832AE62A95F1F7AD
:102C800000C087832AE02A95F1F700C00000000009
:102C900000000000000087832AE02A95F1F700C0B9
:102CA0000000000000000000000087832AE02A9551
:102CB000F1F700C000000000000000000000878362
:102CC0002AE02A95F1F700C0000000000000000093
:102CD000000087832AE02A95F1F700C00000000079
:102CE00000000000000087832AE02A95F1F700C069
:102CF0000000000000000000000087832AE02A9501
:102D0000F1F700C000000000000000000000878311
:102D10002AE02A95F1F700C0000000000000000042
:102D2000000087832AE02A95F1F700C00000000028
:102D300000000000000087832AE02A95F1F700C018
:102D40000000000000000000000087832AE02A95B0
:102D5000F1F700C0000000000000000000008783C1
:102D60002AE02A95F1F700C00000000000000000F2
:102D7000000087832AE02A95F1F700C000000000D8
:102D800000000000000087832AE02A95F1F700C0C8
:102D90000000000000000000000087832AE02A9560
:102DA000F1F700C000000000000000000000878371
:102DB0002AE02A95F1F700C00000000000000000A2
:102DC000000087832AE02A95F1F700C00000000088
:102DD00000000000000087832AE02A95F1F700C078
:102DE0000000000000000000000087832AE02A9510
:102DF000F1F700C000000000000000000000878321
:102E00002AE02A95F1F700C0000000000000000051
:102E1000000087832AE02A95F1F700C00000000037
:102E200000000000000087832AE02A95F1F700C027
:102E30000000000000000000000087832AE02A95BF
:102E4000F1F700C0000000000000000000008783D0
:102E50002AE02A95F1F700C0000000000000000001
:102E6000000087832AE02A95F1F700C000000000E7
:102E700000000000000087832AE02A95F1F700C0D7
:102E80000000000000000000000087832AE02A956F
:102E9000F1F700C000000000000000000000878380
:102EA0002AE02A95F1F700C00000000000000000B1
:102EB000000087832AE02A95F1F700C00000000097
:102EC00000000000000087832AE02A95F1F700C087
:102ED0000000000000000000000087832AE02A951F
:102EE000F1F700C000000000000000000000878330
:102EF0002AE02A95F1F700C0000000000000000061
:102F0000000023E026832AE02A95F1F700C00000A4
:102F10000000000000000000858385E18A95F1F73C
:102F2000000095830895DC018091BE22482F50E077
:102F30004C31510538F5FA018827E250FF4F8F4F89
:102F40000C94E93A82E08093A60691E09093A5065E
:102F50002AE02A95F1F700C0000000000000000000
:102F600000008093A5062AE02A95F1F700C0000032
:102F700000000000000000002091A80620FD20C1F4
:102F80008091BE228F5F8093BE2280E0089582E010
:102F90008093A60612968C91129787FD25C281E038
:102FA0008093A6069AE09A95F1F700C00000000011
:102FB00000000000000082E08093A5062AE02A9528
:102FC000F1F700C00000000000000000000082E0F7
:102FD0008093A60612968C91129786FD21C181E0FE
:102FE0008093A6068AE08A95F1F700C000000000F1
:102FF00000000000000082E08093A5069AE09A9508
:10300000F1F700C00000000000000000000082E0B6
:103010008093A60612968C91129785FFFDC081E0E1
:103020008093A5062AE02A95F1F700C00000000071
:1030300000000000000082E08093A5068AE08A95E7
:10304000F1F700C00000000000000000000082E076
:103050008093A60612968C91129784FFD9C081E0C6
:103060008093A5069AE09A95F1F700C00000000051
:1030700000000000000082E08093A5062AE02A9567
:10308000F1F700C00000000000000000000082E036
:103090008093A60612968C91129783FFB5C081E0AB
:1030A0008093A5068AE08A95F1F700C00000000031
:1030B00000000000000082E08093A5069AE09A9547
:1030C000F1F700C00000000000000000000082E0F6
:1030D0008093A60612968C91129782FD91C081E092
:1030E0008093A6062AE02A95F1F700C000000000B0
:1030F00000000000000082E08093A5068AE08A9527
:10310000F1F700C00000000000000000000082E0B5
:103110008093A60612968C91129781FD6DC081E076
:103120008093A6069AE09A95F1F700C0000000008F
:1031300000000000000082E08093A5062AE02A95A6
:10314000F1F700C00000000000000000000082E075
:103150008093A60612968C9180FD4AC081E08093F0
:10316000A6068AE08A95F1F700C000000000000082
:103170000000000082E08093A5069AE09A95F1F79E
:1031800000C00000000000000000000082E080930A
:10319000A60691E09093A5062AE02A95F1F700C0D3
:1031A000000000000000000000008093A5062AE057
:1031B0002A95F1F700C000000000000000000000A8
:1031C00023E02093A6062AE02A95F1F700C000002C
:1031D00000000000000000008093A50685E18A95AC
:1031E000F1F700009093A5061092BE2281E00895A9
:1031F00081E08093A506B5CF81E08093A50692CFAC
:1032000081E08093A5066ECF81E08093A6064ACF29
:1032100081E08093A60626CF81E08093A60602CFA8
:1032200081E08093A506DECE82E08093A60691E041
:103230009093A6069AE09A95F1F700C0000000006E
:103240000000000000008093A5062AE02A95F1F70F
:1032500000C00000000000000000000091CE82E0ED
:103260008093A60611968C9182FF1AC081E080930C
:10327000A5062AE02A95F1F700C000000000000032
:103280000000000082E08093A5068AE08A95F1F7AD
:10329000DFCF82E08093A6068C91880F81FDE6CF78
:1032A00081E08093A606E5CF82E08093A606119682
:1032B0008C9186FF34C081E08093A5068AE08A95D0
:1032C000F1F700C00000000000000000000082E0F4
:1032D0008093A5069AE09A95F1F7BACF82E08093A1
:1032E000A60611968C9187FD25C081E08093A606E5
:1032F0009AE09A95F1F700C000000000000000007D
:10330000000082E08093A5062AE02A95F1F7A0CF7D
:1033100082E08093A60611968C9180FDCCCF81E04F
:103320008093A606CBCF82E08093A60611968C915F
:1033300081FFDBCF81E08093A506DACF82E0809326
:10334000A60611968C9184FFD0CFF4CF82E08093B3
:10335000A60611968C9185FFA3CF88CF82E080933B
:10336000A60611968C9183FFDACFA5CF82E08093D9
:10337000A6068C91880F85FFD2CF9DCF82E08093E7
:10338000A6068C91880F86FFB0CFD4CF82E08093C1
:10339000A6068C91880F87FF83CF68CF20E22A95FD
:1033A000F1F781E08093A60685E18A95F1F70000A8
:1033B00082E08093A6068ECF82E08093A6068C9151
:1033C000880F83FF92CFB6CF82E08093A6068C91C0
:1033D000880F82FFA4CF6FCF82E08093A6068C91E6
:1033E000880F84FF5DCF42CF81E08093A506DACDC0
:1033F000DC019091BE22492F50E04033510518F571
:10340000FA018827E65EFE4F8F4F0C94E93A82E07E
:103410008093A60691E09093A5062AE02A95F1F7FD
:1034200000C0000000000000000000008093A5061E
:103430008AE08A95F1F700C000000000000000005B
:1034400000009091BE229F5F9093BE2280E008957D
:1034500082E08093A60691E09093A5062AE02A9543
:10346000F1F700C0000000000000000000008093A1
:10347000A5062AE02A95F1F700C000000000000030
:10348000000000002091A80620FD23C09091BE22DC
:103490009F5F9093BE2280E0089582E08093A6060D
:1034A00091E09093A5062AE02A95F1F700C000006C
:1034B00000000000000000008093A5062AE02A9585
:1034C000F1F700C000000000000000000000809341
:1034D000A60623E02093A6062AE02A95F1F700C06D
:1034E000000000000000000000008093A50685E1B8
:1034F0008A95F1F700009093A5061092BE2281E014
:10350000089582E08093A6068C91880F81FF49C0C0
:1035100081E08093A5068AE08A95F1F700C000005B
:10352000000000000000000082E08093A5069AE001
:103530009A95F1F780CF82E08093A6068C91880F50
:1035400082FF3AC081E08093A5069AE09A95F1F750
:1035500000C00000000000000000000082E0809336
:10356000A5062AE02A95F1F766CF82E08093A606A9
:103570008C91880F83FF2BC081E08093A5062AE001
:103580002A95F1F700C000000000000000000000D4
:1035900082E04CCF82E08093A6068C91880F84FD58
:1035A000B7CF81E08093A606B6CF82E08093A606CF
:1035B0008C91880F85FDC6CF81E08093A606C5CF8C
:1035C00082E08093A6068C91880F86FDD5CF81E09E
:1035D0008093A606D4CF82E08093A6068C91880FB4
:1035E00087FFDFCF95CF92E09093A60681E080938E
:1035F000A5062AE02A95F1F700C0000000000000AF
:10360000000000009093A50695E19A95F1F700005F
:103610008093A60625E12A95F1F700009091BE223D
:1036200012CF82E08093A6069AE09A95F1F700C047
:10363000000000000000000000008093A5062AE0C2
:103640002A95F1F700C00000000000000000000013
:103650008091A80680FF1ACF14968C9114978260EF
:1036600014968C9313CF82E08093A60611968C91CA
:1036700080FF97CF4DCF82E08093A60611968C9164
:1036800081FF9ACF5FCF82E08093A60611968C913E
:1036900082FF9DCF71CF82E08093A60611968C9118
:1036A00083FF7FCF35CF82E08093A60611968C9161
:1036B00084FF82CF47CF82E08093A60611968C913B
:1036C00085FF85CF59CF82E08093A60611968C9115
:1036D00086FF67CF1DCF82E08093A60611968C915E
:1036E00087FF6ACF2FCF82E08093A6069AE09A9553
:1036F000F1F700C00000000000000000000080930F
:10370000A5062AE02A95F1F700C00000000000009D
:10371000000000008091A80680FFB8CE14968C911E
:103720001497816014968C939091BE228CCE82E087
:103730008093A60691E09093A6069AE09A95F1F7F9
:1037400000C0000000000000000000008093A506FB
:103750002AE02A95F1F76FCE82E08093A6068C913D
:10376000880F81FF34CF08CF82E08093A6068C912A
:10377000880F82FF16CFCCCE82E08093A6068C9174
:10378000880F83FF19CFDECE82E08093A6068C914E
:10379000880F84FF1CCFF0CE82E08093A6068C9128
:1037A000880F85FFFECEB4CE82E08093A6068C9172
:1037B000880F86FF01CFC6CE82E08093A6068C914B
:1037C000880F87FDD9CE03CF633008F098CE20E272
:1037D0002A95F1F781E08093A60685E18A95F1F7B5
:1037E000000082E08093A6069AE09A95F1F723CE36
:1037F00082E08093A6069AE09A95F1F700C0000057
:1038000000000000000000008093A5062AE02A9531
:10381000F1F700C0000000000000000000008091EF
:10382000A80680FF33CE14968C911497846014966A
:103830008C939091BE2207CE82E08093A6069AE0F8
:103840009A95F1F700C000000000000000000000A1
:103850008093A5062AE02A95F1F700C00000000039
:103860000000000000008091A80680FF0FCE149693
:103870008C911497886014968C939091BE22E3CD1E
:1038800082E08093A6069AE09A95F1F700C00000C6
:1038900000000000000000008093A5062AE02A95A1
:1038A000F1F700C00000000000000000000080915F
:1038B000A80680FFEBCD14968C9114978061149626
:1038C0008C939091BE22BFCD82E08093A6069AE0B1
:1038D0009A95F1F700C00000000000000000000011
:1038E0008093A5062AE02A95F1F700C000000000A9
:1038F0000000000000008091A80680FFC7CD14964C
:103900008C911497806214968C939091BE229BCDDB
:1039100082E08093A6069AE09A95F1F700C0000035
:1039200000000000000000008093A5062AE02A9510
:10393000F1F700C0000000000000000000008091CE
:10394000A80680FFA3CD14968C91149780641496DA
:103950008C939091BE2277CD82E08093A6069AE068
:103960009A95F1F700C00000000000000000000080
:103970008093A5062AE02A95F1F700C00000000018
:103980000000000000008091A80680FF7FCD149603
:103990008C911497806814968C939091BE2253CD8D
:1039A00082E08093A606613009F47DC191E0909396
:1039B000A6069AE09A95F1F700C00000000000000A
:1039C000000000008093A5062AE02A95F1F700C0C8
:1039D000000000000000000000008093A606909107
:1039E000BE2231CD82E08093A6069AE09A95F1F747
:1039F00000C0000000000000000000008093A50649
:103A00002AE02A95F1F700C0000000000000000045
:103A100000008091A80680FF39CD12968C911297F4
:103A2000816012968C93129713968C9113978160F4
:103A300013968C939091BE2206CD82E08093A606C9
:103A40009AE09A95F1F700C0000000000000000025
:103A500000008093A5062AE02A95F1F700C0000037
:103A600000000000000000008091A80680FF0ECD3D
:103A700012968C911297826012968C9312971396DD
:103A80008C911397826013968C939091BE22DBCC1D
:103A900082E08093A6069AE09A95F1F700C00000B4
:103AA00000000000000000008093A5062AE02A958F
:103AB000F1F700C00000000000000000000080914D
:103AC000A80680FFE3CC12968C9112978460129620
:103AD0008C93129713968C911397846013968C9302
:103AE0009091BE22B0CC82E08093A6069AE09A958F
:103AF000F1F700C00000000000000000000080930B
:103B0000A5062AE02A95F1F700C000000000000099
:103B1000000000008091A80680FFB8CC12968C911E
:103B20001297886012968C93129713968C91139724
:103B3000886013968C939091BE2285CC82E080930E
:103B4000A6069AE09A95F1F700C000000000000078
:103B5000000000008093A5062AE02A95F1F700C036
:103B6000000000000000000000008091A80680FF17
:103B70008DCC12968C911297806112968C9312972D
:103B800013968C911397806113968C939091BE221B
:103B90005ACC82E08093A6069AE09A95F1F700C08D
:103BA000000000000000000000008093A5062AE04D
:103BB0002A95F1F700C0000000000000000000009E
:103BC0008091A80680FF62CC12968C911297806239
:103BD00012968C93129713968C911397806213967A
:103BE0008C939091BE222FCC82E08093A6069AE01F
:103BF0009A95F1F700C000000000000000000000EE
:103C00008093A5062AE02A95F1F700C00000000085
:103C10000000000000008091A80680FF37CC1296BB
:103C20008C911297806412968C93129713968C91B4
:103C30001397806413968C939091BE2204CC82E0FB
:103C40008093A6069AE09A95F1F700C00000000064
:103C50000000000000008093A5062AE02A95F1F7F5
:103C600000C0000000000000000000008091A806D5
:103C700080FF0CCC12968C911297806812968C93D0
:103C8000129713968C911397806813968C9390914A
:103C9000BE22D9CB12961C92129713961C9281E0E9
:103CA0008093A506D0CB6093A5069AE09A95F1F78C
:103CB00000C0000000000000000000008093A50686
:103CC0009AE09A95F1F700C00000000000000000A3
:103CD00000008093A60693E09093A6069AE09A953A
:103CE000F1F700C000000000000000000000809319
:103CF000A50685E18A95F1F700006093A50610926C
:103D0000BE2281E0089540E062E080E090E00E9401
:103D1000422D0C949C2D80913422811101C0089574
:103D20008EE70C94DD2D80913422811101C008951D
:103D30008DE70C94DD2D80913422811101C008950E
:103D400081E70C94DD2DCF93DF931F92CDB7DEB7C3
:103D5000898380913422882351F08981803158F001
:103D60008FE6898361E0CE0101960E94E42D0F90D9
:103D7000DF91CF9108958066F4CF909134229923FA
:103D800041F0803118F08FE60C94DD2D80660C94A4
:103D9000DD2D0895CF93DF931F92CDB7DEB78091CD
:103DA0003422882339F086E5898361E0CE010196CB
:103DB0000E94E42D0F90DF91CF910895CF93DF9370
:103DC0001F92CDB7DEB790913422992339F08068E5
:103DD000898361E0CE0101960E94E42D0F90DF916E
:103DE000CF91089590913422911101C00895806877
:103DF0000C94DD2D982F907E9034D1F040F49923CF
:103E0000A1F0903269F48F718093DF23089590368A
:103E100041F0903821F48F718093DD230895089547
:103E200008958F718093DC2308958093DE23089595
:103E30008F718093DB23089521E02093C12224E039
:103E40002093260620E297FD28C12093660620E8ED
:103E5000209365062093660620E296FF93C0209388
:103E6000650620E8209365062093660620E295FF0C
:103E700093C02093650620E820936506209366068C
:103E800020E294FF93C02093650620E82093650606
:103E90002093660620E293FF93C02093650620E8F6
:103EA000209365062093660620E292FF93C020933C
:103EB000650620E8209365062093660620E291FFC0
:103EC00093C02093650620E820936506209366063C
:103ED00020E290FF93C02093650620E820936506BA
:103EE0002093660620E287FF93C02093650620E8B2
:103EF000209365062093660620E286FF93C02093F8
:103F0000650620E8209365062093660620E285FF7B
:103F100093C02093650620E82093650620936606EB
:103F200020E284FF93C02093650620E82093650675
:103F30002093660620E283FF93C02093650620E865
:103F4000209365062093660630E282FF93C030938B
:103F5000650620936506209366063093650690E813
:103F6000909365069093660681FD93C080E28093EE
:103F7000660680E8809365068093660684E08093F9
:103F8000250608952093660620E820936506209371
:103F9000660620E295FD6DCF2093660620E820930B
:103FA00065062093660620E294FD6DCF2093660699
:103FB00020E8209365062093660620E293FD6DCFEE
:103FC0002093660620E8209365062093660620E28B
:103FD00092FD6DCF2093660620E82093650620931E
:103FE000660620E291FD6DCF2093660620E82093BF
:103FF00065062093660620E290FD6DCF209366064D
:1040000020E8209365062093660620E287FD6DCFA9
:104010002093660620E8209365062093660620E23A
:1040200086FD6DCF2093660620E8209365062093D9
:10403000660620E285FD6DCF2093660620E820937A
:1040400065062093660620E284FD6DCF2093660608
:1040500020E8209365062093660620E283FD6DCF5D
:104060002093660620E8209365062093660630E2DA
:1040700082FD6DCF30936606209365062093660619
:104080003093660690E8909365069093660681FFEC
:104090006DCF80E2809365066CCF20936506D7CE06
:1040A00021E02093C02220E42093260620E297FD01
:1040B00028C12093660620E82093650620936606B3
:1040C00020E296FF93C02093650620E820936506C2
:1040D0002093660620E295FF93C02093650620E8B2
:1040E000209365062093660620E294FF93C02093F8
:1040F000650620E8209365062093660620E293FF7C
:1041000093C02093650620E82093650620936606F9
:1041100020E292FF93C02093650620E82093650675
:104120002093660620E291FF93C02093650620E865
:10413000209365062093660620E290FF93C02093AB
:10414000650620E8209365062093660620E287FF37
:1041500093C02093650620E82093650620936606A9
:1041600020E286FF93C02093650620E82093650631
:104170002093660620E285FF93C02093650620E821
:10418000209365062093660620E284FF93C0209367
:10419000650620E8209365062093660620E283FFEB
:1041A00093C02093650620E8209365062093660659
:1041B00030E282FF93C0309365062093650620931A
:1041C00066063093650690E89093650690936606C0
:1041D00081FD93C080E28093660680E88093650647
:1041E0008093660680E480932506089520936606F2
:1041F00020E8209365062093660620E295FD6DCFAA
:104200002093660620E8209365062093660620E248
:1042100094FD6DCF2093660620E8209365062093D9
:10422000660620E293FD6DCF2093660620E820937A
:1042300065062093660620E292FD6DCF2093660608
:1042400020E8209365062093660620E291FD6DCF5D
:104250002093660620E8209365062093660620E2F8
:1042600090FD6DCF2093660620E82093650620938D
:10427000660620E287FD6DCF2093660620E8209336
:1042800065062093660620E286FD6DCF20936606C4
:1042900020E8209365062093660620E285FD6DCF19
:1042A0002093660620E8209365062093660620E2A8
:1042B00084FD6DCF2093660620E820936506209349
:1042C000660620E283FD6DCF2093660620E82093EA
:1042D00065062093660630E282FD6DCF3093660658
:1042E00020936506209366063093660690E89093C7
:1042F00065069093660681FF6DCF80E28093650628
:104300006CCF20936506D7CE21E02093BF2220E119
:104310002093260620E297FD28C12093660620E818
:10432000209365062093660620E296FF93C02093B3
:10433000650620E8209365062093660620E295FF37
:1043400093C02093650620E82093650620936606B7
:1043500020E294FF93C02093650620E82093650631
:104360002093660620E293FF93C02093650620E821
:10437000209365062093660620E292FF93C0209367
:10438000650620E8209365062093660620E291FFEB
:1043900093C02093650620E8209365062093660667
:1043A00020E290FF93C02093650620E820936506E5
:1043B0002093660620E287FF93C02093650620E8DD
:1043C000209365062093660620E286FF93C0209323
:1043D000650620E8209365062093660620E285FFA7
:1043E00093C02093650620E8209365062093660617
:1043F00020E284FF93C02093650620E820936506A1
:104400002093660620E283FF93C02093650620E890
:10441000209365062093660630E282FF93C03093B6
:10442000650620936506209366063093650690E83E
:10443000909365069093660681FD93C080E2809319
:10444000660680E8809365068093660680E1809327
:10445000250608952093660620E82093650620939C
:10446000660620E295FD6DCF2093660620E8209336
:1044700065062093660620E294FD6DCF20936606C4
:1044800020E8209365062093660620E293FD6DCF19
:104490002093660620E8209365062093660620E2B6
:1044A00092FD6DCF2093660620E820936506209349
:1044B000660620E291FD6DCF2093660620E82093EA
:1044C00065062093660620E290FD6DCF2093660678
:1044D00020E8209365062093660620E287FD6DCFD5
:1044E0002093660620E8209365062093660620E266
:1044F00086FD6DCF2093660620E820936506209305
:10450000660620E285FD6DCF2093660620E82093A5
:1045100065062093660620E284FD6DCF2093660633
:1045200020E8209365062093660620E283FD6DCF88
:104530002093660620E8209365062093660630E205
:1045400082FD6DCF30936606209365062093660644
:104550003093660690E8909365069093660681FF17
:104560006DCF80E2809365066CCF20936506D7CE31
:1045700022E020934606209346062093460620E23A
:1045800097FD50C1209346062093460620E12093D4
:10459000450620934506209346062093460620E2D2
:1045A00096FFEDC0209345062093450620E1209319
:1045B000450620934506209346062093460620E2B2
:1045C00095FF25C1209345062093450620E12093C1
:1045D000450620934506209346062093460620E292
:1045E00094FF10C1209345062093450620E12093B7
:1045F000450620934506209346062093460620E272
:1046000093FFFBC0209345062093450620E12093AD
:10461000450620934506209346062093460620E251
:1046200092FFE6C0209345062093450620E12093A3
:10463000450620934506209346062093460620E231
:1046400091FFD1C0209345062093450620E1209399
:10465000450620934506209346062093460620E211
:1046600090FFBCC0209345062093450620E120938F
:10467000450620934506209346062093460620E2F1
:1046800087FFA7C0209345062093450620E120938D
:10469000450620934506209346062093460620E2D1
:1046A00086FF92C0209345062093450620E1209383
:1046B000450620934506209346062093460620E2B1
:1046C00085FF7DC0209345062093450620E1209379
:1046D000450620934506209346062093460620E291
:1046E00084FF68C0209345062093450620E120936F
:1046F000450620934506209346062093460620E271
:1047000083FF53C0209345062093450620E1209364
:10471000450620934506209346062093460630E240
:1047200082FF32C0309345063093450620934506FC
:10473000209345062093460620934606309345066F
:104740003093450690E190934506909345069093EB
:1047500046069093460681FD5FC080E28093460640
:104760008093460680E180934506809345068093BA
:1047700046068093460682E080934506089520937E
:1047800046062093460612CF3093460630934606DF
:10479000209345062093450620934606209346061F
:1047A0003093460630934606CDCF2093460620939D
:1047B0004606ACCF209346062093460697CF20931B
:1047C00046062093460682CF20934606209346064F
:1047D0006DCF209346062093460658CF2093460679
:1047E0002093460643CF20934606209346062ECFBD
:1047F000209346062093460619CF20934606209321
:10480000460604CF2093460620934606EFCE20931B
:10481000460620934606DACE80E2809345068093D2
:104820004506A0CF2093450620934506AFCE2091A4
:10483000C122222351F088E0809326068093260629
:104840001092C12280932506089521E02093C12271
:1048500024E02093260620E297FD28C120936606D7
:1048600020E8209365062093660620E296FD93C01B
:104870002093660620E8209365062093660620E2D2
:1048800095FF93C02093650620E82093650620934A
:10489000660620E294FF93C02093650620E82093EB
:1048A00065062093660620E293FF93C02093650679
:1048B00020E8209365062093660620E292FF93C0CD
:1048C0002093650620E8209365062093660620E283
:1048D00091FF93C02093650620E8209365062093FE
:1048E000660620E290FF93C02093650620E820939F
:1048F00065062093660620E287FF93C02093650635
:1049000020E8209365062093660620E286FF93C088
:104910002093650620E8209365062093660620E232
:1049200085FF93C02093650620E8209365062093B9
:10493000660620E284FF93C02093650620E820935A
:1049400065062093660620E283FF93C020936506E8
:1049500020E8209365062093660630E282FF93C02C
:1049600030936506209365062093660630936506AE
:1049700090E8909365069093660681FD93C080E26F
:104980008093660680E8809365068093660684E0DF
:104990008093250608952093650620E820936506F8
:1049A0002093660620E295FD6DCF2093660620E8F1
:1049B000209365062093660620E294FD6DCF209338
:1049C000660620E8209365062093660620E293FDA4
:1049D0006DCF2093660620E8209365062093660637
:1049E00020E292FD6DCF2093660620E820936506B5
:1049F0002093660620E291FD6DCF2093660620E8A5
:104A0000209365062093660620E290FD6DCF2093EB
:104A1000660620E8209365062093660620E287FD5F
:104A20006DCF2093660620E82093650620936606E6
:104A300020E286FD6DCF2093660620E82093650670
:104A40002093660620E285FD6DCF2093660620E860
:104A5000209365062093660620E284FD6DCF2093A7
:104A6000660620E8209365062093660620E283FD13
:104A70006DCF2093660620E8209365062093660696
:104A800030E282FD6DCF3093660620936506209359
:104A900066063093660690E89093650690936606E6
:104AA00081FF6DCF80E2809365066CCF2093650611
:104AB000D7CE2091C022222351F080E88093260691
:104AC000809326061092C02280932506089521E047
:104AD0002093C02220E42093260620E297FD28C1DF
:104AE0002093660620E8209365062093660620E260
:104AF00096FD93C02093660620E8209365062093D8
:104B0000660620E295FF93C02093650620E8209377
:104B100065062093660620E294FF93C02093650605
:104B200020E8209365062093660620E293FF93C059
:104B30002093650620E8209365062093660620E210
:104B400092FF93C02093650620E82093650620938A
:104B5000660620E291FF93C02093650620E820932B
:104B600065062093660620E290FF93C020936506B9
:104B700020E8209365062093660620E287FF93C015
:104B80002093650620E8209365062093660620E2C0
:104B900086FF93C02093650620E820936506209346
:104BA000660620E285FF93C02093650620E82093E7
:104BB00065062093660620E284FF93C02093650675
:104BC00020E8209365062093660620E283FF93C0C9
:104BD0002093650620E8209365062093660630E260
:104BE00082FF93C030936506209365062093660686
:104BF0003093650690E8909365069093660681FD74
:104C000093C080E28093660680E880936506809377
:104C1000660680E48093250608952093650620E8C3
:104C2000209365062093660620E295FD6DCF2093C4
:104C3000660620E8209365062093660620E294FD30
:104C40006DCF2093660620E82093650620936606C4
:104C500020E293FD6DCF2093660620E82093650641
:104C60002093660620E292FD6DCF2093660620E831
:104C7000209365062093660620E291FD6DCF209378
:104C8000660620E8209365062093660620E290FDE4
:104C90006DCF2093660620E8209365062093660674
:104CA00020E287FD6DCF2093660620E820936506FD
:104CB0002093660620E286FD6DCF2093660620E8ED
:104CC000209365062093660620E285FD6DCF209334
:104CD000660620E8209365062093660620E284FDA0
:104CE0006DCF2093660620E8209365062093660624
:104CF00020E283FD6DCF2093660620E820936506B1
:104D00002093660630E282FD6DCF309366062093D5
:104D10006506209366063093660690E890936506D4
:104D20009093660681FF6DCF80E2809365066CCF1D
:104D300020936506D7CE2091BF22222351F080E236
:104D400080932606809326061092BF228093250624
:104D5000089521E02093BF2220E12093260620E23F
:104D600097FD28C12093660620E8209365062093CE
:104D7000660620E296FD93C02093660620E8209305
:104D800065062093660620E295FF93C02093650692
:104D900020E8209365062093660620E294FF93C0E6
:104DA0002093650620E8209365062093660620E29E
:104DB00093FF93C02093650620E820936506209317
:104DC000660620E292FF93C02093650620E82093B8
:104DD00065062093660620E291FF93C02093650646
:104DE00020E8209365062093660620E290FF93C09A
:104DF0002093650620E8209365062093660620E24E
:104E000087FF93C02093650620E8209365062093D2
:104E1000660620E286FF93C02093650620E8209373
:104E200065062093660620E285FF93C02093650601
:104E300020E8209365062093660620E284FF93C055
:104E40002093650620E8209365062093660620E2FD
:104E500083FF93C02093650620E820936506209386
:104E6000660630E282FF93C03093650620936506A4
:104E7000209366063093650690E8909365069093BC
:104E8000660681FD93C080E28093660680E8809389
:104E900065068093660680E1809325060895209339
:104EA000650620E8209365062093660620E295FDBE
:104EB0006DCF2093660620E8209365062093660652
:104EC00020E294FD6DCF2093660620E820936506CE
:104ED0002093660620E293FD6DCF2093660620E8BE
:104EE000209365062093660620E292FD6DCF209305
:104EF000660620E8209365062093660620E291FD71
:104F00006DCF2093660620E8209365062093660601
:104F100020E290FD6DCF2093660620E82093650681
:104F20002093660620E287FD6DCF2093660620E879
:104F3000209365062093660620E286FD6DCF2093C0
:104F4000660620E8209365062093660620E285FD2C
:104F50006DCF2093660620E82093650620936606B1
:104F600020E284FD6DCF2093660620E8209365063D
:104F70002093660620E283FD6DCF2093660620E82D
:104F8000209365062093660630E282FD6DCF309354
:104F9000660620936506209366063093660690E8C1
:104FA000909365069093660681FF6DCF80E28093B3
:104FB00065066CCF20936506D7CE8091E80682FF08
:104FC000D7C080918A23813079F49091E80690FFD0
:104FD00080938506809192238F74846480939223BA
:104FE00061E08CE30E94B73480918B23813069F4B7
:104FF00082E080938506809192238F7888688093E1
:10500000922361E08CE30E94B73420919623309183
:10501000972380913622909137222817390709F477
:105020001AC181E090E02091C122211102C080E0EC
:1050300090E02091C022222319F022E030E002C04B
:1050400020E030E0822B932B2091BF22222319F005
:1050500024E030E002C020E030E0822B932B8093EC
:105060009423909395232091880620FF03C028E085
:1050700030E002C020E030E0822B932B8093942319
:10508000909395232091880621FF03C020E130E012
:1050900002C020E030E0822B932B809394239093E6
:1050A00095232091000A222319F020E230E002C06B
:1050B00020E030E0822B932B8093942390939523D0
:1050C00020910708207F19F020E230E002C020E0A4
:1050D00030E0822B932B80939423909395232091FF
:1050E000A80625FF03C020E430E002C020E030E045
:1050F000822B932B80939423909395232091A80641
:1051000024FF03C020E830E002C020E030E0822B22
:10511000932B80939423909395232091E80621FF6D
:1051200003C020E031E002C020E030E0822B932B6E
:1051300080939423909395232091280726FF03C002
:1051400020E032E002C020E030E0822B932B8093FD
:1051500094239093952361E08EE30E94B73480916D
:10516000962390919723809336229093372273C091
:1051700080918A23813061F4809386068091922306
:105180008B7480648093922361E08CE30E94B73437
:1051900080918B23813069F482E080938606809130
:1051A0009223877880688093922361E08CE30E9449
:1051B000B73480916024882309F44DC01092602494
:1051C00080919623909197230196809396239093B4
:1051D000972380E098E0CCD688E0809326068093E1
:1051E00026061092C1228093250680E88093260629
:1051F000809326061092C0228093250680E2809339
:105200002606809326061092BF2280932506809161
:10521000C023811103C080E099E0AAD610927E23BA
:105220008EE793E20E94101080918A23823019F455
:1052300081E08093860680918B23823061F4809395
:10524000860680919223877880688093922361E01C
:105250008CE30E94B734189580918A23823089F4B8
:105260008091E80680FD0DC081E0809385068091E5
:1052700092238F7484648093922361E08CE30E9474
:10528000B73480918B23823061F4809385068091BE
:1052900092238F7888688093922361E08CE30E9448
:1052A000B734189580918A23823089F48091E8067A
:1052B00080FD0DC081E080938506809192238F74DC
:1052C00084648093922361E08CE30E94B7348091E0
:1052D0008B23823061F480938606809192238778B5
:1052E00080688093922361E08CE30E94B734189524
:1052F0008091962390919723019680939623909383
:10530000972380916124E82FF0E0EA59FC4DC2A96F
:105310008F5F809361249091B823891302C010920B
:105320006124C0FF07C080916A2390916B230E9483
:105330001C1F09C088E080932606809326061092E1
:10534000C12280932506C1FF07C080916C239091F4
:105350006D230E94502009C080E880932606809328
:1053600026061092C02280932506C2FF07C08091B6
:105370006E2390916F230E94842109C080E2809364
:105380002606809326061092BF2280932506C6FF2C
:1053900004C080E28093A50603C080E28093A60645
:1053A000C7FF04C080E18093A50603C080E180931D
:1053B000A606C5FF18C08091BF23982F9D7F49F492
:1053C00081E080937E238EE793E20E94101080910B
:1053D000BF23813091F482E080937E238EE793E2B5
:1053E0000E9410100AC08091BF23823031F41092C5
:1053F0007E238EE793E20E941010189581E080933F
:105400008506E6E6F3E284A58F74846484A761E0F0
:105410008CE30E94B734189581E080938606E6E617
:10542000F3E284A58B74806484A761E08CE30E941E
:10543000B73418958091E80681FF83C08091C4221B
:105440008111C6C091E09093C42280918C23282FB3
:105450002D7F213059F4809192238F718161809347
:10546000922361E08CE30E94B734B2C0843039F4F7
:105470009093932383E993E20E943213A9C085306D
:1054800041F482E08093932383E993E20E943213F4
:105490009FC0863041F484E08093932383E993E2B4
:1054A0000E94321395C0873041F483E080939323A8
:1054B00083E993E20E9432138BC0883041F485E087
:1054C0008093932383E993E20E94321381C0893051
:1054D00089F48091C522882309F47AC081E0809301
:1054E0007E238EE793E20E94101061E08DE20E941D
:1054F000B7346EC08A3089F48091C522882309F4BC
:1055000067C082E080937E238EE793E20E941010B2
:1055100061E08DE20E94B7345BC08B3009F058C067
:105520008091C522882309F453C083E080937E23B1
:105530008EE793E20E94101061E08DE20E94B73482
:1055400047C08091C422813009F042C01092C42229
:1055500080918C239EEF980F923058F48091922383
:105560008E7180618093922361E08CE30E94B73456
:105570002FC0843041F488E08093932383E993E241
:105580000E94321325C09BEF980F923040F480E1C7
:105590008093932383E993E20E94321319C099EF19
:1055A000980F923040F488E18093932383E993E24B
:1055B0000E9432130DC08A50823050F410927E2324
:1055C0008EE793E20E94101061E08DE20E94B734F2
:1055D00018958091280786FF83C08091C32281118E
:1055E000C6C091E09093C32280918D23282F2D7FF8
:1055F000213059F4809192238F728262809392239A
:1056000061E08CE30E94B734B2C0843039F49093E7
:10561000932383E993E20E943213A9C0853041F4B9
:1056200082E08093932383E993E20E9432139FC028
:10563000863041F484E08093932383E993E20E94CF
:10564000321395C0873041F483E08093932383E93C
:1056500093E20E9432138BC0883041F485E080933E
:10566000932383E993E20E94321381C0893089F445
:105670008091C522882309F47AC081E080937E233B
:105680008EE793E20E94101061E08DE20E94B73431
:105690006EC08A3089F48091C522882309F467C0DE
:1056A00082E080937E238EE793E20E94101061E0F7
:1056B0008DE20E94B7345BC08B3009F058C08091F6
:1056C000C522882309F453C083E080937E238EE7AC
:1056D00093E20E94101061E08DE20E94B73447C04F
:1056E0008091C322813009F042C01092C322809180
:1056F0008D239EEF980F923058F4809192238D72F3
:1057000080628093922361E08CE30E94B7342FC0C3
:10571000843041F488E08093932383E993E20E94EC
:10572000321325C09BEF980F923040F480E18093B4
:10573000932383E993E20E94321319C099EF980FE3
:10574000923040F488E18093932383E993E20E94AE
:1057500032130DC08A50823050F410927E238EE7AF
:1057600093E20E94101061E08DE20E94B734189518
:105770008091080782FD0EC08FEF8093442082E065
:105780008093050781E08093050790E89093E606F3
:105790008093060718958091880680FD05C02091AA
:1057A00081233091822331C080915C2490915D24CB
:1057B000019680935C2490935D2420918323309103
:1057C00084238217930729F020918123309182232B
:1057D0001CC010925C2410925D2420918123309192
:1057E00082238217930789F081E080938606809157
:1057F00092238B7480648093922361E08CE30E94F7
:10580000B734209181233091822380915E2490913E
:105810005F24019680935E2490935F2428173907B4
:1058200069F58091622490916324019680936224AB
:1058300090936324209185233091862382179307C8
:1058400061F480917E23813041F48093860680E06C
:105850009AE08ED3DDD0189511C010925E2410927C
:105860005F2481E080938506809192238F74846405
:105870008093922361E08CE30E94B7341895809165
:10588000080685FF04C084E68093352227C08091F6
:10589000E80680FF15C081E08093860680E09AE0EC
:1058A00067D3809107088F708093070880919223B7
:1058B0008B7480648093922361E08CE30E94B73400
:1058C0008FEF8093352280917D23813039F41092BF
:1058D0007D2361E08CE20E94B7349AD01895189528
:1058E0008091080685FD0DC08091E80680FD0EC000
:1058F0008FEF8093352280917D23813019F11895A7
:10590000089584E6809335221895089581E0809368
:10591000860680E09AE02CD3809107088F708093F0
:105920000708809192238B7480648093922361E0B6
:105930008CE30E94B7348FEF8093352280917D23D2
:105940008130E9F610927D2361E08CE20E94B73449
:105950005FD0189508958091080685FF04C0809156
:10596000E80680FD0FC086E793E20E94EF0E80916B
:105970007D23811106C081E080937D2361E08CE26C
:10598000F6D746C081E080938606809192238B747F
:1059900080648093922361E08CE3E9D7E4CF809127
:1059A000880681FF18C082E080938606809192234A
:1059B000877880688093922361E08CE3D8D78091C8
:1059C000C2228823D9F01092C2221092872380E04D
:1059D0009BE0CED213C082E0809385068091922313
:1059E0008F7888688093922361E08CE3C0D78091A0
:1059F0008723823019F461E082E3B9D718950E94B9
:105A0000050A8091A20087688093A2007894FFCF56
:105A10009091C5228091080685FF18C082E0892BED
:105A20009091080695FF04C09091E80690FD10C083
:105A300020917F2330918023223C91E03907D1F0DF
:105A40002B37324009F480610C94DE1E80E0E7CFF2
:105A50009091000A992389F0846090910708907FC3
:105A600039F3846020917F2330918023223C91E0A0
:105A7000390731F788600C94DE1E9091880690FFFC
:105A8000ECCFEACFFF920F931F93CF93DF931F9238
:105A90001F92CDB7DEB789839A83162FF42E21E0AB
:105AA00040E060E080E696E00AD220E040E061E07D
:105AB00080E696E0EFD101E022E040E061E080E6A0
:105AC00096E015D281E08093660683E08093A50975
:105AD00089818093A6096A81862F8F7090E11902CF
