:1000000049C100006DC100006BC1000069C1000062
:1000100067C1000065C1000063C1000061C100004C
:100020005FC100005DC100005BC1000059C100005C
:1000300057C1000055C100000C94042751C10000B5
:100040000C9405270C9444274BC1000049C10000C3
:100050000C94893045C100000C94CC3241C10000A1
:100060003FC100003DC100003BC1000039C100009C
:100070000C94E63635C1000033C1000031C10000E8
:100080002FC100002DC100002BC1000029C10000BC
:1000900027C1000025C1000023C1000021C10000CC
:1000A0001FC100001DC100001BC1000019C10000DC
:1000B00017C1000015C1000013C100000C9459299C
:1000C0000FC100000DC100000BC1000009C10000FC
:1000D00007C100000C948B0803C1000001C100009F
:1000E000FFC00000FDC00000FBC00000F9C0000020
:1000F000F7C00000F5C00000F3C00000F1C0000030
:100100000C94FE2AEDC000000C94B529E9C0000053
:10011000E7C00000E5C00000E3C00000E1C000004F
:10012000DFC00000DDC00000DBC00000D9C000005F
:10013000D7C000000C94AB08D3C00000D1C00000B1
:10014000CFC00000CDC00000CBC000000C94BD08A3
:10015000C7C00000C5C00000C3C00000C1C000008F
:100160000C94832B0C94DE2ABBC00000B9C00000A5
:10017000B7C00000B5C00000B3C00000B1C00000AF
:100180000C94EA270C943D260C943D350C9446299A
:100190000C949828A5C00000A3C00000A1C00000D6
:1001A0009FC000009DC000009BC0000099C00000DF
:1001B0000C941C2A95C0000093C0000091C0000060
:1001C0008FC000008DC000008BC0000089C00000FF
:1001D00087C0000085C0000083C000000C94153665
:1001E0000C94E1347DC000007BC0000079C00000A9
:1001F00077C0000075C0000073C000002E182618DC
:100200001E1816184C183C184418A9177417021613
:10021000CE17B4170618FE170E188F17F317E81726
:1002200002162716471667168716A716C716E7166B
:1002300007172617441A3C1A341A2C1A241A1C1AA7
:10024000141A0C1AF7198818CB19C319BB19B3194A
:10025000AB19A3199B199319881853194B194019F5
:1002600035192A191519FB18E11867188818AA1CDE
:100270007F1C541C291CFE1BD31BA81B7D1B521B5F
:10028000301B0C1BE81AC41AA01A7C1A581A7119D0
:10029000D319AD1811241FBECFEFCDBFDFE3DEBFF2
:1002A00000E00CBF18BE19BE1ABE1BBE12E2A0E0D1
:1002B000B0E2E6E5FFE600E00BBF02C007900D925A
:1002C000A439B107D9F71BBE2EE3A4E9B2E201C0FD
:1002D0001D92AA36B207E1F70E943A2A0C94A93778
:1002E0008FCE482F50E041505109FA01E050F04EB6
:1002F000608188E080930607809306078093060755
:1003000084E08093260792E0909326079093260737
:1003100090932607909325079093250790932507A0
:10032000909326078093260790932607909326079D
:100330009093260790932507909325079093250780
:10034000909326078093250790932607909326077E
:100350009093260790932507909325079093250760
:1003600090932607262F30E067FDDCC18093260797
:1003700082E0809326078093260780932607809348
:100380002507809325078093250780932607C901B9
:10039000880F991F87FDFFC184E08093260782E0C4
:1003A000809326078093260780932607809325074E
:1003B000809325078093250780932607C901880F1E
:1003C000991F880F991F87FDE2C184E0809326075B
:1003D00082E08093260780932607809326078093E8
:1003E0002507809325078093250780932607C90159
:1003F000880F991F880F991F880F991F87FDC3C108
:1004000084E08093260782E0809326078093260766
:1004100080932607809325078093250780932507DF
:1004200080932607C90182959295907F9827807FB7
:10043000982787FDA4C184E08093260782E08093FB
:1004400026078093260780932607809325078093AD
:1004500025078093250780932607C901880F991FD8
:1004600082959295907F9827807F982787FD83C1FA
:1004700084E08093260782E08093260780932607F6
:10048000809326078093250780932507809325076F
:1004900080932607C9010024969587950794969521
:1004A00087950794982F802D87FD61C184E0809304
:1004B000260782E0809326078093260780932607ED
:1004C000809325078093250780932507809326072F
:1004D0003695322F22273795279584E027FF44C190
:1004E0008093250792E09093260790932607909398
:1004F00026079093250790932507909325079093BF
:10050000260728E020930507FA01E05EFF4D3081C1
:1005100020930607209306072093060724E02093E4
:10052000260790932607909326079093260790938B
:1005300025079093250790932507909326072093EE
:10054000260790932607909326079093260790936B
:1005500025079093250790932507909326072093CE
:10056000260790932607909326079093260790934B
:100570002507909325079093250790932607832FAF
:1005800090E037FDEEC02093260722E02093260757
:1005900020932607209326072093250720932507DD
:1005A00020932507209326079C01220F331F27FD48
:1005B000D4C024E02093260722E02093260720932E
:1005C00026072093260720932507209325072093AD
:1005D0002507209326079C01220F331F220F331F6C
:1005E00027FDB7C024E02093260722E020932607AA
:1005F000209326072093260720932507209325077D
:1006000020932507209326079C01220F331F220FDA
:10061000331F220F331F27FD98C024E020932607A5
:1006200022E0209326072093260720932607209375
:1006300025072093250720932507209326079C0153
:1006400022953295307F3227207F322727FD79C0CF
:1006500024E02093260722E02093260720932607F4
:10066000209326072093250720932507209325070D
:10067000209326079C01220F331F22953295307F4D
:100680003227207F322727FD58C024E020932607F9
:1006900022E0209326072093260720932607209305
:1006A00025072093250720932507209326079C01E3
:1006B0000024369527950794369527950794322F71
:1006C000202D27FD36C024E02093260722E020932A
:1006D000260720932607209326072093250720939B
:1006E000250720932507209326079695982F88277E
:1006F0009795879587FF19C084E08093250782E04E
:1007000080932607809326078093260780932507EA
:1007100080932507809325078093260788E08093A0
:10072000050708958093250723CE84E0809326074C
:10073000E6CF24E020932507C9CF24E020932507A6
:10074000A7CF24E02093250786CF24E02093250718
:1007500067CF24E02093250748CF24E02093250786
:100760002BCF2093250711CF80932607BBCE84E0A3
:10077000809325079ECE84E0809325077CCE84E07D
:10078000809325075BCE84E0809325073CCE84E0F0
:10079000809325071DCE84E08093250700CE482F47
:1007A00050E041505109FA01E050F04E608180E282
:1007B00080930607809306078093060784E0809362
:1007C000260792E09093260790932607909326079A
:1007D00090932507909325079093250790932607DC
:1007E00080932607909326079093260790932607D9
:1007F00090932507909325079093250790932607BC
:1008000080932507909326079093260790932607B9
:10081000909325079093250790932507909326079B
:10082000262F30E067FDDCC18093260782E08093AD
:1008300026078093260780932607809325078093B9
:1008400025078093250780932607C901880F991FE4
:1008500087FDFFC184E08093260782E0809326070E
:10086000809326078093260780932507809325078A
:100870008093250780932607C901880F991F880F49
:10088000991F87FDE2C184E08093260782E0809370
:100890002607809326078093260780932507809359
:1008A00025078093250780932607C901880F991F84
:1008B000880F991F880F991F87FDC3C184E080931B
:1008C000260782E0809326078093260780932607D9
:1008D000809325078093250780932507809326071B
:1008E000C90182959295907F9827807F982787FDF0
:1008F000A4C184E08093260782E08093260780933A
:1009000026078093260780932507809325078093E9
:10091000250780932607C901880F991F8295929514
:10092000907F9827807F982787FD83C184E08093FC
:10093000260782E080932607809326078093260768
:1009400080932507809325078093250780932607AA
:10095000C9010024969587950794969587950794E5
:10096000982F802D87FD61C184E08093260782E067
:100970008093260780932607809326078093250778
:100980008093250780932507809326073695322F7D
:1009900022273795279584E027FF44C180932507B8
:1009A00092E09093260790932607909326079093C2
:1009B000250790932507909325079093260720E21B
:1009C00020930507FA01E05EFF4D30812093060772
:1009D000209306072093060724E020932607909390
:1009E00026079093260790932607909325079093C8
:1009F0002507909325079093260720932607909329
:100A000026079093260790932607909325079093A7
:100A10002507909325079093260720932607909308
:100A20002607909326079093260790932507909387
:100A300025079093250790932607832F90E037FD95
:100A4000EEC02093260722E0209326072093260756
:100A50002093260720932507209325072093250719
:100A6000209326079C01220F331F27FDD4C024E0CA
:100A70002093260722E02093260720932607209321
:100A800026072093250720932507209325072093E9
:100A900026079C01220F331F220F331F27FDB7C0EB
:100AA00024E02093260722E02093260720932607A0
:100AB00020932607209325072093250720932507B9
:100AC000209326079C01220F331F220F331F220F72
:100AD000331F27FD98C024E02093260722E02093AF
:100AE0002607209326072093260720932507209387
:100AF000250720932507209326079C0122953295F0
:100B0000307F3227207F322727FD79C024E02093D1
:100B1000260722E020932607209326072093260706
:100B20002093250720932507209325072093260748
:100B30009C01220F331F22953295307F3227207F70
:100B4000322727FD58C024E02093260722E0209377
:100B50002607209326072093260720932507209316
:100B6000250720932507209326079C01002436950E
:100B700027950794369527950794322F202D27FD2A
:100B800036C024E02093260722E0209326072093F6
:100B900026072093260720932507209325072093D7
:100BA0002507209326079695982F88279795879550
:100BB00087FF19C084E08093250782E08093260791
:100BC0008093260780932607809325078093250727
:100BD000809325078093260780E280930507089578
:100BE0008093250723CE84E080932607E6CF24E078
:100BF00020932507C9CF24E020932507A7CF24E021
:100C00002093250786CF24E02093250767CF24E093
:100C10002093250748CF24E0209325072BCF20934E
:100C2000250711CF80932607BBCE84E0809325074C
:100C30009ECE84E0809325077CCE84E080932507B8
:100C40005BCE84E0809325073CCE84E0809325072B
:100C50001DCE84E08093250700CE482F50E0415000
:100C60005109FA01E050F04E608180E88093060758
:100C7000809306078093060784E08093260792E01E
:100C80009093260790932607909326079093250725
:100C90009093250790932507909326078093260726
:100CA0009093260790932607909326079093250705
:100CB0009093250790932507909326078093250707
:100CC00090932607909326079093260790932507E5
:100CD000909325079093250790932607262F30E0C1
:100CE00067FDDCC18093260782E08093260780930E
:100CF00026078093260780932507809325078093F6
:100D0000250780932607C901880F991F87FDFFC11A
:100D100084E08093260782E080932607809326074D
:100D200080932607809325078093250780932507C6
:100D300080932607C901880F991F880F991F87FD87
:100D4000E2C184E08093260782E0809326078093A7
:100D50002607809326078093250780932507809395
:100D6000250780932607C901880F991F880F991FAF
:100D7000880F991F87FDC3C184E08093260782E016
:100D80008093260780932607809326078093250764
:100D9000809325078093250780932607C9018295B4
:100DA0009295907F9827807F982787FDA4C184E043
:100DB0008093260782E080932607809326078093FE
:100DC0002607809325078093250780932507809326
:100DD0002607C901880F991F82959295907F9827C1
:100DE000807F982787FD83C184E08093260782E077
:100DF00080932607809326078093260780932507F4
:100E0000809325078093250780932607C901002436
:100E1000969587950794969587950794982F802D9A
:100E200087FD61C184E08093260782E080932607D6
:100E300080932607809326078093250780932507B4
:100E400080932507809326073695322F22273795E2
:100E5000279584E027FF44C18093250792E0909373
:100E60002607909326079093260790932507909343
:100E70002507909325079093260720E820930507E0
:100E8000FA01E05EFF4D30812093060720930607AC
:100E90002093060724E0209326079093260790933B
:100EA0002607909326079093250790932507909304
:100EB0002507909326072093260790932607909363
:100EC00026079093260790932507909325079093E4
:100ED0002507909326072093260790932607909343
:100EE00026079093260790932507909325079093C4
:100EF000250790932607832F90E037FDEEC02093BF
:100F0000260722E020932607209326072093260712
:100F10002093250720932507209325072093260754
:100F20009C01220F331F27FDD4C024E02093260705
:100F300022E020932607209326072093260720935C
:100F400025072093250720932507209326079C013A
:100F5000220F331F220F331F27FDB7C024E0209339
:100F6000260722E0209326072093260720932607B2
:100F700020932507209325072093250720932607F4
:100F80009C01220F331F220F331F220F331F27FD17
:100F900098C024E02093260722E020932607209380
:100FA00026072093260720932507209325072093C3
:100FB0002507209326079C0122953295307F322702
:100FC000207F322727FD79C024E02093260722E0E6
:100FD0002093260720932607209326072093250792
:100FE0002093250720932507209326079C01220F95
:100FF000331F22953295307F3227207F322727FDFD
:1010000058C024E02093260722E02093260720934F
:101010002607209326072093250720932507209352
:101020002507209326079C010024369527950794D1
:10103000369527950794322F202D27FD36C024E0C2
:101040002093260722E0209326072093260720934B
:101050002607209325072093250720932507209313
:1010600026079695982F88279795879587FF19C00B
:1010700084E08093250782E08093260780932607EB
:101080008093260780932507809325078093250763
:101090008093260780E880930507089580932507AD
:1010A00023CE84E080932607E6CF24E02093250713
:1010B000C9CF24E020932507A7CF24E0209325075C
:1010C00086CF24E02093250767CF24E020932507CF
:1010D00048CF24E0209325072BCF2093250711CF5D
:1010E00080932607BBCE84E0809325079ECE84E0C4
:1010F000809325077CCE84E0809325075BCE84E037
:10110000809325073CCE84E0809325071DCE84E0A4
:101110008093250700CE80E49AE00E94FF2C21E016
:101120004AEF50E065E080E099E00E94E42C1092E4
:10113000072381E080930623E0EEF6E088E38583D1
:101140008583868321E040E250E061E080E499E01D
:101150000E94F42C189581E080930623E0EEF6E0DF
:1011600088E385838583868321E040E250E061E067
:1011700080E499E00E94F42C18958091062387FD65
:101180000BC098E39093E5069093E5069093E606EE
:101190008F5F8093062338C1803809F035C180E421
:1011A00099E00E94FF2C84E5809385068093860653
:1011B000809385068091880683FF03C020E030E29B
:1011C00002C020E030E08091880685FF03C080E007
:1011D00090E202C080E090E040918806042E000C6E
:1011E000550B4427550F441F5527542F442752951C
:1011F000550F507E64E56093860660938506609186
:10120000880663FD30616091880665FD906160919C
:10121000880667FD506164E56093860660938506E5
:101220006091880663FD38606091880665FD98606E
:101230006091880667FD586064E560938606609358
:1012400085066091880663FD34606091880665FDBF
:1012500094606091880667FD546064E5609386063B
:10126000609385066091880663FD32606091880610
:1012700065FD92606091880667FD526064E5609349
:101280008606609385066091880663FD31606091F3
:10129000880665FD91606091880667FD516064E590
:1012A00060938606609385066091880663FD2068DA
:1012B0006091880665FD80686091880667FD4068DA
:1012C00064E560938606609385066091880663FDF9
:1012D00020646091880665FD80646091880667FDE2
:1012E000406464E560938606609385066091880695
:1012F00063FD20626091880665FD806260918806CA
:1013000067FD406264E560938606609385066091A0
:10131000880663FD20616091880665FD80616091AB
:10132000880667FD406164E56093860660938506E4
:101330006091880663FD28606091880665FD88607D
:101340006091880667FD486064E560938606609357
:1013500085066091880663FD24606091880665FDBE
:1013600084606091880667FD446064E5609386064A
:10137000609385066091880663FD2260609188060F
:1013800065FD82606091880667FD426064E5609358
:101390008606609385066091880663FD21606091F2
:1013A000880665FD81606091880667FD416064E59F
:1013B00060938606A09107236A2F70E0FB01EE0F71
:1013C000FF1F6E0F7F1FFB01EE0FFF1FEF56FC4D3F
:1013D00020833183FB01EE0FFF1FED56FC4D808310
:1013E0009183660F771FFB01EB56FC4D40835183C1
:1013F00081E08A0F80930723843031F41092072311
:1014000061E086E40E94903118958F92AF92BF926E
:10141000CF92DF92EF920F938CE192E29F938F93A2
:1014200084E3882E98EEA92EB12C28E3C22E23E265
:10143000D22EE12C02E020E040E062E080E198E082
:101440000E94212F0F900F900F91EF90DF90CF907F
:10145000BF90AF908F900895E0E8F6E081E086833A
:1014600082E0868380E098E00E94EF2C80E090E0AC
:101470000E947C1D80E090E00E94B01E80E090E021
:101480000E94E41F1092502380E593E2DBC40E9487
:10149000E31C2FEF8FE493EC215080409040E1F764
:1014A00000C000000E94F31C2FEF87EA91E6215054
:1014B00080409040E1F700C0000087E00E941D1DC1
:1014C00081E20E94521D2FEF83ED90E32150804076
:1014D0009040E1F700C000000E94EB1C0E94882BA6
:1014E0002FEF83ED90E3215080409040E1F700C062
:1014F00000000E9485120E94851482E380931023CD
:101500008091080782FD03C081E08093182208952E
:10151000E8E3F3E281E390E480839183148215820F
:10152000168217821086118688EF9FE7808B918B39
:1015300087E0828B138A81E0848B858B868B108E6B
:10154000118E128E24E630E0238F348F22E330E0B8
:10155000258F368F2AE030E0278F30A311A225E3B4
:1015600032E822A333A314A285A386A387A315A6DA
:1015700080AB82E081AB84E082AB83E08093882300
:1015800088EE9DEF8093892390938A2388EE93E0E1
:1015900080938B2390938C2384EF9EE780938D23FD
:1015A00090938E2310928F2310929023089588E3B6
:1015B00093E266D30E94D6298AE493E2DDD31092A7
:1015C0004B238CE493E2F3D38DE493E209D48EE4CD
:1015D00093E21FD483E693E235D50E94432A0C940C
:1015E0002A1D80914A230C94031D80E00C94031D56
:1015F00010929C2281E0809324241092502380E555
:1016000093E220D40C94432A81E080939C220C9492
:10161000432A08950895089580914120893019F151
:101620008A30A9F0883021F08F5F8093412008959F
:1016300084EC8093112384E08093122381E08093D3
:1016400094221092402089E080934120089582ECFA
:101650008093112383E0809394221092402081E0B4
:1016600080934120089581EC8093112382E0809340
:101670009422109240208AE0809341200895809126
:101680004020811108C080919422823029F083305B
:10169000D9F0813091F0089561E080E193E20E94F9
:1016A0005818809340208823B1F3809112238F77BC
:1016B0001092A9238093AA23089580E193E20E94C7
:1016C000F31580934020089561E080E193E20E9449
:1016D0005818809340208823F1F2209112238091A2
:1016E000A9239091AA23822B8093A9239093AA23C4
:1016F00061E087E40C9490318091432087FD05C020
:101700008150809343208F3F51F08091192287FDB3
:1017100005C08150809319228F3F69F0089581E0C0
:101720008093050780E88093E6068093E50682E0D3
:1017300080930607EACF0C94012A0895089508952E
:1017400008950895089590EE980F943340F490E032
:101750008097FC01EC51FE4D2081261711F080E0AE
:101760000895880F991FFC01E455FF4D0190F08109
:10177000E02D199581E0089590EE980F943348F488
:10178000E82FF0E0B097DF01AC51BE4D9C91961769
:1017900011F080E00895EE0FFF1FDF01A458BE4D49
:1017A0008D919C9182179307A1F7EC5BFF4D0190FF
:1017B000F081E02DCA011994109238231092392338
:1017C0008091280681FF4CC081E090E0809338230F
:1017D0009093392333E020E04091280640FF06C073
:1017E0003093382320933923832F922F2091E806BA
:1017F00020FD04C02091280723FD43C02091E80666
:1018000020FF04C02091280723FF35C02091E8065F
:1018100020FF04C02091280723FD27C0209108073E
:1018200020FD05C080628093382390933923209156
:10183000E80627FD2CC0209143202F3F09F080644B
:1018400020914220222331F090648093382390939A
:10185000392308959068809338239093392308950D
:1018600032E020E080E090E0B7CF806180933823C1
:1018700090933923D3CF8860809338239093392372
:10188000C5CF84608093382390933923B7CF806489
:10189000D2CFFC018081918180933A2390933B23A6
:1018A00081E00895FC0180819181209142202223D2
:1018B00021F0813CFFE89F0730F480933C23909314
:1018C0003D2381E0089580E00895FC0180819181AD
:1018D00020914220222321F0813CFFE89F0730F431
:1018E00080933E2390933F2381E0089580E0089504
:1018F000FC018081918120914220222321F0813CB2
:10190000FFE89F0730F4809340239093412381E0C8
:10191000089580E008958091080685FB882780F966
:1019200080934F2308958091000A81118091502364
:10193000809350230895FC01808191819C01225065
:1019400031092F353A4E30F480935323909354232A
:1019500081E0089580E00895FC01808191819C01DF
:101960002150310920363A4E30F48093552390931C
:10197000562381E0089580E00895FC0180819181E3
:10198000809357239093582381E00895FC01808130
:1019900091819C012858334121363A4E30F480938E
:1019A0005A2390935B2381E0089580E00895FC0121
:1019B0008081982F9C7F21F480935C2381E008959F
:1019C00080E00895FC018081982F9C7F21F4809312
:1019D0005D2381E0089580E00895FC018081982FC7
:1019E000907F21F480935E2381E0089580E0089544
:1019F000FC018081982F907F21F480935F2381E008
:101A0000089580E0089580918806982F917080FF56
:101A100009C028E198E08091880681FD922F90937B
:101A20006323089520E1F7CF8091E80686958170C1
:101A300080936423089580E00895FC018081918162
:101A4000809366239093672381E00895DC0190964C
:101A5000E8E8F3E28E91829383E2E836F807D1F763
:101A600081E00895FC018081803220F480938823F6
:101A700081E0089580E00895FC01808191819C01BE
:101A80002858334121363A4E30F48093892390937D
:101A90008A2381E0089580E00895FC01808191818E
:101AA000883EFDEF9F0730F480938B2390938C2327
:101AB00081E0089580E00895FC0180819181883E55
:101AC000FDEF9F0730F480938D2390938E2381E068
:101AD000089580E00895FC018081982F9C7F21F477
:101AE00080938F2381E0089580E00895FC01808138
:101AF0009181809391239093922381E00895FC013A
:101B0000808191818093A9239093AA2381E00895F5
:101B1000FC0180818093AB2381E00895FC018081EA
:101B20008093AC2381E00895FC0180818093AD23F4
:101B300081E00895FC0180818093AE2381E00895C7
:101B4000FC0180818093AF2381E00895FC018081B6
:101B500091818093B0239093B12381E00895FC019B
:101B6000808191818093C0239093C12381E0089567
:101B7000FC01808191818093D0239093D12381E0D7
:101B80000895FC01808191818093E0239093E1236B
:101B900081E00895FC01808191818093F0239093EE
:101BA000F12381E00895FC018081918180930024DC
:101BB0009093012481E008950895FC018081918132
:101BC000809310249093112481E00895FC0180817A
:101BD000918180935123909352230E94432A81E064
:101BE0000895CF93DF93EC01888180FF0AC088E0DD
:101BF00080932606809326061092982280932506CD
:101C0000888181FF0AC080E880932606809326069B
:101C10001092972280932506888182FF0AC080E275
:101C2000809326068093260610929622809325069E
:101C3000888183FD1EC084FF04C082E080938606F5
:101C4000888185FF04C081E080934606888186FFF5
:101C500004C080E28093A606888187FF04C080E1EB
:101C60008093A60688818093612381E0DF91CF91E4
:101C7000089581E0809386060E94432A8881DBCF05
:101C8000CF93DF93FC01C081D181C0933323D093E4
:101C90003423C0FF06C081E08093260682E0809353
:101CA0002506C1FF06C082E08093260681E080936E
:101CB0002506C2FF06C081E08093E60688E0809397
:101CC0002507C3FF0AC08091E80680FF3CC081E081
:101CD0008093E50688E080932607C4FF0AC08091C0
:101CE000E80680FF2CC081E08093E50688E08093C1
:101CF00025070E94432AC5FF0EC08FEF8093432023
:101D000082E08093050781E08093050790E8909337
:101D1000E60680930607C6FF03C08AE0809343204F
:101D2000C7FD15C0D6FF03C081E080934220D7FDD8
:101D30001092422041DD81E0DF91CF91089581E052
:101D400080938606D0CF81E080938606C0CF0E9424
:101D5000FB1CE8CFCF93DF93FC01C081D181CE0182
:101D6000969587950E941821C0934823D0934923C4
:101D700081E0DF91CF910895CF93FC01C081C03104
:101D800008F0CFE08C2F0E94031DC0934A2381E00E
:101D9000CF910895CF93FC01C081C7FDCFE78C2F71
:101DA0000E943E1DC0934B2381E0CF910895CF93B5
:101DB000FC01C081CC2359F0C13208F0C0E28C2F65
:101DC0000E947101C0934C2381E0CF910895C1E03E
:101DD0008C2F0E947101C0934C2381E0CF91089514
:101DE000CF93FC01C081CC2359F0C13208F0C0E28E
:101DF0008C2F0E94CF03C0934D2381E0CF91089593
:101E0000C1E08C2F0E94CF03C0934D2381E0CF917E
:101E10000895CF93FC01C081CC2359F0C13208F062
:101E2000C0E28C2F0E942D06C0934E2381E0CF91FB
:101E30000895C1E08C2F0E942D06C0934E2381E0AF
:101E4000CF910895CF93FC01C0818C2F8C7F59F5E1
:101E50002091552330915623809153239091542300
:101E60008217930700F18FEF8C0F8230F8F0C111C9
:101E700015C08091000A811108C08091080685FF75
:101E80000DC08091E80680FF09C081E0809386063E
:101E900080E09AE00E94EF2C0E94432AC0935023D6
:101EA00081E0CF91089580E0CF91089580915123F2
:101EB00090915223823CF1E09F0719F08B379240BA
:101EC00069F78091E80680FF08C08091E80680FFEE
:101ED000E5CF8091080685FFE1CF21E04DE750E096
:101EE00066E080E09AE00E94E42C81E08093850621
:101EF0001092262410922724109222241092232438
:101F000010922024109221240E94432AC7CFCF93FD
:101F1000FC01C0818C2F8C7F79F48FEF8C0F823085
:101F200070F0C11104C08091000B811122C0C093D8
:101F3000592381E0CF91089580E0CF910895809159
:101F4000000B8111F4CF40915A2350915B23569599
:101F500047955695479521E065E080E09BE00E941B
:101F6000E42C81E080938506C23039F010929922EA
:101F7000DECF81E080939922DACF61E082E30E9494
:101F80009031F4CFCF93DF93EC01888180FD52C074
:101F900081FD48C082FD3EC083FF0AC08091E806F3
:101FA00080FD24C081E0809385060E94432A8881B9
:101FB00084FF04C082E080938506888185FF04C089
:101FC00081E080934506888186FF04C080E280938B
:101FD000A506888187FF04C080E18093A5068881DB
:101FE0008093602381E0DF91CF9108958091E8068E
:101FF00080FFDBCF8091080685FFD7CF80915123EA
:1020000090915223823C21E0920761F28B379240FB
:1020100061F6C8CF80914023909141230E94E41F34
:102020008881BACF80913E2390913F230E94B01EB9
:102030008881B0CF80913C2390913D230E947C1DEC
:102040008881A6CFCF93DF93EC01888180FD8BC080
:1020500088E080932606809326061092982280932B
:102060002506888181FD78C080E8809326068093CC
:1020700026061092972280932506888182FD65C0EE
:1020800080E2809326068093260610929622809303
:102090002506888183FF20C09091E80690FD40C00E
:1020A00081E080938506888184FD1CC082E0809356
:1020B0008606888185FD1CC081E080934606888164
:1020C00086FD1CC080E28093A606888187FF1CC025
:1020D00080E18093A5061BC081E0809386068881FD
:1020E00084FFE4CF82E080938506888185FFE4CF7A
:1020F00081E080934506888186FFE4CF80E280936B
:10210000A506888187FDE4CF80E18093A6060E9422
:10211000432A88818093632381E0DF91CF910895E2
:102120009091E80690FFDCCF9091080695FFD8CFFC
:102130002091512330915223223C91E0390709F438
:10214000AFCF2B37324061F6ABCF809140239091D7
:1021500041230E94E41F9DCF80913E2390913F2315
:102160000E94B01E8ACF80913C2390913D230E9413
:102170007C1D77CFCF93DF93EC01888180FD59C020
:1021800081FD4FC082FD45C083FF0AC08091880653
:1021900080FF24C081E0809386060E94432A8881C4
:1021A00084FF04C082E080938706888185FF04C095
:1021B00081E080934706888186FF04C080E2809397
:1021C000A706888187FF04C080E18093A7068881E5
:1021D0008093622381E0DF91CF9108958091E8069A
:1021E00080FF13C08091E80680FFD7CF809108065A
:1021F00085FFD3CF8091512390915223823C21E0DF
:10220000920719F08B37924041F681E08093850662
:10221000C4CF80914023909141230E94FB24888168
:10222000B3CF80913E2390913F230E94B9238881B0
:10223000A9CF80913C2390913D230E9477228881F1
:102240009FCFCF93FC01C081CC2349F08091400AFD
:10225000882371F0C093902381E0CF91089580E0AE
:1022600099E00E94EF2CC093902381E0CF910895D4
:1022700021E048E050E067E080E49AE00E94F42C1E
:10228000C093902381E0CF910895FC01809142207A
:1022900081111AC08081918180933C2390933D23CA
:1022A0008281938180933E2390933F238481958103
:1022B0008093402390934123808191818093422396
:1022C0009093432381E0089580819181813C2FE8A0
:1022D000920728F422813381213C3F48E8F280E0D4
:1022E00008951092652380910008882361F035E0FD
:1022F00091E123E080915923813061F0823069F0CF
:102300009093652308953CE098E12AE08091592359
:102310008130A1F7209365230895309365230895B4
:1023200080E0089508950895089508950895089502
:1023300008950895089508950895089508950895B5
:1023400008950895089508950895089508950895A5
:102350000895089508950895089508950895089595
:102360000895089508950895089508950895089585
:102370000895089508950895089508950895CF93B0
:10238000FC01C081C0FF04C080910008882301F1D6
:10239000C1FD7EC0C2FD85C0C3FD07C0C4FD0EC027
:1023A000C093652381E0CF91089580910008882330
:1023B000A9F381E080932424C4FFF2CF8091000B25
:1023C000882319F081E08093992210925923E8CF55
:1023D00010922424109225242091892330918A235D
:1023E00040918B2350918C2342175307E0F6409184
:1023F0008D2350918E2342175307A8F680913C23DA
:1024000090913D230E947C1D21E02093460610926E
:1024100000088CE0809309088091892390918A2399
:102420009695879501978093260890932708809129
:102430008B2390918C2396958795019780932808FC
:102440009093290880918D2390918E23969587955E
:10245000019780932A0890932B08209306082093D5
:1024600007088091070884608093070883E18093C0
:10247000010885E0809300088091400A811188CF8F
:1024800047E050E067E080E49AE00E94F42C80CFBF
:102490008091000B882369F081E080935923C2FF6B
:1024A0007BCF8091000B8823C1F082E08093592379
:1024B00073CF40915A2350915B235695479556957B
:1024C000479521E065E080E09BE00E94E42C81E0FC
:1024D0008093850610929922DFCF40915A23509124
:1024E0005B23569547955695479521E065E080E03A
:1024F0009BE00E94E42C81E08093850661E082E30A
:102500000E94903110929922D0CFCF92DF92EF9219
:10251000FF920F931F93CF93DF9320E040E065E09D
:1025200080E096E00E94812C20E048E167E080E0B6
:1025300096E00E94812C20E040E161E080EE96E090
:102540000E94812C20E040E166E080E297E00E945A
:10255000812C20E040E063E080E896E00E94812C3E
:1025600020E040E065E080E896E00E94812C20E0D9
:1025700040E067E080E896E00E94812C20E048E19E
:1025800062E080E097E00E94812C20E040E062E081
:1025900080EE96E00E94812C20E040E164E080E63D
:1025A00096E00E94812C20E040E166E080E696E023
:1025B0000E94812C20E040E166E080EA96E00E94E3
:1025C000812C20E040E167E080EA96E00E94812CC7
:1025D00020E040E161E080E096E00E94812C20E074
:1025E00040E162E080E096E00E94812C20E040E142
:1025F00062E080E496E00E94812C20E040E163E00C
:1026000080E496E00E94812C00E020E240E061E05E
:1026100080E096E00E94AE2C22E040E061E080EE97
:1026200096E00E94AE2C20E440E061E080E297E07A
:102630000E94AE2C24E041E061E080E097E00E943F
:10264000AE2C24E041E061E080EE96E00E94AE2CEA
:1026500021E040E060E080EE96E00E94962C21E0D0
:1026600040E063E080E297E00E94962C21E040E0A9
:1026700064E080E297E00E94962C21E040E060E078
:1026800080E896E00E94962C21E040E061E080E83E
:1026900096E00E94962C21E040E065E080E297E021
:1026A0000E94962C21E040E067E080E297E00E94E3
:1026B000962C21E040E060E080E296E00E94962CBB
:1026C00021E040E061E080E296E00E94962C21E06B
:1026D00040E060E080E097E00E94962C21E040E03E
:1026E00067E080EE96E00E94962C21E040E062E0F8
:1026F00080E296E00E94962C21E040E066E080E2D5
:1027000096E00E94962C21E040E064E080E296E0B2
:102710000E94962C21E040E063E080E296E00E9477
:10272000962C21E040E067E080E296E00E94962C43
:1027300021E040E065E080E296E00E94962C21E0F6
:1027400040E067E080E696E00E94962C21E040E0C1
:1027500065E080E696E00E94962C21E040E062E091
:1027600080E896E00E94962C21E040E064E080E85A
:1027700096E00E94962C21E040E066E080E896E03A
:102780000E94962C21E040E063E080EE96E00E94FB
:10279000962C21E040E064E080EE96E00E94962CCA
:1027A00021E040E065E080EE96E00E94962C21E07A
:1027B00048E261E080E097E00E94962C21E040E052
:1027C00061E080E297E00E94962C21E040E062E028
:1027D00080E297E00E94962C21E040E063E080E0F8
:1027E00097E00E94962C21E040E065E080E097E0D1
:1027F0000E94962C21E040E067E080E097E00E9494
:10280000962C21E040E061E080E496E00E94962C66
:1028100021E040E064E080E496E00E94962C21E014
:1028200040E065E080E496E00E94962C21E040E0E4
:1028300060E080E496E00E94962C21E040E065E0B4
:1028400080EA96E00E94962C21E040E064E080EA75
:1028500096E00E94962C60EE76E021E0EB012E835C
:10286000A0E2B7E058E015965C93159790E11596B5
:102870009C93159700E816E0F801268332E0368332
:1028800080E216968C93169740E816964C9316970E
:10289000E0E2F6E025833683C12CC7E0DC2EE601BA
:1028A0002E83EB014E8364E0F62EF58270E4E72E72
:1028B000E5829583558345838583E0E6F6E046838C
:1028C0008683F801F6829683E6825E839E838E83FA
:1028D000E6013D8316963C9316971696FC925D830F
:1028E0008D834D83E0E4F6E03583968386832683EB
:1028F000E0EAF6E086839683DF91CF911F910F91F6
:10290000FF90EF90DF90CF90089521E048E260E0E3
:1029100080EA96E00E94962C20E040E061E080EAA8
:1029200096E00E94962CE0EAF6E082E086832AE6B2
:102930002A95F1F700C091E095832AE62A95F1F7F0
:1029400000C087832AE02A95F1F700C0000000004C
:1029500000000000000087832AE02A95F1F700C0FC
:102960000000000000000000000087832AE02A9594
:10297000F1F700C0000000000000000000008783A5
:102980002AE02A95F1F700C00000000000000000D6
:10299000000087832AE02A95F1F700C000000000BC
:1029A00000000000000087832AE02A95F1F700C0AC
:1029B0000000000000000000000087832AE02A9544
:1029C000F1F700C000000000000000000000878355
:1029D0002AE02A95F1F700C0000000000000000086
:1029E000000087832AE02A95F1F700C0000000006C
:1029F00000000000000087832AE02A95F1F700C05C
:102A00000000000000000000000087832AE02A95F3
:102A1000F1F700C000000000000000000000878304
:102A20002AE02A95F1F700C0000000000000000035
:102A3000000087832AE02A95F1F700C0000000001B
:102A400000000000000087832AE02A95F1F700C00B
:102A50000000000000000000000087832AE02A95A3
:102A6000F1F700C0000000000000000000008783B4
:102A70002AE02A95F1F700C00000000000000000E5
:102A8000000087832AE02A95F1F700C000000000CB
:102A900000000000000087832AE02A95F1F700C0BB
:102AA0000000000000000000000087832AE02A9553
:102AB000F1F700C000000000000000000000878364
:102AC0002AE02A95F1F700C0000000000000000095
:102AD000000087832AE02A95F1F700C0000000007B
:102AE00000000000000087832AE02A95F1F700C06B
:102AF0000000000000000000000087832AE02A9503
:102B0000F1F700C000000000000000000000878313
:102B10002AE02A95F1F700C0000000000000000044
:102B2000000087832AE02A95F1F700C0000000002A
:102B300000000000000087832AE02A95F1F700C01A
:102B40000000000000000000000087832AE02A95B2
:102B5000F1F700C0000000000000000000008783C3
:102B60002AE02A95F1F700C00000000000000000F4
:102B7000000087832AE02A95F1F700C000000000DA
:102B800000000000000087832AE02A95F1F700C0CA
:102B90000000000000000000000087832AE02A9562
:102BA000F1F700C000000000000000000000878373
:102BB0002AE02A95F1F700C00000000000000000A4
:102BC000000023E026832AE02A95F1F700C00000E8
:102BD0000000000000000000858385E18A95F1F780
:102BE000000095830895DC0180919522482F50E0E4
:102BF0004C31510538F5FA018827E250FF4F8F4FCD
:102C00000C94973782E08093A60691E09093A506F6
:102C10002AE02A95F1F700C0000000000000000043
:102C200000008093A5062AE02A95F1F700C0000075
:102C300000000000000000002091A80620FD20C137
:102C4000809195228F5F8093952280E0089582E0A5
:102C50008093A60612968C91129787FD25C281E07B
:102C60008093A6069AE09A95F1F700C00000000054
:102C700000000000000082E08093A5062AE02A956B
:102C8000F1F700C00000000000000000000082E03A
:102C90008093A60612968C91129786FD21C181E041
:102CA0008093A6068AE08A95F1F700C00000000034
:102CB00000000000000082E08093A5069AE09A954B
:102CC000F1F700C00000000000000000000082E0FA
:102CD0008093A60612968C91129785FFFDC081E025
:102CE0008093A5062AE02A95F1F700C000000000B5
:102CF00000000000000082E08093A5068AE08A952B
:102D0000F1F700C00000000000000000000082E0B9
:102D10008093A60612968C91129784FFD9C081E009
:102D20008093A5069AE09A95F1F700C00000000094
:102D300000000000000082E08093A5062AE02A95AA
:102D4000F1F700C00000000000000000000082E079
:102D50008093A60612968C91129783FFB5C081E0EE
:102D60008093A5068AE08A95F1F700C00000000074
:102D700000000000000082E08093A5069AE09A958A
:102D8000F1F700C00000000000000000000082E039
:102D90008093A60612968C91129782FD91C081E0D5
:102DA0008093A6062AE02A95F1F700C000000000F3
:102DB00000000000000082E08093A5068AE08A956A
:102DC000F1F700C00000000000000000000082E0F9
:102DD0008093A60612968C91129781FD6DC081E0BA
:102DE0008093A6069AE09A95F1F700C000000000D3
:102DF00000000000000082E08093A5062AE02A95EA
:102E0000F1F700C00000000000000000000082E0B8
:102E10008093A60612968C9180FD4AC081E0809333
:102E2000A6068AE08A95F1F700C0000000000000C5
:102E30000000000082E08093A5069AE09A95F1F7E1
:102E400000C00000000000000000000082E080934D
:102E5000A60691E09093A5062AE02A95F1F700C016
:102E6000000000000000000000008093A5062AE09A
:102E70002A95F1F700C000000000000000000000EB
:102E800023E02093A6062AE02A95F1F700C000006F
:102E900000000000000000008093A50685E18A95EF
:102EA000F1F700009093A5061092952281E0089515
:102EB00081E08093A506B5CF81E08093A50692CFEF
:102EC00081E08093A5066ECF81E08093A6064ACF6D
:102ED00081E08093A60626CF81E08093A60602CFEC
:102EE00081E08093A506DECE82E08093A60691E085
:102EF0009093A6069AE09A95F1F700C000000000B2
:102F00000000000000008093A5062AE02A95F1F752
:102F100000C00000000000000000000091CE82E030
:102F20008093A60611968C9182FF1AC081E080934F
:102F3000A5062AE02A95F1F700C000000000000075
:102F40000000000082E08093A5068AE08A95F1F7F0
:102F5000DFCF82E08093A6068C91880F81FDE6CFBB
:102F600081E08093A606E5CF82E08093A6061196C5
:102F70008C9186FF34C081E08093A5068AE08A9513
:102F8000F1F700C00000000000000000000082E037
:102F90008093A5069AE09A95F1F7BACF82E08093E4
:102FA000A60611968C9187FD25C081E08093A60628
:102FB0009AE09A95F1F700C00000000000000000C0
:102FC000000082E08093A5062AE02A95F1F7A0CFC1
:102FD00082E08093A60611968C9180FDCCCF81E093
:102FE0008093A606CBCF82E08093A60611968C91A3
:102FF00081FFDBCF81E08093A506DACF82E080936A
:10300000A60611968C9184FFD0CFF4CF82E08093F6
:10301000A60611968C9185FFA3CF88CF82E080937E
:10302000A60611968C9183FFDACFA5CF82E080931C
:10303000A6068C91880F85FFD2CF9DCF82E080932A
:10304000A6068C91880F86FFB0CFD4CF82E0809304
:10305000A6068C91880F87FF83CF68CF20E22A9540
:10306000F1F781E08093A60685E18A95F1F70000EB
:1030700082E08093A6068ECF82E08093A6068C9194
:10308000880F83FF92CFB6CF82E08093A6068C9103
:10309000880F82FFA4CF6FCF82E08093A6068C9129
:1030A000880F84FF5DCF42CF81E08093A506DACD03
:1030B000DC0190919522492F50E04033510518F5DD
:1030C000FA018827E65EFE4F8F4F0C94973782E017
:1030D0008093A60691E09093A5062AE02A95F1F741
:1030E00000C0000000000000000000008093A50662
:1030F0008AE08A95F1F700C000000000000000009F
:103100000000909195229F5F9093952280E0089512
:1031100082E08093A60691E09093A5062AE02A9586
:10312000F1F700C0000000000000000000008093E4
:10313000A5062AE02A95F1F700C000000000000073
:10314000000000002091A80620FD23C09091952248
:103150009F5F9093952280E0089582E08093A60679
:1031600091E09093A5062AE02A95F1F700C00000AF
:1031700000000000000000008093A5062AE02A95C8
:10318000F1F700C000000000000000000000809384
:10319000A60623E02093A6062AE02A95F1F700C0B0
:1031A000000000000000000000008093A50685E1FB
:1031B0008A95F1F700009093A5061092952281E080
:1031C000089582E08093A6068C91880F81FF49C004
:1031D00081E08093A5068AE08A95F1F700C000009F
:1031E000000000000000000082E08093A5069AE045
:1031F0009A95F1F780CF82E08093A6068C91880F94
:1032000082FF3AC081E08093A5069AE09A95F1F793
:1032100000C00000000000000000000082E0809379
:10322000A5062AE02A95F1F766CF82E08093A606EC
:103230008C91880F83FF2BC081E08093A5062AE044
:103240002A95F1F700C00000000000000000000017
:1032500082E04CCF82E08093A6068C91880F84FD9B
:10326000B7CF81E08093A606B6CF82E08093A60612
:103270008C91880F85FDC6CF81E08093A606C5CFCF
:1032800082E08093A6068C91880F86FDD5CF81E0E1
:103290008093A606D4CF82E08093A6068C91880FF7
:1032A00087FFDFCF95CF92E09093A60681E08093D1
:1032B000A5062AE02A95F1F700C0000000000000F2
:1032C000000000009093A50695E19A95F1F70000A3
:1032D0008093A60625E12A95F1F7000090919522AA
:1032E00012CF82E08093A6069AE09A95F1F700C08B
:1032F000000000000000000000008093A5062AE006
:103300002A95F1F700C00000000000000000000056
:103310008091A80680FF1ACF14968C911497826032
:1033200014968C9313CF82E08093A60611968C910D
:1033300080FF97CF4DCF82E08093A60611968C91A7
:1033400081FF9ACF5FCF82E08093A60611968C9181
:1033500082FF9DCF71CF82E08093A60611968C915B
:1033600083FF7FCF35CF82E08093A60611968C91A4
:1033700084FF82CF47CF82E08093A60611968C917E
:1033800085FF85CF59CF82E08093A60611968C9158
:1033900086FF67CF1DCF82E08093A60611968C91A1
:1033A00087FF6ACF2FCF82E08093A6069AE09A9596
:1033B000F1F700C000000000000000000000809352
:1033C000A5062AE02A95F1F700C0000000000000E1
:1033D000000000008091A80680FFB8CE14968C9162
:1033E0001497816014968C93909195228CCE82E0F4
:1033F0008093A60691E09093A6069AE09A95F1F73D
:1034000000C0000000000000000000008093A5063E
:103410002AE02A95F1F76FCE82E08093A6068C9180
:10342000880F81FF34CF08CF82E08093A6068C916D
:10343000880F82FF16CFCCCE82E08093A6068C91B7
:10344000880F83FF19CFDECE82E08093A6068C9191
:10345000880F84FF1CCFF0CE82E08093A6068C916B
:10346000880F85FFFECEB4CE82E08093A6068C91B5
:10347000880F86FF01CFC6CE82E08093A6068C918E
:10348000880F87FDD9CE03CF633008F098CE20E2B5
:103490002A95F1F781E08093A60685E18A95F1F7F8
:1034A000000082E08093A6069AE09A95F1F723CE79
:1034B00082E08093A6069AE09A95F1F700C000009A
:1034C00000000000000000008093A5062AE02A9575
:1034D000F1F700C000000000000000000000809133
:1034E000A80680FF33CE14968C91149784601496AE
:1034F0008C939091952207CE82E08093A6069AE065
:103500009A95F1F700C000000000000000000000E4
:103510008093A5062AE02A95F1F700C0000000007C
:103520000000000000008091A80680FF0FCE1496D6
:103530008C911497886014968C9390919522E3CD8A
:1035400082E08093A6069AE09A95F1F700C0000009
:1035500000000000000000008093A5062AE02A95E4
:10356000F1F700C0000000000000000000008091A2
:10357000A80680FFEBCD14968C9114978061149669
:103580008C9390919522BFCD82E08093A6069AE01D
:103590009A95F1F700C00000000000000000000054
:1035A0008093A5062AE02A95F1F700C000000000EC
:1035B0000000000000008091A80680FFC7CD14968F
:1035C0008C911497806214968C93909195229BCD48
:1035D00082E08093A6069AE09A95F1F700C0000079
:1035E00000000000000000008093A5062AE02A9554
:1035F000F1F700C000000000000000000000809112
:10360000A80680FFA3CD14968C911497806414961D
:103610008C939091952277CD82E08093A6069AE0D4
:103620009A95F1F700C000000000000000000000C3
:103630008093A5062AE02A95F1F700C0000000005B
:103640000000000000008091A80680FF7FCD149646
:103650008C911497806814968C939091952253CDF9
:1036600082E08093A606613009F47DC191E09093D9
:10367000A6069AE09A95F1F700C00000000000004D
:10368000000000008093A5062AE02A95F1F700C00B
:10369000000000000000000000008093A60690914A
:1036A000952231CD82E08093A6069AE09A95F1F7B3
:1036B00000C0000000000000000000008093A5068C
:1036C0002AE02A95F1F700C0000000000000000089
:1036D00000008091A80680FF39CD12968C91129738
:1036E000816012968C93129713968C911397816038
:1036F00013968C939091952206CD82E08093A60636
:103700009AE09A95F1F700C0000000000000000068
:1037100000008093A5062AE02A95F1F700C000007A
:1037200000000000000000008091A80680FF0ECD80
:1037300012968C911297826012968C931297139620
:103740008C911397826013968C9390919522DBCC89
:1037500082E08093A6069AE09A95F1F700C00000F7
:1037600000000000000000008093A5062AE02A95D2
:10377000F1F700C000000000000000000000809190
:10378000A80680FFE3CC12968C9112978460129663
:103790008C93129713968C911397846013968C9345
:1037A00090919522B0CC82E08093A6069AE09A95FB
:1037B000F1F700C00000000000000000000080934E
:1037C000A5062AE02A95F1F700C0000000000000DD
:1037D000000000008091A80680FFB8CC12968C9162
:1037E0001297886012968C93129713968C91139768
:1037F000886013968C939091952285CC82E080937B
:10380000A6069AE09A95F1F700C0000000000000BB
:10381000000000008093A5062AE02A95F1F700C079
:10382000000000000000000000008091A80680FF5A
:103830008DCC12968C911297806112968C93129770
:1038400013968C911397806113968C939091952287
:103850005ACC82E08093A6069AE09A95F1F700C0D0
:10386000000000000000000000008093A5062AE090
:103870002A95F1F700C000000000000000000000E1
:103880008091A80680FF62CC12968C91129780627C
:1038900012968C93129713968C91139780621396BD
:1038A0008C93909195222FCC82E08093A6069AE08B
:1038B0009A95F1F700C00000000000000000000031
:1038C0008093A5062AE02A95F1F700C000000000C9
:1038D0000000000000008091A80680FF37CC1296FF
:1038E0008C911297806412968C93129713968C91F8
:1038F0001397806413968C939091952204CC82E068
:103900008093A6069AE09A95F1F700C000000000A7
:103910000000000000008093A5062AE02A95F1F738
:1039200000C0000000000000000000008091A80618
:1039300080FF0CCC12968C911297806812968C9313
:10394000129713968C911397806813968C9390918D
:103950009522D9CB12961C92129713961C9281E055
:103960008093A506D0CB6093A5069AE09A95F1F7CF
:1039700000C0000000000000000000008093A506C9
:103980009AE09A95F1F700C00000000000000000E6
:1039900000008093A60693E09093A6069AE09A957D
:1039A000F1F700C00000000000000000000080935C
:1039B000A50685E18A95F1F700006093A5061092AF
:1039C000952281E0089540E062E080E090E00E946E
:1039D000792A0C94D32A80911822811101C008956C
:1039E0008EE70C94142B80911822811101C0089548
:1039F0008DE70C94142B80911822811101C0089539
:103A000081E70C94142BCF93DF931F92CDB7DEB7D1
:103A1000898380911822882351F08981803158F060
:103A20008FE6898361E0CE0101960E941B2B0F90E7
:103A3000DF91CF9108958066F4CF90911822992359
:103A400041F0803118F08FE60C94142B80660C94B2
:103A5000142B0895CF93DF931F92CDB7DEB78091DB
:103A60001822882339F086E5898361E0CE0101962A
:103A70000E941B2B0F90DF91CF910895CF93DF937E
:103A80001F92CDB7DEB790911822992339F0806844
:103A9000898361E0CE0101960E941B2B0F90DF917C
:103AA000CF91089590911822911101C008958068D6
:103AB0000C94142B982F907E9034D1F040F49923DD
:103AC000A1F0903269F48F718093AF2308959036FE
:103AD00041F0903821F48F718093AD2308950895BB
:103AE00008958F718093AC2308958093AE23089539
:103AF0008F718093AB23089521E02093982224E0D6
:103B00002093260620E297FD28C12093660620E830
:103B1000209365062093660620E296FF93C02093CB
:103B2000650620E8209365062093660620E295FF4F
:103B300093C02093650620E82093650620936606CF
:103B400020E294FF93C02093650620E82093650649
:103B50002093660620E293FF93C02093650620E839
:103B6000209365062093660620E292FF93C020937F
:103B7000650620E8209365062093660620E291FF03
:103B800093C02093650620E820936506209366067F
:103B900020E290FF93C02093650620E820936506FD
:103BA0002093660620E287FF93C02093650620E8F5
:103BB000209365062093660620E286FF93C020933B
:103BC000650620E8209365062093660620E285FFBF
:103BD00093C02093650620E820936506209366062F
:103BE00020E284FF93C02093650620E820936506B9
:103BF0002093660620E283FF93C02093650620E8A9
:103C0000209365062093660630E282FF93C03093CE
:103C1000650620936506209366063093650690E856
:103C2000909365069093660681FD93C080E2809331
:103C3000660680E8809365068093660684E080933C
:103C4000250608952093660620E8209365062093B4
:103C5000660620E295FD6DCF2093660620E820934E
:103C600065062093660620E294FD6DCF20936606DC
:103C700020E8209365062093660620E293FD6DCF31
:103C80002093660620E8209365062093660620E2CE
:103C900092FD6DCF2093660620E820936506209361
:103CA000660620E291FD6DCF2093660620E8209302
:103CB00065062093660620E290FD6DCF2093660690
:103CC00020E8209365062093660620E287FD6DCFED
:103CD0002093660620E8209365062093660620E27E
:103CE00086FD6DCF2093660620E82093650620931D
:103CF000660620E285FD6DCF2093660620E82093BE
:103D000065062093660620E284FD6DCF209366064B
:103D100020E8209365062093660620E283FD6DCFA0
:103D20002093660620E8209365062093660630E21D
:103D300082FD6DCF3093660620936506209366065C
:103D40003093660690E8909365069093660681FF2F
:103D50006DCF80E2809365066CCF20936506D7CE49
:103D600021E02093972220E42093260620E297FD6D
:103D700028C12093660620E82093650620936606F6
:103D800020E296FF93C02093650620E82093650605
:103D90002093660620E295FF93C02093650620E8F5
:103DA000209365062093660620E294FF93C020933B
:103DB000650620E8209365062093660620E293FFBF
:103DC00093C02093650620E820936506209366063D
:103DD00020E292FF93C02093650620E820936506B9
:103DE0002093660620E291FF93C02093650620E8A9
:103DF000209365062093660620E290FF93C02093EF
:103E0000650620E8209365062093660620E287FF7A
:103E100093C02093650620E82093650620936606EC
:103E200020E286FF93C02093650620E82093650674
:103E30002093660620E285FF93C02093650620E864
:103E4000209365062093660620E284FF93C02093AA
:103E5000650620E8209365062093660620E283FF2E
:103E600093C02093650620E820936506209366069C
:103E700030E282FF93C0309365062093650620935D
:103E800066063093650690E8909365069093660603
:103E900081FD93C080E28093660680E8809365068A
:103EA0008093660680E48093250608952093660635
:103EB00020E8209365062093660620E295FD6DCFED
:103EC0002093660620E8209365062093660620E28C
:103ED00094FD6DCF2093660620E82093650620931D
:103EE000660620E293FD6DCF2093660620E82093BE
:103EF00065062093660620E292FD6DCF209366064C
:103F000020E8209365062093660620E291FD6DCFA0
:103F10002093660620E8209365062093660620E23B
:103F200090FD6DCF2093660620E8209365062093D0
:103F3000660620E287FD6DCF2093660620E8209379
:103F400065062093660620E286FD6DCF2093660607
:103F500020E8209365062093660620E285FD6DCF5C
:103F60002093660620E8209365062093660620E2EB
:103F700084FD6DCF2093660620E82093650620938C
:103F8000660620E283FD6DCF2093660620E820932D
:103F900065062093660630E282FD6DCF309366069B
:103FA00020936506209366063093660690E890930A
:103FB00065069093660681FF6DCF80E2809365066B
:103FC0006CCF20936506D7CE21E02093962220E186
:103FD0002093260620E297FD28C12093660620E85C
:103FE000209365062093660620E296FF93C02093F7
:103FF000650620E8209365062093660620E295FF7B
:1040000093C02093650620E82093650620936606FA
:1040100020E294FF93C02093650620E82093650674
:104020002093660620E293FF93C02093650620E864
:10403000209365062093660620E292FF93C02093AA
:10404000650620E8209365062093660620E291FF2E
:1040500093C02093650620E82093650620936606AA
:1040600020E290FF93C02093650620E82093650628
:104070002093660620E287FF93C02093650620E820
:10408000209365062093660620E286FF93C0209366
:10409000650620E8209365062093660620E285FFEA
:1040A00093C02093650620E820936506209366065A
:1040B00020E284FF93C02093650620E820936506E4
:1040C0002093660620E283FF93C02093650620E8D4
:1040D000209365062093660630E282FF93C03093FA
:1040E000650620936506209366063093650690E882
:1040F000909365069093660681FD93C080E280935D
:10410000660680E8809365068093660680E180936A
:10411000250608952093660620E8209365062093DF
:10412000660620E295FD6DCF2093660620E8209379
:1041300065062093660620E294FD6DCF2093660607
:1041400020E8209365062093660620E293FD6DCF5C
:104150002093660620E8209365062093660620E2F9
:1041600092FD6DCF2093660620E82093650620938C
:10417000660620E291FD6DCF2093660620E820932D
:1041800065062093660620E290FD6DCF20936606BB
:1041900020E8209365062093660620E287FD6DCF18
:1041A0002093660620E8209365062093660620E2A9
:1041B00086FD6DCF2093660620E820936506209348
:1041C000660620E285FD6DCF2093660620E82093E9
:1041D00065062093660620E284FD6DCF2093660677
:1041E00020E8209365062093660620E283FD6DCFCC
:1041F0002093660620E8209365062093660630E249
:1042000082FD6DCF30936606209365062093660687
:104210003093660690E8909365069093660681FF5A
:104220006DCF80E2809365066CCF20936506D7CE74
:1042300022E020934606209346062093460620E27D
:1042400097FD50C1209346062093460620E1209317
:10425000450620934506209346062093460620E215
:1042600096FFEDC0209345062093450620E120935C
:10427000450620934506209346062093460620E2F5
:1042800095FF25C1209345062093450620E1209304
:10429000450620934506209346062093460620E2D5
:1042A00094FF10C1209345062093450620E12093FA
:1042B000450620934506209346062093460620E2B5
:1042C00093FFFBC0209345062093450620E12093F1
:1042D000450620934506209346062093460620E295
:1042E00092FFE6C0209345062093450620E12093E7
:1042F000450620934506209346062093460620E275
:1043000091FFD1C0209345062093450620E12093DC
:10431000450620934506209346062093460620E254
:1043200090FFBCC0209345062093450620E12093D2
:10433000450620934506209346062093460620E234
:1043400087FFA7C0209345062093450620E12093D0
:10435000450620934506209346062093460620E214
:1043600086FF92C0209345062093450620E12093C6
:10437000450620934506209346062093460620E2F4
:1043800085FF7DC0209345062093450620E12093BC
:10439000450620934506209346062093460620E2D4
:1043A00084FF68C0209345062093450620E12093B2
:1043B000450620934506209346062093460620E2B4
:1043C00083FF53C0209345062093450620E12093A8
:1043D000450620934506209346062093460630E284
:1043E00082FF32C030934506309345062093450640
:1043F00020934506209346062093460630934506B3
:104400003093450690E1909345069093450690932E
:1044100046069093460681FD5FC080E28093460683
:104420008093460680E180934506809345068093FD
:1044300046068093460682E08093450608952093C1
:1044400046062093460612CF309346063093460622
:104450002093450620934506209346062093460662
:104460003093460630934606CDCF209346062093E0
:104470004606ACCF209346062093460697CF20935E
:1044800046062093460682CF209346062093460692
:104490006DCF209346062093460658CF20934606BC
:1044A0002093460643CF20934606209346062ECF00
:1044B000209346062093460619CF20934606209364
:1044C000460604CF2093460620934606EFCE20935F
:1044D000460620934606DACE80E280934506809316
:1044E0004506A0CF2093450620934506AFCE2091E8
:1044F0009822222351F088E0809326068093260696
:104500001092982280932506089521E02093982206
:1045100024E02093260620E297FD28C1209366061A
:1045200020E8209365062093660620E296FD93C05E
:104530002093660620E8209365062093660620E215
:1045400095FF93C02093650620E82093650620938D
:10455000660620E294FF93C02093650620E820932E
:1045600065062093660620E293FF93C020936506BC
:1045700020E8209365062093660620E292FF93C010
:104580002093650620E8209365062093660620E2C6
:1045900091FF93C02093650620E820936506209341
:1045A000660620E290FF93C02093650620E82093E2
:1045B00065062093660620E287FF93C02093650678
:1045C00020E8209365062093660620E286FF93C0CC
:1045D0002093650620E8209365062093660620E276
:1045E00085FF93C02093650620E8209365062093FD
:1045F000660620E284FF93C02093650620E820939E
:1046000065062093660620E283FF93C0209365062B
:1046100020E8209365062093660630E282FF93C06F
:1046200030936506209365062093660630936506F1
:1046300090E8909365069093660681FD93C080E2B2
:104640008093660680E8809365068093660684E022
:104650008093250608952093650620E8209365063B
:104660002093660620E295FD6DCF2093660620E834
:10467000209365062093660620E294FD6DCF20937B
:10468000660620E8209365062093660620E293FDE7
:104690006DCF2093660620E820936506209366067A
:1046A00020E292FD6DCF2093660620E820936506F8
:1046B0002093660620E291FD6DCF2093660620E8E8
:1046C000209365062093660620E290FD6DCF20932F
:1046D000660620E8209365062093660620E287FDA3
:1046E0006DCF2093660620E820936506209366062A
:1046F00020E286FD6DCF2093660620E820936506B4
:104700002093660620E285FD6DCF2093660620E8A3
:10471000209365062093660620E284FD6DCF2093EA
:10472000660620E8209365062093660620E283FD56
:104730006DCF2093660620E82093650620936606D9
:1047400030E282FD6DCF309366062093650620939C
:1047500066063093660690E8909365069093660629
:1047600081FF6DCF80E2809365066CCF2093650654
:10477000D7CE20919722222351F080E880932606FD
:10478000809326061092972280932506089521E0B3
:104790002093972220E42093260620E297FD28C14B
:1047A0002093660620E8209365062093660620E2A3
:1047B00096FD93C02093660620E82093650620931B
:1047C000660620E295FF93C02093650620E82093BB
:1047D00065062093660620E294FF93C02093650649
:1047E00020E8209365062093660620E293FF93C09D
:1047F0002093650620E8209365062093660620E254
:1048000092FF93C02093650620E8209365062093CD
:10481000660620E291FF93C02093650620E820936E
:1048200065062093660620E290FF93C020936506FC
:1048300020E8209365062093660620E287FF93C058
:104840002093650620E8209365062093660620E203
:1048500086FF93C02093650620E820936506209389
:10486000660620E285FF93C02093650620E820932A
:1048700065062093660620E284FF93C020936506B8
:1048800020E8209365062093660620E283FF93C00C
:104890002093650620E8209365062093660630E2A3
:1048A00082FF93C0309365062093650620936606C9
:1048B0003093650690E8909365069093660681FDB7
:1048C00093C080E28093660680E8809365068093BB
:1048D000660680E48093250608952093650620E807
:1048E000209365062093660620E295FD6DCF209308
:1048F000660620E8209365062093660620E294FD74
:104900006DCF2093660620E8209365062093660607
:1049100020E293FD6DCF2093660620E82093650684
:104920002093660620E292FD6DCF2093660620E874
:10493000209365062093660620E291FD6DCF2093BB
:10494000660620E8209365062093660620E290FD27
:104950006DCF2093660620E82093650620936606B7
:1049600020E287FD6DCF2093660620E82093650640
:104970002093660620E286FD6DCF2093660620E830
:10498000209365062093660620E285FD6DCF209377
:10499000660620E8209365062093660620E284FDE3
:1049A0006DCF2093660620E8209365062093660667
:1049B00020E283FD6DCF2093660620E820936506F4
:1049C0002093660630E282FD6DCF30936606209319
:1049D0006506209366063093660690E89093650618
:1049E0009093660681FF6DCF80E2809365066CCF61
:1049F00020936506D7CE20919622222351F080E2A3
:104A00008093260680932606109296228093250690
:104A1000089521E02093962220E12093260620E2AB
:104A200097FD28C12093660620E820936506209311
:104A3000660620E296FD93C02093660620E8209348
:104A400065062093660620E295FF93C020936506D5
:104A500020E8209365062093660620E294FF93C029
:104A60002093650620E8209365062093660620E2E1
:104A700093FF93C02093650620E82093650620935A
:104A8000660620E292FF93C02093650620E82093FB
:104A900065062093660620E291FF93C02093650689
:104AA00020E8209365062093660620E290FF93C0DD
:104AB0002093650620E8209365062093660620E291
:104AC00087FF93C02093650620E820936506209316
:104AD000660620E286FF93C02093650620E82093B7
:104AE00065062093660620E285FF93C02093650645
:104AF00020E8209365062093660620E284FF93C099
:104B00002093650620E8209365062093660620E240
:104B100083FF93C02093650620E8209365062093C9
:104B2000660630E282FF93C03093650620936506E7
:104B3000209366063093650690E8909365069093FF
:104B4000660681FD93C080E28093660680E88093CC
:104B500065068093660680E180932506089520937C
:104B6000650620E8209365062093660620E295FD01
:104B70006DCF2093660620E8209365062093660695
:104B800020E294FD6DCF2093660620E82093650611
:104B90002093660620E293FD6DCF2093660620E801
:104BA000209365062093660620E292FD6DCF209348
:104BB000660620E8209365062093660620E291FDB4
:104BC0006DCF2093660620E8209365062093660645
:104BD00020E290FD6DCF2093660620E820936506C5
:104BE0002093660620E287FD6DCF2093660620E8BD
:104BF000209365062093660620E286FD6DCF209304
:104C0000660620E8209365062093660620E285FD6F
:104C10006DCF2093660620E82093650620936606F4
:104C200020E284FD6DCF2093660620E82093650680
:104C30002093660620E283FD6DCF2093660620E870
:104C4000209365062093660630E282FD6DCF309397
:104C5000660620936506209366063093660690E804
:104C6000909365069093660681FF6DCF80E28093F6
:104C700065066CCF20936506D7CE8091E80682FF4B
:104C8000B5C080915C238130D1F48091E80680FF2B
:104C900013C08091E80680FF12C08091080685FF4E
:104CA0000EC08091512390915223823C21E09207C3
:104CB00019F08B37924019F481E08093850680913A
:104CC0005D23813019F482E08093850681E090E0D5
:104CD00020919822211102C080E090E0209197223B
:104CE000222319F022E030E002C020E030E0822BE5
:104CF000932B20919622222319F024E030E002C069
:104D000020E030E0822B932B8093662390936723DF
:104D10002091880620FF03C028E030E002C020E098
:104D200030E0822B932B809366239093672320910E
:104D3000880621FF03C020E130E002C020E030E01F
:104D4000822B932B80936623909367232091000AF4
:104D5000222319F020E230E002C020E030E0822B74
:104D6000932B80936623909367232091A80625FFB9
:104D700003C020E430E002C020E030E0822B932B1F
:104D800080936623909367232091A80624FF03C095
:104D900020E830E002C020E030E0822B932B8093AB
:104DA0006623909367232091E80621FF03C020E04B
:104DB00031E002C020E030E0822B932B8093662309
:104DC000909367232091280726FF03C020E031E05D
:104DD00002C020E030E0822B932B809366239093D7
:104DE000672361E08EE30E9490310DC080915C23C7
:104DF000813011F48093860680915D23813019F40F
:104E000082E0809386061895189580912424882343
:104E1000D1F11092242480E098E0E1D588E08093DD
:104E2000260680932606109298228093250680E815
:104E3000809326068093260610929722809325065B
:104E400080E2809326068093260610929622809315
:104E5000250680919023811103C080E099E0BFD5A1
:104E60001092502380E593E20E94220F80915C23F0
:104E7000823019F481E08093860680915D23823030
:104E800011F480938606189580912524E82FF0E090
:104E9000E85CFC4DC0A98F5F809325249091882306
:104EA000891302C010922524C0FF07C080913C23C3
:104EB00090913D230E947C1D09C088E080932606C6
:104EC000809326061092982280932506C1FF07C082
:104ED00080913E2390913F230E94B01E09C080E83C
:104EE00080932606809326061092972280932506AB
:104EF000C2FF06C0809140239091412365D809C02C
:104F000080E2809326068093260610929622809354
:104F10002506C3FF1CC08091E80680FF14C0809165
:104F2000E80680FF17C08091080685FF13C08091B6
:104F3000512390915223823C21E0920721F08B373C
:104F400022E0920739F481E08093850603C081E076
:104F500080938606C4FF04C082E08093850603C068
:104F600082E080938606C6FF04C080E28093A50697
:104F700003C080E28093A606C7FF04C080E180934F
:104F8000A50603C080E18093A606C5FF18C08091E6
:104F90008F23982F9D7F49F481E08093502380E5F3
:104FA00093E20E94220F80918F23813091F482E05E
:104FB0008093502380E593E20E94220F0AC08091E3
:104FC0008F23823031F41092502380E593E20E94C7
:104FD000220F18958091E80681FF64C080919B2282
:104FE0008111A5C091E090939B2280915E23282F90
:104FF0002D7F213051F4809164238160809364235C
:1050000061E08CE30E94903192C0843039F4909337
:10501000652385E693E20E94BF1189C0853041F483
:1050200082E08093652385E693E20E94BF117FC0F2
:10503000863041F484E08093652385E693E20E9404
:10504000BF1175C0873041F483E08093652385E606
:1050500093E20E94BF116BC0883041F485E08093D9
:10506000652385E693E20E94BF1161C0893059F43F
:105070009093502380E593E20E94220F61E08DE23D
:105080000E94903154C08A3009F051C082E0809370
:10509000502380E593E20E94220F61E08DE20E949E
:1050A000903145C080919B22813009F040C0109220
:1050B0009B2280915E239EEF980F923050F4809156
:1050C00064238E7F8093642361E08CE30E9490319F
:1050D0002EC0843041F488E08093652385E693E216
:1050E0000E94BF1124C09BEF980F923040F480E1E2
:1050F0008093652385E693E20E94BF1118C099EF63
:10510000980F923040F488E18093652385E693E21E
:105110000E94BF110CC08A3051F41092502380E5D8
:1051200093E20E94220F61E08DE20E949031189577
:105130008091280786FF64C080919A228111A5C0C2
:1051400091E090939A2280915F23282F2D7F213028
:1051500051F48091642382608093642361E08CE346
:105160000E94903192C0843039F49093652385E693
:1051700093E20E94BF1189C0853041F482E08093A0
:10518000652385E693E20E94BF117FC0863041F41B
:1051900084E08093652385E693E20E94BF1175C089
:1051A000873041F483E08093652385E693E20E9493
:1051B000BF116BC0883041F485E08093652385E69C
:1051C00093E20E94BF1161C0893059F4909350233B
:1051D00080E593E20E94220F61E08DE20E9490310F
:1051E00054C08A3009F051C082E08093502380E59A
:1051F00093E20E94220F61E08DE20E94903145C04F
:1052000080919B22813009F040C010929B228091B6
:105210005F239EEF980F923050F4809164238D7F2E
:105220008093642361E08CE30E9490312EC084302F
:1052300041F488E08093652385E693E20E94BF11E4
:1052400024C09BEF980F923040F480E18093652357
:1052500085E693E20E94BF1118C099EF980F923033
:1052600040F488E18093652385E693E20E94BF11B4
:105270000CC08A3051F41092502380E593E20E94D2
:10528000220F61E08DE20E9490311895809108070D
:1052900082FD0EC08FEF8093432082E0809305074C
:1052A00081E08093050790E89093E60680930607D7
:1052B00018958091880680FD05C020915323309178
:1052C000542323C08091202490912124019680931F
:1052D0002024909321242091552330915623821726
:1052E000930729F020915323309154230EC010923C
:1052F000202410922124209153233091542382178B
:10530000930719F081E08093860680912224909182
:1053100023240196809322249093232482179307B9
:1053200019F58091262490912724019680932624B4
:105330009093272420915723309158238217930765
:1053400061F480915023813041F48093860680E09F
:105350009AE045D398D0189507C010922224109255
:10536000232481E08093850618958091080685FFA7
:1053700004C084E68093192217C08091E80680FF5C
:1053800006C081E08093860680E09AE028D38FEF04
:105390008093192280914F23813031F410924F2352
:1053A00061E08CE2BDD76FD0189518958091080602
:1053B00085FD0DC08091E80680FD0EC08FEF8093C3
:1053C000192280914F238130A1F01895089584E629
:1053D000809319221895089581E08093860680E0D5
:1053E0009AE0FDD28FEF8093192280914F23813074
:1053F00061F710924F2361E08CE292D744D0189568
:1054000008958091080685FF04C08091E80680FD1C
:105410000FC088E493E20E94AA0E80914F2381116D
:1054200006C081E080934F2361E08CE279D72BC0E6
:1054300081E080938606EDCF8091880681FF0FC0C2
:1054400082E08093860680919922882391F01092C1
:1054500099221092592380E09BE0C1D20AC082E0D9
:105460008093850680915923823019F461E082E3AC
:1054700057D718950E94050A8091A20087688093EB
:10548000A2007894FFCF90919C228091080685FF1E
:1054900018C082E0892B9091080695FF04C0909176
:1054A000E80690FD10C02091512330915223223CF8
:1054B00091E03907A9F02B37324009F480610C9450
:1054C0003E1D80E0E7CF9091000A992361F084604F
:1054D0002091512330915223223C91E0390759F712
:1054E00088600C943E1D9091880690FFDCCF84600C
:1054F000EFCFFF920F931F93CF93DF931F921F92D3
:10550000CDB7DEB789839A83162FF42E21E040E0D1
:1055100060E080E696E00AD220E040E061E080E6CC
:1055200096E0EFD101E022E040E061E080E696E025
:1055300015D281E08093660683E08093A509898176
:105540008093A6096A81862F8F7090E11902B001BD
:105550001124682B6093A709FF2029F08091A409EA
:1055600084608093A40988E08093650620E040E091
:1055700063E080E696E0DAD120E040E062E080E699
:1055800096E0BFD18091680681FF05C08091A30994
:105590008C7F8093A3090F900F90DF91CF911F9183
:1055A0000F91FF900895E0EAF9E084818861848397
:1055B00080EE8183838180618383089581E080937D
:1055C0006506E0919E228E0F80939E22F0E0E85BBC
:1055D000FB4D90819093A009803219F410929E2285
:1055E00080E090919D22981305C08091A3098C7F43
:1055F0008093A30981E080936606189580916806E0
:1056000081FF06C08091A3098C7F8093A3090BC002
:1056100090919E2280919D22981729F08091A30954
:1056200081608093A30918959091A10995FFFCCF03
:105630008093A0090895EF92FF920F931F93CF9349
:10564000DF937C01C62F8091680681FD05C08091A3
:10565000A30981608093A309D0919D228D2F90E0B2
:1056600000E210E0081B190B4C2F50E0041715073F
:10567000E0F0B701885B9B4D0E94A03780919E228D
:10568000CD0FC0939D22C032B1F1D81738F4C8179E
:1056900028F0CF5FC0939E22C03221F1DF91CF91DD
:1056A0001F910F91FF90EF900895A801B701885BBB
:1056B0009B4D0E94A037C01B4C2F50E0B701600FDC
:1056C000711F88E494E20E94A03780919E22C093CB
:1056D0009D22D817F0F2C81708F3CF5FC0939E221F
:1056E000C032E1F610929E22DF91CF911F910F916F
:1056F000FF90EF90089510929D228111CFCF81E00D
:1057000080939E22CBCF8091A0090E945A1D1895AC
:1057100021E040E066E080E096E008D184E190E49A
:10572000909307068150E1F72FEF37EA81E6215089
:1057300030408040E1F700C00000E3E2F2E26BE4B9
:1057400072E240E4219130E02115310561F080E002
:1057500090E0AFE3BFE11197F1F700C000000196C0
:1057600082179307B1F780E4409307066E177F070F
:1057700049F7BFEF27EA31E6B15020403040E1F76A
:1057800000C00000809307068093070680930706F9
:1057900080930706809307060895222309F45BC0CF
:1057A00030E23093520038E0309350003091510095
:1057B00033FFFCCF611538E4730738EE830731E01F
:1057C000930709F482C0611534E2730734EF83074D
:1057D000910509F47CC0611532E173073AE783074C
:1057E000910509F44BC0611539E073073DE3830768
:1057F000910509F46EC0603834E873073EE1830711
:10580000910509F460C0603432E473073FE0830718
:10581000910509F462C0603231EA730737E083070B
:10582000910509F458C0603930ED730733E0830700
:10583000910509F454C0683438EE730731E08307EA
:10584000910509F44EC06432744F8105910509F049
:105850004AC084E414C032E2309352003AE03093FC
:1058600050003091510031FFFCCF3091510033FD99
:10587000A1CF3091510033FFF8CF9CCF8CE098ED51
:1058800094BF222399F023E02093400094BF80939B
:105890004100442329F088ED84BF81E080934200D9
:1058A00088ED84BF81E080938000089521E02093FB
:1058B000400094BF8093410094BF82E080935600E3
:1058C00020936000E6CF8CE1DACF80E0D8CF84E08F
:1058D000D6CF84E1D4CF8CE2D2CF84E2D0CF84E3A0
:1058E000CECF8CE3CCCF80E0089588ED84BF81E0FB
:1058F00080938000089588ED84BF83E080938000CA
:10590000FFCFFC01308181E090E0062E01C0880FBE
:105910000A94EAF78095832380837096E60FF11D41
:105920008081422B807C482B40830895FC0130818C
:1059300081E090E0062E01C0880F0A94EAF7382B28
:1059400030837096E60FF11D8081807C842B8083EC
:10595000211103C080818760808308950F93FC012B
:105960003185842F90E0880F991FA3E0B0E0082EC6
:1059700001C0AA0F0A94EAF7A095A323082E01C03C
:10598000660F0A94EAF7A62BA18741110FC00023E6
:10599000A9F02287248581E090E0042E01C0880FC1
:1059A0000A94EAF7282B24870F910895413091F744
:1059B000011108C08385822B8387ECCF8285822BDF
:1059C0008287E8CF2387E6CFFC0110828CE08187B5
:1059D0004150510946A357A3268360830895FC01D3
:1059E00010822CE021870895FC0110828CE08187D1
:1059F0004150510946A357A3268360830895FC01B3
:105A000010822CE0218708952091CF0127FDFCCF43
:105A10008093C0019093C1011092C20186E08093EF
:105A2000CA0188ED84BF81E08093CB018091C401DD
:105A300008952091CF0127FDFCCF2091CF0121FFB8
:105A400008C026E32093CA0128ED24BF21E020935B
:105A5000CB0123E32093CA018093C0019093C1013D
:105A60001092C2016093C40185E38093CA0188ED5E
:105A700084BF81E08093CB010895FF920F931F9321
:105A8000CF93DF938C01C7E0D0E0F12C08C0F11078
:105A90000BC0CE01CEDF2196C032D10571F0F801E6
:105AA00061918F016111F3CF60E0CE01C2DFFF246D
:105AB000F3942196C032D10591F7DF91CF911F91D8
:105AC0000F91FF900895CF93962F803208F47FC0F6
:105AD000282F30E020523109F901EC51FE4D508160
