:1000000049C100006DC100006BC1000069C1000062
:1000100067C1000065C1000063C1000061C100004C
:100020005FC100005DC100005BC1000059C100005C
:1000300057C1000055C100000C94EA2751C10000CF
:100040000C94FC270C944C280C94D1280C94D528A3
:100050000C94253245C100000C94883441C1000045
:100060003FC100003DC100003BC1000039C100009C
:100070000C94A93835C1000033C1000031C1000023
:100080002FC100002DC100002BC1000029C10000BC
:1000900027C1000025C1000023C1000021C10000CC
:1000A0001FC100001DC100001BC1000019C10000DC
:1000B00017C1000015C1000013C100000C948A2A6A
:1000C0000FC100000DC100000BC1000009C10000FC
:1000D00007C100000C948B0803C1000001C100009F
:1000E000FFC00000FDC00000FBC00000F9C0000020
:1000F000F7C00000F5C00000F3C00000F1C0000030
:100100000C943E2CEDC000000C94E62AE9C00000DF
:10011000E7C00000E5C00000E3C00000E1C000004F
:10012000DFC00000DDC00000DBC00000D9C000005F
:10013000D7C000000C94AB08D3C00000D1C00000B1
:10014000CFC00000CDC00000CBC000000C94BD08A3
:10015000C7C00000C5C00000C3C00000C1C000008F
:100160000C94C32C0C941E2CBBC00000B9C0000022
:10017000B7C00000B5C00000B3C00000B1C00000AF
:100180000C94D9280C9415270C9400370C94772ADA
:100190000C94A829A5C00000A3C00000A1C00000C5
:1001A0009FC000009DC000009BC0000099C00000DF
:1001B0000C94582B95C0000093C0000091C0000023
:1001C0008FC000008DC000008BC0000089C00000FF
:1001D00087C0000085C0000083C000000C94D837A1
:1001E0000C94A4367DC000007BC0000079C00000E4
:1001F00077C0000075C0000073C000000619FE182B
:10020000F618EE18241914191C1981184C18DA164E
:10021000A6188C18DE18D618E6186718CB18C01860
:10022000DA16FF161F173F175F177F179F17BF17A5
:10023000DF17FE171C1B141B0C1B041BFC1AF41AE3
:10024000EC1AE41ACF1A6019A31A9B1A931A8B1A84
:10025000831A7B1A731A6B1A60192B1A231A181A2D
:100260000D1A021AED19D319B9193F196019821D17
:10027000571D2C1D011DD61CAB1C801C551C2A1C97
:10028000081CE41BC01B9C1B781B541B301B491A09
:10029000AB1A851911241FBECFEFCDBFDFE3DEBF40
:1002A00000E00CBF18BE19BE1ABE1BBE12E2A0E0D1
:1002B000B0E2E8EEF2E700E00BBF02C007900D925B
:1002C000AC3BB107D9F71BBE2EE3ACEBB2E201C0E9
:1002D0001D92A53AB207E1F70E94762B0C94723971
:1002E0008FCE482F50E041505109FA01E050F04EB6
:1002F000608188E080930607809306078093060755
:1003000084E08093260792E0909326079093260737
:1003100090932607909325079093250790932507A0
:10032000909326078093260790932607909326079D
:100330009093260790932507909325079093250780
:10034000909326078093250790932607909326077E
:100350009093260790932507909325079093250760
:1003600090932607262F30E067FDDCC18093260797
:1003700082E0809326078093260780932607809348
:100380002507809325078093250780932607C901B9
:10039000880F991F87FDFFC184E08093260782E0C4
:1003A000809326078093260780932607809325074E
:1003B000809325078093250780932607C901880F1E
:1003C000991F880F991F87FDE2C184E0809326075B
:1003D00082E08093260780932607809326078093E8
:1003E0002507809325078093250780932607C90159
:1003F000880F991F880F991F880F991F87FDC3C108
:1004000084E08093260782E0809326078093260766
:1004100080932607809325078093250780932507DF
:1004200080932607C90182959295907F9827807FB7
:10043000982787FDA4C184E08093260782E08093FB
:1004400026078093260780932607809325078093AD
:1004500025078093250780932607C901880F991FD8
:1004600082959295907F9827807F982787FD83C1FA
:1004700084E08093260782E08093260780932607F6
:10048000809326078093250780932507809325076F
:1004900080932607C9010024969587950794969521
:1004A00087950794982F802D87FD61C184E0809304
:1004B000260782E0809326078093260780932607ED
:1004C000809325078093250780932507809326072F
:1004D0003695322F22273795279584E027FF44C190
:1004E0008093250792E09093260790932607909398
:1004F00026079093250790932507909325079093BF
:10050000260728E020930507FA01E05EFF4D3081C1
:1005100020930607209306072093060724E02093E4
:10052000260790932607909326079093260790938B
:1005300025079093250790932507909326072093EE
:10054000260790932607909326079093260790936B
:1005500025079093250790932507909326072093CE
:10056000260790932607909326079093260790934B
:100570002507909325079093250790932607832FAF
:1005800090E037FDEEC02093260722E02093260757
:1005900020932607209326072093250720932507DD
:1005A00020932507209326079C01220F331F27FD48
:1005B000D4C024E02093260722E02093260720932E
:1005C00026072093260720932507209325072093AD
:1005D0002507209326079C01220F331F220F331F6C
:1005E00027FDB7C024E02093260722E020932607AA
:1005F000209326072093260720932507209325077D
:1006000020932507209326079C01220F331F220FDA
:10061000331F220F331F27FD98C024E020932607A5
:1006200022E0209326072093260720932607209375
:1006300025072093250720932507209326079C0153
:1006400022953295307F3227207F322727FD79C0CF
:1006500024E02093260722E02093260720932607F4
:10066000209326072093250720932507209325070D
:10067000209326079C01220F331F22953295307F4D
:100680003227207F322727FD58C024E020932607F9
:1006900022E0209326072093260720932607209305
:1006A00025072093250720932507209326079C01E3
:1006B0000024369527950794369527950794322F71
:1006C000202D27FD36C024E02093260722E020932A
:1006D000260720932607209326072093250720939B
:1006E000250720932507209326079695982F88277E
:1006F0009795879587FF19C084E08093250782E04E
:1007000080932607809326078093260780932507EA
:1007100080932507809325078093260788E08093A0
:10072000050708958093250723CE84E0809326074C
:10073000E6CF24E020932507C9CF24E020932507A6
:10074000A7CF24E02093250786CF24E02093250718
:1007500067CF24E02093250748CF24E02093250786
:100760002BCF2093250711CF80932607BBCE84E0A3
:10077000809325079ECE84E0809325077CCE84E07D
:10078000809325075BCE84E0809325073CCE84E0F0
:10079000809325071DCE84E08093250700CE482F47
:1007A00050E041505109FA01E050F04E608180E282
:1007B00080930607809306078093060784E0809362
:1007C000260792E09093260790932607909326079A
:1007D00090932507909325079093250790932607DC
:1007E00080932607909326079093260790932607D9
:1007F00090932507909325079093250790932607BC
:1008000080932507909326079093260790932607B9
:10081000909325079093250790932507909326079B
:10082000262F30E067FDDCC18093260782E08093AD
:1008300026078093260780932607809325078093B9
:1008400025078093250780932607C901880F991FE4
:1008500087FDFFC184E08093260782E0809326070E
:10086000809326078093260780932507809325078A
:100870008093250780932607C901880F991F880F49
:10088000991F87FDE2C184E08093260782E0809370
:100890002607809326078093260780932507809359
:1008A00025078093250780932607C901880F991F84
:1008B000880F991F880F991F87FDC3C184E080931B
:1008C000260782E0809326078093260780932607D9
:1008D000809325078093250780932507809326071B
:1008E000C90182959295907F9827807F982787FDF0
:1008F000A4C184E08093260782E08093260780933A
:1009000026078093260780932507809325078093E9
:10091000250780932607C901880F991F8295929514
:10092000907F9827807F982787FD83C184E08093FC
:10093000260782E080932607809326078093260768
:1009400080932507809325078093250780932607AA
:10095000C9010024969587950794969587950794E5
:10096000982F802D87FD61C184E08093260782E067
:100970008093260780932607809326078093250778
:100980008093250780932507809326073695322F7D
:1009900022273795279584E027FF44C180932507B8
:1009A00092E09093260790932607909326079093C2
:1009B000250790932507909325079093260720E21B
:1009C00020930507FA01E05EFF4D30812093060772
:1009D000209306072093060724E020932607909390
:1009E00026079093260790932607909325079093C8
:1009F0002507909325079093260720932607909329
:100A000026079093260790932607909325079093A7
:100A10002507909325079093260720932607909308
:100A20002607909326079093260790932507909387
:100A300025079093250790932607832F90E037FD95
:100A4000EEC02093260722E0209326072093260756
:100A50002093260720932507209325072093250719
:100A6000209326079C01220F331F27FDD4C024E0CA
:100A70002093260722E02093260720932607209321
:100A800026072093250720932507209325072093E9
:100A900026079C01220F331F220F331F27FDB7C0EB
:100AA00024E02093260722E02093260720932607A0
:100AB00020932607209325072093250720932507B9
:100AC000209326079C01220F331F220F331F220F72
:100AD000331F27FD98C024E02093260722E02093AF
:100AE0002607209326072093260720932507209387
:100AF000250720932507209326079C0122953295F0
:100B0000307F3227207F322727FD79C024E02093D1
:100B1000260722E020932607209326072093260706
:100B20002093250720932507209325072093260748
:100B30009C01220F331F22953295307F3227207F70
:100B4000322727FD58C024E02093260722E0209377
:100B50002607209326072093260720932507209316
:100B6000250720932507209326079C01002436950E
:100B700027950794369527950794322F202D27FD2A
:100B800036C024E02093260722E0209326072093F6
:100B900026072093260720932507209325072093D7
:100BA0002507209326079695982F88279795879550
:100BB00087FF19C084E08093250782E08093260791
:100BC0008093260780932607809325078093250727
:100BD000809325078093260780E280930507089578
:100BE0008093250723CE84E080932607E6CF24E078
:100BF00020932507C9CF24E020932507A7CF24E021
:100C00002093250786CF24E02093250767CF24E093
:100C10002093250748CF24E0209325072BCF20934E
:100C2000250711CF80932607BBCE84E0809325074C
:100C30009ECE84E0809325077CCE84E080932507B8
:100C40005BCE84E0809325073CCE84E0809325072B
:100C50001DCE84E08093250700CE482F50E0415000
:100C60005109FA01E050F04E608180E88093060758
:100C7000809306078093060784E08093260792E01E
:100C80009093260790932607909326079093250725
:100C90009093250790932507909326078093260726
:100CA0009093260790932607909326079093250705
:100CB0009093250790932507909326078093250707
:100CC00090932607909326079093260790932507E5
:100CD000909325079093250790932607262F30E0C1
:100CE00067FDDCC18093260782E08093260780930E
:100CF00026078093260780932507809325078093F6
:100D0000250780932607C901880F991F87FDFFC11A
:100D100084E08093260782E080932607809326074D
:100D200080932607809325078093250780932507C6
:100D300080932607C901880F991F880F991F87FD87
:100D4000E2C184E08093260782E0809326078093A7
:100D50002607809326078093250780932507809395
:100D6000250780932607C901880F991F880F991FAF
:100D7000880F991F87FDC3C184E08093260782E016
:100D80008093260780932607809326078093250764
:100D9000809325078093250780932607C9018295B4
:100DA0009295907F9827807F982787FDA4C184E043
:100DB0008093260782E080932607809326078093FE
:100DC0002607809325078093250780932507809326
:100DD0002607C901880F991F82959295907F9827C1
:100DE000807F982787FD83C184E08093260782E077
:100DF00080932607809326078093260780932507F4
:100E0000809325078093250780932607C901002436
:100E1000969587950794969587950794982F802D9A
:100E200087FD61C184E08093260782E080932607D6
:100E300080932607809326078093250780932507B4
:100E400080932507809326073695322F22273795E2
:100E5000279584E027FF44C18093250792E0909373
:100E60002607909326079093260790932507909343
:100E70002507909325079093260720E820930507E0
:100E8000FA01E05EFF4D30812093060720930607AC
:100E90002093060724E0209326079093260790933B
:100EA0002607909326079093250790932507909304
:100EB0002507909326072093260790932607909363
:100EC00026079093260790932507909325079093E4
:100ED0002507909326072093260790932607909343
:100EE00026079093260790932507909325079093C4
:100EF000250790932607832F90E037FDEEC02093BF
:100F0000260722E020932607209326072093260712
:100F10002093250720932507209325072093260754
:100F20009C01220F331F27FDD4C024E02093260705
:100F300022E020932607209326072093260720935C
:100F400025072093250720932507209326079C013A
:100F5000220F331F220F331F27FDB7C024E0209339
:100F6000260722E0209326072093260720932607B2
:100F700020932507209325072093250720932607F4
:100F80009C01220F331F220F331F220F331F27FD17
:100F900098C024E02093260722E020932607209380
:100FA00026072093260720932507209325072093C3
:100FB0002507209326079C0122953295307F322702
:100FC000207F322727FD79C024E02093260722E0E6
:100FD0002093260720932607209326072093250792
:100FE0002093250720932507209326079C01220F95
:100FF000331F22953295307F3227207F322727FDFD
:1010000058C024E02093260722E02093260720934F
:101010002607209326072093250720932507209352
:101020002507209326079C010024369527950794D1
:10103000369527950794322F202D27FD36C024E0C2
:101040002093260722E0209326072093260720934B
:101050002607209325072093250720932507209313
:1010600026079695982F88279795879587FF19C00B
:1010700084E08093250782E08093260780932607EB
:101080008093260780932507809325078093250763
:101090008093260780E880930507089580932507AD
:1010A00023CE84E080932607E6CF24E02093250713
:1010B000C9CF24E020932507A7CF24E0209325075C
:1010C00086CF24E02093250767CF24E020932507CF
:1010D00048CF24E0209325072BCF2093250711CF5D
:1010E00080932607BBCE84E0809325079ECE84E0C4
:1010F000809325077CCE84E0809325075BCE84E037
:10110000809325073CCE84E0809325071DCE84E0A4
:101110008093250700CE80E49AE00E943F2E21E0D4
:101120004AEF50E065E080E099E00E94242E1092A2
:10113000342381E080933323E0EEF6E088E3858377
:101140008583868321E040E250E061E080E499E01D
:101150000E94342E189581E080933323E0EEF6E070
:1011600088E385838583868321E040E250E061E067
:1011700080E499E00E94342E18958091332387FDF6
:101180000BC098E39093E5069093E5069093E606EE
:101190008F5F8093332338C1803809F035C180E4F4
:1011A00099E00E943F2E84E5809385068093860611
:1011B000809385068091880683FF03C020E030E29B
:1011C00002C020E030E08091880685FF03C080E007
:1011D00090E202C080E090E040918806042E000C6E
:1011E000550B4427550F441F5527542F442752951C
:1011F000550F507E64E56093860660938506609186
:10120000880663FD30616091880665FD906160919C
:10121000880667FD506164E56093860660938506E5
:101220006091880663FD38606091880665FD98606E
:101230006091880667FD586064E560938606609358
:1012400085066091880663FD34606091880665FDBF
:1012500094606091880667FD546064E5609386063B
:10126000609385066091880663FD32606091880610
:1012700065FD92606091880667FD526064E5609349
:101280008606609385066091880663FD31606091F3
:10129000880665FD91606091880667FD516064E590
:1012A00060938606609385066091880663FD2068DA
:1012B0006091880665FD80686091880667FD4068DA
:1012C00064E560938606609385066091880663FDF9
:1012D00020646091880665FD80646091880667FDE2
:1012E000406464E560938606609385066091880695
:1012F00063FD20626091880665FD806260918806CA
:1013000067FD406264E560938606609385066091A0
:10131000880663FD20616091880665FD80616091AB
:10132000880667FD406164E56093860660938506E4
:101330006091880663FD28606091880665FD88607D
:101340006091880667FD486064E560938606609357
:1013500085066091880663FD24606091880665FDBE
:1013600084606091880667FD446064E5609386064A
:10137000609385066091880663FD2260609188060F
:1013800065FD82606091880667FD426064E5609358
:101390008606609385066091880663FD21606091F2
:1013A000880665FD81606091880667FD416064E59F
:1013B00060938606A09134236A2F70E0FB01EE0F44
:1013C000FF1F6E0F7F1FFB01EE0FFF1FE054FC4D50
:1013D00020833183FB01EE0FFF1FEE53FC4D808312
:1013E0009183660F771FFB01EC53FC4D40835183C3
:1013F00081E08A0F80933423843031F410923423B7
:1014000061E086E40E942E3318958F92AF92BF92CE
:10141000CF92DF92EF920F938AE392E29F938F93A2
:1014200087E3882E94EFA92EB12C25E6C22E23E265
:10143000D22EE12C02E022E040E062E080E198E080
:101440000E94AA300F900F900F91EF90DF90CF90F5
:10145000BF90AF908F900895E0E8F6E081E086833A
:1014600082E0868380E098E00E942F2E80E090E06A
:101470000E94541E80E090E00E94881F80E090E06F
:101480000E94BC2010927D238DE793E25DC5CF932F
:1014900021E040E060E080EE96E00E94D62DC1E0C1
:1014A000C093E60621E040E061E080E496E00E941F
:1014B000D62D21E040E064E080E496E00E94D62D45
:1014C00021E040E065E080E496E00E94D62D80E0D7
:1014D00090E00E94F0210E94BB1D2FEF8FE493EC5F
:1014E000215080409040E1F700C000000E94CB1DD9
:1014F0002FEF87EA91E6215080409040E1F700C04D
:10150000000087E00E94F51D81E20E942A1E2FEF55
:1015100083ED90E3215080409040E1F700C000004F
:101520000E94C31D0E94C82C2FEF83ED90E3215031
:1015300080409040E1F700C000000E945D130E94CF
:101540005D1582E380933D238091080782FFC0935D
:101550003422CF910895E5E6F3E281E390E58083BC
:10156000918314821582168217821086118688EF65
:101570009FE7808B918B87E0828B138A92E0948B1C
:10158000958B86E0868B108E118E128E24E630E0CD
:10159000238F348F22E330E0258F368F2AE030E02E
:1015A000278F30A311A225E332E822A333A314A28C
:1015B00015A281E086A387A315A692AB94E093AB16
:1015C00084AB83E08093B72384E294EF8093B823C5
:1015D0009093B92380ED97E08093BA239093BB2337
:1015E00080E392EF8093BC239093BD231092BE239F
:1015F0001092BF23EFEDF3E2108211821282138268
:1016000014821582168217828CE390EF8093E72371
:101610009093E8238093E9239093EA230895CF934E
:10162000DF9385E693E2A6D30E940D2B87E793E232
:1016300025D4C5E6D3E21B8A89E793E23AD48AE748
:1016400093E250D48BE793E266D480E993E2C9D564
:101650000E947F2B0E94021E18AA19AADF91CF9127
:101660000895809177230C94DB1D80E00C94DB1DA2
:10167000CF931092C422C1E0C0935F2410927D23C7
:101680008DE793E261D40E947F2BE0E8F6E0C68309
:1016900082E08683CF91089581E08093C4220C94E8
:1016A0007F2B08950895089580914120893019F184
:1016B0008A30A9F0883021F08F5F8093412008950F
:1016C00084EC80933E2384E080933F2381E08093E9
:1016D000BC221092402089E080934120089582EC42
:1016E00080933E2383E08093BC221092402081E0CF
:1016F00080934120089581EC80933E2382E0809383
:10170000BC22109240208AE080934120089580916D
:101710004020811108C08091BC22823029F08330A2
:10172000D9F0813091F0089561E08DE393E20E9459
:101730003019809340208823B1F380913F238F7725
:101740001092D8238093D92308958DE393E20E94C9
:10175000CB1680934020089561E08DE393E20E94D0
:101760003019809340208823F1F220913F2380910B
:10177000D8239091D923822B8093D8239093D92377
:1017800061E087E40C942E338091442087FD05C0EE
:101790008150809344208F3F51F08091352287FD06
:1017A00005C08150809335228F3F69F0089581E014
:1017B0008093050780E88093E6068093E50682E043
:1017C00080930607EACF0C943D2B08950895089561
:1017D00008950895089590EE980F973340F490E09F
:1017E0008097FC01E350FE4D2081261711F080E028
:1017F0000895880F991FFC01ED54FF4D0190F08171
:10180000E02D199581E0089590EE980F973348F4F4
:10181000E82FF0E0B097DF01A350BE4D9C919617E2
:1018200011F080E00895EE0FFF1FDF01A157BE4DBC
:101830008D919C9182179307A1F7EB5BFF4D01906F
:10184000F081E02DCA01199410926523109266234D
:101850008091280681FF53C081E090E0809365234A
:101860009093662333E020E04091280640FF06C0B5
:101870003093652320936623832F922F2091E806CF
:1018800020FD04C02091280723FD4AC02091E806CE
:1018900020FF04C02091280723FF3CC02091E806C8
:1018A00020FF04C02091280723FD2EC020910807A7
:1018B00020FD05C08062809365239093662320916C
:1018C000E80627FD33C0209144202F3F09F08064B3
:1018D00020914220222389F09061209143202223ED
:1018E00031F0906480936523909366230895906807
:1018F000809365239093662308959062EECF32E043
:1019000020E080E090E0B0CF8061809365239093E9
:101910006623CCCF88608093652390936623BECFE7
:1019200084608093652390936623B0CF8064CBCF8F
:10193000FC0180819181809367239093682381E0EB
:101940000895FC018081918120914320222321F080
:10195000813CFFE89F0730F48093692390936A23CA
:1019600081E0089580E00895FC01808191812091BB
:101970004320222321F0813CFFE89F0730F480932D
:101980006B2390936C2381E0089580E00895FC011F
:101990008081918120914320222321F0813CFFE826
:1019A0009F0730F480936D2390936E2381E0089518
:1019B00080E008958091080685FB882780F9809350
:1019C0007C2308958091000A811180917D2380936A
:1019D0007D230895FC01808191819C012250310971
:1019E0002F353A4E30F4809380239093812381E009
:1019F000089580E00895FC01808191819C0121502F
:101A0000310920363A4E30F4809382239093832319
:101A100081E0089580E00895FC01808191818093A8
:101A200084239093852381E00895FC018081918136
:101A30009C012858334121363A4E30F48093872355
:101A40009093882381E0089580E00895FC018081CF
:101A5000982F9C7F21F48093892381E0089580E072
:101A60000895FC018081982F9C7F21F480938A2324
:101A700081E0089580E00895FC018081982F907F97
:101A800021F480938B2381E0089580E00895FC0188
:101A90008081982F907F21F480938C2381E008959A
:101AA00080E0089580918806982F917080FF09C08A
:101AB00028E198E08091880681FD922F90939023F1
:101AC000089520E1F7CF8091E80686958170809394
:101AD00091239091280796FD05C090E0892B809373
:101AE0009123089592E0892B80939123089580E0BB
:101AF0000895DC019096E7EBF3E28E91829383E206
:101B0000E739F807D1F781E00895FC018081803240
:101B100020F48093B72381E0089580E00895FC01CC
:101B2000808191819C012858334121363A4E30F40E
:101B30008093B8239093B92381E0089580E00895BD
:101B4000FC0180819181883EFDEF9F0730F48093F6
:101B5000BA239093BB2381E0089580E00895FC01AF
:101B600080819181883EFDEF9F0730F48093BC23F4
:101B70009093BD2381E0089580E00895FC01808169
:101B8000982F9C7F21F48093BE2381E0089580E00C
:101B90000895FC01808191818093C0239093C1239B
:101BA00081E00895FC01808191818093D8239093F6
:101BB000D92381E00895FC0180818093DA2381E0BC
:101BC0000895FC0180818093DB2381E00895FC016E
:101BD00080818093DC2381E00895FC0180818093E3
:101BE000DD2381E00895FC0180818093DE2381E084
:101BF0000895FC0170816181528143813481258186
:101C000096818781EFEDF3E2708361835283438392
:101C1000348325839683878381E00895FC01808146
:101C200091818093E7239093E82381E00895FC015C
:101C3000808191818093E9239093EA2381E0089544
:101C4000FC01808191818093EB239093EC2381E0D0
:101C50000895FC01808191818093FB239093FC2364
:101C600081E00895FC018081918180930B24909301
:101C70000C2481E00895FC018081918180931B24D4
:101C800090931C2481E00895FC01808191818093D0
:101C90002B2490932C2481E00895FC018081918174
:101CA00080933B2490933C2481E008950895FC01A7
:101CB0008081918180934B2490934C2481E00895FE
:101CC000FC018081918180937E2390937F230E94E9
:101CD0007F2B81E00895CF93DF93EC01888180FF13
:101CE0000AC088E080932606809326061092C022C0
:101CF00080932506888181FF0AC080E880932606AC
:101D0000809326061092BF2280932506888182FF49
:101D10000AC080E280932606809326061092BE2297
:101D200080932506888183FD1EC084FF04C082E065
:101D300080938606888185FF04C081E080934606F3
:101D4000888186FF04C080E28093A606888187FF91
:101D500004C080E18093A606888180938E2381E071
:101D6000DF91CF91089581E0809386060E947F2BBA
:101D70008881DBCFCF93DF93FC01C081D181C093F9
:101D80006023D0936123C0FF06C081E080932606C4
:101D900082E080932506C1FF06C082E0809326067C
:101DA00081E080932506C2FF06C081E08093E606AD
:101DB00088E080932507C3FF0AC08091E80680FF72
:101DC00044C081E08093E50688E080932607C4FF45
:101DD0000AC08091E80680FF34C081E08093E50668
:101DE00088E0809325070E947F2BC5FF0EC08FEFF0
:101DF0008093442082E08093050781E0809305076B
:101E000090E89093E60680930607C6FF03C08AE039
:101E100080934420C7FD1DC0D4FF03C081E08093A0
:101E20004220D5FD10924220D6FF03C081E080936E
:101E30004320D7FD1092432007DD81E0DF91CF9151
:101E4000089581E080938606C8CF81E0809386065E
:101E5000B8CF0E94D31DE0CFCF93DF93FC01C081A8
:101E6000D181CE01969587950E94F021C09375236C
:101E7000D093762381E0DF91CF910895CF93FC0139
:101E8000C081C03108F0CFE08C2F0E94DB1DC093D1
:101E9000772381E0CF910895CF93FC01C081C7FDE6
:101EA000CFE78C2F0E94161EC093782381E0CF913C
:101EB0000895CF93FC01C081CC2359F0C13208F0C2
:101EC000C0E28C2F0E947101C093792381E0CF91F1
:101ED0000895C1E08C2F0E947101C093792381E0A5
:101EE000CF910895CF93FC01C081CC2359F0C1322A
:101EF00008F0C0E28C2F0E94CF03C0937A2381E0C8
:101F0000CF910895C1E08C2F0E94CF03C0937A2314
:101F100081E0CF910895CF93FC01C081CC2359F08B
:101F2000C13208F0C0E28C2F0E942D06C0937B23A3
:101F300081E0CF910895C1E08C2F0E942D06C093BF
:101F40007B2381E0CF910895CF93FC01C0818C2F3A
:101F50008C7F51F5209182233091832380918023BF
:101F60009091812382179307F8F08FEF8C0F8330C5
:101F7000F0F0C11127C080910708807F09F08BC065
:101F80008091000A811108C08091080685FF1AC05F
:101F90008091E80680FF16C081E08093860680E08D
:101FA0009AE00E942F2E5CC080E0CF91089580912E
:101FB0007E2390917F23823CF1E09F0741F08B3795
:101FC000924029F0C0937D2381E0CF9108958091C4
:101FD000E80680FF08C08091E80680FFF3CF80917B
:101FE000080685FFEFCFC330F1F580910008882304
:101FF000B9F18091E7239091E8232091E923309172
:10200000EA238217930760F54091BA235091BB23CE
:102010004817590728F54091B8235091B923241740
:102020003507F0F496958795019780932C08909347
:102030002D08C90196958795019780932E08909356
:102040002F0880910C08806C80930C088091070801
:102050008061809307088091070880648093070857
:102060000E947F2BAFCF21E04DE750E066E080E09B
:102070009AE00E94242E81E08093850610926124CC
:102080001092622410925D2410925E2410925B24C0
:1020900010925C24E5CF809107088F708093070829
:1020A00081E0809386060E947F2B6ACFCF93FC014C
:1020B000C0818C2F8C7F79F48FEF8C0F823070F081
:1020C000C11104C08091000B811122C0C0938623EE
:1020D00081E0CF91089580E0CF9108958091000B29
:1020E0008111F4CF409187235091882356954795CD
:1020F0005695479521E065E080E09BE00E94242E04
:1021000081E080938506C23039F01092C122DECF83
:1021100081E08093C122DACF61E082E30E942E3316
:10212000F4CFCF93DF93EC01888180FD52C081FD15
:1021300048C082FD3EC083FF0AC08091E80680FD52
:1021400024C081E0809385060E947F2B888184FFD4
:1021500004C082E080938506888185FF04C081E009
:1021600080934506888186FF04C080E28093A5069F
:10217000888187FF04C080E18093A50688818093D1
:102180008D2381E0DF91CF9108958091E80680FF53
:10219000DBCF8091080685FFD7CF80917E23909179
:1021A0007F23823C21E0920761F28B37924061F6F7
:1021B000C8CF80916D2390916E230E94BC208881AE
:1021C000BACF80916B2390916C230E94881F8881E5
:1021D000B0CF8091692390916A230E94541E888118
:1021E000A6CFCF93DF93EC01888180FD8BC088E080
:1021F00080932606809326061092C022809325069F
:10220000888181FD78C080E8809326068093260629
:102210001092BF2280932506888182FD65C080E2EE
:1022200080932606809326061092BE228093250670
:10223000888183FF20C09091E80690FD40C081E036
:1022400080938506888184FD1CC082E08093860689
:10225000888185FD1CC081E080934606888186FDCB
:102260001CC080E28093A606888187FF1CC080E1A5
:102270008093A5061BC081E080938606888184FF39
:10228000E4CF82E080938506888185FFE4CF81E0FA
:1022900080934506888186FFE4CF80E28093A5067F
:1022A000888187FDE4CF80E18093A6060E947F2B82
:1022B00088818093902381E0DF91CF910895909160
:1022C000E80690FFDCCF9091080695FFD8CF2091CB
:1022D0007E2330917F23223C91E0390709F4AFCF70
:1022E0002B37324061F6ABCF80916D2390916E23F6
:1022F0000E94BC209DCF80916B2390916C230E9403
:10230000881F8ACF8091692390916A230E94541E6E
:1023100077CFCF93DF93EC01888180FD59C081FD99
:102320004FC082FD45C083FF0AC08091880680FFB0
:1023300024C081E0809386060E947F2B888184FFE1
:1023400004C082E080938706888185FF04C081E015
:1023500080934706888186FF04C080E28093A706A9
:10236000888187FF04C080E18093A70688818093DD
:102370008F2381E0DF91CF9108958091E80680FF5F
:1023800013C08091E80680FFD7CF8091080685FFB3
:10239000D3CF80917E2390917F23823C21E09207CE
:1023A00019F08B37924041F681E080938506C4CFC7
:1023B00080916D2390916E230E94D3258881B3CFA5
:1023C00080916B2390916C230E9491248881A9CFE6
:1023D0008091692390916A230E944F2388819FCF27
:1023E000CF93FC01C081CC2349F08091400A88231F
:1023F00071F0C093BF2381E0CF91089580E099E010
:102400000E942F2EC093BF2381E0CF91089521E039
:1024100048E050E067E080E49AE00E94342EC093E8
:10242000BF2381E0CF910895FC0180914320811169
:102430001AC0808191818093692390936A2382815D
:10244000938180936B2390936C23848195818093F7
:102450006D2390936E238081918180936F2390935D
:10246000702381E0089580819181813C2FE892075B
:1024700028F422813381213C3F48E8F280E008952E
:102480001092922380910008882361F035E091E159
:1024900023E080918623813061F0823069F090934F
:1024A000922308953CE098E12AE0809186238130D0
:1024B000A1F720939223089530939223089580E00A
:1024C000089580E008950895089508950895089561
:1024D0000895089508950895089508950895089514
:1024E0000895089508950895089508950895089504
:1024F00008950895089508950895089508950895F4
:1025000008950895089508950895089508950895E3
:1025100008950895089508950895089508950895D3
:10252000089508950895CF93FC01C081C0FF04C0B1
:1025300080910008882301F1C1FD78C0C2FD7FC0F1
:10254000C3FD07C0C4FD0EC0C093922381E0CF91AC
:102550000895809100088823A9F381E080935F2487
:10256000C4FFF2CF8091000B882319F081E08093A3
:10257000C12210928623E8CF10925F24109260242B
:102580004091BA235091BB232091B8233091B923B5
:1025900042175307E0F66091BC237091BD23621788
:1025A0007307A8F681E080934606109200089CE02D
:1025B00090930908369527952150310920932608D4
:1025C0003093270856954795415051094093280864
:1025D00050932908769567956150710960932A0890
:1025E00070932B0880930608809307089091070842
:1025F00094609093070893E19093010895E090937D
:10260000000890918923923029F180918A238230A9
:10261000F1F08091400A81118FCF21E047E050E036
:1026200067E080E49AE00E94342E86CF8091000B10
:102630008823B9F081E080938623C2FF81CF809107
:10264000000B882311F182E08093862379CF809359
:102650008506DFCF9091E80690FDD7CF8093850661
:10266000D4CF40918723509188235695479556950E
:10267000479521E065E080E09BE00E94242E81E008
:10268000809385061092C122D5CF40918723509127
:102690008823569547955695479521E065E080E05B
:1026A0009BE00E94242E81E08093850661E082E316
:1026B0000E942E331092C122C6CFCF92DF92EF92AA
:1026C000FF920F931F93CF93DF9320E040E065E0EC
:1026D00080E096E00E94C12D20E048E167E080E0C4
:1026E00096E00E94C12D20E040E161E080EE96E09E
:1026F0000E94C12D20E040E166E080E297E00E9468
:10270000C12D20E040E063E080E896E00E94C12D0A
:1027100020E040E065E080E896E00E94C12D20E0E6
:1027200040E067E080E896E00E94C12D20E048E1AB
:1027300062E080E097E00E94C12D20E040E062E08E
:1027400080EE96E00E94C12D20E040E164E080E64A
:1027500096E00E94C12D20E040E166E080E696E030
:102760000E94C12D20E040E166E080EA96E00E94F0
:10277000C12D20E040E167E080EA96E00E94C12D93
:1027800020E040E161E080E096E00E94C12D20E081
:1027900040E162E080E096E00E94C12D20E040E14F
:1027A00062E080E496E00E94C12D20E040E163E019
:1027B00080E496E00E94C12D00E020E240E061E06C
:1027C00080E096E00E94EE2D22E040E061E080EEA5
:1027D00096E00E94EE2D20E440E061E080E297E088
:1027E0000E94EE2D24E041E061E080E097E00E944D
:1027F000EE2D24E041E061E080EE96E00E94EE2DB7
:1028000021E040E060E080EE96E00E94D62D21E0DD
:1028100040E063E080E297E00E94D62D21E040E0B6
:1028200064E080E297E00E94D62D21E040E060E085
:1028300080E896E00E94D62D21E040E061E080E84B
:1028400096E00E94D62D21E040E065E080E297E02E
:102850000E94D62D21E040E067E080E297E00E94F0
:10286000D62D21E040E060E080E296E00E94D62D87
:1028700021E040E061E080E296E00E94D62D21E078
:1028800040E060E080E097E00E94D62D21E040E04B
:1028900067E080EE96E00E94D62D21E040E062E005
:1028A00080E296E00E94D62D21E040E066E080E2E2
:1028B00096E00E94D62D21E040E064E080E296E0C0
:1028C0000E94D62D21E040E063E080E296E00E9485
:1028D000D62D21E040E067E080E296E00E94D62D10
:1028E00021E040E065E080E296E00E94D62D21E004
:1028F00040E067E080E696E00E94D62D21E040E0CF
:1029000065E080E696E00E94D62D21E040E062E09E
:1029100080E896E00E94D62D21E040E064E080E867
:1029200096E00E94D62D21E040E066E080E896E047
:102930000E94D62D21E040E063E080EE96E00E9408
:10294000D62D21E040E064E080EE96E00E94D62D96
:1029500021E040E065E080EE96E00E94D62D21E087
:1029600048E261E080E097E00E94D62D21E040E05F
:1029700061E080E297E00E94D62D21E040E062E035
:1029800080E297E00E94D62D21E040E063E080E005
:1029900097E00E94D62D21E040E065E080E097E0DE
:1029A0000E94D62D21E040E067E080E097E00E94A1
:1029B000D62D21E040E061E080E496E00E94D62D33
:1029C00021E040E064E080E496E00E94D62D21E022
:1029D00040E065E080E496E00E94D62D21E040E0F2
:1029E00060E080E496E00E94D62D21E040E065E0C2
:1029F00080EA96E00E94D62D21E040E064E080EA83
:102A000096E00E94D62D60EE76E021E0EB012E8369
:102A1000A0E2B7E058E015965C93159790E1159603
:102A20009C93159700E816E0F801268332E0368380
:102A300080E216968C93169740E816964C9316975C
:102A4000E0E2F6E025833683C12CC7E0DC2EE60108
:102A50002E83EB014E8364E0F62EF58270E4E72EC0
:102A6000E5829583558345838583E0E6F6E04683DA
:102A70008683F801F6829683E6825E839E838E8348
:102A8000E6013D8316963C9316971696FC925D835D
:102A90008D834D83E0E4F6E0358396838683268339
:102AA000E0EAF6E086839683DF91CF911F910F9144
:102AB000FF90EF90DF90CF90089521E048E260E032
:102AC00080EA96E00E94D62D20E040E061E080EAB6
:102AD00096E00E94D62DE0EAF6E082E086832AE6C0
:102AE0002A95F1F700C091E095832AE62A95F1F73F
:102AF00000C087832AE02A95F1F700C0000000009B
:102B000000000000000087832AE02A95F1F700C04A
:102B10000000000000000000000087832AE02A95E2
:102B2000F1F700C0000000000000000000008783F3
:102B30002AE02A95F1F700C0000000000000000024
:102B4000000087832AE02A95F1F700C0000000000A
:102B500000000000000087832AE02A95F1F700C0FA
:102B60000000000000000000000087832AE02A9592
:102B7000F1F700C0000000000000000000008783A3
:102B80002AE02A95F1F700C00000000000000000D4
:102B9000000087832AE02A95F1F700C000000000BA
:102BA00000000000000087832AE02A95F1F700C0AA
:102BB0000000000000000000000087832AE02A9542
:102BC000F1F700C000000000000000000000878353
:102BD0002AE02A95F1F700C0000000000000000084
:102BE000000087832AE02A95F1F700C0000000006A
:102BF00000000000000087832AE02A95F1F700C05A
:102C00000000000000000000000087832AE02A95F1
:102C1000F1F700C000000000000000000000878302
:102C20002AE02A95F1F700C0000000000000000033
:102C3000000087832AE02A95F1F700C00000000019
:102C400000000000000087832AE02A95F1F700C009
:102C50000000000000000000000087832AE02A95A1
:102C6000F1F700C0000000000000000000008783B2
:102C70002AE02A95F1F700C00000000000000000E3
:102C8000000087832AE02A95F1F700C000000000C9
:102C900000000000000087832AE02A95F1F700C0B9
:102CA0000000000000000000000087832AE02A9551
:102CB000F1F700C000000000000000000000878362
:102CC0002AE02A95F1F700C0000000000000000093
:102CD000000087832AE02A95F1F700C00000000079
:102CE00000000000000087832AE02A95F1F700C069
:102CF0000000000000000000000087832AE02A9501
:102D0000F1F700C000000000000000000000878311
:102D10002AE02A95F1F700C0000000000000000042
:102D2000000087832AE02A95F1F700C00000000028
:102D300000000000000087832AE02A95F1F700C018
:102D40000000000000000000000087832AE02A95B0
:102D5000F1F700C0000000000000000000008783C1
:102D60002AE02A95F1F700C00000000000000000F2
:102D7000000023E026832AE02A95F1F700C0000036
:102D80000000000000000000858385E18A95F1F7CE
:102D9000000095830895DC018091BD22482F50E00A
:102DA0004C31510538F5FA018827E250FF4F8F4F1B
:102DB0000C94603982E08093A60691E09093A5067A
:102DC0002AE02A95F1F700C0000000000000000092
:102DD00000008093A5062AE02A95F1F700C00000C4
:102DE00000000000000000002091A80620FD20C186
:102DF0008091BD228F5F8093BD2280E0089582E0A4
:102E00008093A60612968C91129787FD25C281E0C9
:102E10008093A6069AE09A95F1F700C000000000A2
:102E200000000000000082E08093A5062AE02A95B9
:102E3000F1F700C00000000000000000000082E088
:102E40008093A60612968C91129786FD21C181E08F
:102E50008093A6068AE08A95F1F700C00000000082
:102E600000000000000082E08093A5069AE09A9599
:102E7000F1F700C00000000000000000000082E048
:102E80008093A60612968C91129785FFFDC081E073
:102E90008093A5062AE02A95F1F700C00000000003
:102EA00000000000000082E08093A5068AE08A9579
:102EB000F1F700C00000000000000000000082E008
:102EC0008093A60612968C91129784FFD9C081E058
:102ED0008093A5069AE09A95F1F700C000000000E3
:102EE00000000000000082E08093A5062AE02A95F9
:102EF000F1F700C00000000000000000000082E0C8
:102F00008093A60612968C91129783FFB5C081E03C
:102F10008093A5068AE08A95F1F700C000000000C2
:102F200000000000000082E08093A5069AE09A95D8
:102F3000F1F700C00000000000000000000082E087
:102F40008093A60612968C91129782FD91C081E023
:102F50008093A6062AE02A95F1F700C00000000041
:102F600000000000000082E08093A5068AE08A95B8
:102F7000F1F700C00000000000000000000082E047
:102F80008093A60612968C91129781FD6DC081E008
:102F90008093A6069AE09A95F1F700C00000000021
:102FA00000000000000082E08093A5062AE02A9538
:102FB000F1F700C00000000000000000000082E007
:102FC0008093A60612968C9180FD4AC081E0809382
:102FD000A6068AE08A95F1F700C000000000000014
:102FE0000000000082E08093A5069AE09A95F1F730
:102FF00000C00000000000000000000082E080939C
:10300000A60691E09093A5062AE02A95F1F700C064
:10301000000000000000000000008093A5062AE0E8
:103020002A95F1F700C00000000000000000000039
:1030300023E02093A6062AE02A95F1F700C00000BD
:1030400000000000000000008093A50685E18A953D
:10305000F1F700009093A5061092BD2281E008953B
:1030600081E08093A506B5CF81E08093A50692CF3D
:1030700081E08093A5066ECF81E08093A6064ACFBB
:1030800081E08093A60626CF81E08093A60602CF3A
:1030900081E08093A506DECE82E08093A60691E0D3
:1030A0009093A6069AE09A95F1F700C00000000000
:1030B0000000000000008093A5062AE02A95F1F7A1
:1030C00000C00000000000000000000091CE82E07F
:1030D0008093A60611968C9182FF1AC081E080939E
:1030E000A5062AE02A95F1F700C0000000000000C4
:1030F0000000000082E08093A5068AE08A95F1F73F
:10310000DFCF82E08093A6068C91880F81FDE6CF09
:1031100081E08093A606E5CF82E08093A606119613
:103120008C9186FF34C081E08093A5068AE08A9561
:10313000F1F700C00000000000000000000082E085
:103140008093A5069AE09A95F1F7BACF82E0809332
:10315000A60611968C9187FD25C081E08093A60676
:103160009AE09A95F1F700C000000000000000000E
:10317000000082E08093A5062AE02A95F1F7A0CF0F
:1031800082E08093A60611968C9180FDCCCF81E0E1
:103190008093A606CBCF82E08093A60611968C91F1
:1031A00081FFDBCF81E08093A506DACF82E08093B8
:1031B000A60611968C9184FFD0CFF4CF82E0809345
:1031C000A60611968C9185FFA3CF88CF82E08093CD
:1031D000A60611968C9183FFDACFA5CF82E080936B
:1031E000A6068C91880F85FFD2CF9DCF82E0809379
:1031F000A6068C91880F86FFB0CFD4CF82E0809353
:10320000A6068C91880F87FF83CF68CF20E22A958E
:10321000F1F781E08093A60685E18A95F1F7000039
:1032200082E08093A6068ECF82E08093A6068C91E2
:10323000880F83FF92CFB6CF82E08093A6068C9151
:10324000880F82FFA4CF6FCF82E08093A6068C9177
:10325000880F84FF5DCF42CF81E08093A506DACD51
:10326000DC019091BD22492F50E04033510518F503
:10327000FA018827E65EFE4F8F4F0C94603982E09A
:103280008093A60691E09093A5062AE02A95F1F78F
:1032900000C0000000000000000000008093A506B0
:1032A0008AE08A95F1F700C00000000000000000ED
:1032B00000009091BD229F5F9093BD2280E0089511
:1032C00082E08093A60691E09093A5062AE02A95D5
:1032D000F1F700C000000000000000000000809333
:1032E000A5062AE02A95F1F700C0000000000000C2
:1032F000000000002091A80620FD23C09091BD226F
:103300009F5F9093BD2280E0089582E08093A6069F
:1033100091E09093A5062AE02A95F1F700C00000FD
:1033200000000000000000008093A5062AE02A9516
:10333000F1F700C0000000000000000000008093D2
:10334000A60623E02093A6062AE02A95F1F700C0FE
:10335000000000000000000000008093A50685E149
:103360008A95F1F700009093A5061092BD2281E0A6
:10337000089582E08093A6068C91880F81FF49C052
:1033800081E08093A5068AE08A95F1F700C00000ED
:10339000000000000000000082E08093A5069AE093
:1033A0009A95F1F780CF82E08093A6068C91880FE2
:1033B00082FF3AC081E08093A5069AE09A95F1F7E2
:1033C00000C00000000000000000000082E08093C8
:1033D000A5062AE02A95F1F766CF82E08093A6063B
:1033E0008C91880F83FF2BC081E08093A5062AE093
:1033F0002A95F1F700C00000000000000000000066
:1034000082E04CCF82E08093A6068C91880F84FDE9
:10341000B7CF81E08093A606B6CF82E08093A60660
:103420008C91880F85FDC6CF81E08093A606C5CF1D
:1034300082E08093A6068C91880F86FDD5CF81E02F
:103440008093A606D4CF82E08093A6068C91880F45
:1034500087FFDFCF95CF92E09093A60681E080931F
:10346000A5062AE02A95F1F700C000000000000040
:10347000000000009093A50695E19A95F1F70000F1
:103480008093A60625E12A95F1F700009091BD22D0
:1034900012CF82E08093A6069AE09A95F1F700C0D9
:1034A000000000000000000000008093A5062AE054
:1034B0002A95F1F700C000000000000000000000A5
:1034C0008091A80680FF1ACF14968C911497826081
:1034D00014968C9313CF82E08093A60611968C915C
:1034E00080FF97CF4DCF82E08093A60611968C91F6
:1034F00081FF9ACF5FCF82E08093A60611968C91D0
:1035000082FF9DCF71CF82E08093A60611968C91A9
:1035100083FF7FCF35CF82E08093A60611968C91F2
:1035200084FF82CF47CF82E08093A60611968C91CC
:1035300085FF85CF59CF82E08093A60611968C91A6
:1035400086FF67CF1DCF82E08093A60611968C91EF
:1035500087FF6ACF2FCF82E08093A6069AE09A95E4
:10356000F1F700C0000000000000000000008093A0
:10357000A5062AE02A95F1F700C00000000000002F
:10358000000000008091A80680FFB8CE14968C91B0
:103590001497816014968C939091BD228CCE82E01A
:1035A0008093A60691E09093A6069AE09A95F1F78B
:1035B00000C0000000000000000000008093A5068D
:1035C0002AE02A95F1F76FCE82E08093A6068C91CF
:1035D000880F81FF34CF08CF82E08093A6068C91BC
:1035E000880F82FF16CFCCCE82E08093A6068C9106
:1035F000880F83FF19CFDECE82E08093A6068C91E0
:10360000880F84FF1CCFF0CE82E08093A6068C91B9
:10361000880F85FFFECEB4CE82E08093A6068C9103
:10362000880F86FF01CFC6CE82E08093A6068C91DC
:10363000880F87FDD9CE03CF633008F098CE20E203
:103640002A95F1F781E08093A60685E18A95F1F746
:10365000000082E08093A6069AE09A95F1F723CEC7
:1036600082E08093A6069AE09A95F1F700C00000E8
:1036700000000000000000008093A5062AE02A95C3
:10368000F1F700C000000000000000000000809181
:10369000A80680FF33CE14968C91149784601496FC
:1036A0008C939091BD2207CE82E08093A6069AE08B
:1036B0009A95F1F700C00000000000000000000033
:1036C0008093A5062AE02A95F1F700C000000000CB
:1036D0000000000000008091A80680FF0FCE149625
:1036E0008C911497886014968C939091BD22E3CDB1
:1036F00082E08093A6069AE09A95F1F700C0000058
:1037000000000000000000008093A5062AE02A9532
:10371000F1F700C0000000000000000000008091F0
:10372000A80680FFEBCD14968C91149780611496B7
:103730008C939091BD22BFCD82E08093A6069AE043
:103740009A95F1F700C000000000000000000000A2
:103750008093A5062AE02A95F1F700C0000000003A
:103760000000000000008091A80680FFC7CD1496DD
:103770008C911497806214968C939091BD229BCD6E
:1037800082E08093A6069AE09A95F1F700C00000C7
:1037900000000000000000008093A5062AE02A95A2
:1037A000F1F700C000000000000000000000809160
:1037B000A80680FFA3CD14968C911497806414966C
:1037C0008C939091BD2277CD82E08093A6069AE0FB
:1037D0009A95F1F700C00000000000000000000012
:1037E0008093A5062AE02A95F1F700C000000000AA
:1037F0000000000000008091A80680FF7FCD149695
:103800008C911497806814968C939091BD2253CD1F
:1038100082E08093A606613009F47DC191E0909327
:10382000A6069AE09A95F1F700C00000000000009B
:10383000000000008093A5062AE02A95F1F700C059
:10384000000000000000000000008093A606909198
:10385000BD2231CD82E08093A6069AE09A95F1F7D9
:1038600000C0000000000000000000008093A506DA
:103870002AE02A95F1F700C00000000000000000D7
:1038800000008091A80680FF39CD12968C91129786
:10389000816012968C93129713968C911397816086
:1038A00013968C939091BD2206CD82E08093A6065C
:1038B0009AE09A95F1F700C00000000000000000B7
:1038C00000008093A5062AE02A95F1F700C00000C9
:1038D00000000000000000008091A80680FF0ECDCF
:1038E00012968C911297826012968C93129713966F
:1038F0008C911397826013968C939091BD22DBCCB0
:1039000082E08093A6069AE09A95F1F700C0000045
:1039100000000000000000008093A5062AE02A9520
:10392000F1F700C0000000000000000000008091DE
:10393000A80680FFE3CC12968C91129784601296B1
:103940008C93129713968C911397846013968C9393
:103950009091BD22B0CC82E08093A6069AE09A9521
:10396000F1F700C00000000000000000000080939C
:10397000A5062AE02A95F1F700C00000000000002B
:10398000000000008091A80680FFB8CC12968C91B0
:103990001297886012968C93129713968C911397B6
:1039A000886013968C939091BD2285CC82E08093A1
:1039B000A6069AE09A95F1F700C00000000000000A
:1039C000000000008093A5062AE02A95F1F700C0C8
:1039D000000000000000000000008091A80680FFA9
:1039E0008DCC12968C911297806112968C931297BF
:1039F00013968C911397806113968C939091BD22AE
:103A00005ACC82E08093A6069AE09A95F1F700C01E
:103A1000000000000000000000008093A5062AE0DE
:103A20002A95F1F700C0000000000000000000002F
:103A30008091A80680FF62CC12968C9112978062CA
:103A400012968C93129713968C911397806213960B
:103A50008C939091BD222FCC82E08093A6069AE0B1
:103A60009A95F1F700C0000000000000000000007F
:103A70008093A5062AE02A95F1F700C00000000017
:103A80000000000000008091A80680FF37CC12964D
:103A90008C911297806412968C93129713968C9146
:103AA0001397806413968C939091BD2204CC82E08E
:103AB0008093A6069AE09A95F1F700C000000000F6
:103AC0000000000000008093A5062AE02A95F1F787
:103AD00000C0000000000000000000008091A80667
:103AE00080FF0CCC12968C911297806812968C9362
:103AF000129713968C911397806813968C939091DC
:103B0000BD22D9CB12961C92129713961C9281E07B
:103B10008093A506D0CB6093A5069AE09A95F1F71D
:103B200000C0000000000000000000008093A50617
:103B30009AE09A95F1F700C0000000000000000034
:103B400000008093A60693E09093A6069AE09A95CB
:103B5000F1F700C0000000000000000000008093AA
:103B6000A50685E18A95F1F700006093A5061092FD
:103B7000BD2281E0089540E062E080E090E00E9494
:103B8000B92B0C94132C80913422811101C008951B
:103B90008EE70C94542C80913422811101C0089539
:103BA0008DE70C94542C80913422811101C008952A
:103BB00081E70C94542CCF93DF931F92CDB7DEB7DF
:103BC000898380913422882351F08981803158F093
:103BD0008FE6898361E0CE0101960E945B2C0F90F5
:103BE000DF91CF9108958066F4CF9091342299238C
:103BF00041F0803118F08FE60C94542C80660C94C0
:103C0000542C0895CF93DF931F92CDB7DEB78091E8
:103C10003422882339F086E5898361E0CE0101965C
:103C20000E945B2C0F90DF91CF910895CF93DF938B
:103C30001F92CDB7DEB790913422992339F0806876
:103C4000898361E0CE0101960E945B2C0F90DF9189
:103C5000CF91089590913422911101C00895806808
:103C60000C94542C982F907E9034D1F040F49923EA
:103C7000A1F0903269F48F718093DE23089590361D
:103C800041F0903821F48F718093DC2308950895DA
:103C900008958F718093DB2308958093DD23089529
:103CA0008F718093DA23089521E02093C02224E0CD
:103CB0002093260620E297FD28C12093660620E87F
:103CC000209365062093660620E296FF93C020931A
:103CD000650620E8209365062093660620E295FF9E
:103CE00093C02093650620E820936506209366061E
:103CF00020E294FF93C02093650620E82093650698
:103D00002093660620E293FF93C02093650620E887
:103D1000209365062093660620E292FF93C02093CD
:103D2000650620E8209365062093660620E291FF51
:103D300093C02093650620E82093650620936606CD
:103D400020E290FF93C02093650620E8209365064B
:103D50002093660620E287FF93C02093650620E843
:103D6000209365062093660620E286FF93C0209389
:103D7000650620E8209365062093660620E285FF0D
:103D800093C02093650620E820936506209366067D
:103D900020E284FF93C02093650620E82093650607
:103DA0002093660620E283FF93C02093650620E8F7
:103DB000209365062093660630E282FF93C030931D
:103DC000650620936506209366063093650690E8A5
:103DD000909365069093660681FD93C080E2809380
:103DE000660680E8809365068093660684E080938B
:103DF000250608952093660620E820936506209303
:103E0000660620E295FD6DCF2093660620E820939C
:103E100065062093660620E294FD6DCF209366062A
:103E200020E8209365062093660620E293FD6DCF7F
:103E30002093660620E8209365062093660620E21C
:103E400092FD6DCF2093660620E8209365062093AF
:103E5000660620E291FD6DCF2093660620E8209350
:103E600065062093660620E290FD6DCF20936606DE
:103E700020E8209365062093660620E287FD6DCF3B
:103E80002093660620E8209365062093660620E2CC
:103E900086FD6DCF2093660620E82093650620936B
:103EA000660620E285FD6DCF2093660620E820930C
:103EB00065062093660620E284FD6DCF209366069A
:103EC00020E8209365062093660620E283FD6DCFEF
:103ED0002093660620E8209365062093660630E26C
:103EE00082FD6DCF309366062093650620936606AB
:103EF0003093660690E8909365069093660681FF7E
:103F00006DCF80E2809365066CCF20936506D7CE97
:103F100021E02093BF2220E42093260620E297FD93
:103F200028C12093660620E8209365062093660644
:103F300020E296FF93C02093650620E82093650653
:103F40002093660620E295FF93C02093650620E843
:103F5000209365062093660620E294FF93C0209389
:103F6000650620E8209365062093660620E293FF0D
:103F700093C02093650620E820936506209366068B
:103F800020E292FF93C02093650620E82093650607
:103F90002093660620E291FF93C02093650620E8F7
:103FA000209365062093660620E290FF93C020933D
:103FB000650620E8209365062093660620E287FFC9
:103FC00093C02093650620E820936506209366063B
:103FD00020E286FF93C02093650620E820936506C3
:103FE0002093660620E285FF93C02093650620E8B3
:103FF000209365062093660620E284FF93C02093F9
:10400000650620E8209365062093660620E283FF7C
:1040100093C02093650620E82093650620936606EA
:1040200030E282FF93C030936506209365062093AB
:1040300066063093650690E8909365069093660651
:1040400081FD93C080E28093660680E880936506D8
:104050008093660680E48093250608952093660683
:1040600020E8209365062093660620E295FD6DCF3B
:104070002093660620E8209365062093660620E2DA
:1040800094FD6DCF2093660620E82093650620936B
:10409000660620E293FD6DCF2093660620E820930C
:1040A00065062093660620E292FD6DCF209366069A
:1040B00020E8209365062093660620E291FD6DCFEF
:1040C0002093660620E8209365062093660620E28A
:1040D00090FD6DCF2093660620E82093650620931F
:1040E000660620E287FD6DCF2093660620E82093C8
:1040F00065062093660620E286FD6DCF2093660656
:1041000020E8209365062093660620E285FD6DCFAA
:104110002093660620E8209365062093660620E239
:1041200084FD6DCF2093660620E8209365062093DA
:10413000660620E283FD6DCF2093660620E820937B
:1041400065062093660630E282FD6DCF30936606E9
:1041500020936506209366063093660690E8909358
:1041600065069093660681FF6DCF80E280936506B9
:104170006CCF20936506D7CE21E02093BE2220E1AC
:104180002093260620E297FD28C12093660620E8AA
:10419000209365062093660620E296FF93C0209345
:1041A000650620E8209365062093660620E295FFC9
:1041B00093C02093650620E8209365062093660649
:1041C00020E294FF93C02093650620E820936506C3
:1041D0002093660620E293FF93C02093650620E8B3
:1041E000209365062093660620E292FF93C02093F9
:1041F000650620E8209365062093660620E291FF7D
:1042000093C02093650620E82093650620936606F8
:1042100020E290FF93C02093650620E82093650676
:104220002093660620E287FF93C02093650620E86E
:10423000209365062093660620E286FF93C02093B4
:10424000650620E8209365062093660620E285FF38
:1042500093C02093650620E82093650620936606A8
:1042600020E284FF93C02093650620E82093650632
:104270002093660620E283FF93C02093650620E822
:10428000209365062093660630E282FF93C0309348
:10429000650620936506209366063093650690E8D0
:1042A000909365069093660681FD93C080E28093AB
:1042B000660680E8809365068093660680E18093B9
:1042C000250608952093660620E82093650620932E
:1042D000660620E295FD6DCF2093660620E82093C8
:1042E00065062093660620E294FD6DCF2093660656
:1042F00020E8209365062093660620E293FD6DCFAB
:104300002093660620E8209365062093660620E247
:1043100092FD6DCF2093660620E8209365062093DA
:10432000660620E291FD6DCF2093660620E820937B
:1043300065062093660620E290FD6DCF2093660609
:1043400020E8209365062093660620E287FD6DCF66
:104350002093660620E8209365062093660620E2F7
:1043600086FD6DCF2093660620E820936506209396
:10437000660620E285FD6DCF2093660620E8209337
:1043800065062093660620E284FD6DCF20936606C5
:1043900020E8209365062093660620E283FD6DCF1A
:1043A0002093660620E8209365062093660630E297
:1043B00082FD6DCF309366062093650620936606D6
:1043C0003093660690E8909365069093660681FFA9
:1043D0006DCF80E2809365066CCF20936506D7CEC3
:1043E00022E020934606209346062093460620E2CC
:1043F00097FD50C1209346062093460620E1209366
:10440000450620934506209346062093460620E263
:1044100096FFEDC0209345062093450620E12093AA
:10442000450620934506209346062093460620E243
:1044300095FF25C1209345062093450620E1209352
:10444000450620934506209346062093460620E223
:1044500094FF10C1209345062093450620E1209348
:10446000450620934506209346062093460620E203
:1044700093FFFBC0209345062093450620E120933F
:10448000450620934506209346062093460620E2E3
:1044900092FFE6C0209345062093450620E1209335
:1044A000450620934506209346062093460620E2C3
:1044B00091FFD1C0209345062093450620E120932B
:1044C000450620934506209346062093460620E2A3
:1044D00090FFBCC0209345062093450620E1209321
:1044E000450620934506209346062093460620E283
:1044F00087FFA7C0209345062093450620E120931F
:10450000450620934506209346062093460620E262
:1045100086FF92C0209345062093450620E1209314
:10452000450620934506209346062093460620E242
:1045300085FF7DC0209345062093450620E120930A
:10454000450620934506209346062093460620E222
:1045500084FF68C0209345062093450620E1209300
:10456000450620934506209346062093460620E202
:1045700083FF53C0209345062093450620E12093F6
:10458000450620934506209346062093460630E2D2
:1045900082FF32C03093450630934506209345068E
:1045A0002093450620934606209346063093450601
:1045B0003093450690E1909345069093450690937D
:1045C00046069093460681FD5FC080E280934606D2
:1045D0008093460680E1809345068093450680934C
:1045E00046068093460682E0809345060895209310
:1045F00046062093460612CF309346063093460671
:1046000020934506209345062093460620934606B0
:104610003093460630934606CDCF2093460620932E
:104620004606ACCF209346062093460697CF2093AC
:1046300046062093460682CF2093460620934606E0
:104640006DCF209346062093460658CF209346060A
:104650002093460643CF20934606209346062ECF4E
:10466000209346062093460619CF209346062093B2
:10467000460604CF2093460620934606EFCE2093AD
:10468000460620934606DACE80E280934506809364
:104690004506A0CF2093450620934506AFCE209136
:1046A000C022222351F088E08093260680932606BC
:1046B0001092C02280932506089521E02093C02205
:1046C00024E02093260620E297FD28C12093660669
:1046D00020E8209365062093660620E296FD93C0AD
:1046E0002093660620E8209365062093660620E264
:1046F00095FF93C02093650620E8209365062093DC
:10470000660620E294FF93C02093650620E820937C
:1047100065062093660620E293FF93C0209365060A
:1047200020E8209365062093660620E292FF93C05E
:104730002093650620E8209365062093660620E214
:1047400091FF93C02093650620E82093650620938F
:10475000660620E290FF93C02093650620E8209330
:1047600065062093660620E287FF93C020936506C6
:1047700020E8209365062093660620E286FF93C01A
:104780002093650620E8209365062093660620E2C4
:1047900085FF93C02093650620E82093650620934B
:1047A000660620E284FF93C02093650620E82093EC
:1047B00065062093660620E283FF93C0209365067A
:1047C00020E8209365062093660630E282FF93C0BE
:1047D0003093650620936506209366063093650640
:1047E00090E8909365069093660681FD93C080E201
:1047F0008093660680E8809365068093660684E071
:104800008093250608952093650620E82093650689
:104810002093660620E295FD6DCF2093660620E882
:10482000209365062093660620E294FD6DCF2093C9
:10483000660620E8209365062093660620E293FD35
:104840006DCF2093660620E82093650620936606C8
:1048500020E292FD6DCF2093660620E82093650646
:104860002093660620E291FD6DCF2093660620E836
:10487000209365062093660620E290FD6DCF20937D
:10488000660620E8209365062093660620E287FDF1
:104890006DCF2093660620E8209365062093660678
:1048A00020E286FD6DCF2093660620E82093650602
:1048B0002093660620E285FD6DCF2093660620E8F2
:1048C000209365062093660620E284FD6DCF209339
:1048D000660620E8209365062093660620E283FDA5
:1048E0006DCF2093660620E8209365062093660628
:1048F00030E282FD6DCF30936606209365062093EB
:1049000066063093660690E8909365069093660677
:1049100081FF6DCF80E2809365066CCF20936506A2
:10492000D7CE2091BF22222351F080E88093260623
:10493000809326061092BF2280932506089521E0D9
:104940002093BF2220E42093260620E297FD28C171
:104950002093660620E8209365062093660620E2F1
:1049600096FD93C02093660620E820936506209369
:10497000660620E295FF93C02093650620E8209309
:1049800065062093660620E294FF93C02093650697
:1049900020E8209365062093660620E293FF93C0EB
:1049A0002093650620E8209365062093660620E2A2
:1049B00092FF93C02093650620E82093650620931C
:1049C000660620E291FF93C02093650620E82093BD
:1049D00065062093660620E290FF93C0209365064B
:1049E00020E8209365062093660620E287FF93C0A7
:1049F0002093650620E8209365062093660620E252
:104A000086FF93C02093650620E8209365062093D7
:104A1000660620E285FF93C02093650620E8209378
:104A200065062093660620E284FF93C02093650606
:104A300020E8209365062093660620E283FF93C05A
:104A40002093650620E8209365062093660630E2F1
:104A500082FF93C030936506209365062093660617
:104A60003093650690E8909365069093660681FD05
:104A700093C080E28093660680E880936506809309
:104A8000660680E48093250608952093650620E855
:104A9000209365062093660620E295FD6DCF209356
:104AA000660620E8209365062093660620E294FDC2
:104AB0006DCF2093660620E8209365062093660656
:104AC00020E293FD6DCF2093660620E820936506D3
:104AD0002093660620E292FD6DCF2093660620E8C3
:104AE000209365062093660620E291FD6DCF20930A
:104AF000660620E8209365062093660620E290FD76
:104B00006DCF2093660620E8209365062093660605
:104B100020E287FD6DCF2093660620E8209365068E
:104B20002093660620E286FD6DCF2093660620E87E
:104B3000209365062093660620E285FD6DCF2093C5
:104B4000660620E8209365062093660620E284FD31
:104B50006DCF2093660620E82093650620936606B5
:104B600020E283FD6DCF2093660620E82093650642
:104B70002093660630E282FD6DCF30936606209367
:104B80006506209366063093660690E89093650666
:104B90009093660681FF6DCF80E2809365066CCFAF
:104BA00020936506D7CE2091BE22222351F080E2C9
:104BB00080932606809326061092BE2280932506B7
:104BC000089521E02093BE2220E12093260620E2D2
:104BD00097FD28C12093660620E820936506209360
:104BE000660620E296FD93C02093660620E8209397
:104BF00065062093660620E295FF93C02093650624
:104C000020E8209365062093660620E294FF93C077
:104C10002093650620E8209365062093660620E22F
:104C200093FF93C02093650620E8209365062093A8
:104C3000660620E292FF93C02093650620E8209349
:104C400065062093660620E291FF93C020936506D7
:104C500020E8209365062093660620E290FF93C02B
:104C60002093650620E8209365062093660620E2DF
:104C700087FF93C02093650620E820936506209364
:104C8000660620E286FF93C02093650620E8209305
:104C900065062093660620E285FF93C02093650693
:104CA00020E8209365062093660620E284FF93C0E7
:104CB0002093650620E8209365062093660620E28F
:104CC00083FF93C02093650620E820936506209318
:104CD000660630E282FF93C0309365062093650636
:104CE000209366063093650690E89093650690934E
:104CF000660681FD93C080E28093660680E880931B
:104D000065068093660680E18093250608952093CA
:104D1000650620E8209365062093660620E295FD4F
:104D20006DCF2093660620E82093650620936606E3
:104D300020E294FD6DCF2093660620E8209365065F
:104D40002093660620E293FD6DCF2093660620E84F
:104D5000209365062093660620E292FD6DCF209396
:104D6000660620E8209365062093660620E291FD02
:104D70006DCF2093660620E8209365062093660693
:104D800020E290FD6DCF2093660620E82093650613
:104D90002093660620E287FD6DCF2093660620E80B
:104DA000209365062093660620E286FD6DCF209352
:104DB000660620E8209365062093660620E285FDBE
:104DC0006DCF2093660620E8209365062093660643
:104DD00020E284FD6DCF2093660620E820936506CF
:104DE0002093660620E283FD6DCF2093660620E8BF
:104DF000209365062093660630E282FD6DCF3093E6
:104E0000660620936506209366063093660690E852
:104E1000909365069093660681FF6DCF80E2809344
:104E200065066CCF20936506D7CE8091E80682FF99
:104E3000C3C080918923813029F49091E80690FFC6
:104E40008093850680918A23813019F482E08093D3
:104E5000850620919523309196238091362290915A
:104E600037222817390709F4B4C081E090E0209177
:104E7000C022211102C080E090E02091BF222223B5
:104E800019F022E030E002C020E030E0822B932BCA
:104E90002091BE22222319F024E030E002C020E05D
:104EA00030E0822B932B8093932390939423209133
:104EB000880620FF03C028E030E002C020E030E098
:104EC000822B932B80939323909394232091880695
:104ED00021FF03C020E130E002C020E030E0822B5F
:104EE000932B80939323909394232091000A222361
:104EF00019F020E230E002C020E030E0822B932B5A
:104F0000809393239093942320910708207F19F096
:104F100020E230E002C020E030E0822B932B80932F
:104F20009323909394232091A80625FF03C020E4A7
:104F300030E002C020E030E0822B932B809393235B
:104F4000909394232091A80624FF03C020E830E02A
:104F500002C020E030E0822B932B80939323909328
:104F600094232091E80621FF03C020E031E002C035
:104F700020E030E0822B932B809393239093942313
:104F80002091280726FF03C020E032E002C020E085
:104F900030E0822B932B809393239093942361E0B2
:104FA0008EE30E942E3380919523909196238093D7
:104FB0003622909337220DC080918923813011F4DD
:104FC0008093860680918A23813019F482E0809351
:104FD0008606189580918923823039F48091E806FD
:104FE00080FD03C081E08093850680918A23823012
:104FF00011F480938506189580918923823039F4C5
:105000008091E80680FD03C081E080938506809151
:105010008A23823011F48093860680915F2488234E
:10502000D1F110925F2480E098E019D688E0809357
:105030002606809326061092C0228093250680E8DB
:1050400080932606809326061092BF228093250621
:1050500080E280932606809326061092BE228093DB
:1050600025068091BF23811103C080E099E0F7D528
:1050700010927D238DE793E20E94A40F80918923F3
:10508000823019F481E08093860680918A238230F1
:1050900011F480938606189580919523909196231C
:1050A0000196809395239093962380916024E82F16
:1050B000F0E0EB59FC4DC2A98F5F80936024909182
:1050C000B723891302C010926024C0FF07C08091EB
:1050D000692390916A230E94541E09C088E080933E
:1050E0002606809326061092C02280932506C1FFD3
:1050F00007C080916B2390916C230E94881F09C088
:1051000080E880932606809326061092BF22809323
:105110002506C2FF06C080916D2390916E232CD886
:1051200009C080E280932606809326061092BE2254
:1051300080932506C6FF04C080E28093A50603C0C5
:1051400080E28093A606C7FF04C080E18093A50695
:1051500003C080E18093A606C5FF18C08091BE23DE
:10516000982F9D7F49F481E080937D238DE793E222
:105170000E94A40F8091BE23813091F482E080933D
:105180007D238DE793E20E94A40F0AC08091BE2385
:10519000823031F410927D238DE793E20E94A40FB8
:1051A000189581E080938506189581E080938606A6
:1051B00018958091E80681FF83C08091C3228111F8
:1051C000C6C091E09093C32280918B23282F2D7F1E
:1051D000213059F4809191238F7D816180939123B7
:1051E00061E08CE30E942E33B2C0843039F4909396
:1051F000922382E993E20E949312A9C0853041F480
:1052000082E08093922382E993E20E9493129FC0EE
:10521000863041F484E08093922382E993E20E94F5
:10522000931295C0873041F483E08093922382E902
:1052300093E20E9493128BC0883041F485E0809302
:10524000922382E993E20E94931281C0893089F40B
:105250008091C422882309F47AC081E080937D2361
:105260008DE793E20E94A40F61E08DE20E942E334D
:105270006EC08A3089F48091C422882309F467C003
:1052800082E080937D238DE793E20E94A40F61E08A
:105290008DE20E942E335BC08B3009F058C08091A4
:1052A000C422882309F453C083E080937D238DE7D3
:1052B00093E20E94A40F61E08DE20E942E3347C06A
:1052C0008091C322813009F042C01092C3228091A4
:1052D0008B239EEF980F923058F4809191238E7D0E
:1052E00080618093912361E08CE30E942E332FC074
:1052F000843041F488E08093922382E993E20E9413
:10530000931225C09BEF980F923040F480E1809378
:10531000922382E993E20E94931219C099EF980FA9
:10532000923040F488E18093922382E993E20E94D4
:1053300093120DC08A50823050F410927D238DE775
:1053400093E20E94A40F61E08DE20E942E33189533
:105350008091280786FF83C08091C2228111C6C038
:1053600091E09093C22280918C23282F2D7F2130B1
:1053700059F4809191238F7E82628093912361E022
:105380008CE30E942E33B2C0843039F49093922380
:1053900082E993E20E949312A9C0853041F482E031
:1053A0008093922382E993E20E9493129FC08630F9
:1053B00041F484E08093922382E993E20E94931265
:1053C00095C0873041F483E08093922382E993E291
:1053D0000E9493128BC0883041F485E08093922321
:1053E00082E993E20E94931281C0893089F480910E
:1053F000C422882309F47AC081E080937D238DE75D
:1054000093E20E94A40F61E08DE20E942E336EC0F1
:105410008A3089F48091C422882309F467C082E02D
:1054200080937D238DE793E20E94A40F61E08DE2DB
:105430000E942E335BC08B3009F058C08091C4228B
:10544000882309F453C083E080937D238DE793E2A2
:105450000E94A40F61E08DE20E942E3347C080912C
:10546000C222813009F042C01092C22280918C2366
:105470009EEF980F923058F4809191238D7E806238
:105480008093912361E08CE30E942E332FC08430FF
:1054900041F488E08093922382E993E20E94931280
:1054A00025C09BEF980F923040F480E180939223C7
:1054B00082E993E20E94931219C099EF980F9230FB
:1054C00040F488E18093922382E993E20E94931250
:1054D0000DC08A50823050F410927D238DE793E204
:1054E0000E94A40F61E08DE20E942E3318958091F6
:1054F000080782FD0EC08FEF8093442082E08093E6
:10550000050781E08093050790E89093E606809375
:10551000060718958091880680FD05C0209180239C
:105520003091812323C080915B2490915C2401966B
:1055300080935B2490935C24209182233091832379
:105540008217930729F020918023309181230EC088
:1055500010925B2410925C2420918023309181234F
:105560008217930719F081E08093860680915D246D
:1055700090915E24019680935D2490935E2482171F
:10558000930719F58091612490916224019680938C
:105590006124909362242091842330918523821783
:1055A000930761F480917D23813041F480938606D6
:1055B00080E09AE054D3A3D0189507C010925D24E0
:1055C00010925E2481E080938506189580910806EC
:1055D00085FF04C084E6809335221DC08091E806D3
:1055E00080FF0BC081E08093860680E09AE037D38D
:1055F000809107088F70809307088FEF8093352282
:1056000080917C23813039F410927C2361E08CE21C
:105610000E942E3374D0189518958091080685FD48
:105620000DC08091E80680FD0EC08FEF809335227B
:1056300080917C238130C9F01895089584E6809389
:1056400035221895089581E08093860680E09AE0DF
:1056500006D3809107088F70809307088FEF80939F
:10566000352280917C23813039F710927C2361E0D0
:105670008CE2F4D744D0189508958091080685FFF0
:1056800004C08091E80680FD0FC085E793E20E9488
:105690002C0F80917C23811106C081E080937C23B4
:1056A00061E08CE2DBD72BC081E080938606EDCFF2
:1056B0008091880681FF0FC082E0809386068091EA
:1056C000C122882391F01092C1221092862380E09B
:1056D0009BE0C5D20AC082E0809385068091862334
:1056E000823019F461E082E3B9D718950E94050A67
:1056F0008091A20087688093A2007894FFCF909158
:10570000C4228091080685FF18C082E0892B909101
:10571000080695FF04C09091E80690FD10C0209106
:105720007E2330917F23223C91E03907D1F02B3743
:10573000324009F480610C94161E80E0E7CF90910E
:10574000000A992389F0846090910708907F39F3CB
:10575000846020917E2330917F23223C91E03907A1
:1057600031F788600C94161E9091880690FFECCF5C
:10577000EACFFF920F931F93CF93DF931F921F9255
:10578000CDB7DEB789839A83162FF42E21E040E04F
:1057900060E080E696E00AD220E040E061E080E64A
:1057A00096E0EFD101E022E040E061E080E696E0A3
:1057B00015D281E08093660683E08093A5098981F4
:1057C0008093A6096A81862F8F7090E11902B0013B
:1057D0001124682B6093A709FF2029F08091A40968
:1057E00084608093A40988E08093650620E040E00F
:1057F00063E080E696E0DAD120E040E062E080E617
:1058000096E0BFD18091680681FF05C08091A30911
:105810008C7F8093A3090F900F90DF91CF911F9100
:105820000F91FF900895E0EAF9E084818861848314
:1058300080EE8183838180618383089581E08093FA
:105840006506E091C6228E0F8093C622F0E0ED57E8
:10585000FB4D90819093A009803219F41092C622DA
:1058600080E09091C522981305C08091A3098C7F98
:105870008093A30981E0809366061895809168065D
:1058800081FF06C08091A3098C7F8093A3090BC080
:105890009091C6228091C522981729F08091A30982
:1058A00081608093A30918959091A10995FFFCCF81
:1058B0008093A0090895EF92FF920F931F93CF93C7
:1058C000DF937C01C62F8091680681FD05C0809121
:1058D000A30981608093A309D091C5228D2F90E008
:1058E00000E210E0081B190B4C2F50E004171507BD
:1058F000E0F0B7018D579B4D0E9469398091C62217
:10590000CD0FC093C522C032B1F1D81738F4C817F3
:1059100028F0CF5FC093C622C03221F1DF91CF9132
:105920001F910F91FF90EF900895A801B7018D5737
:105930009B4D0E946939C01B4C2F50E0B701600F8E
:10594000711F83E894E20E9469398091C622C09356
:10595000C522D817F0F2C81708F3CF5FC093C6224C
:10596000C032E1F61092C622DF91CF911F910F91C4
:10597000FF90EF9008951092C5228111CFCF81E062
:105980008093C622CBCF8091A0090E94321E189529
:1059900021E040E066E080E096E008D184E190E418
:1059A000909307068150E1F72FEF37EA81E6215007
:1059B00030408040E1F700C00000E1E4F2E269E637
:1059C00072E240E4219130E02115310561F080E080
:1059D00090E0AFE3BFE11197F1F700C0000001963E
:1059E00082179307B1F780E4409307066E177F078D
:1059F00049F7BFEF27EA31E6B15020403040E1F7E8
:105A000000C0000080930706809307068093070676
:105A100080930706809307060895222309F45BC04C
:105A200030E23093520038E0309350003091510012
:105A300033FFFCCF611538E4730738EE830731E09C
:105A4000930709F482C0611534E2730734EF8307CA
:105A5000910509F47CC0611532E173073AE78307C9
:105A6000910509F44BC0611539E073073DE38307E5
:105A7000910509F46EC0603834E873073EE183078E
:105A8000910509F460C0603432E473073FE0830796
:105A9000910509F462C0603231EA730737E0830789
:105AA000910509F458C0603930ED730733E083077E
:105AB000910509F454C0683438EE730731E0830768
:105AC000910509F44EC06432744F8105910509F0C7
:105AD0004AC084E414C032E2309352003AE030937A
