:1000000031C1000055C1000053C1000051C10000C2
:100010004FC100004DC100004BC1000049C10000AC
:1000200047C1000045C1000043C1000041C10000BC
:100030003FC100003DC100000C947E2139C1000089
:100040000C947F210C94BE2133C1000031C100000B
:100050000C94B32A2DC100000C94F62C29C1000089
:1000600027C1000025C1000023C1000021C10000FC
:100070000C9410311DC100001BC1000019C100000B
:1000800017C1000015C1000013C1000011C100001C
:100090000FC100000DC100000BC1000009C100002C
:1000A00007C1000005C1000003C1000001C100003C
:1000B000FFC00000FDC00000FBC000000C94C7237F
:1000C000F7C00000F5C00000F3C00000F1C0000060
:1000D000EFC000000C947308EBC00000E9C0000002
:1000E000E7C00000E5C00000E3C00000E1C0000080
:1000F000DFC00000DDC00000DBC00000D9C0000090
:100100000C942825D5C000000C942424D1C00000F4
:10011000CFC00000CDC00000CBC00000C9C00000AF
:10012000C7C00000C5C00000C3C00000C1C00000BF
:10013000BFC00000F8C70000BBC00000B9C000008D
:10014000B7C00000B5C00000B3C00000FEC700008B
:10015000AFC00000ADC00000ABC00000A9C00000EF
:100160000C94AD250C940825A3C00000A1C000008C
:100170009FC000009DC000009BC0000099C000000F
:100180000C9458220C94C2200C94672F0C94B42326
:100190000C9406238DC000008BC0000089C00000B5
:1001A00087C0000085C0000083C0000081C000003F
:1001B0000C947C247DC000007BC0000079C000004E
:1001C00077C0000075C0000073C0000071C000005F
:1001D0006FC000006DC000006BC000000C943F3089
:1001E0000C940B2F65C0000063C0000061C00000CC
:1001F0005FC000005DC000005BC00000F0149814F8
:100200001D1598144C1598148D149814791598147C
:1002100093159814BC1598148D1498148D148D147E
:100220008D148D148D148D148D148D148D148D14C6
:10023000DD14F3140A152915391558157A146815A3
:100240006F157C1583159F15AC15C815D515E615CA
:10025000FD1514162B1634164B16571666167D16FA
:1002600084169F1411241FBECFEFCDBFDFE3DEBF86
:1002700000E00CBF18BE19BE1ABE1BBE12E2A0E001
:10028000B0E2EAEAF3E600E00BBF02C007900D928D
:10029000A435B107D9F71BBE2DE3A4E5B2E201C036
:1002A0001D92A93FB207E1F70E949A240C94D33122
:1002B000A7CE482F50E041505109FA01E050F04ECE
:1002C000608188E080930607809306078093060785
:1002D00084E08093260792E0909326079093260768
:1002E00090932607909325079093250790932507D1
:1002F00090932607809326079093260790932607CE
:1003000090932607909325079093250790932507B0
:1003100090932607809325079093260790932607AE
:100320009093260790932507909325079093250790
:1003300090932607262F30E067FDDCC180932607C7
:1003400082E0809326078093260780932607809378
:100350002507809325078093250780932607C901E9
:10036000880F991F87FDFFC184E08093260782E0F4
:10037000809326078093260780932607809325077E
:10038000809325078093250780932607C901880F4E
:10039000991F880F991F87FDE2C184E0809326078B
:1003A00082E0809326078093260780932607809318
:1003B0002507809325078093250780932607C90189
:1003C000880F991F880F991F880F991F87FDC3C138
:1003D00084E08093260782E0809326078093260797
:1003E0008093260780932507809325078093250710
:1003F00080932607C90182959295907F9827807FE8
:10040000982787FDA4C184E08093260782E080932B
:1004100026078093260780932607809325078093DD
:1004200025078093250780932607C901880F991F08
:1004300082959295907F9827807F982787FD83C12A
:1004400084E08093260782E0809326078093260726
:10045000809326078093250780932507809325079F
:1004600080932607C9010024969587950794969551
:1004700087950794982F802D87FD61C184E0809334
:10048000260782E08093260780932607809326071D
:10049000809325078093250780932507809326075F
:1004A0003695322F22273795279584E027FF44C1C0
:1004B0008093250792E090932607909326079093C8
:1004C00026079093250790932507909325079093EF
:1004D000260728E020930507FA01E05EFF4D3081F2
:1004E00020930607209306072093060724E0209315
:1004F00026079093260790932607909326079093BC
:10050000250790932507909325079093260720931E
:10051000260790932607909326079093260790939B
:1005200025079093250790932507909326072093FE
:10053000260790932607909326079093260790937B
:100540002507909325079093250790932607832FDF
:1005500090E037FDEEC02093260722E02093260787
:10056000209326072093260720932507209325070D
:1005700020932507209326079C01220F331F27FD78
:10058000D4C024E02093260722E02093260720935E
:1005900026072093260720932507209325072093DD
:1005A0002507209326079C01220F331F220F331F9C
:1005B00027FDB7C024E02093260722E020932607DA
:1005C00020932607209326072093250720932507AD
:1005D00020932507209326079C01220F331F220F0B
:1005E000331F220F331F27FD98C024E020932607D6
:1005F00022E02093260720932607209326072093A6
:1006000025072093250720932507209326079C0183
:1006100022953295307F3227207F322727FD79C0FF
:1006200024E02093260722E0209326072093260724
:10063000209326072093250720932507209325073D
:10064000209326079C01220F331F22953295307F7D
:100650003227207F322727FD58C024E02093260729
:1006600022E0209326072093260720932607209335
:1006700025072093250720932507209326079C0113
:100680000024369527950794369527950794322FA1
:10069000202D27FD36C024E02093260722E020935A
:1006A00026072093260720932607209325072093CB
:1006B000250720932507209326079695982F8827AE
:1006C0009795879587FF19C084E08093250782E07E
:1006D000809326078093260780932607809325071B
:1006E00080932507809325078093260788E08093D1
:1006F000050708958093250723CE84E0809326077D
:10070000E6CF24E020932507C9CF24E020932507D6
:10071000A7CF24E02093250786CF24E02093250748
:1007200067CF24E02093250748CF24E020932507B6
:100730002BCF2093250711CF80932607BBCE84E0D3
:10074000809325079ECE84E0809325077CCE84E0AD
:10075000809325075BCE84E0809325073CCE84E020
:10076000809325071DCE84E08093250700CE482F77
:1007700050E041505109FA01E050F04E608180E2B2
:1007800080930607809306078093060784E0809392
:10079000260792E0909326079093260790932607CA
:1007A000909325079093250790932507909326070C
:1007B0008093260790932607909326079093260709
:1007C00090932507909325079093250790932607EC
:1007D00080932507909326079093260790932607EA
:1007E00090932507909325079093250790932607CC
:1007F000262F30E067FDDCC18093260782E08093DE
:1008000026078093260780932607809325078093E9
:1008100025078093250780932607C901880F991F14
:1008200087FDFFC184E08093260782E0809326073E
:1008300080932607809326078093250780932507BA
:100840008093250780932607C901880F991F880F79
:10085000991F87FDE2C184E08093260782E08093A0
:100860002607809326078093260780932507809389
:1008700025078093250780932607C901880F991FB4
:10088000880F991F880F991F87FDC3C184E080934B
:10089000260782E080932607809326078093260709
:1008A000809325078093250780932507809326074B
:1008B000C90182959295907F9827807F982787FD20
:1008C000A4C184E08093260782E08093260780936A
:1008D000260780932607809325078093250780931A
:1008E000250780932607C901880F991F8295929545
:1008F000907F9827807F982787FD83C184E080932D
:10090000260782E080932607809326078093260798
:1009100080932507809325078093250780932607DA
:10092000C901002496958795079496958795079415
:10093000982F802D87FD61C184E08093260782E097
:1009400080932607809326078093260780932507A8
:100950008093250780932507809326073695322FAD
:1009600022273795279584E027FF44C180932507E8
:1009700092E09093260790932607909326079093F2
:10098000250790932507909325079093260720E24B
:1009900020930507FA01E05EFF4D308120930607A2
:1009A000209306072093060724E0209326079093C0
:1009B00026079093260790932607909325079093F8
:1009C0002507909325079093260720932607909359
:1009D00026079093260790932607909325079093D8
:1009E0002507909325079093260720932607909339
:1009F00026079093260790932607909325079093B8
:100A000025079093250790932607832F90E037FDC5
:100A1000EEC02093260722E0209326072093260786
:100A20002093260720932507209325072093250749
:100A3000209326079C01220F331F27FDD4C024E0FA
:100A40002093260722E02093260720932607209351
:100A50002607209325072093250720932507209319
:100A600026079C01220F331F220F331F27FDB7C01B
:100A700024E02093260722E02093260720932607D0
:100A800020932607209325072093250720932507E9
:100A9000209326079C01220F331F220F331F220FA2
:100AA000331F27FD98C024E02093260722E02093DF
:100AB00026072093260720932607209325072093B7
:100AC000250720932507209326079C012295329520
:100AD000307F3227207F322727FD79C024E0209302
:100AE000260722E020932607209326072093260737
:100AF0002093250720932507209325072093260779
:100B00009C01220F331F22953295307F3227207FA0
:100B1000322727FD58C024E02093260722E02093A7
:100B20002607209326072093260720932507209346
:100B3000250720932507209326079C01002436953E
:100B400027950794369527950794322F202D27FD5A
:100B500036C024E02093260722E020932607209326
:100B60002607209326072093250720932507209307
:100B70002507209326079695982F88279795879580
:100B800087FF19C084E08093250782E080932607C1
:100B90008093260780932607809325078093250757
:100BA000809325078093260780E2809305070895A8
:100BB0008093250723CE84E080932607E6CF24E0A8
:100BC00020932507C9CF24E020932507A7CF24E051
:100BD0002093250786CF24E02093250767CF24E0C4
:100BE0002093250748CF24E0209325072BCF20937F
:100BF000250711CF80932607BBCE84E0809325077D
:100C00009ECE84E0809325077CCE84E080932507E8
:100C10005BCE84E0809325073CCE84E0809325075B
:100C20001DCE84E08093250700CE482F50E0415030
:100C30005109FA01E050F04E608180E88093060788
:100C4000809306078093060784E08093260792E04E
:100C50009093260790932607909326079093250755
:100C60009093250790932507909326078093260756
:100C70009093260790932607909326079093250735
:100C80009093250790932507909326078093250737
:100C90009093260790932607909326079093250715
:100CA000909325079093250790932607262F30E0F1
:100CB00067FDDCC18093260782E08093260780933E
:100CC0002607809326078093250780932507809326
:100CD000250780932607C901880F991F87FDFFC14B
:100CE00084E08093260782E080932607809326077E
:100CF00080932607809325078093250780932507F7
:100D000080932607C901880F991F880F991F87FDB7
:100D1000E2C184E08093260782E0809326078093D7
:100D200026078093260780932507809325078093C5
:100D3000250780932607C901880F991F880F991FDF
:100D4000880F991F87FDC3C184E08093260782E046
:100D50008093260780932607809326078093250794
:100D6000809325078093250780932607C9018295E4
:100D70009295907F9827807F982787FDA4C184E073
:100D80008093260782E0809326078093260780932E
:100D90002607809325078093250780932507809356
:100DA0002607C901880F991F82959295907F9827F1
:100DB000807F982787FD83C184E08093260782E0A7
:100DC0008093260780932607809326078093250724
:100DD000809325078093250780932607C901002467
:100DE000969587950794969587950794982F802DCB
:100DF00087FD61C184E08093260782E08093260707
:100E000080932607809326078093250780932507E4
:100E100080932507809326073695322F2227379512
:100E2000279584E027FF44C18093250792E09093A3
:100E30002607909326079093260790932507909373
:100E40002507909325079093260720E82093050710
:100E5000FA01E05EFF4D30812093060720930607DC
:100E60002093060724E0209326079093260790936B
:100E70002607909326079093250790932507909334
:100E80002507909326072093260790932607909393
:100E90002607909326079093250790932507909314
:100EA0002507909326072093260790932607909373
:100EB00026079093260790932507909325079093F4
:100EC000250790932607832F90E037FDEEC02093EF
:100ED000260722E020932607209326072093260743
:100EE0002093250720932507209325072093260785
:100EF0009C01220F331F27FDD4C024E02093260736
:100F000022E020932607209326072093260720938C
:100F100025072093250720932507209326079C016A
:100F2000220F331F220F331F27FDB7C024E0209369
:100F3000260722E0209326072093260720932607E2
:100F40002093250720932507209325072093260724
:100F50009C01220F331F220F331F220F331F27FD47
:100F600098C024E02093260722E0209326072093B0
:100F700026072093260720932507209325072093F3
:100F80002507209326079C0122953295307F322732
:100F9000207F322727FD79C024E02093260722E016
:100FA00020932607209326072093260720932507C2
:100FB0002093250720932507209326079C01220FC5
:100FC000331F22953295307F3227207F322727FD2D
:100FD00058C024E02093260722E020932607209380
:100FE0002607209326072093250720932507209383
:100FF0002507209326079C01002436952795079402
:10100000369527950794322F202D27FD36C024E0F2
:101010002093260722E0209326072093260720937B
:101020002607209325072093250720932507209343
:1010300026079695982F88279795879587FF19C03B
:1010400084E08093250782E080932607809326071B
:101050008093260780932507809325078093250793
:101060008093260780E880930507089580932507DD
:1010700023CE84E080932607E6CF24E02093250743
:10108000C9CF24E020932507A7CF24E0209325078C
:1010900086CF24E02093250767CF24E020932507FF
:1010A00048CF24E0209325072BCF2093250711CF8D
:1010B00080932607BBCE84E0809325079ECE84E0F4
:1010C000809325077CCE84E0809325075BCE84E067
:1010D000809325073CCE84E0809325071DCE84E0D5
:1010E0008093250700CE80E49AE00E94292721E022
:1010F0004AEF50E065E080E099E00E940E271092F0
:10110000C92281E08093C822E0EEF6E088E385837F
:101110008583868321E040E250E061E080E499E04D
:101120000E941E27189581E08093C822E0EEF6E029
:1011300088E385838583868321E040E250E061E097
:1011400080E499E00E941E2718958091C82287FDAF
:101150000BC098E39093E5069093E5069093E6061E
:101160008F5F8093C82238C1803809F035C180E490
:1011700099E00E94292784E580938506809386065E
:10118000809385068091880683FF03C020E030E2CB
:1011900002C020E030E08091880685FF03C080E037
:1011A00090E202C080E090E040918806042E000C9E
:1011B000550B4427550F441F5527542F442752954C
:1011C000550F507E64E560938606609385066091B6
:1011D000880663FD30616091880665FD90616091CD
:1011E000880667FD506164E5609386066093850616
:1011F0006091880663FD38606091880665FD98609F
:101200006091880667FD586064E560938606609388
:1012100085066091880663FD34606091880665FDEF
:1012200094606091880667FD546064E5609386066B
:10123000609385066091880663FD32606091880640
:1012400065FD92606091880667FD526064E5609379
:101250008606609385066091880663FD3160609123
:10126000880665FD91606091880667FD516064E5C0
:1012700060938606609385066091880663FD20680A
:101280006091880665FD80686091880667FD40680A
:1012900064E560938606609385066091880663FD29
:1012A00020646091880665FD80646091880667FD12
:1012B000406464E5609386066093850660918806C5
:1012C00063FD20626091880665FD806260918806FA
:1012D00067FD406264E560938606609385066091D1
:1012E000880663FD20616091880665FD80616091DC
:1012F000880667FD406164E5609386066093850615
:101300006091880663FD28606091880665FD8860AD
:101310006091880667FD486064E560938606609387
:1013200085066091880663FD24606091880665FDEE
:1013300084606091880667FD446064E5609386067A
:10134000609385066091880663FD2260609188063F
:1013500065FD82606091880667FD426064E5609388
:101360008606609385066091880663FD2160609122
:10137000880665FD81606091880667FD416064E5CF
:1013800060938606A091C9226A2F70E0FB01EE0FE0
:10139000FF1F6E0F7F1FFB01EE0FFF1FEA5DFC4D6D
:1013A00020833183FB01EE0FFF1FE85DFC4D80833E
:1013B0009183660F771FFB01E65DFC4D40835183EF
:1013C00081E08A0F8093C922843031F41092C922BF
:1013D00061E085E40E94BA2B18958F92AF92BF927C
:1013E000CF92DF92EF920F938CED91E29F938F93C8
:1013F0008DE2882E9FEDA92EB12C2FECC22E22E279
:10140000D22EE12C01E020E041E061E080E198E0B3
:101410000E944B290F900F900F91EF90DF90CF908B
:10142000BF90AF908F900895E0E8F6E081E086836A
:1014300082E0868380E098E00E94192780E090E0B7
:101440000E94011880E090E00E94351980E090E051
:101450000E94691A1092E72287EE92E2DAC30E9494
:101460009D172FEF8FE493EC215080409040E1F7DF
:1014700000C000000E94AD172FEF87EA91E62150CF
:1014800080409040E1F700C0000087E00E94D7173D
:101490000E94A5170E94B2252FEF87EA91E62150FE
:1014A00080409040E1F700C0000080E00E94F81703
:1014B0009ED78091080782FD03C081E08093D821E8
:1014C0000895EFECF2E285E290E480839183148248
:1014D0001582168217821086118688EF9FE7808B0F
:1014E000918B87E0828B138A81E0848B858B868B3E
:1014F000108E24E630E0218F328F22E330E0238FFC
:10150000348F2AE030E0258F368F178E25E332E8BE
:1015100020A331A312A283A384A385A313A686A725
:1015200082E087A784E080AB83E080931D2388EE70
:101530009DEF80931E2390931F2388EE93E080936A
:1015400020239093212384EF9EE78093222390937E
:101550002323109224231092252308958FEC92E2E6
:101560007ED60E94442481EE92E2EFD21092E222D3
:1015700083EE92E205D384EE92E21BD385EE92E2F3
:1015800031D388EF92E224C40895089581E08093D6
:10159000B2231092E72287EE92E23BC308950895AA
:1015A00008950895809155228F5F809355228A3047
:1015B00069F0843191F08E31B9F0883209F00895E4
:1015C00080E00E94E41710925522089581E00E9465
:1015D000E41780915522843171F782E00E94E4176C
:1015E000809155228E3149F783E00E94E417809163
:1015F0005522E3CF8091080687FD05C081E08093E6
:1016000054220C94F713809154228111FACF08953B
:101610008091412087FD05C08150809341208F3FFC
:1016200051F08091D92187FD05C081508093D92147
:101630008F3F69F0089581E08093050780E88093EB
:10164000E6068093E50682E080930607EACF0C94D5
:101650006E2408950895089508950895089590EECC
:10166000980F9D3240F490E08097FC01E655FE4DC6
:101670002081261711F080E00895880F991FFC0142
:10168000E456FF4D0190F081E02D199581E0089519
:1016900090EE980F9D3248F4E82FF0E0B097DF010C
:1016A000A655BE4D9C91961711F080E00895EE0F5F
:1016B000FF1FDF01A05BBE4D8D919C9182179307A8
:1016C000A1F7EE5BFF4D0190F081E02DCA01199466
:1016D0001092CF221092D0228091280681FF4CC018
:1016E00081E090E08093CF229093D02233E020E0FD
:1016F0004091280640FF06C03093CF222093D0228D
:10170000832F922F2091E80620FD04C02091280706
:1017100023FD43C02091E80620FF04C02091280744
:1017200023FF35C02091E80620FF04C02091280740
:1017300023FD27C02091080720FD05C0806280930B
:10174000CF229093D0222091E80627FD2CC0209133
:1017500041202F3F09F0806420914020222331F066
:1017600090648093CF229093D022089590688093C4
:10177000CF229093D022089532E020E080E090E0E4
:10178000B7CF80618093CF229093D022D3CF88604F
:101790008093CF229093D022C5CF84608093CF22B4
:1017A0009093D022B7CF8064D2CFFC018081918109
:1017B0008093D1229093D22281E00895FC01808110
:1017C000918120914020222321F0813CFFE89F0756
:1017D00030F48093D3229093D42281E0089580E066
:1017E0000895FC018081918120914020222321F0E5
:1017F000813CFFE89F0730F48093D5229093D62256
:1018000081E0089580E00895FC018081918120911C
:101810004020222321F0813CFFE89F0730F4809391
:10182000D7229093D82281E0089580E00895809196
:10183000080685FB882780F98093E6220895809129
:10184000000A81118091E7228093E7220895FC012C
:10185000808191819C01225031092F353A4E30F41C
:101860008093E8229093E92281E0089580E0089532
:10187000FC01808191819C012150310920363A4E32
:1018800030F48093EA229093EB2281E0089580E087
:101890000895FC01808191818093EC229093ED2248
:1018A00081E00895FC01808191819C012858334199
:1018B00021363A4E30F48093EF229093F02281E06B
:1018C000089580E00895FC018081982F9C7F21F489
:1018D0008093F12281E0089580E00895FC018081E9
:1018E000982F9C7F21F48093F22281E0089580E07C
:1018F0000895FC018081982F907F21F48093F3223A
:1019000081E0089580E00895FC018081982F907F08
:1019100021F48093F42281E0089580E00895FC0191
:10192000908190FF0AC088E0809326068093260667
:1019300010925B2280932506908191FF0AC080E877
:10194000809326068093260610925A2280932506BD
:10195000908192FF0AC080E280932606809326063B
:101960001092592280932506908193FF04C081E054
:1019700080938606908194FF04C082E0809386065F
:10198000908195FF04C081E080934606908196FF88
:1019900004C080E28093A606908197FF04C080E196
:1019A0008093A60690819093F62281E0089580911D
:1019B0008806982F917080FF09C028E198E08091F7
:1019C000880681FD922F9093F822089520E1F7CFA9
:1019D0008091E806869581708093F922089580E0D1
:1019E0000895FC01808191818093FB229093FC22D9
:1019F00081E00895DC019096EDE1F3E28E9182930F
:101A000082E2ED3FF807D1F781E00895FC01808183
:101A1000803220F480931D2381E0089580E00895B2
:101A2000FC01808191819C012858334121363A4E36
:101A300030F480931E2390931F2381E0089580E06B
:101A40000895FC0180819181883EFDEF9F0730F46D
:101A5000809320239093212381E0089580E00895CE
:101A6000FC0180819181883EFDEF9F0730F48093D7
:101A700022239093232381E0089580E00895FC01C0
:101A80008081982F9C7F21F48093242381E0089506
:101A900080E00895FC0180819181809326239093BA
:101AA000272381E00895FC018081918180933E236A
:101AB00090933F2381E00895FC0180819181809380
:101AC0004E2390934F2381E00895FC018081918102
:101AD00080935E2390935F2381E00895FC018081D1
:101AE000918180936E2390936F2381E00895FC0190
:101AF0008081918180937E2390937F2381E008955C
:101B0000FC018081918180938E2390938F2381E0CB
:101B100008950895FC018081918180939E23909384
:101B20009F2381E00895CF93DF93FC01C081D18191
:101B3000CE01969587950E949D1BC093DF22D0937E
:101B4000E02281E0DF91CF910895CF93FC01C08125
:101B5000C03108F0CFE08C2F0E94BD17C093E12266
:101B600081E0CF910895CF93FC01C081C7FDCFE7FD
:101B70008C2F0E94E417C093E22281E0CF91089558
:101B8000CF93FC01C081CC2359F0C13208F0C0E2F0
:101B90008C2F0E945901C093E32281E0CF910895D8
:101BA000C1E08C2F0E945901C093E32281E0CF91C4
:101BB0000895CF93FC01C081CC2359F0C13208F0C5
:101BC000C0E28C2F0E94B703C093E42281E0CF9142
:101BD0000895C1E08C2F0E94B703C093E42281E0F6
:101BE000CF910895CF93FC01C081CC2351F0C13235
:101BF00008F0C0E28C2F19D8C093E52281E0CF9184
:101C00000895C1E08C2F11D8C093E52281E0CF91D7
:101C10000895CF93FC01C0818C2F8C7FD1F420914B
:101C2000EA223091EB228091E8229091E9228217FA
:101C3000930778F08FEF8C0F823070F0C11104C0E1
:101C40008091000A81112EC0C093E72281E0CF91DC
:101C5000089580E0CF9108958091E80680FF08C044
:101C60008091E80680FFF0CF8091080685FFECCFD9
:101C700021E04DE750E066E080E09AE00E940E2708
:101C800081E0809385061092B4231092B5231092C0
:101C9000B0231092B1231092AE231092AF23109272
:101CA000B623D2CF81E08093860680E09AE00E943E
:101CB0001927CACFCF93FC01C0818C2F8C7F79F478
:101CC0008FEF8C0F823070F0C11104C08091000B37
:101CD000811122C0C093EE2281E0CF91089580E06F
:101CE000CF9108958091000B8111F4CF4091EF22A4
:101CF0005091F022569547955695479521E065E01D
:101D000080E09BE00E940E2781E080938506C23030
:101D100039F010925C22DECF81E080935C22DACF32
:101D200061E081E30E94BA2BF4CFCF93DF93EC0103
:101D3000888180FD45C081FD3BC082FD31C083FFAD
:101D400008C09091E80690FD22C081E0809385064E
:101D5000888184FF04C082E080938506888185FFA6
:101D600004C081E080934506888186FF04C080E23C
:101D70008093A506888187FF04C080E18093A50633
:101D800088818093F52281E0DF91CF910895909131
:101D9000E80690FFDECF9091080695FFDACFD5CF09
:101DA0008091D7229091D8220E94691A8881C7CF4A
:101DB0008091D5229091D6220E9435198881BDCF7D
:101DC0008091D3229091D4220E9401188881B3CFB0
:101DD000CF93DF93EC01888180FD83C088E08093FE
:101DE00026068093260610925B2280932506888122
:101DF00081FD70C080E880932606809326061092AD
:101E00005A2280932506888182FD5DC080E28093FE
:101E100026068093260610925922809325068881F3
:101E200083FF26C09091E80690FD44C081E0809336
:101E30008506888184FD22C082E0809386068881A1
:101E400085FD22C081E080934606888186FD22C000
:101E500080E28093A606888187FF22C080E180937C
:101E6000A50688818093F82281E0DF91CF910895C3
:101E700081E080938606888184FFDECF82E08093B4
:101E80008506888185FFDECF81E0809345068881C5
:101E900086FFDECF80E28093A506888187FDDECFB6
:101EA00080E18093A60688818093F82281E0DF910B
:101EB000CF9108959091E80690FFDECF90910806AB
:101EC00095FFDACFB3CF8091D7229091D8220E948C
:101ED000691AA5CF8091D5229091D6220E943519FA
:101EE00092CF8091D3229091D4220E9401187FCF6B
:101EF000CF93DF93EC01888180FD4DC081FD43C00D
:101F000082FD39C083FF08C09091880690FF22C0EF
:101F100081E080938606888184FF04C082E08093FC
:101F20008706888185FF04C081E080934706888109
:101F300086FF04C080E28093A706888187FF04C0E3
:101F400080E18093A70688818093F72281E0DF916A
:101F5000CF9108959091E80690FF08C09091E8060F
:101F600090FFDACF9091080695FFD6CF81E080935D
:101F700085068881D1CF8091D7229091D8220E9466
:101F8000801F8881BFCF8091D5229091D6220E9458
:101F90003E1E8881B5CF8091D3229091D4220E9499
:101FA000FC1C8881ABCFCF93FC01C081CC2349F0CE
:101FB0008091400A882371F0C093252381E0CF915E
:101FC000089580E099E00E941927C093252381E0BD
:101FD000CF91089521E048E050E067E080E49AE086
:101FE0000E941E27C093252381E0CF910895FC0114
:101FF0008091402081111AC0808191818093D322E9
:102000009093D422828193818093D5229093D6227B
:10201000848195818093D7229093D8228081918169
:102020008093D9229093DA2281E008958081918172
:10203000813C2FE8920728F422813381213C3F48DC
:10204000E8F280E008951092FA2280910008882337
:1020500061F035E091E123E08091EE22813061F082
:10206000823069F09093FA2208953CE098E12AE0EA
:102070008091EE228130A1F72093FA2208953093C7
:10208000FA22089580E00895089508950895089526
:102090000895089508950895089508950895089558
:1020A0000895089508950895089508950895089548
:1020B0000895089508950895089508950895089538
:1020C0000895089508950895089508950895089528
:1020D00008950895CF93FC01C081C0FF04C0809192
:1020E0000008882301F1C1FD7DC0C2FD84C0C3FD8D
:1020F00007C0C4FD0EC0C093FA2281E0CF910895BD
:10210000809100088823A9F381E08093B223C4FF63
:10211000F2CF8091000B882319F081E080935C223C
:102120001092EE22E8CF1092B2231092B3232091A6
:102130001E2330911F2340912023509121234217C9
:102140005307E0F64091222350912323421753076F
:10215000A8F68091D3229091D42253D721E02093E6
:102160004606109200088CE08093090880911E2397
:1021700090911F23969587950197809326089093B9
:102180002708809120239091212396958795019788
:1021900080932808909329088091222390912323EB
:1021A00096958795019780932A0890932B08209302
:1021B0000608209307088091070884608093070829
:1021C00083E18093010885E0809300088091400AB4
:1021D000811189CF47E050E067E080E49AE00E94F7
:1021E0001E2781CF8091000B882369F081E08093C6
:1021F000EE22C2FF7CCF8091000B8823C1F082E0E9
:102200008093EE2274CF4091EF225091F0225695A8
:1022100047955695479521E065E080E09BE00E9458
:102220000E2781E08093850610925C22DFCF4091DB
:10223000EF225091F022569547955695479521E00B
:1022400065E080E09BE00E940E2781E08093850698
:1022500061E081E30E94BA2B10925C22D0CFCF9331
:10226000DF93FC01C081D181C093CA22D093CB22DD
:10227000C0FF06C081E08093260682E08093250699
:10228000C1FF06C082E08093260681E08093250688
:10229000C2FF06C081E08093E60688E080932507B0
:1022A000C3FF06C081E08093E50688E0809326079F
:1022B000C4FF06C081E08093E50688E0809325078F
:1022C000C5FF0EC08FEF8093412082E08093050709
:1022D00081E08093050790E89093E60680930607D7
:1022E000C6FF03C08AE080934120C7FD7CC0D6FFB3
:1022F00003C081E080934020D7FD71C05091402001
:102300001092CF221092D0228091280681FF50C0D7
:1023100081E090E08093CF229093D02233E020E0C0
:102320004091280640FF06C03093CF222093D02250
:10233000832F922F2091E80620FD04C020912807CA
:1023400023FD47C02091E80620FF04C02091280704
:1023500023FF39C02091E80620FF04C02091280700
:1023600023FD2BC02091080720FD05C080628093CB
:10237000CF229093D0222091E80627FD36C02091ED
:1023800041202F3F09F08064552349F090648093E9
:10239000CF229093D02281E0DF91CF910895906871
:1023A0008093CF229093D02281E0DF91CF91089546
:1023B00032E020E080E090E0B3CF80618093CF22D4
:1023C0009093D022CFCF88608093CF229093D02259
:1023D000C1CF84608093CF229093D022B3CF10924C
:1023E000402050E08DCFC1D582CF8064C8CFCF923E
:1023F000DF92EF92FF920F931F93CF93DF9320E032
:1024000040E065E080E096E00E94AB2620E048E1F5
:1024100067E080E096E00E94AB2620E040E161E0CA
:1024200080EE96E00E94AB2620E040E166E080E28C
:1024300097E00E94AB2620E040E063E080E896E071
:102440000E94AB2620E040E065E080E896E00E9434
:10245000AB2620E040E067E080E896E00E94AB26F3
:1024600020E048E162E080E097E00E94AB2620E0B7
:1024700040E062E080EE96E00E94AB2620E040E182
:1024800064E080E696E00E94AB2620E040E166E052
:1024900080E696E00E94AB2620E040E166E080EA1C
:1024A00096E00E94AB2620E040E167E080EA96E0FB
:1024B0000E94AB2620E040E161E080E096E00E94CF
:1024C000AB2620E040E162E080E096E00E94AB268F
:1024D00020E040E162E080E496E00E94AB2620E04C
:1024E00040E163E080E496E00E94AB2600E020E259
:1024F00040E061E080E096E00E94D82622E040E0E3
:1025000061E080EE96E00E94D82620E440E061E0A1
:1025100080E297E00E94D82624E041E061E080E07C
:1025200097E00E94D82624E041E061E080EE96E04A
:102530000E94D82621E040E060E080EE96E00E9414
:10254000C02621E040E063E080E297E00E94C026E0
:1025500021E040E064E080E297E00E94C02621E0B4
:1025600040E060E080E896E00E94C02621E040E084
:1025700061E080E896E00E94C02621E040E065E04E
:1025800080E297E00E94C02621E040E067E080E220
:1025900097E00E94C02621E040E060E080E296E003
:1025A0000E94C02621E040E061E080E296E00E94C7
:1025B000C02621E040E060E080E097E00E94C02675
:1025C00021E040E067E080EE96E00E94C02621E036
:1025D00040E062E080E296E00E94C02621E040E018
:1025E00066E080E296E00E94C02621E040E064E0E0
:1025F00080E296E00E94C02621E040E063E080E2B5
:1026000096E00E94C02621E040E067E080E296E08C
:102610000E94C02621E040E065E080E296E00E9452
:10262000C02621E040E067E080E696E00E94C026F8
:1026300021E040E065E080E696E00E94C02621E0CF
:1026400040E062E080E896E00E94C02621E040E0A1
:1026500064E080E896E00E94C02621E040E066E069
:1026600080E896E00E94C02621E040E063E080EE32
:1026700096E00E94C02621E040E064E080EE96E013
:102680000E94C02621E040E065E080EE96E00E94D6
:10269000C02621E048E261E080E097E00E94C02689
:1026A00021E040E061E080E297E00E94C02621E066
:1026B00040E062E080E297E00E94C02621E040E036
:1026C00063E080E097E00E94C02621E040E065E002
:1026D00080E097E00E94C02621E040E067E080E0D3
:1026E00097E00E94C02621E040E061E080E496E0AF
:1026F0000E94C02621E040E064E080E496E00E9471
:10270000C02621E040E065E080E496E00E94C0261B
:1027100021E040E060E080E496E00E94C02621E0F5
:1027200040E065E080EA96E00E94C02621E040E0BB
:1027300064E080EA96E00E94C02660EE76E021E048
:10274000EB012E83A0E2B7E058E015965C93159755
:1027500090E115969C93159700E816E0F801268302
:1027600032E0368380E216968C93169740E81696F0
:102770004C931697E0E2F6E025833683C12CC7E040
:10278000DC2EE6012E83EB014E8364E0F62EF5820B
:1027900070E4E72EE5829583558345838583E0E6E3
:1027A000F6E046838683F801F6829683E6825E83AE
:1027B0009E838E83E6013D8316963C93169716966C
:1027C000FC925D838D834D83E0E4F6E03583968350
:1027D00086832683E0EAF6E086839683DF91CF91B5
:1027E0001F910F91FF90EF90DF90CF900895CF93BE
:1027F000C091D721C13009F440C0809156229091F8
:1028000057220196843F21E0920768F48093562274
:10281000909357228091E80682FF2AC081E080933E
:102820004606CF9108951092562210925722909109
:102830005822492F50E04A31510598F08091E8061E
:1028400082FFAFC090915822492F50E04A31510584
:1028500008F06EC0FA018827E250FF4F8F4F0C94AA
:10286000C131FA018827E85EFE4F8F4F0C94C131C9
:1028700081E080934506CF9108951092D72121E001
:1028800040E064E080E696E00E94C02621E040E05F
:1028900066E080E696E00E94C02621E040E066E027
:1028A00080EA96E00E94C02621E040E067E080EAEE
:1028B00096E00E94C02621E040E061E080E096E0E2
:1028C0000E94C02621E040E062E080E096E00E94A5
:1028D000C02621E040E062E080E496E00E94C0264D
:1028E00021E040E063E080E496E00E94C026C093CF
:1028F000E50683CF82E08093260784E08093260755
:1029000080E88093060780E28093060788E0809342
:1029100006078091E80682FF44C080E090E0A5D4DD
:1029200080E090E0D6D580E090E06BD39091582283
:102930009F5F9A3108F46BC0109258226BCF92E0DF
:102940009093260784E08093260750E8509306076B
:1029500030E23093060748E0409306073093A6061E
:1029600020E12093A606209346069093460661E058
:1029700060938606309346062093660620E42093F3
:1029800066062093A6065093A606909306068093AB
:10299000060680934606409346068091E80682FD2F
:1029A000BCCF80E094E661D480E094E692D580E0EC
:1029B00094E627D390915822BBCF82E080932507DD
:1029C00084E08093260780E88093060780E2809366
:1029D000060788E0809306078091E80682FFE1CF32
:1029E00080EC96E29CCF82E08093260784E080937F
:1029F000250780E88093060780E28093060788E039
:102A0000809306078091E80682FFCBCF9F5F90936B
:102A1000582200CF82E08093260784E08093260727
:102A200080E88093060780E28093060788E0809321
:102A300006078091E80682FFB4CF80E090E015D4CD
:102A400080EC96E246D580E090E0DBD2909158226F
:102A50006FCF82E08093260784E08093260780E88A
:102A60008093050780E28093060788E0809306073D
:102A7000C9CF82E08093260784E08093260780E810
:102A80008093060780E28093050788E0809306071D
:102A90008091E80682FF85CF80E090E0E6D380E079
:102AA00090E017D580EC96E2ACD29091582240CFBE
:102AB00082E08093260784E08093260780E8809355
:102AC000060780E28093060788E0809305079ACF87
:102AD00080E28093A50680E18093A60693CF80E2F2
:102AE0008093A60680E18093A5068091E80682FF88
:102AF00058CF80E09BE413CF80E28093A60680E16C
:102B00008093A6067FCF80E18093450682E0809384
:102B1000460681E08093860680E280934606809197
:102B2000E80682FF3ECF80E090E09FD380E09BE408
:102B3000D0D480E090E065D290915822F9CE80E127
:102B40008093460682E08093450681E08093860666
:102B500080E28093460656CF80E18093460682E06D
:102B60008093460681E08093850680E28093460646
:102B70008091E80682FF15CF80E090E076D380E078
:102B800090E0A7D480E09BE43CD290915822D0CE34
:102B900080E18093460682E08093460681E0809340
:102BA000860680E2809345062DCF80E1809346061D
:102BB00082E08093460681E08093860680E28093DF
:102BC00046068091E80682FDA8CEEBCE80E1809398
:102BD000650680E4809366068093A60680E880936D
:102BE000A60682E08093060684E080930606809322
:102BF000460688E08093460605CF80E1809366060E
:102C000080E4809365068093A60680E88093A606FC
:102C100082E08093060684E0809306068093460651
:102C200088E080934606B9CE80E18093660680E412
:102C3000809366068093A60680E88093A60682E0CD
:102C40008093060684E0809305068093460688E01C
:102C500080934606A2CE80E18093660680E480934E
:102C600066068093A506D1CF80E18093660680E456
:102C7000809366068093A60680E88093A60682E08D
:102C80008093060684E0809306068093450688E0DC
:102C90008093460682CE80E18093660680E480932E
:102CA00066068093A60680E88093A506B1CF80E1F2
:102CB0008093660680E4809366068093A60680E88B
:102CC0008093A60682E080930506A5CF80E18093DD
:102CD000660680E4809366068093A60680E880936B
:102CE000A60682E08093060684E080930606809321
:102CF000460688E08093450650CE80E180936606C4
:102D000080E4809366067FCF81E08093850688E02B
:102D10008093250782E08093850680E180932507D4
:102D200080E28093260780E88093260787EC90E076
:102D30000197F1F700C000008091E80681FFFBC019
:102D40008091280786FB882780F991E0909385067B
:102D500098E09093250792E09093850690E19093F8
:102D6000250790E29093250790E890932607E7ECDB
:102D7000F0E03197F1F700C000009091E80691FD76
:102D8000D8C09091280796FFD4C091E09093850613
:102D900098E09093250792E09093850690E19093B8
:102DA000250790E29093260790E890932507E7EC9B
:102DB000F0E03197F1F700C000009091E80691FF34
:102DC000B6C09091280796FDB2C091E09093850619
:102DD00098E09093260792E09093850690E1909377
:102DE000250790E29093260790E890932607E7EC5A
:102DF000F0E03197F1F700C000009091E80691FDF6
:102E000094C09091280796FF90C091E0909385061A
:102E100098E09093250792E09093850690E1909337
:102E2000260790E29093260790E890932607E7EC18
:102E3000F0E03197F1F700C000009091E80691FFB3
:102E400072C09091280796FD6EC091E0909386061F
:102E500098E09093250792E09093850690E19093F7
:102E6000250790E29093260790E890932607E7ECD9
:102E7000F0E03197F1F700C000009091E80691FD75
:102E800050C09091280796FF4CC091E09093850622
:102E900048E04093250792E09093860620E1209336
:102EA000250730E23093260750E850932607E7ECD9
:102EB000F0E03197F1F700C000006091E80661FF93
:102EC000BDCC6091280766FDB9CC813009F0B6CC45
:102ED0009093250764E0609325075093050730938E
:102EE0000507409305073093A5062093A506209378
:102EF00045069093450680938506309345062093BA
:102F0000650680E4809365068093A5065093A50628
:102F10009093050660930506609345064093450629
:102F20008DCC80E0B2CF80E090CF80E06ECF80E0AB
:102F30004CCF80E02ACF80E008CF40E062E080E024
:102F400090E00E94A3240C94FD248091D82181114B
:102F500001C008958EE70C943E258091D8218111FF
:102F600001C008958DE70C943E258091D8218111F0
:102F700001C0089581E70C943E25CF93DF931F9203
:102F8000CDB7DEB789838091D821882351F089811C
:102F9000803158F08FE6898361E0CE0101960E946E
:102FA00045250F90DF91CF9108958066F4CF9091E1
:102FB000D821992341F0803118F08FE60C943E25FA
:102FC00080660C943E250895CF93DF931F92CDB772
:102FD000DEB79091D821992339F08068898361E028
:102FE000CE0101960E9445250F90DF91CF91089563
:102FF0009091D821911101C0089580680C943E25CC
:10300000089521E020935B2224E02093260620E20D
:1030100097FD28C12093660620E82093650620933B
:10302000660620E296FF93C02093650620E8209371
:1030300065062093660620E295FF93C020936506FF
:1030400020E8209365062093660620E294FF93C053
:103050002093650620E8209365062093660620E20B
:1030600093FF93C02093650620E820936506209384
:10307000660620E292FF93C02093650620E8209325
:1030800065062093660620E291FF93C020936506B3
:1030900020E8209365062093660620E290FF93C007
:1030A0002093650620E8209365062093660620E2BB
:1030B00087FF93C02093650620E820936506209340
:1030C000660620E286FF93C02093650620E82093E1
:1030D00065062093660620E285FF93C0209365066F
:1030E00020E8209365062093660620E284FF93C0C3
:1030F0002093650620E8209365062093660620E26B
:1031000083FF93C02093650620E8209365062093F3
:10311000660630E282FF93C0309365062093650611
:10312000209366063093650690E890936506909329
:10313000660681FD93C080E28093660680E88093F6
:1031400065068093660684E08093250608952093A3
:10315000660620E8209365062093660620E295FD2A
:103160006DCF2093660620E82093650620936606BF
:1031700020E294FD6DCF2093660620E8209365063B
:103180002093660620E293FD6DCF2093660620E82B
:10319000209365062093660620E292FD6DCF209372
:1031A000660620E8209365062093660620E291FDDE
:1031B0006DCF2093660620E820936506209366066F
:1031C00020E290FD6DCF2093660620E820936506EF
:1031D0002093660620E287FD6DCF2093660620E8E7
:1031E000209365062093660620E286FD6DCF20932E
:1031F000660620E8209365062093660620E285FD9A
:103200006DCF2093660620E820936506209366061E
:1032100020E284FD6DCF2093660620E820936506AA
:103220002093660620E283FD6DCF2093660620E89A
:10323000209365062093660630E282FD6DCF3093C1
:10324000660620936506209366063093660690E82E
:10325000909365069093660681FF6DCF80E2809320
:1032600065066CCF20936506D7CE21E020935A22C5
:1032700020E42093260620E297FD28C120936606CD
:1032800020E8209365062093660620E296FF93C00F
:103290002093650620E8209365062093660620E2C9
:1032A00095FF93C02093650620E820936506209340
:1032B000660620E294FF93C02093650620E82093E1
:1032C00065062093660620E293FF93C0209365066F
:1032D00020E8209365062093660620E292FF93C0C3
:1032E0002093650620E8209365062093660620E279
:1032F00091FF93C02093650620E8209365062093F4
:10330000660620E290FF93C02093650620E8209394
:1033100065062093660620E287FF93C0209365062A
:1033200020E8209365062093660620E286FF93C07E
:103330002093650620E8209365062093660620E228
:1033400085FF93C02093650620E8209365062093AF
:10335000660620E284FF93C02093650620E8209350
:1033600065062093660620E283FF93C020936506DE
:1033700020E8209365062093660630E282FF93C022
:1033800030936506209365062093660630936506A4
:1033900090E8909365069093660681FD93C080E265
:1033A0008093660680E8809365068093660680E4D5
:1033B0008093250608952093660620E820936506ED
:1033C0002093660620E295FD6DCF2093660620E8E7
:1033D000209365062093660620E294FD6DCF20932E
:1033E000660620E8209365062093660620E293FD9A
:1033F0006DCF2093660620E820936506209366062D
:1034000020E292FD6DCF2093660620E820936506AA
:103410002093660620E291FD6DCF2093660620E89A
:10342000209365062093660620E290FD6DCF2093E1
:10343000660620E8209365062093660620E287FD55
:103440006DCF2093660620E82093650620936606DC
:1034500020E286FD6DCF2093660620E82093650666
:103460002093660620E285FD6DCF2093660620E856
:10347000209365062093660620E284FD6DCF20939D
:10348000660620E8209365062093660620E283FD09
:103490006DCF2093660620E820936506209366068C
:1034A00030E282FD6DCF309366062093650620934F
:1034B00066063093660690E89093650690936606DC
:1034C00081FF6DCF80E2809365066CCF2093650607
:1034D000D7CE21E02093592220E12093260620E236
:1034E00097FD28C12093660620E820936506209367
:1034F000660620E296FF93C02093650620E820939D
:1035000065062093660620E295FF93C0209365062A
:1035100020E8209365062093660620E294FF93C07E
:103520002093650620E8209365062093660620E236
:1035300093FF93C02093650620E8209365062093AF
:10354000660620E292FF93C02093650620E8209350
:1035500065062093660620E291FF93C020936506DE
:1035600020E8209365062093660620E290FF93C032
:103570002093650620E8209365062093660620E2E6
:1035800087FF93C02093650620E82093650620936B
:10359000660620E286FF93C02093650620E820930C
:1035A00065062093660620E285FF93C0209365069A
:1035B00020E8209365062093660620E284FF93C0EE
:1035C0002093650620E8209365062093660620E296
:1035D00083FF93C02093650620E82093650620931F
:1035E000660630E282FF93C030936506209365063D
:1035F000209366063093650690E890936506909355
:10360000660681FD93C080E28093660680E8809321
:1036100065068093660680E18093250608952093D1
:10362000660620E8209365062093660620E295FD55
:103630006DCF2093660620E82093650620936606EA
:1036400020E294FD6DCF2093660620E82093650666
:103650002093660620E293FD6DCF2093660620E856
:10366000209365062093660620E292FD6DCF20939D
:10367000660620E8209365062093660620E291FD09
:103680006DCF2093660620E820936506209366069A
:1036900020E290FD6DCF2093660620E8209365061A
:1036A0002093660620E287FD6DCF2093660620E812
:1036B000209365062093660620E286FD6DCF209359
:1036C000660620E8209365062093660620E285FDC5
:1036D0006DCF2093660620E820936506209366064A
:1036E00020E284FD6DCF2093660620E820936506D6
:1036F0002093660620E283FD6DCF2093660620E8C6
:10370000209365062093660630E282FD6DCF3093EC
:10371000660620936506209366063093660690E859
:10372000909365069093660681FF6DCF80E280934B
:1037300065066CCF20936506D7CE22E0209346061F
:10374000209346062093460620E297FD50C1209321
:1037500046062093460620E1209345062093450621
:10376000209346062093460620E296FFEDC0209364
:1037700045062093450620E1209345062093450603
:10378000209346062093460620E295FF25C120930C
:1037900045062093450620E12093450620934506E3
:1037A000209346062093460620E294FF10C1209302
:1037B00045062093450620E12093450620934506C3
:1037C000209346062093460620E293FFFBC02093F9
:1037D00045062093450620E12093450620934506A3
:1037E000209346062093460620E292FFE6C02093EF
:1037F00045062093450620E1209345062093450683
:10380000209346062093460620E291FFD1C02093E4
:1038100045062093450620E1209345062093450662
:10382000209346062093460620E290FFBCC02093DA
:1038300045062093450620E1209345062093450642
:10384000209346062093460620E287FFA7C02093D8
:1038500045062093450620E1209345062093450622
:10386000209346062093460620E286FF92C02093CE
:1038700045062093450620E1209345062093450602
:10388000209346062093460620E285FF7DC02093C4
:1038900045062093450620E12093450620934506E2
:1038A000209346062093460620E284FF68C02093BA
:1038B00045062093450620E12093450620934506C2
:1038C000209346062093460620E283FF53C02093B0
:1038D00045062093450620E12093450620934506A2
:1038E000209346062093460630E282FF32C0309392
:1038F00045063093450620934506209345062093C0
:10390000460620934606309345063093450690E1DF
:1039100090934506909345069093460690934606ED
:1039200081FD5FC080E2809346068093460680E179
:10393000809345068093450680934606809346060D
:1039400082E080934506089520934606209346061C
:1039500012CF3093460630934606209345062093B7
:10396000450620934606209346063093460630933C
:103970004606CDCF2093460620934606ACCF209333
:1039800046062093460697CF209346062093460688
:1039900082CF20934606209346066DCF209346069D
:1039A0002093460658CF209346062093460643CFE1
:1039B00020934606209346062ECF2093460620935A
:1039C000460619CF209346062093460604CF20933F
:1039D000460620934606EFCE2093460620934606E1
:1039E000DACE80E28093450680934506A0CF2093EF
:1039F000450620934506AFCE20915B22222351F04D
:103A000088E0809326068093260610925B2280939E
:103A10002506089521E020935B2224E020932606CA
:103A200020E297FD28C12093660620E820936506D2
:103A30002093660620E296FD93C02093660620E858
:103A4000209365062093660620E295FF93C020939D
:103A5000650620E8209365062093660620E294FF21
:103A600093C02093650620E82093650620936606A0
:103A700020E293FF93C02093650620E8209365061B
:103A80002093660620E292FF93C02093650620E80B
:103A9000209365062093660620E291FF93C0209351
:103AA000650620E8209365062093660620E290FFD5
:103AB00093C02093650620E8209365062093660650
:103AC00020E287FF93C02093650620E820936506D7
:103AD0002093660620E286FF93C02093650620E8C7
:103AE000209365062093660620E285FF93C020930D
:103AF000650620E8209365062093660620E284FF91
:103B000093C02093650620E82093650620936606FF
:103B100020E283FF93C02093650620E8209365068A
:103B20002093660630E282FF93C0309365062093AF
:103B30006506209366063093650690E890936506C7
:103B40009093660681FD93C080E28093660680E8CC
:103B5000809365068093660684E080932506089529
:103B60002093650620E8209365062093660620E2F0
:103B700095FD6DCF2093660620E82093650620937F
:103B8000660620E294FD6DCF2093660620E8209320
:103B900065062093660620E293FD6DCF20936606AE
:103BA00020E8209365062093660620E292FD6DCF03
:103BB0002093660620E8209365062093660620E29F
:103BC00091FD6DCF2093660620E820936506209333
:103BD000660620E290FD6DCF2093660620E82093D4
:103BE00065062093660620E287FD6DCF209366066A
:103BF00020E8209365062093660620E286FD6DCFBF
:103C00002093660620E8209365062093660620E24E
:103C100085FD6DCF2093660620E8209365062093EE
:103C2000660620E284FD6DCF2093660620E820938F
:103C300065062093660620E283FD6DCF209366061D
:103C400020E8209365062093660630E282FD6DCF62
:103C500030936606209365062093660630936606C9
:103C600090E8909365069093660681FF6DCF80E2A1
:103C7000809365066CCF20936506D7CE20915A229B
:103C8000222351F080E88093260680932606109226
:103C90005A2280932506089521E020935A2220E499
:103CA0002093260620E297FD28C12093660620E88F
:103CB000209365062093660620E296FD93C020932C
:103CC000660620E8209365062093660620E295FFAD
:103CD00093C02093650620E820936506209366062E
:103CE00020E294FF93C02093650620E820936506A8
:103CF0002093660620E293FF93C02093650620E898
:103D0000209365062093660620E292FF93C02093DD
:103D1000650620E8209365062093660620E291FF61
:103D200093C02093650620E82093650620936606DD
:103D300020E290FF93C02093650620E8209365065B
:103D40002093660620E287FF93C02093650620E853
:103D5000209365062093660620E286FF93C0209399
:103D6000650620E8209365062093660620E285FF1D
:103D700093C02093650620E820936506209366068D
:103D800020E284FF93C02093650620E82093650617
:103D90002093660620E283FF93C02093650620E807
:103DA000209365062093660630E282FF93C030932D
:103DB000650620936506209366063093650690E8B5
:103DC000909365069093660681FD93C080E2809390
:103DD000660680E8809365068093660680E480939B
:103DE000250608952093650620E820936506209314
:103DF000660620E295FD6DCF2093660620E82093AD
:103E000065062093660620E294FD6DCF209366063A
:103E100020E8209365062093660620E293FD6DCF8F
:103E20002093660620E8209365062093660620E22C
:103E300092FD6DCF2093660620E8209365062093BF
:103E4000660620E291FD6DCF2093660620E8209360
:103E500065062093660620E290FD6DCF20936606EE
:103E600020E8209365062093660620E287FD6DCF4B
:103E70002093660620E8209365062093660620E2DC
:103E800086FD6DCF2093660620E82093650620937B
:103E9000660620E285FD6DCF2093660620E820931C
:103EA00065062093660620E284FD6DCF20936606AA
:103EB00020E8209365062093660620E283FD6DCFFF
:103EC0002093660620E8209365062093660630E27C
:103ED00082FD6DCF309366062093650620936606BB
:103EE0003093660690E8909365069093660681FF8E
:103EF0006DCF80E2809365066CCF20936506D7CEA8
:103F000020915922222351F080E28093260680934B
:103F100026061092592280932506089521E02093C9
:103F2000592220E12093260620E297FD28C1209304
:103F3000660620E8209365062093660620E296FD3B
:103F400093C02093660620E82093650620936606BA
:103F500020E295FF93C02093650620E82093650634
:103F60002093660620E294FF93C02093650620E824
:103F7000209365062093660620E293FF93C020936A
:103F8000650620E8209365062093660620E292FFEE
:103F900093C02093650620E820936506209366066B
:103FA00020E291FF93C02093650620E820936506E8
:103FB0002093660620E290FF93C02093650620E8D8
:103FC000209365062093660620E287FF93C0209326
:103FD000650620E8209365062093660620E286FFAA
:103FE00093C02093650620E820936506209366061B
:103FF00020E285FF93C02093650620E820936506A4
:104000002093660620E284FF93C02093650620E893
:10401000209365062093660620E283FF93C02093D9
:10402000650620E8209365062093660630E282FF4D
:1040300093C03093650620936506209366063093FF
:10404000650690E8909365069093660681FD93C09F
:1040500080E28093660680E880936506809366061A
:1040600080E18093250608952093650620E820933B
:1040700065062093660620E295FD6DCF20936606C7
:1040800020E8209365062093660620E294FD6DCF1C
:104090002093660620E8209365062093660620E2BA
:1040A00093FD6DCF2093660620E82093650620934C
:1040B000660620E292FD6DCF2093660620E82093ED
:1040C00065062093660620E291FD6DCF209366067B
:1040D00020E8209365062093660620E290FD6DCFD0
:1040E0002093660620E8209365062093660620E26A
:1040F00087FD6DCF2093660620E820936506209308
:10410000660620E286FD6DCF2093660620E82093A8
:1041100065062093660620E285FD6DCF2093660636
:1041200020E8209365062093660620E284FD6DCF8B
:104130002093660620E8209365062093660620E219
:1041400083FD6DCF2093660620E8209365062093BB
:10415000660630E282FD6DCF3093660620936506D9
:10416000209366063093660690E8909365069093D8
:10417000660681FF6DCF80E2809365066CCF209349
:104180006506D7CE8091E80682FFAAC08091F12211
:10419000813079F48091E80680FF08C08091E806BC
:1041A00080FF07C08091080685FF03C081E08093EF
:1041B00085068091F222813019F482E08093850691
:1041C00081E090E020915B22211102C080E090E02C
:1041D00020915A22222319F022E030E002C020E090
:1041E00030E0822B932B20915922222319F024E0D6
:1041F00030E002C020E030E0822B932B8093FB2242
:104200009093FC222091880620FF03C028E030E034
:1042100002C020E030E0822B932B8093FB2290930E
:10422000FC222091880621FF03C020E130E002C07B
:1042300020E030E0822B932B8093FB229093FC2292
:104240002091000A222319F020E230E002C020E091
:1042500030E0822B932B8093FB229093FC222091C1
:10426000A80625FF03C020E430E002C020E030E0D3
:10427000822B932B8093FB229093FC222091A80603
:1042800024FF03C020E830E002C020E030E0822BB1
:10429000932B8093FB229093FC222091E80621FF30
:1042A00003C020E031E002C020E030E0822B932BFD
:1042B0008093FB229093FC222091280726FF03C0C5
:1042C00020E031E002C020E030E0822B932B80938D
:1042D000FB229093FC2261E08DE30E94BA2B0DC07B
:1042E0008091F122813011F4809386068091F22230
:1042F000813019F482E08093860618951895809194
:10430000B2238823D1F11092B22380E098E091D5B6
:1043100088E0809326068093260610925B22809385
:10432000250680E8809326068093260610925A225E
:104330008093250680E280932606809326061092BD
:1043400059228093250680912523811103C080E0A6
:1043500099E06FD51092E72287EE92E20E94090E53
:104360008091F122823019F481E080938606809159
:10437000F222823011F48093860618958091B3233F
:10438000E82FF0E0E153FD4DC6A58F5F8093B32386
:1043900090911D23891302C01092B323C0FF07C060
:1043A0008091D3229091D4220E94011809C088E004
:1043B000809326068093260610925B228093250622
:1043C000C1FF07C08091D5229091D6220E94351955
:1043D00009C080E8809326068093260610925A2210
:1043E00080932506C2FF06C08091D7229091D822E3
:1043F00070D809C080E2809326068093260610922A
:10440000592280932506C3FF10C08091E80680FFE3
:1044100008C08091E80680FF0BC08091080685FFE8
:1044200007C081E08093850603C081E08093860603
:10443000C4FF04C082E08093850603C082E08093BD
:104440008606C6FF04C080E28093A50603C080E212
:104450008093A606C7FF04C080E18093A50603C031
:1044600080E18093A606C5FF18C080912423982F71
:104470009D7F49F481E08093E72287EE92E20E94DB
:10448000090E80912423813091F482E08093E72209
:1044900087EE92E20E94090E0AC0809124238230A6
:1044A00031F41092E72287EE92E20E94090E1895ED
:1044B0008091E80681FF64C080915E228111A5C0D1
:1044C00091E090935E228091F322282F2D7F21305E
:1044D00051F48091F92281608093F92261E08BE3AD
:1044E0000E94BA2B92C0843039F49093FA228AEF5A
:1044F00092E20E946A1089C0853041F482E0809384
:10450000FA228AEF92E20E946A107FC0863041F45C
:1045100084E08093FA228AEF92E20E946A1075C0CA
:10452000873041F483E08093FA228AEF92E20E947E
:104530006A106BC0883041F485E08093FA228AEFDC
:1045400092E20E946A1061C0893059F49093E72288
:1045500087EE92E20E94090E61E08DE20E94BA2B82
:1045600054C08A3009F051C082E08093E72287EE80
:1045700092E20E94090E61E08DE20E94BA2B45C0D2
:1045800080915E22813009F040C010925E228091BD
:10459000F3229EEF980F923050F48091F9228E7F93
:1045A0008093F92261E08BE30E94BA2B2EC0843005
:1045B00041F488E08093FA228AEF92E20E946A1026
:1045C00024C09BEF980F923040F480E18093FA2250
:1045D0008AEF92E20E946A1018C099EF980F923009
:1045E00040F488E18093FA228AEF92E20E946A10F6
:1045F0000CC08A3051F41092E72287EE92E20E94BA
:10460000090E61E08DE20E94BA2B1895809128076F
:1046100086FF64C080915D228111A5C091E09093D6
:104620005D228091F422282F2D7F213051F480913A
:10463000F92282608093F92261E08BE30E94BA2B19
:1046400092C0843039F49093FA228AEF92E20E9469
:104650006A1089C0853041F482E08093FA228AEFA3
:1046600092E20E946A107FC0863041F484E0809319
:10467000FA228AEF92E20E946A1075C0873041F4F4
:1046800083E08093FA228AEF92E20E946A106BC064
:10469000883041F485E08093FA228AEF92E20E940A
:1046A0006A1061C0893059F49093E72287EE92E254
:1046B0000E94090E61E08DE20E94BA2B54C08A303C
:1046C00009F051C082E08093E72287EE92E20E94D7
:1046D000090E61E08DE20E94BA2B45C080915E22F6
:1046E000813009F040C010925E228091F4229EEF4A
:1046F000980F923050F48091F9228D7F8093F922A7
:1047000061E08BE30E94BA2B2EC0843041F488E034
:104710008093FA228AEF92E20E946A1024C09BEFF3
:10472000980F923040F480E18093FA228AEF92E26F
:104730000E946A1018C099EF980F923040F488E1F7
:104740008093FA228AEF92E20E946A100CC08A30AB
:1047500051F41092E72287EE92E20E94090E61E086
:104760008DE20E94BA2B18958091080782FD0EC039
:104770008FEF8093412082E08093050781E0809352
:10478000050790E89093E6068093060718958091B8
:10479000880680FD05C02091E8223091E92223C0DF
:1047A0008091AE239091AF2301968093AE23909396
:1047B000AF232091EA223091EB228217930729F050
:1047C0002091E8223091E9220EC01092AE2310927F
:1047D000AF232091E8223091E9228217930719F044
:1047E00081E0809386068091B0239091B123019659
:1047F0008093B0239093B1238217930721F5809182
:10480000B4239091B52301968093B4239093B5235C
:104810002091EC223091ED228217930721F08091B4
:10482000B623882349F01092B62381E08093860650
:1048300080E09AE0FED207C01092B0231092B1231C
:1048400081E08093850618958091080685FF04C055
:1048500084E68093D92116C08091E80680FF06C0C7
:1048600081E08093860680E09AE0E3D28FEF809328
:10487000D9218091E622813029F41092E62261E06C
:104880008CE278D7189518958091080685FD0DC0A3
:104890008091E80680FD0EC08FEF8093D921809132
:1048A000E6228130A1F01895089584E68093D921FD
:1048B0001895089581E08093860680E09AE0B9D249
:1048C0008FEF8093D9218091E622813061F7109299
:1048D000E62261E08CE24ED7189508958FED92E2C2
:1048E0000E94930D8091E6228111089581E08093CA
:1048F000E62261E08CE23EC78091880681FF0FC00E
:1049000082E08093860680915C22882391F0109249
:104910005C221092EE2280E09BE08BD20AC082E003
:10492000809385068091EE22823019F461E081E364
:1049300021D718950E94ED098091A2008768809385
:10494000A2007894FFCFFF920F931F93CF93DF9332
:104950001F921F92CDB7DEB789839A83162FF42E4C
:1049600021E040E060E080E696E00AD220E040E00E
:1049700061E080E696E0EFD101E022E040E061E016
:1049800080E696E015D281E08093660683E080930E
:10499000A50989818093A6096A81862F8F7090E18D
:1049A0001902B0011124682B6093A709FF2029F098
:1049B0008091A40984608093A40988E080936506AF
:1049C00020E040E063E080E696E0DAD120E040E0DD
:1049D00062E080E696E0BFD18091680681FF05C065
:1049E0008091A3098C7F8093A3090F900F90DF9192
:1049F000CF911F910F91FF900895E0EAF9E0848133
:104A00008861848380EE81838381806183830895BC
:104A100081E080936506E09160228E0F8093602292
:104A2000F0E0E952FC4D90819093A009803219F496
:104A30001092602280E090915F22981305C08091CF
:104A4000A3098C7F8093A30981E080936606189563
:104A50008091680681FF06C08091A3098C7F8093B6
:104A6000A3090BC09091602280915F22981729F0D2
:104A70008091A30981608093A30918959091A10961
:104A800095FFFCCF8093A0090895EF92FF920F93BA
:104A90001F93CF93DF937C01C62F8091680681FD21
:104AA00005C08091A30981608093A309D0915F2202
:104AB0008D2F90E000E210E0081B190B4C2F50E006
:104AC00004171507E0F0B70189529C4D0E94CA31C6
:104AD00080916022CD0FC0935F22C032B1F1D81710
:104AE00038F4C81728F0CF5FC0936022C03221F19C
:104AF000DF91CF911F910F91FF90EF900895A80142
:104B0000B70189529C4D0E94CA31C01B4C2F50E006
:104B1000B701600F711F87ED93E20E94CA31809147
:104B20006022C0935F22D817F0F2C81708F3CF5F56
:104B3000C0936022C032E1F610926022DF91CF91E3
:104B40001F910F91FF90EF90089510925F228111B5
:104B5000CFCF81E080936022CBCF8091A0090E94CB
:104B60000018189521E040E066E080E096E008D16A
:104B700084E190E4909307068150E1F72FEF37EA44
:104B800081E6215030408040E1F700C00000E3EEB4
:104B9000F1E26BE072E240E4219130E02115310551
:104BA00061F080E090E0AFE3BFE11197F1F700C062
:104BB0000000019682179307B1F780E4409307063F
:104BC0006E177F0749F7BFEF27EA31E6B150204063
:104BD0003040E1F700C0000080930706809307068D
:104BE0008093070680930706809307060895222383
:104BF00009F45BC030E23093520038E0309350004B
:104C00003091510033FFFCCF611538E4730738EE63
:104C1000830731E0930709F482C0611534E273071A
:104C200034EF8307910509F47CC0611532E1730705
:104C30003AE78307910509F44BC0611539E0730722
:104C40003DE38307910509F46EC0603834E87307CB
:104C50003EE18307910509F460C0603432E47307D4
:104C60003FE08307910509F462C0603231EA7307BF
:104C700037E08307910509F458C0603930ED7307B8
:104C800033E08307910509F454C0683438EE7307A4
:104C900031E08307910509F44EC06432744F8105F9
:104CA000910509F04AC084E414C032E23093520006
:104CB0003AE0309350003091510031FFFCCF3091F9
:104CC000510033FDA1CF3091510033FFF8CF9CCF7D
:104CD0008CE098ED94BF222399F023E020934000CC
:104CE00094BF80934100442329F088ED84BF81E084
:104CF0008093420088ED84BF81E080938000089516
:104D000021E02093400094BF8093410094BF82E053
:104D10008093560020936000E6CF8CE1DACF80E0EC
:104D2000D8CF84E0D6CF84E1D4CF8CE2D2CF84E256
:104D3000D0CF84E3CECF8CE3CCCF80E0089588ED54
:104D400084BF81E080938000089588ED84BF83E074
:104D500080938000FFCFFC01308181E090E0062E3F
:104D600001C0880F0A94EAF78095832380837096A8
:104D7000E60FF11D8081422B807C482B40830895F3
:104D8000FC01308181E090E0062E01C0880F0A947A
:104D9000EAF7382B30837096E60FF11D8081807C16
:104DA000842B8083211103C08081876080830895D4
:104DB0000F93FC013185842F90E0880F991FA3E0A9
:104DC000B0E0082E01C0AA0F0A94EAF7A095A32329
:104DD000082E01C0660F0A94EAF7A62BA18741119D
:104DE0000FC00023A9F02287248581E090E0042EE3
:104DF00001C0880F0A94EAF7282B24870F910895A1
:104E0000413091F7011108C08385822B8387ECCF55
:104E10008285822B8287E8CF2387E6CFFC01108230
:104E20008CE081874150510946A357A326836083B4
:104E30000895FC0110822CE021870895FC01108266
:104E40008CE081874150510946A357A32683608394
:104E50000895FC0110822CE0218708952091CF0154
:104E600027FDFCCF8093C0019093C1011092C20135
:104E700086E08093CA0188ED84BF81E08093CB01F6
:104E80008091C40108952091CF0127FDFCCF20918E
:104E9000CF0121FF08C026E32093CA0128ED24BFDB
:104EA00021E02093CB0123E32093CA018093C0012A
:104EB0009093C1011092C2016093C40185E3809375
:104EC000CA0188ED84BF81E08093CB010895FF92F1
:104ED0000F931F93CF93DF938C01C7E0D0E0F12CA9
:104EE00008C0F1100BC0CE01CEDF2196C032D10533
:104EF00071F0F80161918F016111F3CF60E0CE0193
:104F0000C2DFFF24F3942196C032D10591F7DF91DF
:104F1000CF911F910F91FF900895CF93962F8032DC
:104F200008F47FC0282F30E020523109F901E655FE
:104F3000FE4D5081220F331FF901E05BFE4DC08111
:104F4000F901EA50FF4D208131812093672230938F
:104F500068229093F723252F2F702C9FC02D1124AA
:104F6000EAE0EC0FE093F8238093F9232FEF2093EE
:104F7000FA2350615093FB2341116BC0809163224F
:104F800090916422A0916522B09166228093FC23C7
:104F90009093FD23A093FE23B093FF2320916122E1
:104FA0003091622220930024309301248E2F90E0D0
:104FB0008E3F9105A4F5209167223091682240E050
:104FC000842F90E0F901E80FF91F5081FC01EE5F9A
:104FD000FB4D50834F5F4C13F3CF2091F8232E5F8E
:104FE00030E021503109121613060CF09EC080E00B
:104FF00090E040E050E0FC01E950FC4D8081580F0A
:105000004F5F842F90E082179307ACF3F901E950CA
:10501000FC4D50838091DA21813009F46BC0CF912F
:1050200008958D30E0F7282F30E0F901E95BFD4D60
:105030005081220F331FF901E35DFD4DC081F9015D
:10504000ED5EFD4D208131812093672230936822EF
:1050500080CF20914C0840917B2250917C2260911E
:105060007D2270917E2220FF21C04F5F5F4F6F4FE6
:105070007F4F4093FC235093FD236093FE23709356
:10508000FF23209160083091610820930024309321
:105090000124883009F08ACF933009F087CF10922D
:1050A000002410920124E091F82380CF4093FC2348
:1050B0005093FD236093FE237093FF23209160089B
:1050C000309161082093002430930124F0916C22E8
:1050D000F03DF9F62F303105E0F64F5F5F4F6F4F2F
:1050E0007F4F4093FC235093FD236093FE237093E6
:1050F000FF23CFCF83E88093A200C091A30B9091B0
:10510000A30B9C7F9093A30B6091F8236E5F87EFB6
:1051100093E22CD79091A30B8C2F8370892B8093D3
:10512000A30B87E88093A2007ACF50E06FCFCF9394
:10513000E091FA3C2E2F30E024303105BCF090E0B5
:1051400020E030E0F901E250F34C4081F901EC5FDE
:10515000F24C40839F5F292F30E0E091FA3C4E2FC4
:1051600050E0435051092417350764F38093F93C0C
:10517000EA5FE093FA3C8091FD3C80618093FD3CC6
:1051800080914C0880FF40C080917B2290917C22CE
:10519000A0917D22B0917E220196A11DB11D809328
:1051A000FE3C9093FF3CA093003DB093013D809165
:1051B0006008909161088093023D9093033DF0E078
:1051C000E650F34C10826091FA3C40E0262F30E02C
:1051D00080E090E0F901E650F34CDC01A750B34CBD
:1051E00020818C91280F20834F5F6091FA3C262FFD
:1051F00030E0842F90E02817390764F78091DA2196
:10520000813079F1CF91089580917B2290917C2219
:10521000A0917D22B0917E228093FE3C9093FF3C32
:10522000A093003DB093013D20916008309161084A
:105230002093023D3093033D40916C22403D09F0A4
:10524000BECF2F30310508F0BACF0196A11DB11D98
:105250008093FE3C9093FF3CA093003DB093013DB2
:10526000AECF83E88093A200C091A30B9091A30BD3
:105270009C7F9093A30B6E5F89EF9CE377D6909110
:10528000A30B8C2F8370892B8093A30B87E88093CB
:10529000A200CF9108953F924F925F926F927F92BA
:1052A0008F929F92AF92BF92CF92DF92EF92FF9236
:1052B0000F931F93CF93DF93CDB7DEB73C01962EAC
:1052C000142FF22E4D885E883ADD21E041E060E047
:1052D00078E488EE91E08BDC81E080934800609276
:1052E0007222709273229092742210937522E0922F
:1052F00076228093772286E080937822F09279223A
:1053000000937A2210927B2210927C2210927D22AE
:1053100010927E2210927F221092802282E090E0F2
:105320009DDD382E83E090E099DD982E8FEF981662
:1053300009F4B7C0F31409F489C06FED80E090E080
:10534000A2DD6F2D82E090E09EDD61E083E090E0E1
:105350009ADD0E942F0A80E090E080DD8E3E09F405
:1053600080C080E68093812280E4809382220E9424
:10537000610A0E94AE0AA0927022B0927122C0927D
:105380006E22D0926F2280926D2287E090E066DDDF
:105390008F3F09F4BDC003E812E2E6EFEE2EFF24D2
:1053A000FA94C701825792427C01C701800F911F76
:1053B00055DDF80181938F01F2E20C391F07A9F73F
:1053C00089E1E3E8F2E2ACE9B2E201900D928A955C
:1053D000E1F721E042E15AE767E080E498E02EDD62
:1053E000E0916C2281E08E0F80936C22F0E0E55F0B
:1053F000FD4D808190E00197809368089093690843
:1054000081E08093470820E040E066E080E096E09D
:10541000B7DC80E48093050640E060E081E090E046
:1054200092D4EED48BE792E2DF91CF911F910F914E
:10543000FF90EF90DF90CF90BF90AF909F908F90B4
:105440007F906F905F904F903F90BEC691E0991211
:1054500074CF0E942F0A80E090E000DD8E3E09F0BC
:1054600080CF81E090E0FADC80938122A114B10426
:1054700091F0760185010C0D1D1DF0E26F2E712C4F
:10548000C301ECDCF70181937F01FFEF6F1A7F0A04
:10549000E016F106A9F780E8809382220E94AE0A06
:1054A0006ACF6F2D82E090E0EEDC61E083E090E077
:1054B000EADC82E090E0D2DC382E83E090E0CEDCC3
:1054C000982E8201A7E06A2E712CE12C0BC0E1100E
:1054D0000EC0C301D8DCFFEF6F1A7F0A80E26816A6
:1054E000710489F0F80161918F016111F0CF60E0E2
:1054F000C301C9DCEE24E394FFEF6F1A7F0A80E258
:105500006816710479F76FED80E090E0BCDC12CF93
:10551000720107E010E0D12C0AC0D1100DC0C80103
:10552000B2DC0F5F1F4F0032110509F434CFF701D1
:1055300061917F016111F1CF60E0C801A4DCDD243D
:10554000D394EFCF0E94140A20E480E092EEA4E00E
:10555000B0E00197A109B1090097A105B105C9F70C
:1055600020930706F2CF80917B2290917C22A0911C
:105570007D22B0917E220196A11DB11D80937B22D8
:1055800090937C22A0937D22B0937E228091C022B2
:105590008F5F8093C0228EE090E0809368089093A4
:1055A000690881E080936C220E94D00A80914C08A7
:1055B000806180934C080E94D20A0E94080B40919F
:1055C000812247FD03C0842F8370B1C0842F837074
:1055D000813009F0ACC08BE792E280936722909310
:1055E000682283E08093F7238EE08093F82388E09D
:1055F0008093F9238FEF8093FA2384E18093FB2338
:1056000080914C0880FF18C080917B2290917C2271
:10561000A0917D22B0917E220196A11DB11D8093A3
:10562000FC239093FD23A093FE23B093FF2380914E
:1056300060089091610826C080917B2290917C2225
:10564000A0917D22B0917E228093FC239093FD2334
:10565000A093FE23B093FF2320916008309161084E
:1056600050916C22503D71F42F30310558F4019661
:10567000A11DB11D8093FC239093FD23A093FE23D5
:10568000B093FF23109200241092012480917B227A
:1056900090917C22A0917D22B0917E228093022461
:1056A00090930324A0930424B09305242091F8231D
:1056B0002E5F30E0215031091216130684F450E0B9
:1056C00060E080E090E0FC01E950FC4D8081680FD3
:1056D0005F5F852F90E082179307ACF301C060E015
:1056E000F901E950FC4D60838091DA21813021F588
:1056F00083E88093A200C091A30B9091A30B9C7FA1
:105700009093A30B6091F8236E5F87EF93E22ED402
:105710009091A30B8C2F8370892B8093A30B87E828
:105720008093A20040918122842F837000C088233F
:1057300039F0813019F400C092E003C091E001C05B
:1057400094E080917B22892321F080E480930606F7
:1057500005C046FF03C080E4809305060E94D10A7D
:1057600080914C0884FF05C080916B22811101C09B
:10577000E9DE1895909181229370913009F0089597
:10578000462F63E0CACBCF92DF92FF920F931F9315
:10579000CF93DF931F921F92CDB7DEB78D3040F4C9
:1057A000E82FF0E0DF01A95BBD4D9C91961759F001
:1057B00080E00F900F90DF91CF911F910F91FF909C
:1057C000DF90CF900895EE0FFF1FE35DFD4D6081E8
:1057D00071816217730761F7883009F47DC08A30E0
:1057E000C9F18B30F9F08C3019F78A01B7E0CB2E74
:1057F000D12CF12C0CC0F1100FC0C60144DBFFEF1F
:10580000CF1ADF0A80E2C816D10409F47FC0F8017C
:1058100061918F016111EFCF60E0C60134DBFF249D
:10582000F394EDCFFA018081813009F48CC082308D
:1058300009F49AC0843009F4A7C0883011F081E0DF
:10584000B8CF6FEF87E090E01EDB83E080936B22A0
:1058500081E0AFCFFA01808186FD04C080E48093AF
:105860000606808110918122837F80938122FA0134
:10587000808185FF40C015FF5DC083FF10C081E0BF
:105880008093B8221092B6228093B7221092B5224C
:1058900080918122877F80938122FA0180818370A9
:1058A00071F4812F837059F21092B82249835A8380
:1058B0000E94C60A49815A81FA0180818370813031
:1058C00051F1833009F0BBCF1370133009F4B7CF17
:1058D0000E94CF0A81E06DCFFA0180819181A2817F
:1058E000B38180937B2290937C22A0937D22B093FE
:1058F0007E2281E05ECF15FFC0CF49835A830E948C
:10590000C50A49815A81FA018081B7CF83E080932B
:105910006B2281E04ECF812F8370813009F48FCFCD
:1059200049835A830E94CE0A49815A81FA018081B3
:105930008370C7CF49835A830E94C40A49815A8120
:10594000FA0180819ACF8CE992E249835A83BFDAC7
:105950006FED80E090E097DA83E080936B224981DD
:105960005A81FA01808163CF80E090E049835A83B5
:1059700075DA49815A818E3E09F01ACF83E080930F
:105980006B22FA01808156CF6EEE80E090E0498371
:105990005A8379DA6091812281E090E074DA809113
:1059A00070229091712249815A81892BC9F000E0BF
:1059B00010E0E0916E22F0916F22E00FF11F608104
:1059C000C801809649835A835EDA0F5F1F4F80912A
:1059D00070229091712249815A810817190748F362
:1059E00083E080936B22FA01808127CF0E94D00A46
:1059F0008091680890916908E0916C2221E02E0F57
:105A000020936C22E770F0E0E55FFD4D3081830F5D
:105A1000911D809368089093690820FD26C18091AC
:105A2000DA21813069F48093250783E88093A2000E
:105A30008091A30B8F7C8093A30B87E88093A200B7
:105A40008091BF22811103C08091BE220FC081507E
:105A50008093BF22882319F08091BE2207C0109244
:105A6000BF221092BE221092B9229BC0882309F453
:105A700098C0A091F724B091F8248091FA3C8F3F10
:105A800059F01091FB3C5091FC3C0091FD3C2EEFF5
:105A9000E22E2CE3F22E0AC01091FD3C5091FE3C08
:105AA0000091FF3C90E0E92E9DE3F92EFD01319637
:105AB00081F090E040E020E030E0E901C750D34CB5
:105AC0002881420F9F5F292F30E02E173F07A8F350
:105AD00001C040E0E750F34C9081491360C05F3F44
