:1000000037C100005AC1000058C1000056C10000AD
:1000100054C1000052C1000050C100004EC1000098
:100020004CC100004AC1000048C1000046C10000A8
:1000300044C1000042C10000FBC200003EC10000FC
:100040003CC100003AC1000038C1000036C10000C8
:1000500034C1000032C1000030C100002EC10000D8
:100060002CC100002AC1000028C1000026C10000E8
:1000700024C1000022C1000020C100001EC10000F8
:100080001CC100001AC1000018C1000016C1000008
:1000900014C1000012C1000010C100000EC1000018
:1000A0000CC100000AC1000008C1000006C1000028
:1000B00004C1000002C1000000C10000FEC0000039
:1000C000FCC00000FAC00000F8C00000F6C000004C
:1000D000F4C00000F2C00000F0C00000EEC000005C
:1000E000ECC00000EAC00000E8C00000E6C000006C
:1000F000E4C00000E2C00000E0C00000DEC000007C
:100100000C942211DAC00000D8C00000D6C0000054
:10011000D4C00000D2C00000D0C00000CEC000009B
:10012000CCC00000CAC00000C8C00000C6C00000AB
:10013000C4C00000C2C00000C0C00000BEC00000BB
:10014000BCC00000BAC00000B8C00000B6C00000CB
:10015000B4C00000B2C00000B0C00000AEC00000DB
:10016000ACC00000AAC00000A8C000000C949D1103
:100170000C94FE10A2C00000A0C000009EC00000B1
:100180009CC000009AC000000C94EC0F96C00000C8
:1001900094C0000056C2000090C000008EC0000055
:1001A0008CC000008AC0000088C0000086C000002B
:1001B00084C0000082C0000080C000007EC000003B
:1001C0007CC000007AC0000078C0000076C000004B
:1001D00074C0000072C0000070C000000C94901049
:1001E0000C94B90F6AC0000068C0000066C000002F
:1001F00064C0000062C0000060C00000EF0B0A0C89
:100200000A0C0A0C0A0C0A0C0A0C0A0C0A0C0A0C3E
:100210000A0C0A0C0A0C0A0CF80B0A0CE60B950BDC
:100220009E0BA70BB00BB90BC20BCB0BD40BDD0B8A
:10023000010C0A0C0A0C0A0C0A0C0A0C0A0C340CED
:10024000630C0A0C200B6C0C290B320B3B0B440B80
:100250000A0C0A0C0A0C4D0B560B5F0B0A0C0A0C0D
:100260000A0C680B710B0A0C7A0B0A0C830B8C0BB3
:1002700011241FBECFEFCDBFDFE3DEBF00E00CBF18
:1002800018BE19BE1ABE1BBE13E2A0E0B0E2ECE637
:10029000F3E200E00BBF02C007900D92A83DB1074A
:1002A000D9F71BBE2CE3A8EDB3E201C01D92AE321C
:1002B000B207E1F79ED50C94B411A2CECF93DF9391
:1002C00020E420930506EB01C370DD27209789F415
:1002D0009695982F88279795879576956795769523
:1002E0006795680F791F80E090E04EEE5BE20E9418
:1002F000C10E80E48093060620EF2C9FC0012D9F45
:10030000900D1124880F991F8251944DDF91CF9148
:100310000895CF92DF92EF92FF920F931F93CF93A6
:10032000DF936C01E12CF12CB701C601C7DF8C0112
:10033000C0E0D0E0F801419151918F01BE01C701A9
:100340000E94AE092196C03FD105A1F7FFEFEF1A39
:10035000FF0A80E4E81681E0F80631F7DF91CF91DB
:100360001F910F91FF90EF90DF90CF9008954F92E3
:100370005F926F927F928F92AF92CF92EF920F9394
:100380001F93CF93DF93182F00E020E040E069EE49
:1003900070E080E090E00E948C0CC82FD0E00F2E1F
:1003A000F7E86F2EF3E27F2EF02D0F2EF6E94F2E99
:1003B000F3E25F2EF02D812CA12CC12CEE24EA94C7
:1003C0000FEF2FEF49EE50E0BE01F30181913F01A5
:1003D0000E94F60AC80FD11D00E020E040E069EE5F
:1003E00070E0CE010E948C0CC80FD11D64147504FE
:1003F00011F789E2189F912D112492959F70212F5A
:10040000F4E69F9F20191124922F0F2EFDEC5F2EF2
:10041000F02D159D712C1124769476947694770C9A
:10042000272D220F220F720E312F3719732E692EAE
:10043000631A191B189F812D112482958F700FEF5D
:100440002FEF49EE50E0BE01805D0E94F60AC80F12
:10045000D11D00E020E040E069EE70E0CE010E9496
:100460008C0CC80FD11D659C812D11248695869515
:1004700086950FEF2FEF49EE50E0BE01805D0E94A0
:10048000F60AC80FD11D00E020E040E069EE70E000
:10049000CE010E948C0CC80FD11D0FEF2FEF49EE3B
:1004A00050E0BE0180E3870D0E94F60A00E020E0E4
:1004B00040E069EE70E0FE01E80FF11DCF010E94FF
:1004C0008C0CDF91CF911F910F91EF90CF90AF9057
:1004D0008F907F906F905F904F900895CF92DF92B2
:1004E000EF92FF920F931F93CF93DF936C017B01E9
:1004F000EA0180E480930506672B09F051C086016C
:10050000000F111FB80180E090E00E948E0DB8012D
:100510006F5F7F4F80E090E00E948E0D41C081911F
:1005200091918D939D93E217F307C9F743305105DD
:1005300009F04AC0B70163507109769567957695C1
:100540006795C6019695982F882797958795680F88
:10055000791F80E090E04EEE53E20E94170E34C007
:10056000F801419151918F01BE01C701F7D6219643
:10057000C03FD105A9F7FFE3EF16F1E0FF0661F4F4
:100580008C2DF5DE809126089091270880549140AB
:10059000809320089093210880E48093060617C07A
:1005A000A701437055278E0180EE91E0489FD0014E
:1005B000499FB00D589FB00D1124A251BC4D9E0112
:1005C00020523E4FFE01ABCFC0E0D0E0C9CFDF915B
:1005D000CF911F910F91FF90EF90DF90CF900895F2
:1005E00040E060E081E090E00E944C0F0C94A80F86
:1005F00008950F9320E048E163E080E297E059D34B
:1006000021E048E262E080E297E06AD300E028E07F
:1006100041E061E080E297E07CD384E080932607AC
:100620000F91089584E0809326070C94B30F0895EA
:10063000F9DF1092D8231092D92380E098E0C0D33C
:1006400018958091280783FF06C084E080932607D1
:100650000E94B30F0CC084E0809325070E94A80F6E
:1006600021E042E15AE767E080E098E08AD31895FC
:100670002091D8233091D9232730310500F5232B41
:1006800021F410922008109221082091D823309153
:10069000D923F901E050F04E908198130BC0F90175
:1006A000E251FC4C90832F5F3F4F2093D82330932F
:1006B000D92308951092D8231092D9230895F901CF
:1006C000E251FC4C80832F5F3F4F2093D82330931F
:1006D000D9232C3E314009F04DC091E0909325077D
:1006E00090E1909365061092200810922108EEEE9A
:1006F000F3E349ED55E390E02191920FE417F507FC
:10070000D9F72BEE31E02093D8233093D9238913E6
:1007100027C06091F7337091F833603481E0780737
:1007200038F48091F5339091F6338038910558F084
:10073000EEEEF3E3808180688083EAEDF5E380816B
:100740008058808303C049EF53E3C8DE66EF8EEE26
:1007500093E30E94071066EF84EE94E30E94071073
:100760001092D8231092D92380E18093660681E00D
:1007700080932607089540E062E080E090E00E94C8
:1007800095100C94F3100895BF92CF92DF92EF92E0
:10079000FF920F931F93CF93DF931F92CDB7DEB7D6
:1007A000182F807F212F2F708037B9F52D30E1F081
:1007B0002E3019F0213089F52EC000E616E068943D
:1007C000FF24F4F8F801F5820F2EF0E2CF2EF7E0C7
:1007D000DF2EF02DEE24E394F601E582CCD0F60175
:1007E000E682F801F682BCC000E616E06894FF24B9
:1007F000F4F8F801F5820F2EF0E2CF2EF7E0DF2EAD
:10080000F02DEE24E394F601E582CDD6F601E682E2
:10081000F801F682A5C047D286C08036E9F430E000
:10082000220F331F220F331F220F331FC901880FDE
:10083000991F220F331F220F331F220F331F820FE6
:10084000931F833EF4E09F0710F082EE94E08093C4
:1008500028099093290984C0803509F064C080E19B
:100860008093650681E0809325072330D9F028F432
:10087000213049F0223071F04FC0253019F1D0F00D
:10088000263041F149C0198261E0CE0101960E94F3
:10089000381142C082E2898361E0CE0101960E9454
:1008A00038113AC081E4898361E0CE0101960E944B
:1008B000381132C081E6898361E0CE0101960E9441
:1008C00038112AC080E8898361E0CE0101960E9438
:1008D000381122C0198261E0CE0101960E943811C0
:1008E00082E2898361E0CE0101960E94381181E4A1
:1008F000898361E0CE0101960E94381181E68983E7
:1009000061E0CE0101960E94381180E8898361E0A0
:10091000CE0101960E94381181E08093260780E184
:10092000809366061DC01123DCF40F2EF0E6EF2E37
:10093000F6E0FF2EF02D00E1F70105830F2EF0E227
:10094000CF2EF7E0DF2EF02DBB24B394F601B58255
:10095000812F8F7790E0DDDCF601B682F701068308
:100960000F90DF91CF911F910F91FF90EF90DF904B
:10097000CF90BF9008952F923F924F925F926F92C7
:100980007F928F92AF92CF92EF92FF920F931F932D
:10099000CF93DF930F2EF2E1EF2EF12CF02D12C04A
:1009A00000E020E040E0BE01C7015ED52196C831DD
:1009B000D105B1F72FEFE21AF20A8CE2E81681E0D6
:1009C000F80619F0CDE0D0E0EBCF0F2EF3EC6F2E50
:1009D000F3E27F2EF02D0F2EF7ED2F2EF3E23F2EB8
:1009E000F02DC0E0D0E00F2E412CF6E05F2EF02D70
:1009F00010E4BE016C5E7F4F812CA12CC12CEE2433
:100A0000EA940FEF2FEF4FE050E0F30181913F01A7
:100A1000EDD590E00296C80FD91FF2011783261476
:100A2000370439F7FFEF27EA81E6F1502040804094
:100A3000E1F700C000000F2EF6E96F2EF3E27F2EE3
:100A4000F02D0F2EFEEB2F2EF3E23F2EF02D0F2E6A
:100A5000412CF6E05F2EF02D10E423C080E090E002
:100A6000EFE3FFE13197F1F700C000000196821734
:100A70009307B1F7BE016C5E7F4F812CA12CC12C76
:100A8000EE24EA940FEF2FEF4FE050E08EE2AED568
:100A900090E00296C80FD91FF2011783261437047D
:100AA00041F0F30121913F0130E021153105B1F60C
:100AB000E1CFFFEF27EA81E6F15020408040E1F7E7
:100AC00000C000000F2EFEEB6F2EF3E27F2EF02D04
:100AD0000F2EF3EC2F2EF3E23F2EF02D0F2E412C94
:100AE000F6E05F2EF02D10E4BE016C5E7F4F812C8E
:100AF000A12CC12CEE24EA940FEF2FEF4FE050E031
:100B0000F30181913F0172D590E00296C80FD91F81
:100B1000F20117836214730439F780E480930606A8
:100B2000DF91CF911F910F91FF90EF90CF90AF90F9
:100B30008F907F906F905F904F903F902F9008958F
:100B4000611528E4720728EE820721E0920709F474
:100B50003FC0611524E2720724EF82079105D1F1AD
:100B6000611522E172072AE782079105A9F1611553
:100B700029E072072DE38207910581F1603824E8AE
:100B800072072EE18207910559F1603422E4720761
:100B90002FE08207910531F1603221EA720727E0E8
:100BA0008207910509F1603920ED720723E0820781
:100BB0009105E1F0683428EE720721E08207910583
:100BC000B9F06432744F81059105A1F08FEF08955B
:100BD00080E0089581E0089583E0089585E0089518
:100BE00087E0089589E008958BE008958DE00895E9
:100BF0008FE0089581E10895CF93C42F222361F0FF
:100C000020E22093520028E020935000E1E5F0E03C
:100C1000208123FFFDCF3DC022E2209352002AE035
:100C200020935000E1E5F0E0208121FFFDCFE1E5D8
:100C3000F0E0208123FFFDCF30C098ED94BF23E08A
:100C400020934000880F880F94BF8093410010C00C
:100C500098ED94BF21E020934000880F880F94BF47
:100C60008093410094BF82E08093560020936000FF
:100C7000CC2329F088ED84BF81E08093420088ED89
:100C800084BF81E0809380000CC080E00AC080E0D7
:100C900008C056DF8F3F89F6F8CF52DF8F3FC1F68D
:100CA000F6CFCF91089588ED84BF83E080938000D4
:100CB000FFCFDC013C91E1E0F0E0062E02C0EE0F38
:100CC000FF1F0A94E2F7E095E323EC934096FC01C2
:100CD000E60FF11D8081807C242B282B2083089532
:100CE000FC01308181E090E0062E02C0880F991F40
:100CF0000A94E2F7832B80837096E60FF11D8081C2
:100D0000807C482B4083211103C0808187608083D1
:100D100008950F93FC013185A42FB0E0AA0FBB1FEB
:100D200083E090E00A2E02C0880F991F0A94E2F730
:100D30008095832370E002C0660F771FAA95E2F7C3
:100D4000682B6187411108C0002311F022870DC074
:100D50008285282B228709C0413039F4002311F005
:100D6000238703C08385282B2387248581E090E097
:100D700002C0880F991F4A95E2F7822B84870F9152
:100D80000895FC0110828CE081874150510946A3EF
:100D900057A3268360830895EF920F93FC0110827E
:100DA0008CE081874150510946A357A320A731A762
:100DB0000683E78283E1818360830F91EF9008953A
:100DC000FC0110822CE02187089521E040E066E0DC
:100DD00080E096E085CF0895E0E0F6E020E480E052
:100DE00092EEA4E0B0E00197A109B109E1F72783F1
:100DF000F6CF21E041E060E078E488EE91E0FCDEAF
:100E0000811101C0FFCFECDBB6DCDFDFDAD0C2D569
:100E1000F0DB22D15BD1882359F080E090E04BD108
:100E20004DD282EE94E047D120D6823011F402C038
:100E3000D3DFD2DFE2EAF0E08081816880837894BA
:100E4000FFCF0F931F93CF93DF93A6E4B6E091E01B
:100E50009C9322E02C93C4E8D6E0888384E08C93B2
:100E6000E5E4F6E080832083072F1127222733272C
:100E700008838C9380838B012227332708838C93EC
:100E80008083052F162F272F332708838C93808389
:100E900048838C9380839083DF91CF911F910F9132
:100EA0000895CF93DF93A6E4B6E091E09C93CFE35F
:100EB000DFE12197F1F700C0000022E02C93EFE37F
:100EC000FFE13197F1F700C0000044E856E0EA0185
:100ED000888384E08C93E5E4F6E08083CFE3DFE170
:100EE0002197F1F700C000002083CFE3DFE12197D5
:100EF000F1F700C00000EA0168838C938083AFE3C0
:100F0000BFE11197F1F700C000009083CFE3DFE16C
:100F10002197F1F700C00000DF91CF910895CF93A2
:100F2000DF93A6E4B6E021E02C93CFE3DFE1219745
:100F3000F1F700C0000032E03C93EFE3FFE13197AE
:100F4000F1F700C0000044E856E0EA01988394E01D
:100F50009C93E5E4F6E09083CFE3DFE12197F1F79E
:100F600000C00000EA0188839C939083CFE3DFE117
:100F70002197F1F700C000003083CFE3DFE1219734
:100F8000F1F700C00000EA0178839C939083CFE3DF
:100F9000DFE12197F1F700C00000EA0168839C932C
:100FA00090838FE39FE10197F1F700C00000208359
:100FB000CFE3DFE12197F1F700C00000DF91CF918F
:100FC0000895EF920F938FEF8093800620E040E02A
:100FD00060E080E496E084DE20E040E061E080E4D0
:100FE00096E07EDE20E040E062E080E496E078DE9D
:100FF00020E040E063E080E496E072DE20E040E044
:1010000064E080E496E06CDEE5E4F6E081E0808375
:1010100082E0808384E0808388E0808380E1808335
:101020002FEF83EC99E0215080409040E1F700C021
:10103000000020E040E060E080E696E051DEE12C38
:1010400000E020E030E042EE54E066E080E099E02D
:10105000A3DE0F91EF900895CF93DF93E5E4F6E0E0
:1010600091E0908384E0808328E02083A6E4B6E0CA
:1010700020E12C93CFE3DFE12197F1F700C00000DE
:101080002083DFEF25EA3EE0D15020403040E1F7F9
:1010900000C000009C9322E02C93109284068C9355
:1010A00080838C9380838C9380838C9380839083C4
:1010B000DF91CF910895833E24E0920710F082EEF5
:1010C00094E080932809909329090895EF92FF9264
:1010D0001F93CF93DF93A6E4B6E031E03C938FE318
:1010E0009FE10197F1F700C0000022E02C93CFE3CD
:1010F000DFE12197F1F700C0000083ED80938406C3
:1011000084E08C93E5E4F6E080838FE39FE1019730
:10111000F1F700C000000F2EF0E8EF2EF6E0FF2EF2
:10112000F02DE70118828FE39FE10197F1F700C0EE
:1011300000002083CFE3DFE12197F1F700C000003A
:101140008FE39FE10197F1F700C00000CFE3DFE1FB
:101150002197F1F700C0000028E02C938FE39FE176
:101160000197F1F700C00000CFE3DFE12197F1F72D
:1011700000C00000C8E8D6E048818FE39FE10197F6
:10118000F1F700C0000020838FE39FE10197F1F7A2
:1011900000C000008FE39FE10197F1F700C000005D
:1011A00050E060E070E0762F652F542F44272C9399
:1011B0008FE39FE10197F1F700C000008FE39FE10B
:1011C0000197F1F700C0000018818FE39FE10197BC
:1011D000F1F700C0000020838FE39FE10197F1F752
:1011E00000C000008FE39FE10197F1F700C000000D
:1011F000412B762F652F542F44272C938FE39FE1AB
:101200000197F1F700C000008FE39FE10197F1F72C
:1012100000C0000018818FE39FE10197F1F700C043
:10122000000020838FE39FE10197F1F700C00000E9
:101230008FE39FE10197F1F700C00000412B762F6B
:10124000652F542F44272C938FE39FE10197F1F7EB
:1012500000C000008FE39FE10197F1F700C000009C
:10126000A881CFE3DFE12197F1F700C000002083E0
:101270008FE39FE10197F1F700C00000CFE3DFE1CA
:101280002197F1F700C000003083EFE3FFE13197D1
:10129000F1F700C000002FEFE70128834A2B6627F3
:1012A000772781E0413453496105710509F080E0F9
:1012B000DF91CF911F91FF90EF90089560E081E062
:1012C000F0DD2FEF81EE94E0215080409040E1F777
:1012D00000C0000060E088E2E4DD63E280ECE1DD74
:1012E00060E181ECDEDD6BE27BE285EC90E017DE15
:1012F00060EC87ECD6DD68E886E3D3DD65E58AE35C
:10130000D0DD6BE170E081EB90E009DE67E087EB18
:10131000C8DD60E081E1C5DD2FEF85EA9EE0215068
:1013200080409040E1F700C0000060E089E2B9DD54
:101330002FEF83ED90E3215080409040E1F700C013
:1013400000004FEE50E060E070E08AE27ADD4FE3AB
:1013500051E060E070E08BE274CD08958F929F922F
:10136000AF92BF92CF92DF92EF92FF920F931F93B3
:10137000CF93DF932FEE30E06901C61AD70A0D2C08
:10138000000CEE08FF087601DD24CC242FEEC22AE3
:10139000A6E4B6E031E03C9362E06C93C4E8D6E0AA
:1013A0002AE2288324E02C93E5E4F6E0208360839E
:1013B0008F2C9924AA24BB2488822C932083670134
:1013C000EE24FF24C8822C93208318822C93208340
:1013D0007FEE78832C93208330830FE311E0680144
:1013E000C81AD90A0D2C000CEE08FF087601DD247E
:1013F000CC248FE3C82A6894D0F83C936C938BE29A
:1014000088832C93208360838F2C9924AA24BB2467
:1014100088822C9320836701EE24FF24C8822C93BA
:10142000208338832C9320838FE388832C9320831D
:1014300030833C936C938CE288832C93208360836D
:1014400058832C93208348832C9320833083DF910F
:10145000CF911F910F91FF90EF90DF90CF90BF90B1
:10146000AF909F908F9008958F929F92AF92BF926E
:10147000CF92DF92EF92FF920F93CF93DF93EFEE35
:10148000F0E06F01C61AD70A0D2C000CEE08FF0819
:101490007601DD24CC243FEEC32AA6E4B6E051E079
:1014A0005C9362E06C93C4E8D6E03AE2388334E0BF
:1014B0003C93E5E4F6E0308360838F2C9924AA24E2
:1014C000BB2488823C9330836701EE24FF24C882CA
:1014D0003C93308318823C9330837FEE78833C9337
:1014E000308350830F2EFFE3CF2EDD24D394F02DD5
:1014F000C81AD90A0D2C000CEE08FF087601DD246D
:10150000CC247FE3C72A6894D0F85C936C938BE279
:1015100088833C93308360838F2C9924AA24BB2436
:1015200088823C9330836701EE24FF24C8823C9379
:10153000308358833C9330838FE388833C9330839C
:10154000508326952695269570E4279FC001112487
:101550000695069506957C01E02A469546954695A2
:10156000842F90E0982F8827990F990F990F8E2933
:101570009F295C936C932CE228833C933083608397
:1015800098833C93308388833C9330835083DF91EE
:10159000CF910F91FF90EF90DF90CF90BF90AF90E1
:1015A0009F908F900895EF92FF920F93CF93DF93C8
:1015B000E12CF12C12C000E020E040E0BE01C701A8
:1015C00053DF2196C03FD105B1F78FEFE81AF80A33
:1015D00080E4E81681E0F80619F0C0E0D0E0EBCF37
:1015E000DF91CF910F91FF90EF9008952F923F924E
:1015F0004F925F926F927F928F929F92AF92BF9223
:10160000CF92DF92EF92FF920F931F93CF93DF93CE
:10161000CDB7DEB72A97CDBFDEBF4D835E8329836A
:101620000A83EB821C2D7A2C90E0FC01B097EA3300
:10163000F10508F0EFC08827E250FF4F8F4F82C6B8
:1016400025E02C830F2EFBEFAF2EF2E2BF2EF02D04
:1016500013C135E03C830F2EF8EDAF2EF2E2BF2E22
:10166000F02D0AC185E08C830F2EF5EBAF2EF2E250
:10167000BF2EF02D01C195E09C830F2EF2E9AF2E15
:10168000F2E2BF2EF02DF8C0E3E0EC830F2EFDE771
:10169000AF2EF2E2BF2EF02DEFC0F5E0FC830F2E4F
:1016A000FAE5AF2EF2E2BF2EF02DE6C025E02C8346
:1016B0000F2EF7E3AF2EF2E2BF2EF02DDDC035E0A6
:1016C0003C830F2EF4E1AF2EF2E2BF2EF02DD4C0FA
:1016D00085E08C830F2EF1EFAF2EF1E2BF2EF02DBF
:1016E000CBC095E09C830F2EFEECAF2EF1E2BF2E17
:1016F000F02DC2C0E5E0EC830F2EFBEAAF2EF1E245
:10170000BF2EF02DB9C0F5E0FC830F2EF8E8AF2E08
:10171000F1E2BF2EF02DB0C025E02C830F2EF5E6B0
:10172000AF2EF1E2BF2EF02DA7C033E03C830F2E89
:10173000F0E5AF2EF1E2BF2EF02D9EC085E08C8348
:101740000F2EFDE2AF2EF1E2BF2EF02D95C095E0F9
:101750009C830F2EFAE0AF2EF1E2BF2EF02D8CC04D
:10176000E5E0EC830F2EF7EEAF2EF0E2BF2EF02D6A
:1017700083C0F5E0FC830F2EF4ECAF2EF0E2BF2E19
:10178000F02D7AC025E02C830F2EF1EAAF2EF0E287
:10179000BF2EF02D71C035E03C830F2EFEE7AF2E3B
:1017A000F0E2BF2EF02D68C085E08C830F2EFBE5A4
:1017B000AF2EF0E2BF2EF02D5FC095E09C830F2E80
:1017C000F8E3AF2EF0E2BF2EF02D56C0E5E0EC833B
:1017D0000F2EF5E1AF2EF0E2BF2EF02D4DC0F2E05E
:1017E000FC830F2EFAEDAF2EF3E2BF2EF02D44C096
:1017F00021E02C830F2EFEE0AF2EF0E2BF2EF02D65
:101800003BC031E03C830F2EF7E0AF2EF0E2BF2E5D
:10181000F02D32C082E08C830F2EFAEDAF2EF3E272
:10182000BF2EF02D29C0F2018081813039F40B8167
:101830002A814981B301C10117DE06C0082D292D77
:10184000412FB301C10110DE4E185F08FFEF6F1A80
:101850007F0A6C147D0439F7B3942FEF221A320AF1
:101860003C81B31628F141C085E08C830F2EF4E64D
:10187000AF2EF3E2BF2EF02DEC818E2F90E09C0175
:10188000220F331F820F931F880F991F9C01261B65
:10189000370B2F8338871B01912CCD80DE8037E0FA
:1018A000C30ED11CEE2EF12CA986BA86B92C972C2A
:1018B0004F805884420C531C89859A85480E591EC6
:1018C0006D807E80B0CF95E09C830F2EF1E4AF2E2B
:1018D000F3E2BF2EF02DD0CFE5E0EC830F2EFEE13A
:1018E000AF2EF3E2BF2EF02DC7CF8C812A96CDBF4D
:1018F000DEBFDF91CF911F910F91FF90EF90DF90AE
:10190000CF90BF90AF909F908F907F906F905F909F
:101910004F903F902F9008956F927F928F929F9259
:10192000AF92BF92CF92DF92EF92FF920F931F93ED
:10193000CF93DF935B01642E722E102F4C0122E0B7
:10194000820E911C7C016B0187E0C80ED11C10C077
:10195000012F272D462DBE01C70186DD2196CC160D
:10196000DD06B1F72FEFE21AF20AE814F90411F0DC
:10197000E501EECF82E0DF91CF911F910F91FF90B3
:10198000EF90DF90CF90BF90AF909F908F907F901F
:101990006F90089520E040E060E080E296E089D911
:1019A00020E040E061E080E296E083D920E040E082
:1019B00062E080E296E07DD920E040E063E080E2F2
:1019C00096E077D920E040E064E080E296E071D9CB
:1019D00020E040E065E080E296E06BD920E040E066
:1019E00066E080E296E065D920E040E067E080E2D2
:1019F00096E05FD921E040E063E080E096E070D9B6
:101A000021E040E064E080E096E06AD921E040E037
:101A100067E080E096E064D920E040E060E080E0AC
:101A200096E047D921E040E062E080E096E058D9B6
:101A300021E040E065E080E096E052D921E040E01E
:101A400061E080E096E04CD9E5E0F6E080E8808354
:101A500084E08083A6E0B6E088E08C9380E18C93FC
:101A600080E2808382E080830895CF93DF9360E2F9
:101A700076E08FEFEB018883E6E0F6E044E0408318
:101A8000A5E0B6E088E08C9390E2908324E236E013
:101A900050E9E90158839C93808380E18C93908383
:101AA00018829C938083808380838083EB011882DB
:101AB00082E080838083808328E236E0E901988198
:101AC0008C93EB011882808380838083E901988165
:101AD0008C93EB011882808380838083E901588195
:101AE0008C93EB011882808380838083E901588185
:101AF0008C93EB011882808380838083F90120819D
:101B00008C934C939A3D31F09C3D11F484E003C0DA
:101B10008FEF01C082E0DF91CF9108958F929F9265
:101B2000AF92BF92CF92DF92EF92FF92CF93DF936B
:101B3000AB01BC01440F551F661F771F440F551F93
:101B4000661F771F440F551F661F771F440F551FD1
:101B5000661F771F440F551F661F771F440F551FC1
:101B6000661F771F852E962EA72EBB24A7FCBA943E
:101B70006B01FF24D7FCF094EF2C8FEF80932006AD
:101B8000E6E0F6E084E08083A5E0B6E098E09C9390
:101B900080E28083C4E2D6E020E628838C939083A1
:101BA00020E12C93808348838C9320832C93808323
:101BB00088828C9320832C938083C8828C9320838B
:101BC0009C93808320ED28838C93908390839083D3
:101BD00090839083E8E0F6E0808180FFFDCFA5E070
:101BE000B6E088E08C93E6E0F6E090E2908320E7B0
:101BF000209324069C93808380838083C0E2D6E078
:101C00001882188292E090839083908380912806B6
:101C10009C9394E09C938370DF91CF91FF90EF9021
:101C2000DF90CF90BF90AF909F908F9008954F928C
:101C30005F926F927F928F929F92AF92BF92CF925C
:101C4000DF92EF92FF92CF93DF936B017C01472EDF
:101C5000582E692E772467FC7A944C01BB2497FC9C
:101C6000B094AB2C8FEF80932006E6E0F6E084E0A2
:101C70008083A5E0B6E028E02C9380E28083C4E274
:101C8000D6E090E898838C93208390E19C938083A6
:101C900018828C9390839C93808318828C9390837A
:101CA0009C938083C8828C9390839C93808348828A
:101CB0008C9390839C93808388828C9390832083E1
:101CC000208320832083FA01585F26E036E065E018
:101CD00076E0D9018C9391919883DB018C934E1718
:101CE0005F07B9F780E4C6E0D6E090E2A4E2B6E090
:101CF000E5E0F6E098831C9290838150D9F7A5E047
:101D0000B6E088E08C93E6E0F6E090E2908320E194
:101D1000209324069C9380838083808380838083A8
:101D20008083E8E0F6E0808180FFFDCFA5E0B6E0AB
:101D300088E08C93E6E0F6E090E2908320E7209341
:101D400024069C9380838083808380831092200666
:101D500092E0908390839083809128069C9394E0F6
:101D60009C938370DF91CF91FF90EF90DF90CF90A5
:101D7000BF90AF909F908F907F906F905F904F90AB
:101D800008954F925F926F927F928F929F92AF923F
:101D9000BF92CF92DF92EF92FF92CF93DF936B01CE
:101DA0007C01472E582E692E772467FC7A944C01CB
:101DB000BB2497FCB094AB2C8FEF80932006E6E019
:101DC000F6E084E08083A5E0B6E028E02C9380E292
:101DD0008083C4E2D6E018828C93208390E19C93A8
:101DE000808318828C9390839C93808318828C9339
:101DF00090839C938083C8828C9390839C938083F0
:101E000048828C9390839C93808388828C93908368
:101E10002C93808390E398838C932083208320836A
:101E2000208320832083E8E0F6E0808180FFFDCFDF
:101E300010922006DA01585FE6E0F6E082E028E240
:101E400036E065E076E0808380838083E9019881D5
:101E50009D93EB0188834A175B07A9F790E4E6E0BE
:101E6000F6E082E0A5E0B6E08083808380838C93F7
:101E70009150D1F784E080930506DF91CF91FF90D8
:101E8000EF90DF90CF90BF90AF909F908F907F901A
:101E90006F905F904F900895FF920F931F93CF9391
:101EA000DF931F921F92CDB7DEB789839A83162FD7
:101EB000F42E21E040E060E080E297E00E947006AE
:101EC00020E040E066E080E097E00E94590601E0F3
:101ED00020E440E061E080E097E00E94890681E034
:101EE00080932607E0EAFBE083E08583898186838F
:101EF0006A81862F8F7090E11902B0011124682B3E
:101F00006783FF2019F084818460848388E0809354
:101F1000A50620E040E063E080EA96E00E947006BB
:101F200020E040E062E080EA96E00E94590680915D
:101F3000080786FF05C0E0EAFBE083818C7F83838E
:101F40000F900F90DF91CF911F910F91FF90089507
:101F5000E0EAFBE084818861848380EE8183838171
:101F6000806183830895E0EAFBE084818871848343
:101F7000089581E0809325078091EA239091EB23D7
:101F80009C012F5F3F4F2093EA233093EB23FC010A
:101F9000E251F84C80818093A00B8091EA239091CC
:101FA000EB238115944021F41092EA231092EB2345
:101FB0002091E8233091E9238091EA239091EB234B
:101FC0002817390729F4E0EAFBE083818C7F8383BB
:101FD00081E08093260718958091080786FF06C048
:101FE000E0EAFBE083818C7F838310C02091EA23A9
:101FF0003091EB238091E8239091E923281739074A
:1020000029F0E0EAFBE08381816083831895AF9239
:10201000BF92CF92DF92EF92FF920F931F93CF93D5
:10202000DF936C01062F8091080786FD05C0E0EA6A
:10203000FBE0838181608383E090E823F090E923D3
:10204000C0E0D4E0CE19DF09A02EB12CCA15DB0503
:10205000C8F1A501B601C7018251984C7CD180918D
:10206000EA239091EB23AE0CBF1CA092E823B09220
:10207000E923A11424E0B20671F41092E82310922F
:10208000E923892B09F041C081E090E08093EA23A5
:102090009093EB233AC0E816F906B8F5A816B906EE
:1020A000A0F18FEFA81AB80AA11424E0B20629F013
:1020B000A092EA23B092EB2328C01092EA23109258
:1020C000EB2323C0AE01B601C7018251984C43D126
:1020D0000C1B10E0B6016C0F7D1FA8018EEE97E37C
:1020E0003AD18091EA239091EB230093E823109357
:1020F000E923E816F90618F00817190730F00F5F02
:102100001F4F0093EA231093EB23DF91CF911F9190
:102110000F91FF90EF90DF90CF90BF90AF90089518
:102120008091A00B0E9438031895FF920F931F9384
:10213000CF93DF931F921F92CDB7DEB789839A8327
:10214000162FF42E21E040E064E080E696E00E9445
:10215000700620E040E065E080E696E00E945906C7
:1021600001E020E240E061E080E696E00E9489061E
:1021700080E180936606E0EBF9E083E08583898166
:1021800086836A81862F8F7090E11902B001112435
:10219000682B6783FF2019F084818460848300E6C4
:1021A00016E080E8F801858320E040E067E080E603
:1021B00096E00E94700620E040E066E080E696E04F
:1021C0000E945906F801808585FF05C0E0EBF9E023
:1021D00083818C7F83830F900F90DF91CF911F912C
:1021E0000F91FF900895E0EBF9E08481886184838A
:1021F00080EE8183838180618383089580E1809371
:102200006506E091ED2381E08E0F8093ED23F0E0F1
:10221000E25FF34C80818093B0098091ED2380329E
:1022200011F41092ED239091EC238091ED239813FB
:1022300005C0E0EBF9E083818C7F838380E18093AC
:10224000660618958091680685FF06C0E0EBF9E008
:1022500083818C7F83830BC09091ED238091EC234D
:10226000981729F0E0EBF9E083818160838318956A
:10227000EF92FF920F931F93CF93DF937C01C62FB2
:102280008091680685FD05C0E0EBF9E083818160FF
:102290008383D091EC2300E210E00D1B11094C2F39
:1022A00050E00417150710F18D2F90E0B701825F01
:1022B000934C51D08091ED23CD0FC093EC23C032CD
:1022C00041F41092EC23811131C081E08093ED2321
:1022D0002DC0D81758F5C81748F1CF5FC03219F094
:1022E000C093ED2323C01092ED2320C08D2F90E0EA
:1022F000A801B701825F934C2ED0C01B4C2F50E039
:10230000B701600F711F8EE09CE325D08091ED2313
:10231000C093EC23D81710F0C81740F0CF5FC0323D
:1023200019F0C093ED2302C01092ED23DF91CF91FD
:102330001F910F91FF90EF9008958091B0090E9436
:10234000C4031895EE0FFF1F881F8BBF0790F691EF
:10235000E02D1BBE1994FB01DC0102C001900D921F
:0C23600041505040D8F70895F894FFCF8A
:10236C0002FFE801C8FF02000001000001000000AC
:10237C00000000000100010101000100000001014A
:10238C000000010101000100010101000001010038
:10239C000000010001010100000101010001000029
:1023AC00000101000000010001010101000000001A
:1023BC000101000000010001010100000101010008
:1023CC0001000000010100000001000101010001F9
:1023DC0000000001010000000100010101000101E9
:1023EC0001010100000000010000000100000001DB
:1023FC0000000001000000000100000000010000CE
:10240C0000000101010001000000010100000000BA
:10241C0001010101000100000001010000000100A8
:10242C000101010001010101010100000000010195
:10243C00010100000000000100000000010100008B
:10244C000001000101010000000001010000010079
:10245C000100010000010100000001010101010166
:10246C00000000000100000000010001010100015A
:10247C00000000010000000001000001010000004C
:10248C000000010100000001000101010000010138
:10249C00010001000000010000000001000001012A
:1024AC000000010000000100000000010101010119
:1024BC00000100010100000100000100000100000A
:1024CC0001000101010100000001010000000100F8
:1024DC0001000100000001000000000100000000EC
:1024EC0001000000000100000100000001010000DB
:1024FC0000010001000100000001000000010001CA
:10250C0000010000000101000000010100000001B9
:10251C0001000000010100000001010000000101A8
:10252C000000000100010001000000010000010199
:10253C000101010000010000000001000000000189
:10254C00000000000100000000010000000001007C
:10255C000000010101000100000001010000000069
:10256C000001010100000000000101000000010059
:10257C000101010000010101000100000001010046
:10258C000000010100000001010000000101000039
:10259C000001000101010001000000010100000028
:1025AC000101010000010100010001010000010115
:1025BC000100000001010000000101000000010108
:1025CC0001000101010001000101000000010100F6
:1025DC0000000101000000010100000001010101E7
:1025EC0000010000010000010000010000010001D9
:1025FC0001010100000001010000000101000000C8
:10260C0001010101010101000000010100000001B4
:10261C0001000000010001010100010000000101A6
:10262C000000000001000000000100000101010099
:10263C000000010001010100010101010101000084
:10264C000000010000000001010101000100000078
:10265C000001000000000100000000010101010068
:10266C000100000001010000000101000000010157
:10267C000000000101000000010101010100010145
:10268C000101010100000000010000000001010136
:10269C000100010000000001000000000101010127
:1026AC000101010101000100000001010000000115
:1026BC000101010100010000000101000000010105
:1026CC0001010100000101010101000000010100F4
:1026DC0000000101010101010100000001010000E5
:1026EC000001010000000153415645442041542093
:1026FC00494E44455820FAFA5E324B3264324B3222
:10270C001919324BFA1919324BFAFAFA5E4BE819CD
:10271C0019324BFAFAF45EFA4BFA32323232204466
:10272C004F4E45424F4F54494E4720544845205335
:08273C00595354454D00000003
:00000001FF
