:1000000049C100006DC100006BC1000069C1000062
:1000100067C1000065C1000063C1000061C100004C
:100020005FC100005DC100005BC1000059C100005C
:1000300057C1000055C100000C941B2751C100009E
:100040000C941C270C945B274BC1000049C1000095
:100050000C94A03045C100000C94E33241C1000073
:100060003FC100003DC100003BC1000039C100009C
:100070000C94FD3635C1000033C1000031C10000D1
:100080002FC100002DC100002BC1000029C10000BC
:1000900027C1000025C1000023C1000021C10000CC
:1000A0001FC100001DC100001BC1000019C10000DC
:1000B00017C1000015C1000013C100000C94702985
:1000C0000FC100000DC100000BC1000009C10000FC
:1000D00007C100000C948B0803C1000001C100009F
:1000E000FFC00000FDC00000FBC00000F9C0000020
:1000F000F7C00000F5C00000F3C00000F1C0000030
:100100000C94152BEDC000000C94CC29E9C0000024
:10011000E7C00000E5C00000E3C00000E1C000004F
:10012000DFC00000DDC00000DBC00000D9C000005F
:10013000D7C000000C94AB08D3C00000D1C00000B1
:10014000CFC00000CDC00000CBC000000C94BD08A3
:10015000C7C00000C5C00000C3C00000C1C000008F
:100160000C949A2B0C94F52ABBC00000B9C0000077
:10017000B7C00000B5C00000B3C00000B1C00000AF
:100180000C9401280C9454260C9454350C945D293D
:100190000C94AF28A5C00000A3C00000A1C00000BF
:1001A0009FC000009DC000009BC0000099C00000DF
:1001B0000C94332A95C0000093C0000091C0000049
:1001C0008FC000008DC000008BC0000089C00000FF
:1001D00087C0000085C0000083C000000C942C364E
:1001E0000C94F8347DC000007BC0000079C0000092
:1001F00077C0000075C0000073C0000045183D18AE
:1002000035182D18631853185B18C0178B1719165B
:10021000E517CB171D1815182518A6170A18FF176C
:1002200019163E165E167E169E16BE16DE16FE16B3
:100230001E173D175B1A531A4B1A431A3B1A331AEF
:100240002B1A231A0E1A9F18E219DA19D219CA1991
:10025000C219BA19B219AA199F186A19621957193D
:100260004C1941192C191219F8187E189F18C11C25
:10027000961C6B1C401C151CEA1BBF1B941B691BA6
:10028000471B231BFF1ADB1AB71A931A6F1A881918
:10029000EA19C41811241FBECFEFCDBFDFE3DEBFC4
:1002A00000E00CBF18BE19BE1ABE1BBE12E2A0E0D1
:1002B000B0E2E4E8FFE600E00BBF02C007900D9259
:1002C000AE39B107D9F71BBE2EE3AEE9B2E201C0E9
:1002D0001D92A637B207E1F70E94512A0C94C0374D
:1002E0008FCE482F50E041505109FA01E050F04EB6
:1002F000608188E080930607809306078093060755
:1003000084E08093260792E0909326079093260737
:1003100090932607909325079093250790932507A0
:10032000909326078093260790932607909326079D
:100330009093260790932507909325079093250780
:10034000909326078093250790932607909326077E
:100350009093260790932507909325079093250760
:1003600090932607262F30E067FDDCC18093260797
:1003700082E0809326078093260780932607809348
:100380002507809325078093250780932607C901B9
:10039000880F991F87FDFFC184E08093260782E0C4
:1003A000809326078093260780932607809325074E
:1003B000809325078093250780932607C901880F1E
:1003C000991F880F991F87FDE2C184E0809326075B
:1003D00082E08093260780932607809326078093E8
:1003E0002507809325078093250780932607C90159
:1003F000880F991F880F991F880F991F87FDC3C108
:1004000084E08093260782E0809326078093260766
:1004100080932607809325078093250780932507DF
:1004200080932607C90182959295907F9827807FB7
:10043000982787FDA4C184E08093260782E08093FB
:1004400026078093260780932607809325078093AD
:1004500025078093250780932607C901880F991FD8
:1004600082959295907F9827807F982787FD83C1FA
:1004700084E08093260782E08093260780932607F6
:10048000809326078093250780932507809325076F
:1004900080932607C9010024969587950794969521
:1004A00087950794982F802D87FD61C184E0809304
:1004B000260782E0809326078093260780932607ED
:1004C000809325078093250780932507809326072F
:1004D0003695322F22273795279584E027FF44C190
:1004E0008093250792E09093260790932607909398
:1004F00026079093250790932507909325079093BF
:10050000260728E020930507FA01E05EFF4D3081C1
:1005100020930607209306072093060724E02093E4
:10052000260790932607909326079093260790938B
:1005300025079093250790932507909326072093EE
:10054000260790932607909326079093260790936B
:1005500025079093250790932507909326072093CE
:10056000260790932607909326079093260790934B
:100570002507909325079093250790932607832FAF
:1005800090E037FDEEC02093260722E02093260757
:1005900020932607209326072093250720932507DD
:1005A00020932507209326079C01220F331F27FD48
:1005B000D4C024E02093260722E02093260720932E
:1005C00026072093260720932507209325072093AD
:1005D0002507209326079C01220F331F220F331F6C
:1005E00027FDB7C024E02093260722E020932607AA
:1005F000209326072093260720932507209325077D
:1006000020932507209326079C01220F331F220FDA
:10061000331F220F331F27FD98C024E020932607A5
:1006200022E0209326072093260720932607209375
:1006300025072093250720932507209326079C0153
:1006400022953295307F3227207F322727FD79C0CF
:1006500024E02093260722E02093260720932607F4
:10066000209326072093250720932507209325070D
:10067000209326079C01220F331F22953295307F4D
:100680003227207F322727FD58C024E020932607F9
:1006900022E0209326072093260720932607209305
:1006A00025072093250720932507209326079C01E3
:1006B0000024369527950794369527950794322F71
:1006C000202D27FD36C024E02093260722E020932A
:1006D000260720932607209326072093250720939B
:1006E000250720932507209326079695982F88277E
:1006F0009795879587FF19C084E08093250782E04E
:1007000080932607809326078093260780932507EA
:1007100080932507809325078093260788E08093A0
:10072000050708958093250723CE84E0809326074C
:10073000E6CF24E020932507C9CF24E020932507A6
:10074000A7CF24E02093250786CF24E02093250718
:1007500067CF24E02093250748CF24E02093250786
:100760002BCF2093250711CF80932607BBCE84E0A3
:10077000809325079ECE84E0809325077CCE84E07D
:10078000809325075BCE84E0809325073CCE84E0F0
:10079000809325071DCE84E08093250700CE482F47
:1007A00050E041505109FA01E050F04E608180E282
:1007B00080930607809306078093060784E0809362
:1007C000260792E09093260790932607909326079A
:1007D00090932507909325079093250790932607DC
:1007E00080932607909326079093260790932607D9
:1007F00090932507909325079093250790932607BC
:1008000080932507909326079093260790932607B9
:10081000909325079093250790932507909326079B
:10082000262F30E067FDDCC18093260782E08093AD
:1008300026078093260780932607809325078093B9
:1008400025078093250780932607C901880F991FE4
:1008500087FDFFC184E08093260782E0809326070E
:10086000809326078093260780932507809325078A
:100870008093250780932607C901880F991F880F49
:10088000991F87FDE2C184E08093260782E0809370
:100890002607809326078093260780932507809359
:1008A00025078093250780932607C901880F991F84
:1008B000880F991F880F991F87FDC3C184E080931B
:1008C000260782E0809326078093260780932607D9
:1008D000809325078093250780932507809326071B
:1008E000C90182959295907F9827807F982787FDF0
:1008F000A4C184E08093260782E08093260780933A
:1009000026078093260780932507809325078093E9
:10091000250780932607C901880F991F8295929514
:10092000907F9827807F982787FD83C184E08093FC
:10093000260782E080932607809326078093260768
:1009400080932507809325078093250780932607AA
:10095000C9010024969587950794969587950794E5
:10096000982F802D87FD61C184E08093260782E067
:100970008093260780932607809326078093250778
:100980008093250780932507809326073695322F7D
:1009900022273795279584E027FF44C180932507B8
:1009A00092E09093260790932607909326079093C2
:1009B000250790932507909325079093260720E21B
:1009C00020930507FA01E05EFF4D30812093060772
:1009D000209306072093060724E020932607909390
:1009E00026079093260790932607909325079093C8
:1009F0002507909325079093260720932607909329
:100A000026079093260790932607909325079093A7
:100A10002507909325079093260720932607909308
:100A20002607909326079093260790932507909387
:100A300025079093250790932607832F90E037FD95
:100A4000EEC02093260722E0209326072093260756
:100A50002093260720932507209325072093250719
:100A6000209326079C01220F331F27FDD4C024E0CA
:100A70002093260722E02093260720932607209321
:100A800026072093250720932507209325072093E9
:100A900026079C01220F331F220F331F27FDB7C0EB
:100AA00024E02093260722E02093260720932607A0
:100AB00020932607209325072093250720932507B9
:100AC000209326079C01220F331F220F331F220F72
:100AD000331F27FD98C024E02093260722E02093AF
:100AE0002607209326072093260720932507209387
:100AF000250720932507209326079C0122953295F0
:100B0000307F3227207F322727FD79C024E02093D1
:100B1000260722E020932607209326072093260706
:100B20002093250720932507209325072093260748
:100B30009C01220F331F22953295307F3227207F70
:100B4000322727FD58C024E02093260722E0209377
:100B50002607209326072093260720932507209316
:100B6000250720932507209326079C01002436950E
:100B700027950794369527950794322F202D27FD2A
:100B800036C024E02093260722E0209326072093F6
:100B900026072093260720932507209325072093D7
:100BA0002507209326079695982F88279795879550
:100BB00087FF19C084E08093250782E08093260791
:100BC0008093260780932607809325078093250727
:100BD000809325078093260780E280930507089578
:100BE0008093250723CE84E080932607E6CF24E078
:100BF00020932507C9CF24E020932507A7CF24E021
:100C00002093250786CF24E02093250767CF24E093
:100C10002093250748CF24E0209325072BCF20934E
:100C2000250711CF80932607BBCE84E0809325074C
:100C30009ECE84E0809325077CCE84E080932507B8
:100C40005BCE84E0809325073CCE84E0809325072B
:100C50001DCE84E08093250700CE482F50E0415000
:100C60005109FA01E050F04E608180E88093060758
:100C7000809306078093060784E08093260792E01E
:100C80009093260790932607909326079093250725
:100C90009093250790932507909326078093260726
:100CA0009093260790932607909326079093250705
:100CB0009093250790932507909326078093250707
:100CC00090932607909326079093260790932507E5
:100CD000909325079093250790932607262F30E0C1
:100CE00067FDDCC18093260782E08093260780930E
:100CF00026078093260780932507809325078093F6
:100D0000250780932607C901880F991F87FDFFC11A
:100D100084E08093260782E080932607809326074D
:100D200080932607809325078093250780932507C6
:100D300080932607C901880F991F880F991F87FD87
:100D4000E2C184E08093260782E0809326078093A7
:100D50002607809326078093250780932507809395
:100D6000250780932607C901880F991F880F991FAF
:100D7000880F991F87FDC3C184E08093260782E016
:100D80008093260780932607809326078093250764
:100D9000809325078093250780932607C9018295B4
:100DA0009295907F9827807F982787FDA4C184E043
:100DB0008093260782E080932607809326078093FE
:100DC0002607809325078093250780932507809326
:100DD0002607C901880F991F82959295907F9827C1
:100DE000807F982787FD83C184E08093260782E077
:100DF00080932607809326078093260780932507F4
:100E0000809325078093250780932607C901002436
:100E1000969587950794969587950794982F802D9A
:100E200087FD61C184E08093260782E080932607D6
:100E300080932607809326078093250780932507B4
:100E400080932507809326073695322F22273795E2
:100E5000279584E027FF44C18093250792E0909373
:100E60002607909326079093260790932507909343
:100E70002507909325079093260720E820930507E0
:100E8000FA01E05EFF4D30812093060720930607AC
:100E90002093060724E0209326079093260790933B
:100EA0002607909326079093250790932507909304
:100EB0002507909326072093260790932607909363
:100EC00026079093260790932507909325079093E4
:100ED0002507909326072093260790932607909343
:100EE00026079093260790932507909325079093C4
:100EF000250790932607832F90E037FDEEC02093BF
:100F0000260722E020932607209326072093260712
:100F10002093250720932507209325072093260754
:100F20009C01220F331F27FDD4C024E02093260705
:100F300022E020932607209326072093260720935C
:100F400025072093250720932507209326079C013A
:100F5000220F331F220F331F27FDB7C024E0209339
:100F6000260722E0209326072093260720932607B2
:100F700020932507209325072093250720932607F4
:100F80009C01220F331F220F331F220F331F27FD17
:100F900098C024E02093260722E020932607209380
:100FA00026072093260720932507209325072093C3
:100FB0002507209326079C0122953295307F322702
:100FC000207F322727FD79C024E02093260722E0E6
:100FD0002093260720932607209326072093250792
:100FE0002093250720932507209326079C01220F95
:100FF000331F22953295307F3227207F322727FDFD
:1010000058C024E02093260722E02093260720934F
:101010002607209326072093250720932507209352
:101020002507209326079C010024369527950794D1
:10103000369527950794322F202D27FD36C024E0C2
:101040002093260722E0209326072093260720934B
:101050002607209325072093250720932507209313
:1010600026079695982F88279795879587FF19C00B
:1010700084E08093250782E08093260780932607EB
:101080008093260780932507809325078093250763
:101090008093260780E880930507089580932507AD
:1010A00023CE84E080932607E6CF24E02093250713
:1010B000C9CF24E020932507A7CF24E0209325075C
:1010C00086CF24E02093250767CF24E020932507CF
:1010D00048CF24E0209325072BCF2093250711CF5D
:1010E00080932607BBCE84E0809325079ECE84E0C4
:1010F000809325077CCE84E0809325075BCE84E037
:10110000809325073CCE84E0809325071DCE84E0A4
:101110008093250700CE80E49AE00E94162D21E0FE
:101120004AEF50E065E080E099E00E94FB2C1092CD
:10113000112381E080931023E0EEF6E088E38583BD
:101140008583868321E040E250E061E080E499E01D
:101150000E940B2D189581E080931023E0EEF6E0BD
:1011600088E385838583868321E040E250E061E067
:1011700080E499E00E940B2D18958091102387FD43
:101180000BC098E39093E5069093E5069093E606EE
:101190008F5F8093102338C1803809F035C180E417
:1011A00099E00E94162D84E580938506809386063B
:1011B000809385068091880683FF03C020E030E29B
:1011C00002C020E030E08091880685FF03C080E007
:1011D00090E202C080E090E040918806042E000C6E
:1011E000550B4427550F441F5527542F442752951C
:1011F000550F507E64E56093860660938506609186
:10120000880663FD30616091880665FD906160919C
:10121000880667FD506164E56093860660938506E5
:101220006091880663FD38606091880665FD98606E
:101230006091880667FD586064E560938606609358
:1012400085066091880663FD34606091880665FDBF
:1012500094606091880667FD546064E5609386063B
:10126000609385066091880663FD32606091880610
:1012700065FD92606091880667FD526064E5609349
:101280008606609385066091880663FD31606091F3
:10129000880665FD91606091880667FD516064E590
:1012A00060938606609385066091880663FD2068DA
:1012B0006091880665FD80686091880667FD4068DA
:1012C00064E560938606609385066091880663FDF9
:1012D00020646091880665FD80646091880667FDE2
:1012E000406464E560938606609385066091880695
:1012F00063FD20626091880665FD806260918806CA
:1013000067FD406264E560938606609385066091A0
:10131000880663FD20616091880665FD80616091AB
:10132000880667FD406164E56093860660938506E4
:101330006091880663FD28606091880665FD88607D
:101340006091880667FD486064E560938606609357
:1013500085066091880663FD24606091880665FDBE
:1013600084606091880667FD446064E5609386064A
:10137000609385066091880663FD2260609188060F
:1013800065FD82606091880667FD426064E5609358
:101390008606609385066091880663FD21606091F2
:1013A000880665FD81606091880667FD416064E59F
:1013B00060938606A09111236A2F70E0FB01EE0F67
:1013C000FF1F6E0F7F1FFB01EE0FFF1FE556FC4D49
:1013D00020833183FB01EE0FFF1FE356FC4D80831A
:1013E0009183660F771FFB01E156FC4D40835183CB
:1013F00081E08A0F80931123843031F410921123FD
:1014000061E086E40E94A73118958F92AF92BF9257
:10141000CF92DF92EF920F9385E292E29F938F93A8
:1014200085E3882E9AEEA92EB12C22E4C22E23E267
:10143000D22EE12C04E020E040E062E080E198E080
:101440000E94382F0F900F900F91EF90DF90CF9068
:10145000BF90AF908F900895E0E8F6E081E086833A
:1014600082E0868380E098E00E94062D80E090E094
:101470000E94931D80E090E00E94C71E80E090E0F3
:101480000E94FB1F10925A238AE593E2F1C40E9446
:10149000FA1C2FEF8FE493EC215080409040E1F74D
:1014A00000C000000E940A1D2FEF87EA91E621503C
:1014B00080409040E1F700C0000087E00E94341DAA
:1014C00081E20E94691D2FEF83ED90E3215080405F
:1014D0009040E1F700C000000E94021D0E949F2B77
:1014E0002FEF83ED90E3215080409040E1F700C062
:1014F00000000E949C120E949C1482E380931A2395
:101500008091080782FD03C081E080932122089525
:10151000E2E4F3E281E390E4808391831482158214
:10152000168217821086118688EF9FE7808B918B39
:1015300087E0828B138A81E0848B858B868B108E6B
:10154000118E128E24E630E0238F348F22E330E0B8
:10155000258F368F2AE030E0278F30A311A225E3B4
:1015600032E822A333A314A285A386A387A315A6DA
:1015700092E090AB94E091AB82AB83E080939223B6
:1015800088EE9DEF809393239093942388EE93E0CD
:10159000809395239093962384EF9EE780939723DF
:1015A000909398231092992310929A23089582E49D
:1015B00093E27CD30E94ED2984E593E2F3D3109269
:1015C000552386E593E209D487E593E21FD488E5A5
:1015D00093E235D48DE693E24BD50E945A2A0C94BF
:1015E000411D809154230C941A1D80E00C941A1D07
:1015F0001092A62281E08093302410925A238AE52B
:1016000093E236D40C945A2A81E08093A6220C945B
:101610005A2A08950895089580914120893019F13A
:101620008A30A9F0883021F08F5F8093412008959F
:1016300084EC80931B2384E080931C2381E08093BF
:101640009E221092402089E080934120089582ECF0
:1016500080931B2383E080939E221092402081E0A0
:1016600080934120089581EC80931B2382E0809336
:101670009E22109240208AE080934120089580911C
:101680004020811108C080919E22823029F0833051
:10169000D9F0813091F0089561E08AE193E20E94EF
:1016A0006F18809340208823B1F380911C238F779B
:1016B0001092B3238093B42308958AE193E20E94A9
:1016C0000A1680934020089561E08AE193E20E9427
:1016D0006F18809340208823F1F220911C23809181
:1016E000B3239091B423822B8093B3239093B4239C
:1016F00061E087E40C94A7318091432087FD05C009
:101700008150809343208F3F51F08091222287FDAA
:1017100005C08150809322228F3F69F0089581E0B7
:101720008093050780E88093E6068093E50682E0D3
:1017300080930607EACF0C94182A08950895089517
:1017400008950895089590EE980F953340F490E031
:101750008097FC01E451FE4D2081261711F080E0B6
:101760000895880F991FFC01E255FF4D0190F0810B
:10177000E02D199581E0089590EE980F953348F487
:10178000E82FF0E0B097DF01A451BE4D9C91961771
:1017900011F080E00895EE0FFF1FDF01AE57BE4D40
:1017A0008D919C9182179307A1F7EC5BFF4D0190FF
:1017B000F081E02DCA011994109242231092432324
:1017C0008091280681FF4CC081E090E08093422305
:1017D0009093432333E020E04091280640FF06C069
:1017E0003093422320934323832F922F2091E806A6
:1017F00020FD04C02091280723FD43C02091E80666
:1018000020FF04C02091280723FF35C02091E8065F
:1018100020FF04C02091280723FD27C0209108073E
:1018200020FD05C080628093422390934323209142
:10183000E80627FD2CC0209143202F3F09F080644B
:1018400020914220222331F0906480934223909390
:1018500043230895906880934223909343230895EF
:1018600032E020E080E090E0B7CF806180934223B7
:1018700090934323D3CF8860809342239093432354
:10188000C5CF84608093422390934323B7CF806475
:10189000D2CFFC0180819181809344239093452392
:1018A00081E00895FC0180819181209142202223D2
:1018B00021F0813CFFE89F0730F48093462390930A
:1018C000472381E0089580E00895FC0180819181A3
:1018D00020914220222321F0813CFFE89F0730F431
:1018E000809348239093492381E0089580E00895F0
:1018F000FC018081918120914220222321F0813CB2
:10190000FFE89F0730F480934A2390934B2381E0B4
:10191000089580E008958091080685FB882780F966
:101920008093592308958091000A811180915A2350
:1019300080935A230895FC01808191819C0122505B
:1019400031092F353A4E30F480935D2390935E2316
:1019500081E0089580E00895FC01808191819C01DF
:101960002150310920363A4E30F480935F23909312
:10197000602381E0089580E00895FC0180819181D9
:10198000809361239093622381E00895FC0180811C
:1019900091819C012858334121363A4E30F480938E
:1019A00064239093652381E0089580E00895FC010D
:1019B0008081982F9C7F21F48093662381E0089595
:1019C00080E00895FC018081982F9C7F21F4809312
:1019D000672381E0089580E00895FC018081982FBD
:1019E000907F21F48093682381E0089580E008953A
:1019F000FC018081982F907F21F48093692381E0FE
:101A0000089580E0089580918806982F917080FF56
:101A100009C028E198E08091880681FD922F90937B
:101A20006D23089520E1F7CF8091E80686958170B7
:101A300080936E239091280796FD05C090E0892B36
:101A400080936E23089592E0892B80936E230895EE
:101A500080E00895FC0180819181809370239093B0
:101A6000712381E00895DC019096E2E9F3E28E9122
:101A7000829383E2E237F807D1F781E00895FC0111
:101A80008081803220F48093922381E0089580E069
:101A90000895FC01808191819C01285833412136B1
:101AA0003A4E30F4809393239093942381E00895E9
:101AB00080E00895FC0180819181883EFDEF9F07C1
:101AC00030F4809395239093962381E0089580E0ED
:101AD0000895FC0180819181883EFDEF9F0730F4DD
:101AE000809397239093982381E0089580E0089550
:101AF000FC018081982F9C7F21F48093992381E0C1
:101B0000089580E00895FC018081918180939B235A
:101B100090939C2381E00895FC01808191818093C2
:101B2000B3239093B42381E00895FC0180818093D6
:101B3000B52381E00895FC0180818093B62381E084
:101B40000895FC0180818093B72381E00895FC0112
:101B500080818093B82381E00895FC018081809387
:101B6000B92381E00895FC01808191818093BA239B
:101B70009093BB2381E00895FC0180819181809343
:101B8000BC239093BD2381E00895FC018081918165
:101B90008093CC239093CD2381E00895FC01808134
:101BA00091818093DC239093DD2381E00895FC01F3
:101BB000808191818093EC239093ED2381E00895BF
:101BC000FC01808191818093FC239093FD2381E02F
:101BD0000895FC018081918180930C2490930D24C1
:101BE00081E008950895FC018081918180931C24F7
:101BF00090931D2481E00895FC0180819181809360
:101C00005B2390935C230E945A2A81E00895CF932E
:101C1000DF93EC01888180FF0AC088E0809326066C
:101C2000809326061092A22280932506888181FF48
:101C30000AC080E880932606809326061092A1228F
:101C400080932506888182FF0AC080E28093260661
:101C5000809326061092A02280932506888183FD1A
:101C60001EC084FF04C082E080938606888185FFC1
:101C700004C081E080934606888186FF04C080E22C
:101C80008093A606888187FF04C080E18093A60622
:101C9000888180936B2381E0DF91CF91089581E06B
:101CA000809386060E945A2A8881DBCFCF93DF93E8
:101CB000FC01C081D181C0933D23D0933E23C0FF5E
:101CC00006C081E08093260682E080932506C1FF4E
:101CD00006C082E08093260681E080932506C2FF3D
:101CE00006C081E08093E60688E080932507C3FF65
:101CF0000AC08091E80680FF3CC081E08093E50641
:101D000088E080932607C4FF0AC08091E80680FF20
:101D10002CC081E08093E50688E0809325070E942F
:101D20005A2AC5FF0EC08FEF8093432082E0809334
:101D3000050781E08093050790E89093E60680937D
:101D40000607C6FF03C08AE080934320C7FD15C085
:101D5000D6FF03C081E080934220D7FD109242203D
:101D60002BDD81E0DF91CF91089581E0809386069D
:101D7000D0CF81E080938606C0CF0E94121DE8CFAD
:101D8000CF93DF93FC01C081D181CE0196958795D9
:101D90000E942F21C0935223D093532381E0DF91DF
:101DA000CF910895CF93FC01C081C03108F0CFE0FE
:101DB0008C2F0E941A1DC093542381E0CF91089567
:101DC000CF93FC01C081C7FDCFE78C2F0E94551D2A
:101DD000C093552381E0CF910895CF93FC01C0813A
:101DE000CC2359F0C13208F0C0E28C2F0E9471015F
:101DF000C093562381E0CF910895C1E08C2F0E94BB
:101E00007101C093562381E0CF910895CF93FC01D7
:101E1000C081CC2359F0C13208F0C0E28C2F0E945F
:101E2000CF03C093572381E0CF910895C1E08C2F59
:101E30000E94CF03C093572381E0CF910895CF93A1
:101E4000FC01C081CC2359F0C13208F0C0E28C2FD4
:101E50000E942D06C093582381E0CF910895C1E0E0
:101E60008C2F0E942D06C093582381E0CF910895B6
:101E7000CF93FC01C0818C2F8C7F59F520915F237B
:101E80003091602380915D2390915E2382179307A8
:101E900000F18FEF8C0F8230F8F0C11115C08091E6
:101EA000000A811108C08091080685FF0DC080914D
:101EB000E80680FF09C081E08093860680E09AE012
:101EC0000E94062D0E945A2AC0935A2381E0CF9186
:101ED000089580E0CF91089580915B2390915C23D9
:101EE000823CF1E09F0719F08B37924069F78091AF
:101EF000E80680FF08C08091E80680FFE5CF80916A
:101F0000080685FFE1CF21E04DE750E066E080E084
:101F10009AE00E94FB2C81E0809385061092322487
:101F20001092332410922E2410922F2410922C24DD
:101F300010922D240E945A2AC7CFCF93FC01C08152
:101F40008C2F8C7F79F48FEF8C0F823070F0C11161
:101F500004C08091000B811122C0C093632381E0F3
:101F6000CF91089580E0CF9108958091000B811169
:101F7000F4CF40916423509165235695479556952B
:101F8000479521E065E080E09BE00E94FB2C81E02A
:101F900080938506C23039F01092A322DECF81E013
:101FA0008093A322DACF61E082E30E94A731F4CFCD
:101FB000CF93DF93EC01888180FD52C081FD48C042
:101FC00082FD3EC083FF0AC08091E80680FD24C0E8
:101FD00081E0809385060E945A2A888184FF04C08C
:101FE00082E080938506888185FF04C081E080932C
:101FF0004506888186FF04C080E28093A50688811B
:1020000087FF04C080E18093A506888180936A23BE
:1020100081E0DF91CF9108958091E80680FFDBCFCA
:102020008091080685FFD7CF80915B2390915C2338
:10203000823C21E0920761F28B37924061F6C8CF73
:1020400080914A2390914B230E94FB1F8881BACF35
:1020500080914823909149230E94C71E8881B0CF68
:1020600080914623909147230E94931D8881A6CF9B
:10207000CF93DF93EC01888180FD8BC088E0809353
:102080002606809326061092A22280932506888138
:1020900081FD78C080E88093260680932606109202
:1020A000A12280932506888182FD65C080E280930D
:1020B0002606809326061092A0228093250688810A
:1020C00083FF20C09091E80690FD40C081E080939E
:1020D0008506888184FD1CC082E080938606888105
:1020E00085FD1CC081E080934606888186FD1CC06A
:1020F00080E28093A606888187FF1CC080E18093E0
:10210000A5061BC081E080938606888184FFE4CF0A
:1021100082E080938506888185FFE4CF81E080930B
:102120004506888186FFE4CF80E28093A5068881FA
:1021300087FDE4CF80E18093A6060E945A2A888119
:1021400080936D2381E0DF91CF9108959091E8060F
:1021500090FFDCCF9091080695FFD8CF20915B23AC
:1021600030915C23223C91E0390709F4AFCF2B3743
:10217000324061F6ABCF80914A2390914B230E946D
:10218000FB1F9DCF80914823909149230E94C71E39
:102190008ACF80914623909147230E94931D77CF49
:1021A000CF93DF93EC01888180FD59C081FD4FC042
:1021B00082FD45C083FF0AC08091880680FF24C04D
:1021C00081E0809386060E945A2A888184FF04C099
:1021D00082E080938706888185FF04C081E0809338
:1021E0004706888186FF04C080E28093A706888125
:1021F00087FF04C080E18093A706888180936C23C9
:1022000081E0DF91CF9108958091E80680FF13C0AF
:102210008091E80680FFD7CF8091080685FFD3CF55
:1022200080915B2390915C23823C21E0920719F01E
:102230008B37924041F681E080938506C4CF809130
:102240004A2390914B230E9412258881B3CF80911D
:102250004823909149230E94D0238881A9CF80915F
:102260004623909147230E948E2288819FCFCF934F
:10227000FC01C081CC2349F08091400A882371F091
:10228000C0939A2381E0CF91089580E099E00E9465
:10229000062DC0939A2381E0CF91089521E048E074
:1022A00050E067E080E49AE00E940B2DC0939A23EF
:1022B00081E0CF910895FC018091422081111AC0E4
:1022C00080819181809346239093472382819381DB
:1022D00080934823909349238481958180934A2356
:1022E00090934B238081918180934C2390934D2335
:1022F00081E0089580819181813C2FE8920728F444
:1023000022813381213C3F48E8F280E00895109219
:102310006F2380910008882361F035E091E123E08C
:1023200080916323813061F0823069F090936F2354
:1023300008953CE098E12AE0809163238130A1F781
:1023400020936F23089530936F23089580E00895BC
:102350000895089508950895089508950895089595
:102360000895089508950895089508950895089585
:102370000895089508950895089508950895089575
:102380000895089508950895089508950895089565
:102390000895089508950895089508950895089555
:1023A000089508950895089508950895CF93FC0120
:1023B000C081C0FF04C080910008882301F1C1FDE5
:1023C0007EC0C2FD85C0C3FD07C0C4FD0EC0C09362
:1023D0006F2381E0CF910895809100088823A9F3AD
:1023E00081E080933024C4FFF2CF8091000B8823DA
:1023F00019F081E08093A32210926323E8CF10921A
:1024000030241092312420919323309194234091D1
:1024100095235091962342175307E0F64091972356
:102420005091982342175307A8F680914623909124
:1024300047230E94931D21E0209346061092000836
:102440008CE0809309088091932390919423969532
:10245000879501978093260890932708809195236C
:10246000909196239695879501978093280890934D
:1024700029088091972390919823969587950197A5
:1024800080932A0890932B0820930608209307082E
:102490008091070884608093070883E18093010896
:1024A00085E0809300088091400A811188CF47E041
:1024B00050E067E080E49AE00E940B2D80CF80918D
:1024C000000B882369F081E080936323C2FF7BCFF8
:1024D0008091000B8823C1F082E08093632373CF47
:1024E000409164235091652356954795569547959D
:1024F00021E065E080E09BE00E94FB2C81E080937E
:1025000085061092A322DFCF40916423509165236A
:10251000569547955695479521E065E080E09BE00C
:102520000E94FB2C81E08093850661E082E30E949B
:10253000A7311092A322D0CFCF92DF92EF92FF92D9
:102540000F931F93CF93DF9320E040E065E080E09E
:1025500096E00E94982C20E048E167E080E096E059
:102560000E94982C20E040E161E080EE96E00E941D
:10257000982C20E040E166E080E297E00E94982CF1
:1025800020E040E063E080E896E00E94982C20E0A4
:1025900040E065E080E896E00E94982C20E040E072
:1025A00067E080E896E00E94982C20E048E162E035
:1025B00080E097E00E94982C20E040E062E080EE0E
:1025C00096E00E94982C20E040E164E080E696E0EE
:1025D0000E94982C20E040E166E080E696E00E94B0
:1025E000982C20E040E166E080EA96E00E94982C7A
:1025F00020E040E167E080EA96E00E94982C20E02D
:1026000040E161E080E096E00E94982C20E040E10B
:1026100062E080E096E00E94982C20E040E162E0D9
:1026200080E496E00E94982C20E040E163E080E4A2
:1026300096E00E94982C00E020E240E061E080E01B
:1026400096E00E94C52C22E040E061E080EE96E03A
:102650000E94C52C20E440E061E080E297E00E9407
:10266000C52C24E041E061E080E097E00E94C52CA9
:1026700024E041E061E080EE96E00E94C52C21E07C
:1026800040E060E080EE96E00E94AD2C21E040E06A
:1026900063E080E297E00E94AD2C21E040E064E03E
:1026A00080E297E00E94AD2C21E040E060E080E80D
:1026B00096E00E94AD2C21E040E061E080E896E0E9
:1026C0000E94AD2C21E040E065E080E297E00E94AE
:1026D000AD2C21E040E067E080E297E00E94AD2C65
:1026E00021E040E060E080E296E00E94AD2C21E035
:1026F00040E061E080E296E00E94AD2C21E040E005
:1027000060E080E097E00E94AD2C21E040E067E0CF
:1027100080EE96E00E94AD2C21E040E062E080E295
:1027200096E00E94AD2C21E040E066E080E296E079
:102730000E94AD2C21E040E064E080E296E00E943F
:10274000AD2C21E040E063E080E296E00E94AD2CF9
:1027500021E040E067E080E296E00E94AD2C21E0BD
:1027600040E065E080E296E00E94AD2C21E040E090
:1027700067E080E696E00E94AD2C21E040E065E055
:1027800080E696E00E94AD2C21E040E062E080E827
:1027900096E00E94AD2C21E040E064E080E896E005
:1027A0000E94AD2C21E040E066E080E896E00E94C7
:1027B000AD2C21E040E063E080EE96E00E94AD2C7D
:1027C00021E040E064E080EE96E00E94AD2C21E044
:1027D00040E065E080EE96E00E94AD2C21E048E20A
:1027E00061E080E097E00E94AD2C21E040E061E0F4
:1027F00080E297E00E94AD2C21E040E062E080E2C0
:1028000097E00E94AD2C21E040E063E080E097E09B
:102810000E94AD2C21E040E065E080E097E00E945E
:10282000AD2C21E040E067E080E097E00E94AD2C15
:1028300021E040E061E080E496E00E94AD2C21E0E0
:1028400040E064E080E496E00E94AD2C21E040E0AE
:1028500065E080E496E00E94AD2C21E040E060E07D
:1028600080E496E00E94AD2C21E040E065E080EA43
:1028700096E00E94AD2C21E040E064E080EA96E022
:102880000E94AD2C60EE76E021E0EB012E83A0E209
:10289000B7E058E015965C93159790E115969C93D8
:1028A000159700E816E0F801268332E0368380E2CF
:1028B00016968C93169740E816964C931697E0E27E
:1028C000F6E025833683C12CC7E0DC2EE6012E839B
:1028D000EB014E8364E0F62EF58270E4E72EE5828C
:1028E0009583558345838583E0E6F6E046838683BA
:1028F000F801F6829683E6825E839E838E83E601EC
:102900003D8316963C9316971696FC925D838D83B5
:102910004D83E0E4F6E03583968386832683E0EA00
:10292000F6E086839683DF91CF911F910F91FF9000
:10293000EF90DF90CF90089521E048E260E080EAD8
:1029400096E00E94AD2C20E040E061E080EA96E055
:102950000E94AD2CE0EAF6E082E086832AE62A9522
:10296000F1F700C091E095832AE62A95F1F700C0BF
:1029700087832AE02A95F1F700C0000000000000DC
:102980000000000087832AE02A95F1F700C00000CC
:10299000000000000000000087832AE02A95F1F77C
:1029A00000C00000000000000000000087832AE053
:1029B0002A95F1F700C000000000000000000000B0
:1029C00087832AE02A95F1F700C00000000000008C
:1029D0000000000087832AE02A95F1F700C000007C
:1029E000000000000000000087832AE02A95F1F72C
:1029F00000C00000000000000000000087832AE003
:102A00002A95F1F700C0000000000000000000005F
:102A100087832AE02A95F1F700C00000000000003B
:102A20000000000087832AE02A95F1F700C000002B
:102A3000000000000000000087832AE02A95F1F7DB
:102A400000C00000000000000000000087832AE0B2
:102A50002A95F1F700C0000000000000000000000F
:102A600087832AE02A95F1F700C0000000000000EB
:102A70000000000087832AE02A95F1F700C00000DB
:102A8000000000000000000087832AE02A95F1F78B
:102A900000C00000000000000000000087832AE062
:102AA0002A95F1F700C000000000000000000000BF
:102AB00087832AE02A95F1F700C00000000000009B
:102AC0000000000087832AE02A95F1F700C000008B
:102AD000000000000000000087832AE02A95F1F73B
:102AE00000C00000000000000000000087832AE012
:102AF0002A95F1F700C0000000000000000000006F
:102B000087832AE02A95F1F700C00000000000004A
:102B10000000000087832AE02A95F1F700C000003A
:102B2000000000000000000087832AE02A95F1F7EA
:102B300000C00000000000000000000087832AE0C1
:102B40002A95F1F700C0000000000000000000001E
:102B500087832AE02A95F1F700C0000000000000FA
:102B60000000000087832AE02A95F1F700C00000EA
:102B7000000000000000000087832AE02A95F1F79A
:102B800000C00000000000000000000087832AE071
:102B90002A95F1F700C000000000000000000000CE
:102BA00087832AE02A95F1F700C0000000000000AA
:102BB0000000000087832AE02A95F1F700C000009A
:102BC000000000000000000087832AE02A95F1F74A
:102BD00000C00000000000000000000087832AE021
:102BE0002A95F1F700C0000000000000000000007E
:102BF00023E026832AE02A95F1F700C000000000B8
:102C0000000000000000858385E18A95F1F700004F
:102C100095830895DC0180919F22482F50E04C312C
:102C2000510538F5FA018827E250FF4F8F4F0C9479
:102C3000AE3782E08093A60691E09093A5062AE045
:102C40002A95F1F700C0000000000000000000001D
:102C50008093A5062AE02A95F1F700C00000000045
:102C60000000000000002091A80620FD20C18091F6
:102C70009F228F5F80939F2280E0089582E080935F
:102C8000A60612968C91129787FD25C281E080934B
:102C9000A6069AE09A95F1F700C000000000000037
:102CA0000000000082E08093A5062AE02A95F1F753
:102CB00000C00000000000000000000082E08093DF
:102CC000A60612968C91129786FD21C181E0809311
:102CD000A6068AE08A95F1F700C000000000000017
:102CE0000000000082E08093A5069AE09A95F1F733
:102CF00000C00000000000000000000082E080939F
:102D0000A60612968C91129785FFFDC081E08093F4
:102D1000A5062AE02A95F1F700C000000000000097
:102D20000000000082E08093A5068AE08A95F1F712
:102D300000C00000000000000000000082E080935E
:102D4000A60612968C91129784FFD9C081E08093D9
:102D5000A5069AE09A95F1F700C000000000000077
:102D60000000000082E08093A5062AE02A95F1F792
:102D700000C00000000000000000000082E080931E
:102D8000A60612968C91129783FFB5C081E08093BE
:102D9000A5068AE08A95F1F700C000000000000057
:102DA0000000000082E08093A5069AE09A95F1F772
:102DB00000C00000000000000000000082E08093DE
:102DC000A60612968C91129782FD91C081E08093A5
:102DD000A6062AE02A95F1F700C0000000000000D6
:102DE0000000000082E08093A5068AE08A95F1F752
:102DF00000C00000000000000000000082E080939E
:102E0000A60612968C91129781FD6DC081E0809389
:102E1000A6069AE09A95F1F700C0000000000000B5
:102E20000000000082E08093A5062AE02A95F1F7D1
:102E300000C00000000000000000000082E080935D
:102E4000A60612968C9180FD4AC081E08093A6066A
:102E50008AE08A95F1F700C0000000000000000041
:102E6000000082E08093A5069AE09A95F1F700C0F1
:102E70000000000000000000000082E08093A60631
:102E800091E09093A5062AE02A95F1F700C0000092
:102E900000000000000000008093A5062AE02A95AB
:102EA000F1F700C00000000000000000000023E077
:102EB0002093A6062AE02A95F1F700C00000000042
:102EC0000000000000008093A50685E18A95F1F7D7
:102ED00000009093A50610929F2281E0089581E062
:102EE0008093A506B5CF81E08093A50692CF81E0BF
:102EF0008093A5066ECF81E08093A6064ACF81E03D
:102F00008093A60626CF81E08093A60602CF81E0BB
:102F10008093A506DECE82E08093A60691E0909392
:102F2000A6069AE09A95F1F700C0000000000000A4
:102F3000000000008093A5062AE02A95F1F700C062
:102F40000000000000000000000091CE82E08093AD
:102F5000A60611968C9182FF1AC081E08093A50687
:102F60002AE02A95F1F700C00000000000000000F0
:102F7000000082E08093A5068AE08A95F1F7DFCF12
:102F800082E08093A6068C91880F81FDE6CF81E0D8
:102F90008093A606E5CF82E08093A60611968C91D9
:102FA00086FF34C081E08093A5068AE08A95F1F718
:102FB00000C00000000000000000000082E08093DC
:102FC000A5069AE09A95F1F7BACF82E08093A6061B
:102FD00011968C9187FD25C081E08093A6069AE02A
:102FE0009A95F1F700C0000000000000000000000A
:102FF00082E08093A5062AE02A95F1F7A0CF82E02F
:103000008093A60611968C9180FDCCCF81E08093B1
:10301000A606CBCF82E08093A60611968C9181FF05
:10302000DBCF81E08093A506DACF82E08093A6060D
:1030300011968C9184FFD0CFF4CF82E08093A606C6
:1030400011968C9185FFA3CF88CF82E08093A6064E
:1030500011968C9183FFDACFA5CF82E08093A606EC
:103060008C91880F85FFD2CF9DCF82E08093A606FA
:103070008C91880F86FFB0CFD4CF82E08093A606D4
:103080008C91880F87FF83CF68CF20E22A95F1F7D4
:1030900081E08093A60685E18A95F1F7000082E041
:1030A0008093A6068ECF82E08093A6068C91880F2F
:1030B00083FF92CFB6CF82E08093A6068C91880FD3
:1030C00082FFA4CF6FCF82E08093A6068C91880FF9
:1030D00084FF5DCF42CF81E08093A506DACDDC018D
:1030E00090919F22492F50E04033510518F5FA0185
:1030F0008827E65EFE4F8F4F0C94AE3782E08093B8
:10310000A60691E09093A5062AE02A95F1F700C063
:10311000000000000000000000008093A5068AE087
:103120008A95F1F700C000000000000000000000D8
:1031300090919F229F5F90939F2280E0089582E06C
:103140008093A60691E09093A5062AE02A95F1F7D0
:1031500000C0000000000000000000008093A506F1
:103160002AE02A95F1F700C00000000000000000EE
:1031700000002091A80620FD23C090919F229F5F10
:1031800090939F2280E0089582E08093A60691E0CC
:103190009093A5062AE02A95F1F700C000000000F0
:1031A0000000000000008093A5062AE02A95F1F7B0
:1031B00000C0000000000000000000008093A60690
:1031C00023E02093A6062AE02A95F1F700C000002C
:1031D00000000000000000008093A50685E18A95AC
:1031E000F1F700009093A50610929F2281E00895C8
:1031F00082E08093A6068C91880F81FF49C081E010
:103200008093A5068AE08A95F1F700C000000000CF
:1032100000000000000082E08093A5069AE09A95E5
:10322000F1F780CF82E08093A6068C91880F82FF11
:103230003AC081E08093A5069AE09A95F1F700C024
:103240000000000000000000000082E08093A5065E
:103250002AE02A95F1F766CF82E08093A6068C914A
:10326000880F83FF2BC081E08093A5062AE02A9572
:10327000F1F700C00000000000000000000082E044
:103280004CCF82E08093A6068C91880F84FDB7CF47
:1032900081E08093A606B6CF82E08093A6068C914B
:1032A000880F85FDC6CF81E08093A606C5CF82E05A
:1032B0008093A6068C91880F86FDD5CF81E0809300
:1032C000A606D4CF82E08093A6068C91880F87FF54
:1032D000DFCF95CF92E09093A60681E08093A5067C
:1032E0002AE02A95F1F700C000000000000000006D
:1032F00000009093A50695E19A95F1F70000809360
:10330000A60625E12A95F1F7000090919F2212CFA1
:1033100082E08093A6069AE09A95F1F700C000003B
:1033200000000000000000008093A5062AE02A9516
:10333000F1F700C0000000000000000000008091D4
:10334000A80680FF1ACF14968C9114978260149669
:103350008C9313CF82E08093A60611968C9180FF08
:1033600097CF4DCF82E08093A60611968C9181FF76
:103370009ACF5FCF82E08093A60611968C9182FF50
:103380009DCF71CF82E08093A60611968C9183FF2A
:103390007FCF35CF82E08093A60611968C9184FF73
:1033A00082CF47CF82E08093A60611968C9185FF4D
:1033B00085CF59CF82E08093A60611968C9186FF27
:1033C00067CF1DCF82E08093A60611968C9187FF70
:1033D0006ACF2FCF82E08093A6069AE09A95F1F704
:1033E00000C0000000000000000000008093A5065F
:1033F0002AE02A95F1F700C000000000000000005C
:1034000000008091A80680FFB8CE14968C91149786
:10341000816014968C9390919F228CCE82E0809351
:10342000A60691E09093A6069AE09A95F1F700C05F
:10343000000000000000000000008093A5062AE0C4
:103440002A95F1F76FCE82E08093A6068C91880FC3
:1034500081FF34CF08CF82E08093A6068C91880F3D
:1034600082FF16CFCCCE82E08093A6068C91880F87
:1034700083FF19CFDECE82E08093A6068C91880F61
:1034800084FF1CCFF0CE82E08093A6068C91880F3B
:1034900085FFFECEB4CE82E08093A6068C91880F85
:1034A00086FF01CFC6CE82E08093A6068C91880F5E
:1034B00087FDD9CE03CF633008F098CE20E22A955D
:1034C000F1F781E08093A60685E18A95F1F7000087
:1034D00082E08093A6069AE09A95F1F723CE82E0E7
:1034E0008093A6069AE09A95F1F700C000000000CC
:1034F0000000000000008093A5062AE02A95F1F75D
:1035000000C0000000000000000000008091A8063C
:1035100080FF33CE14968C911497846014968C930C
:1035200090919F2207CE82E08093A6069AE09A951A
:10353000F1F700C0000000000000000000008093D0
:10354000A5062AE02A95F1F700C00000000000005F
:10355000000000008091A80680FF0FCE14968C9189
:103560001497886014968C9390919F22E3CD82E00B
:103570008093A6069AE09A95F1F700C0000000003B
:103580000000000000008093A5062AE02A95F1F7CC
:1035900000C0000000000000000000008091A806AC
:1035A00080FFEBCD14968C911497806114968C93C8
:1035B00090919F22BFCD82E08093A6069AE09A95D3
:1035C000F1F700C000000000000000000000809340
:1035D000A5062AE02A95F1F700C0000000000000CF
:1035E000000000008091A80680FFC7CD14968C9142
:1035F0001497806214968C9390919F229BCD82E0C9
:103600008093A6069AE09A95F1F700C000000000AA
:103610000000000000008093A5062AE02A95F1F73B
:1036200000C0000000000000000000008091A8061B
:1036300080FFA3CD14968C911497806414968C937C
:1036400090919F2277CD82E08093A6069AE09A958A
:10365000F1F700C0000000000000000000008093AF
:10366000A5062AE02A95F1F700C00000000000003E
:10367000000000008091A80680FF7FCD14968C91F9
:103680001497806814968C9390919F2253CD82E07A
:103690008093A606613009F47DC191E09093A6065F
:1036A0009AE09A95F1F700C00000000000000000C9
:1036B00000008093A5062AE02A95F1F700C00000DB
:1036C00000000000000000008093A60690919F2259
:1036D00031CD82E08093A6069AE09A95F1F700C07A
:1036E000000000000000000000008093A5062AE012
:1036F0002A95F1F700C00000000000000000000063
:103700008091A80680FF39CD12968C911297816026
:1037100012968C93129713968C911397816013963F
:103720008C9390919F2206CD82E08093A6069AE02A
:103730009A95F1F700C000000000000000000000B2
:103740008093A5062AE02A95F1F700C0000000004A
:103750000000000000008091A80680FF0ECD1296A8
:103760008C911297826012968C93129713968C917B
:103770001397826013968C9390919F22DBCC82E00A
:103780008093A6069AE09A95F1F700C00000000029
:103790000000000000008093A5062AE02A95F1F7BA
:1037A00000C0000000000000000000008091A8069A
:1037B00080FFE3CC12968C911297846012968C93C2
:1037C000129713968C911397846013968C93909113
:1037D0009F22B0CC82E08093A6069AE09A95F1F7FA
:1037E00000C0000000000000000000008093A5065B
:1037F0002AE02A95F1F700C0000000000000000058
:1038000000008091A80680FFB8CC12968C91129788
:10381000886012968C93129713968C9113978860F8
:1038200013968C9390919F2285CC82E08093A6067C
:103830009AE09A95F1F700C0000000000000000037
:1038400000008093A5062AE02A95F1F700C0000049
:1038500000000000000000008091A80680FF8DCCD1
:1038600012968C911297806112968C9312971396F0
:103870008C911397806113968C9390919F225ACCD0
:1038800082E08093A6069AE09A95F1F700C00000C6
:1038900000000000000000008093A5062AE02A95A1
:1038A000F1F700C00000000000000000000080915F
:1038B000A80680FF62CC12968C91129780621296B5
:1038C0008C93129713968C911397806213968C9316
:1038D00090919F222FCC82E08093A6069AE09A9541
:1038E000F1F700C00000000000000000000080931D
:1038F000A5062AE02A95F1F700C0000000000000AC
:10390000000000008091A80680FF37CC12968C91B1
:103910001297806412968C93129713968C9113973A
:10392000806413968C9390919F2204CC82E08093C4
:10393000A6069AE09A95F1F700C00000000000008A
:10394000000000008093A5062AE02A95F1F700C048
:10395000000000000000000000008091A80680FF29
:103960000CCC12968C911297806812968C931297B9
:1039700013968C911397806813968C9390919F2245
:10398000D9CB12961C92129713961C9281E08093C9
:10399000A506D0CB6093A5069AE09A95F1F700C0F2
:1039A000000000000000000000008093A5069AE0DF
:1039B0009A95F1F700C00000000000000000000030
:1039C0008093A60693E09093A6069AE09A95F1F765
:1039D00000C0000000000000000000008093A50669
:1039E00085E18A95F1F700006093A50610929F2269
:1039F00081E0089540E062E080E090E00E94902A3B
:103A00000C94EA2A80912122811101C008958EE749
:103A10000C942B2B80912122811101C008958DE7F8
:103A20000C942B2B80912122811101C0089581E7F4
:103A30000C942B2BCF93DF931F92CDB7DEB78983E6
:103A400080912122882351F08981803158F08FE6BE
:103A5000898361E0CE0101960E94322B0F90DF91A5
:103A6000CF9108958066F4CF90912122992341F05F
:103A7000803118F08FE60C942B2B80660C942B2B46
:103A80000895CF93DF931F92CDB7DEB780912122A7
:103A9000882339F086E5898361E0CE0101960E9492
:103AA000322B0F90DF91CF910895CF93DF931F9228
:103AB000CDB7DEB790912122992339F080688983B0
:103AC00061E0CE0101960E94322B0F90DF91CF91E1
:103AD000089590912122911101C0089580680C945D
:103AE0002B2B982F907E9034D1F040F49923A1F0A5
:103AF000903269F48F718093B9230895903641F024
:103B0000903821F48F718093B72308950895089514
:103B10008F718093B62308958093B82308958F7191
:103B20008093B523089521E02093A22224E02093DE
:103B3000260620E297FD28C12093660620E8209300
:103B400065062093660620E296FF93C020936506E3
:103B500020E8209365062093660620E295FF93C037
:103B60002093650620E8209365062093660620E2F0
:103B700094FF93C02093650620E820936506209368
:103B8000660620E293FF93C02093650620E8209309
:103B900065062093660620E292FF93C02093650697
:103BA00020E8209365062093660620E291FF93C0EB
:103BB0002093650620E8209365062093660620E2A0
:103BC00090FF93C02093650620E82093650620931C
:103BD000660620E287FF93C02093650620E82093C5
:103BE00065062093660620E286FF93C02093650653
:103BF00020E8209365062093660620E285FF93C0A7
:103C00002093650620E8209365062093660620E24F
:103C100084FF93C02093650620E8209365062093D7
:103C2000660620E283FF93C02093650620E8209378
:103C300065062093660630E282FF93C030936506E6
:103C400020936506209366063093650690E890936E
:103C500065069093660681FD93C080E280936606B8
:103C600080E8809365068093660684E0809325064D
:103C700008952093660620E8209365062093660643
:103C800020E295FD6DCF2093660620E8209365061F
:103C90002093660620E294FD6DCF2093660620E80F
:103CA000209365062093660620E293FD6DCF209356
:103CB000660620E8209365062093660620E292FDC2
:103CC0006DCF2093660620E8209365062093660654
:103CD00020E291FD6DCF2093660620E820936506D3
:103CE0002093660620E290FD6DCF2093660620E8C3
:103CF000209365062093660620E287FD6DCF209312
:103D0000660620E8209365062093660620E286FD7D
:103D10006DCF2093660620E8209365062093660603
:103D200020E285FD6DCF2093660620E8209365068E
:103D30002093660620E284FD6DCF2093660620E87E
:103D4000209365062093660620E283FD6DCF2093C5
:103D5000660620E8209365062093660630E282FD21
:103D60006DCF3093660620936506209366063093E8
:103D7000660690E8909365069093660681FF6DCF86
:103D800080E2809365066CCF20936506D7CE21E054
:103D90002093A12220E42093260620E297FD28C14B
:103DA0002093660620E8209365062093660620E2AD
:103DB00096FF93C02093650620E820936506209324
:103DC000660620E295FF93C02093650620E82093C5
:103DD00065062093660620E294FF93C02093650653
:103DE00020E8209365062093660620E293FF93C0A7
:103DF0002093650620E8209365062093660620E25E
:103E000092FF93C02093650620E8209365062093D7
:103E1000660620E291FF93C02093650620E8209378
:103E200065062093660620E290FF93C02093650606
:103E300020E8209365062093660620E287FF93C062
:103E40002093650620E8209365062093660620E20D
:103E500086FF93C02093650620E820936506209393
:103E6000660620E285FF93C02093650620E8209334
:103E700065062093660620E284FF93C020936506C2
:103E800020E8209365062093660620E283FF93C016
:103E90002093650620E8209365062093660630E2AD
:103EA00082FF93C0309365062093650620936606D3
:103EB0003093650690E8909365069093660681FDC1
:103EC00093C080E28093660680E8809365068093C5
:103ED000660680E48093250608952093660620E810
:103EE000209365062093660620E295FD6DCF209312
:103EF000660620E8209365062093660620E294FD7E
:103F00006DCF2093660620E8209365062093660611
:103F100020E293FD6DCF2093660620E8209365068E
:103F20002093660620E292FD6DCF2093660620E87E
:103F3000209365062093660620E291FD6DCF2093C5
:103F4000660620E8209365062093660620E290FD31
:103F50006DCF2093660620E82093650620936606C1
:103F600020E287FD6DCF2093660620E8209365064A
:103F70002093660620E286FD6DCF2093660620E83A
:103F8000209365062093660620E285FD6DCF209381
:103F9000660620E8209365062093660620E284FDED
:103FA0006DCF2093660620E8209365062093660671
:103FB00020E283FD6DCF2093660620E820936506FE
:103FC0002093660630E282FD6DCF30936606209323
:103FD0006506209366063093660690E89093650622
:103FE0009093660681FF6DCF80E2809365066CCF6B
:103FF00020936506D7CE21E02093A02220E12093D4
:10400000260620E297FD28C12093660620E820932B
:1040100065062093660620E296FF93C0209365060E
:1040200020E8209365062093660620E295FF93C062
:104030002093650620E8209365062093660620E21B
:1040400094FF93C02093650620E820936506209393
:10405000660620E293FF93C02093650620E8209334
:1040600065062093660620E292FF93C020936506C2
:1040700020E8209365062093660620E291FF93C016
:104080002093650620E8209365062093660620E2CB
:1040900090FF93C02093650620E820936506209347
:1040A000660620E287FF93C02093650620E82093F0
:1040B00065062093660620E286FF93C0209365067E
:1040C00020E8209365062093660620E285FF93C0D2
:1040D0002093650620E8209365062093660620E27B
:1040E00084FF93C02093650620E820936506209303
:1040F000660620E283FF93C02093650620E82093A4
:1041000065062093660630E282FF93C03093650611
:1041100020936506209366063093650690E8909399
:1041200065069093660681FD93C080E280936606E3
:1041300080E8809365068093660680E1809325067B
:1041400008952093660620E820936506209366066E
:1041500020E295FD6DCF2093660620E8209365064A
:104160002093660620E294FD6DCF2093660620E83A
:10417000209365062093660620E293FD6DCF209381
:10418000660620E8209365062093660620E292FDED
:104190006DCF2093660620E820936506209366067F
:1041A00020E291FD6DCF2093660620E820936506FE
:1041B0002093660620E290FD6DCF2093660620E8EE
:1041C000209365062093660620E287FD6DCF20933D
:1041D000660620E8209365062093660620E286FDA9
:1041E0006DCF2093660620E820936506209366062F
:1041F00020E285FD6DCF2093660620E820936506BA
:104200002093660620E284FD6DCF2093660620E8A9
:10421000209365062093660620E283FD6DCF2093F0
:10422000660620E8209365062093660630E282FD4C
:104230006DCF309366062093650620936606309313
:10424000660690E8909365069093660681FF6DCFB1
:1042500080E2809365066CCF20936506D7CE22E07E
:1042600020934606209346062093460620E297FDBB
:1042700050C1209346062093460620E12093450630
:1042800020934506209346062093460620E296FF9B
:10429000EDC0209345062093450620E12093450676
:1042A00020934506209346062093460620E295FF7C
:1042B00025C1209345062093450620E1209345061D
:1042C00020934506209346062093460620E294FF5D
:1042D00010C1209345062093450620E12093450612
:1042E00020934506209346062093460620E293FF3E
:1042F000FBC0209345062093450620E12093450608
:1043000020934506209346062093460620E292FF1E
:10431000E6C0209345062093450620E120934506FC
:1043200020934506209346062093460620E291FFFF
:10433000D1C0209345062093450620E120934506F1
:1043400020934506209346062093460620E290FFE0
:10435000BCC0209345062093450620E120934506E6
:1043600020934506209346062093460620E287FFC9
:10437000A7C0209345062093450620E120934506DB
:1043800020934506209346062093460620E286FFAA
:1043900092C0209345062093450620E120934506D0
:1043A00020934506209346062093460620E285FF8B
:1043B0007DC0209345062093450620E120934506C5
:1043C00020934506209346062093460620E284FF6C
:1043D00068C0209345062093450620E120934506BA
:1043E00020934506209346062093460620E283FF4D
:1043F00053C0209345062093450620E120934506AF
:1044000020934506209346062093460630E282FF1D
:1044100032C03093450630934506209345062093DD
:104420004506209346062093460630934506309372
:10443000450690E190934506909345069093460675
:104440009093460681FD5FC080E28093460680938C
:10445000460680E180934506809345068093460694
:104460008093460682E08093450608952093460691
:104470002093460612CF309346063093460620938B
:104480004506209345062093460620934606309322
:10449000460630934606CDCF209346062093460627
:1044A000ACCF209346062093460697CF209346062E
:1044B0002093460682CF20934606209346066DCF72
:1044C000209346062093460658CF20934606209315
:1044D000460643CF20934606209346062ECF2093D0
:1044E00046062093460619CF20934606209346069B
:1044F00004CF2093460620934606EFCE209346062F
:1045000020934606DACE80E28093450680934506E6
:10451000A0CF2093450620934506AFCE2091A2223E
:10452000222351F088E0809326068093260610927D
:10453000A22280932506089521E02093A22224E060
:104540002093260620E297FD28C12093660620E8E6
:10455000209365062093660620E296FD93C0209383
:10456000660620E8209365062093660620E295FF04
:1045700093C02093650620E8209365062093660685
:1045800020E294FF93C02093650620E820936506FF
:104590002093660620E293FF93C02093650620E8EF
:1045A000209365062093660620E292FF93C0209335
:1045B000650620E8209365062093660620E291FFB9
:1045C00093C02093650620E8209365062093660635
:1045D00020E290FF93C02093650620E820936506B3
:1045E0002093660620E287FF93C02093650620E8AB
:1045F000209365062093660620E286FF93C02093F1
:10460000650620E8209365062093660620E285FF74
:1046100093C02093650620E82093650620936606E4
:1046200020E284FF93C02093650620E8209365066E
:104630002093660620E283FF93C02093650620E85E
:10464000209365062093660630E282FF93C0309384
:10465000650620936506209366063093650690E80C
:10466000909365069093660681FD93C080E28093E7
:10467000660680E8809365068093660684E08093F2
:10468000250608952093650620E82093650620936B
:10469000660620E295FD6DCF2093660620E8209304
:1046A00065062093660620E294FD6DCF2093660692
:1046B00020E8209365062093660620E293FD6DCFE7
:1046C0002093660620E8209365062093660620E284
:1046D00092FD6DCF2093660620E820936506209317
:1046E000660620E291FD6DCF2093660620E82093B8
:1046F00065062093660620E290FD6DCF2093660646
:1047000020E8209365062093660620E287FD6DCFA2
:104710002093660620E8209365062093660620E233
:1047200086FD6DCF2093660620E8209365062093D2
:10473000660620E285FD6DCF2093660620E8209373
:1047400065062093660620E284FD6DCF2093660601
:1047500020E8209365062093660620E283FD6DCF56
:104760002093660620E8209365062093660630E2D3
:1047700082FD6DCF30936606209365062093660612
:104780003093660690E8909365069093660681FFE5
:104790006DCF80E2809365066CCF20936506D7CEFF
:1047A0002091A122222351F080E880932606809355
:1047B00026061092A12280932506089521E02093D9
:1047C000A12220E42093260620E297FD28C1209311
:1047D000660620E8209365062093660620E296FD93
:1047E00093C02093660620E8209365062093660612
:1047F00020E295FF93C02093650620E8209365068C
:104800002093660620E294FF93C02093650620E87B
:10481000209365062093660620E293FF93C02093C1
:10482000650620E8209365062093660620E292FF45
:1048300093C02093650620E82093650620936606C2
:1048400020E291FF93C02093650620E8209365063F
:104850002093660620E290FF93C02093650620E82F
:10486000209365062093660620E287FF93C020937D
:10487000650620E8209365062093660620E286FF01
:1048800093C02093650620E8209365062093660672
:1048900020E285FF93C02093650620E820936506FB
:1048A0002093660620E284FF93C02093650620E8EB
:1048B000209365062093660620E283FF93C0209331
:1048C000650620E8209365062093660630E282FFA5
:1048D00093C0309365062093650620936606309357
:1048E000650690E8909365069093660681FD93C0F7
:1048F00080E28093660680E8809365068093660672
:1049000080E48093250608952093650620E820938F
:1049100065062093660620E295FD6DCF209366061E
:1049200020E8209365062093660620E294FD6DCF73
:104930002093660620E8209365062093660620E211
:1049400093FD6DCF2093660620E8209365062093A3
:10495000660620E292FD6DCF2093660620E8209344
:1049600065062093660620E291FD6DCF20936606D2
:1049700020E8209365062093660620E290FD6DCF27
:104980002093660620E8209365062093660620E2C1
:1049900087FD6DCF2093660620E82093650620935F
:1049A000660620E286FD6DCF2093660620E8209300
:1049B00065062093660620E285FD6DCF209366068E
:1049C00020E8209365062093660620E284FD6DCFE3
:1049D0002093660620E8209365062093660620E271
:1049E00083FD6DCF2093660620E820936506209313
:1049F000660630E282FD6DCF309366062093650631
:104A0000209366063093660690E89093650690932F
:104A1000660681FF6DCF80E2809365066CCF2093A0
:104A20006506D7CE2091A022222351F080E2809308
:104A30002606809326061092A022809325060895CC
:104A400021E02093A02220E12093260620E297FD7A
:104A500028C12093660620E8209365062093660609
:104A600020E296FD93C02093660620E82093650619
:104A70002093660620E295FF93C02093650620E808
:104A8000209365062093660620E294FF93C020934E
:104A9000650620E8209365062093660620E293FFD2
:104AA00093C02093650620E8209365062093660650
:104AB00020E292FF93C02093650620E820936506CC
:104AC0002093660620E291FF93C02093650620E8BC
:104AD000209365062093660620E290FF93C0209302
:104AE000650620E8209365062093660620E287FF8E
:104AF00093C02093650620E8209365062093660600
:104B000020E286FF93C02093650620E82093650687
:104B10002093660620E285FF93C02093650620E877
:104B2000209365062093660620E284FF93C02093BD
:104B3000650620E8209365062093660620E283FF41
:104B400093C02093650620E82093650620936606AF
:104B500030E282FF93C03093650620936506209370
:104B600066063093650690E8909365069093660616
:104B700081FD93C080E28093660680E8809365069D
:104B80008093660680E1809325060895209365064C
:104B900020E8209365062093660620E295FD6DCF00
:104BA0002093660620E8209365062093660620E29F
:104BB00094FD6DCF2093660620E820936506209330
:104BC000660620E293FD6DCF2093660620E82093D1
:104BD00065062093660620E292FD6DCF209366065F
:104BE00020E8209365062093660620E291FD6DCFB4
:104BF0002093660620E8209365062093660620E24F
:104C000090FD6DCF2093660620E8209365062093E3
:104C1000660620E287FD6DCF2093660620E820938C
:104C200065062093660620E286FD6DCF209366061A
:104C300020E8209365062093660620E285FD6DCF6F
:104C40002093660620E8209365062093660620E2FE
:104C500084FD6DCF2093660620E82093650620939F
:104C6000660620E283FD6DCF2093660620E8209340
:104C700065062093660630E282FD6DCF30936606AE
:104C800020936506209366063093660690E890931D
:104C900065069093660681FF6DCF80E2809365067E
:104CA0006CCF20936506D7CE8091E80682FFB5C011
:104CB000809166238130D1F48091E80680FF13C093
:104CC0008091E80680FF12C08091080685FF0EC023
:104CD00080915B2390915C23823C21E0920719F044
:104CE0008B37924019F481E0809385068091672389
:104CF000813019F482E08093850681E090E0209174
:104D0000A222211102C080E090E02091A122222362
:104D100019F022E030E002C020E030E0822B932B3B
:104D20002091A022222319F024E030E002C020E0EC
:104D300030E0822B932B80937023909371232091EA
:104D4000880620FF03C028E030E002C020E030E009
:104D5000822B932B8093702390937123209188064C
:104D600021FF03C020E130E002C020E030E0822BD0
:104D7000932B80937023909371232091000A222318
:104D800019F020E230E002C020E030E0822B932BCB
:104D900080937023909371232091A80625FF03C070
:104DA00020E430E002C020E030E0822B932B80939F
:104DB0007023909371232091A80624FF03C020E85C
:104DC00030E002C020E030E0822B932B80937023F0
:104DD000909371232091E80621FF03C020E031E089
:104DE00002C020E030E0822B932B809370239093BD
:104DF00071232091280726FF03C020E032E002C083
:104E000020E030E0822B932B8093702390937123CA
:104E100061E08EE30E94A7310DC08091662381304E
:104E200011F48093860680916723813019F482E023
:104E30008093860618951895809130248823D1F1A7
:104E40001092302480E098E0E1D588E08093260637
:104E5000809326061092A2228093250680E88093F4
:104E60002606809326061092A1228093250680E2D2
:104E700080932606809326061092A0228093250612
:104E800080919A23811103C080E099E0BFD51092F0
:104E90005A238AE593E20E94380F8091662382307C
:104EA00019F481E08093860680916723823011F4A3
:104EB00080938606189580913124E82FF0E0EE5B10
:104EC000FC4DC0A98F5F8093312490919223891368
:104ED00002C010923124C0FF07C0809146239091F8
:104EE00047230E94931D09C088E080932606809383
:104EF00026061092A22280932506C1FF07C080914A
:104F00004823909149230E94C71E09C080E88093DE
:104F10002606809326061092A12280932506C2FFC2
:104F200006C080914A2390914B2365D809C080E246
:104F300080932606809326061092A0228093250651
:104F4000C3FF1CC08091E80680FF14C08091E80672
:104F500080FF17C08091080685FF13C080915B23F6
:104F600090915C23823C21E0920721F08B3722E074
:104F7000920739F481E08093850603C081E0809335
:104F80008606C4FF04C082E08093850603C082E0E9
:104F900080938606C6FF04C080E28093A50603C006
:104FA00080E28093A606C7FF04C080E18093A50637
:104FB00003C080E18093A606C5FF18C080919923A5
:104FC000982F9D7F49F481E080935A238AE593E2EC
:104FD0000E94380F80919923813091F482E0809370
:104FE0005A238AE593E20E94380F0AC080919923E0
:104FF000823031F410925A238AE593E20E94380FEE
:1050000018958091E80681FF64C08091A5228111E6
:10501000A5C091E09093A52280916823282F2D7F31
:10502000213051F480916E23816080936E2361E082
:105030008CE30E94A73192C0843039F490936F239F
:105040008FE693E20E94D61189C0853041F482E058
:1050500080936F238FE693E20E94D6117FC0863043
:1050600041F484E080936F238FE693E20E94D6118F
:1050700075C0873041F483E080936F238FE693E21D
:105080000E94D6116BC0883041F485E080936F2375
:105090008FE693E20E94D61161C0893059F4909353
:1050A0005A238AE593E20E94380F61E08DE20E9464
:1050B000A73154C08A3009F051C082E080935A234E
:1050C0008AE593E20E94380F61E08DE20E94A731E9
:1050D00045C08091A522813009F040C01092A522E0
:1050E000809168239EEF980F923050F480916E2348
:1050F0008E7F80936E2361E08CE30E94A7312EC0E7
:10510000843041F488E080936F238FE693E20E941D
:10511000D61124C09BEF980F923040F480E1809329
:105120006F238FE693E20E94D61118C099EF980F73
:10513000923040F488E180936F238FE693E20E94DF
:10514000D6110CC08A3051F410925A238AE593E2AA
:105150000E94380F61E08DE20E94A731189580917E
:10516000280786FF64C08091A4228111A5C091E028
:105170009093A42280916923282F2D7F213051F410
:1051800080916E23826080936E2361E08CE30E94A5
:10519000A73192C0843039F490936F238FE693E265
:1051A0000E94D61189C0853041F482E080936F233C
:1051B0008FE693E20E94D6117FC0863041F484E0EE
:1051C00080936F238FE693E20E94D61175C08730DB
:1051D00041F483E080936F238FE693E20E94D6111F
:1051E0006BC0883041F485E080936F238FE693E2B3
:1051F0000E94D61161C0893059F490935A238AE5F0
:1052000093E20E94380F61E08DE20E94A73154C002
:105210008A3009F051C082E080935A238AE593E2F4
:105220000E94380F61E08DE20E94A73145C0809155
:10523000A522813009F040C01092A52280916923F7
:105240009EEF980F923050F480916E238D7F809363
:105250006E2361E08CE30E94A7312EC0843041F4BC
:1052600088E080936F238FE693E20E94D61124C0DA
:105270009BEF980F923040F480E180936F238FE68C
:1052800093E20E94D61118C099EF980F923040F423
:1052900088E180936F238FE693E20E94D6110CC0C1
:1052A0008A3051F410925A238AE593E20E94380F13
:1052B00061E08DE20E94A73118958091080782FD78
:1052C0000EC08FEF8093432082E08093050781E03A
:1052D0008093050790E89093E6068093060718955B
:1052E0008091880680FD05C020915D2330915E236A
:1052F00023C080912C2490912D24019680932C24FE
:1053000090932D2420915F2330916023821793077F
:1053100029F020915D2330915E230EC010922C2441
:1053200010922D2420915D2330915E2382179307E4
:1053300019F081E08093860680912E2490912F248D
:10534000019680932E2490932F248217930719F5AA
:10535000809132249091332401968093322490934B
:10536000332420916123309162238217930761F4E3
:1053700080915A23813041F48093860680E09AE040
:1053800045D398D0189507C010922E2410922F2440
:1053900081E08093850618958091080685FF04C0FA
:1053A00084E68093222217C08091E80680FF06C021
:1053B00081E08093860680E09AE028D38FEF809387
:1053C000222280915923813031F41092592361E0D7
:1053D0008CE2BDD76FD0189518958091080685FD91
:1053E0000DC08091E80680FD0EC08FEF80932222D1
:1053F000809159238130A1F01895089584E6809317
:1054000022221895089581E08093860680E09AE034
:10541000FDD28FEF8093222280915923813061F752
:105420001092592361E08CE292D744D018950895E8
:105430008091080685FF04C08091E80680FD0FC0BA
:1054400082E593E20E94C00E80915923811106C02B
:1054500081E08093592361E08CE279D72BC081E011
:1054600080938606EDCF8091880681FF0FC082E091
:10547000809386068091A322882391F01092A32224
:105480001092632380E09BE0C1D20AC082E0809347
:10549000850680916323823019F461E082E357D757
:1054A00018950E94050A8091A20087688093A20047
:1054B0007894FFCF9091A6228091080685FF18C0AE
:1054C00082E0892B9091080695FF04C09091E80630
:1054D00090FD10C020915B2330915C23223C91E031
:1054E0003907A9F02B37324009F480610C94551D1F
:1054F00080E0E7CF9091000A992361F084602091C9
:105500005B2330915C23223C91E0390759F7886096
:105510000C94551D9091880690FFDCCF8460EFCFEE
:10552000FF920F931F93CF93DF931F921F92CDB7DC
:10553000DEB789839A83162FF42E21E040E060E0E5
:1055400080E696E00AD220E040E061E080E696E066
:10555000EFD101E022E040E061E080E696E015D284
:1055600081E08093660683E08093A509898180931A
:10557000A6096A81862F8F7090E11902B00111246B
:10558000682B6093A709FF2029F08091A40984600B
:105590008093A40988E08093650620E040E063E002
:1055A00080E696E0DAD120E040E062E080E696E036
:1055B000BFD18091680681FF05C08091A3098C7FCF
:1055C0008093A3090F900F90DF91CF911F910F91BE
:1055D000FF900895E0EAF9E084818861848380EE99
:1055E0008183838180618383089581E08093650650
:1055F000E091A8228E0F8093A822F0E0EC5AFB4D98
:1056000090819093A009803219F41092A82280E032
:105610009091A722981305C08091A3098C7F809355
:10562000A30981E08093660618958091680681FF42
:1056300006C08091A3098C7F8093A3090BC0909131
:10564000A8228091A722981729F08091A309816050
:105650008093A30918959091A10995FFFCCF8093A1
:10566000A0090895EF92FF920F931F93CF93DF93BA
:105670007C01C62F8091680681FD05C08091A30939
:1056800081608093A309D091A7228D2F90E000E242
:1056900010E0081B190B4C2F50E004171507E0F021
:1056A000B7018C5A9B4D0E94B7378091A822CD0F2D
:1056B000C093A722C032B1F1D81738F4C81728F028
:1056C000CF5FC093A822C03221F1DF91CF911F910B
:1056D0000F91FF90EF900895A801B7018C5A9B4D50
:1056E0000E94B737C01B4C2F50E0B701600F711FED
:1056F00084E594E20E94B7378091A822C093A72244
:10570000D817F0F2C81708F3CF5FC093A822C032B1
:10571000E1F61092A822DF91CF911F910F91FF9097
:10572000EF9008951092A7228111CFCF81E080934E
:10573000A822CBCF8091A0090E94711D189521E06D
:1057400040E066E080E096E008D184E190E4909348
:1057500007068150E1F72FEF37EA81E6215030400C
:105760008040E1F700C00000ECE2F2E264E572E2A2
:1057700040E4219130E02115310561F080E090E0B6
:10578000AFE3BFE11197F1F700C000000196821767
:105790009307B1F780E4409307066E177F0749F738
:1057A000BFEF27EA31E6B15020403040E1F700C0BA
:1057B0000000809307068093070680930706809376
:1057C0000706809307060895222309F45BC030E2A0
:1057D0003093520038E0309350003091510033FF45
:1057E000FCCF611538E4730738EE830731E0930787
:1057F00009F482C0611534E2730734EF8307910521
:1058000009F47CC0611532E173073AE7830791051B
:1058100009F44BC0611539E073073DE38307910537
:1058200009F46EC0603834E873073EE183079105E0
:1058300009F460C0603432E473073FE083079105E8
:1058400009F462C0603231EA730737E083079105DB
:1058500009F458C0603930ED730733E083079105D0
:1058600009F454C0683438EE730731E083079105BA
:1058700009F44EC06432744F8105910509F04AC0A5
:1058800084E414C032E2309352003AE03093500086
:105890003091510031FFFCCF3091510033FDA1CF49
:1058A0003091510033FFF8CF9CCF8CE098ED94BF3E
:1058B000222399F023E02093400094BF809341007D
:1058C000442329F088ED84BF81E08093420088ED75
:1058D00084BF81E080938000089521E02093400000
:1058E00094BF8093410094BF82E080935600209340
:1058F0006000E6CF8CE1DACF80E0D8CF84E0D6CF6D
:1059000084E1D4CF8CE2D2CF84E2D0CF84E3CECF77
:105910008CE3CCCF80E0089588ED84BF81E0809354
:105920008000089588ED84BF83E080938000FFCFDE
:10593000FC01308181E090E0062E01C0880F0A94BE
:10594000EAF78095832380837096E60FF11D8081AE
:10595000422B807C482B40830895FC01308181E0FC
:1059600090E0062E01C0880F0A94EAF7382B3083A6
:105970007096E60FF11D8081807C842B808321113D
:1059800003C080818760808308950F93FC01318577
:10599000842F90E0880F991FA3E0B0E0082E01C08B
:1059A000AA0F0A94EAF7A095A323082E01C0660F58
:1059B0000A94EAF7A62BA18741110FC00023A9F092
:1059C0002287248581E090E0042E01C0880F0A948C
:1059D000EAF7282B24870F910895413091F70111A0
:1059E00008C08385822B8387ECCF8285822B8287B8
:1059F000E8CF2387E6CFFC0110828CE081874150FD
:105A0000510946A357A3268360830895FC011082A1
:105A10002CE021870895FC0110828CE081874150A1
:105A2000510946A357A3268360830895FC01108281
:105A30002CE0218708952091CF0127FDFCCF809392
:105A4000C0019093C1011092C20186E08093CA0107
:105A500088ED84BF81E08093CB018091C4010895DB
:105A60002091CF0127FDFCCF2091CF0121FF08C05D
:105A700026E32093CA0128ED24BF21E02093CB0127
:105A800023E32093CA018093C0019093C101109237
:105A9000C2016093C40185E38093CA0188ED84BF8D
:105AA00081E08093CB010895FF920F931F93CF93D2
:105AB000DF938C01C7E0D0E0F12C08C0F1100BC0DF
:105AC000CE01CEDF2196C032D10571F0F80161918F
:105AD0008F016111F3CF60E0CE01C2DFFF24F394A8
