:10000000FDC0000021C100001FC100001DC1000093
:100010001BC1000019C1000017C1000015C100007C
:1000200013C1000011C100000FC100000DC100008C
:100030000BC1000009C100000C941C0C05C100009C
:100040000C94C90C01C10000FFC00000FDC00000FD
:100050000C947512F9C000000C94B814F5C000009F
:10006000F3C00000F1C00000EFC00000EDC00000D0
:100070000C94D418E9C00000E7C00000E5C00000FF
:10008000E3C00000E1C00000DFC00000DDC00000F0
:10009000DBC00000D9C00000D7C00000D5C0000000
:1000A000D3C00000D1C00000CFC000000C94850B6D
:1000B000CBC00000C9C00000C7C000000C94110CE8
:1000C000C3C00000C1C00000BFC00000BDC0000030
:1000D000BBC00000B9C00000B7C00000B5C0000040
:1000E000B3C00000B1C00000AFC00000ADC0000050
:1000F000ABC00000A9C00000A7C00000A5C0000060
:10010000A3C00000A1C000009FC000009DC000006F
:100110009BC0000099C0000097C0000095C000007F
:1001200093C0000091C000008FC000008DC000008F
:100130008BC000000C941A0D87C0000085C0000021
:1001400083C0000081C000007FC000007DC00000AF
:100150007BC0000079C0000077C0000075C00000BF
:1001600073C0000071C000006FC000006DC00000CF
:100170006BC0000069C0000067C0000065C00000DF
:100180000C940C0B61C000000C942B175DC0000098
:100190000C94830B0C94840B57C0000055C00000D6
:1001A00053C0000051C000004FC000004DC000000F
:1001B0000C94FD0C49C0000047C0000045C0000081
:1001C00043C0000041C000003FC000003DC000002F
:1001D0003BC0000039C0000037C000000C94031879
:1001E0000C94CF1631C000002FC000002DC00000BD
:1001F0002BC0000029C0000027C0000011241FBE32
:10020000CFEFCDBFDFE3DEBF00E00CBF18BE19BEED
:100210001ABE1BBE11E2A0E0B0E2E0E2F3E300E0B0
:100220000BBF02C007900D92A039B107D9F71BBED2
:100230002DE3A0E9B1E201C01D92AF32B207E1F7B0
:100240000E94690D0C948E19DBCE90E190936606A6
:100250009093660690936606282F30E082FD34C1A5
:1002600080E28093660680E8809366068093660647
:100270008093660680936506809365068093650685
:1002800080936606C901880F991F82FD24C180E210
:100290008093660680E88093660680936606809366
:1002A0006606809365068093650680936506809355
:1002B0006606220F331F220F331F80E222FF08C180
:1002C0008093650680E88093660680936606809337
:1002D0006606809365068093650680936506809325
:1002E0006606862F90E020E267FDCFC02093660669
:1002F00020E82093660620936606209366062093E6
:1003000065062093650620936506209366069C018A
:10031000220F331F27FDD4C020E22093660620E879
:100320002093660620936606209366062093650652
:100330002093650620936506209366069C01220F94
:10034000331F220F331F27FDB7C020E2209366061C
:1003500020E8209366062093660620936606209385
:1003600065062093650620936506209366069C012A
:10037000220F331F220F331F220F331F27FD98C078
:1003800020E22093660620E8209366062093660606
:1003900020936606209365062093650620936506E4
:1003A000209366069C0122953295307F3227207F6C
:1003B000322727FD79C020E22093660620E82093AB
:1003C00066062093660620936606209365062093B2
:1003D000650620936506209366069C01220F331F55
:1003E00022953295307F3227207F322727FD58C053
:1003F00020E22093660620E8209366062093660696
:100400002093660620936506209365062093650673
:10041000209366069C01002436952795079436950F
:1004200027950794322F202D27FD36C020E22093F8
:10043000660620E8209366062093660620936606EB
:100440002093650620936506209365062093660633
:100450009695982F88279795879587FF19C080E2F2
:100460008093650680E88093660680936606809395
:100470006606809365068093650680936506809383
:10048000660680E18093650608952093650630CF67
:1004900080E280936606E6CF20E220936506C9CF0E
:1004A00020E220936506A7CF20E22093650686CF41
:1004B00020E22093650667CF20E22093650648CFAF
:1004C00020E2209365062BCF80E280936506CBCE99
:1004D00080936606F7CE80E280936506DBCE8F922E
:1004E000AF92BF92CF92DF92EF920F938FE391E2A0
:1004F0009F938F9383E2882E99E2A92EBB24B39415
:100500002AEFC22E21E2D22EE12C01E020E040E0D1
:1005100061E080E198E00E940D110F900F900F9123
:10052000EF90DF90CF90BF90AF908F900895E0E470
:10053000F6E082E0868384E0868388E0868381E03B
:10054000E0E6F6E0868308955CD780E10E94F10E34
:1005500080E8E0E8F6E08583E0E2F6E088E0858385
:1005600080E1858380E2858380E4858308958DE73B
:100570008093FA218093FB218093FC218093FD21BD
:100580001092142241E04093152282E080931622BB
:1005900084E08093172298E090931822809305239B
:1005A00080E593EC809306239093072388EA91E6F5
:1005B000809308239093092324E630E020930A23B4
:1005C00030930B2310920E2340930F23409310235C
:1005D0001092182320931A2330931B2322E330E038
:1005E00020931C2330931D232AE030E020931E2308
:1005F00030931F23809321239093222308956091A9
:10060000FA2180E022DE6091FB2182E01EDE609113
:10061000FC2181E01ADE6091FD2183E016CE089571
:1006200008950895089508950895089508950895E2
:10063000809190218F5F80939021853009F00895FB
:1006400080911823813019F010929021089585E04F
:100650000E940C0F813020E1920748F4809316230A
:100660009093172361E08BE30E947C13EDCF1092EF
:10067000162310921723F6CF08950895089508952C
:100680000895089590EE980F933240F490E080978B
:10069000FC01E85EFE4D2081261711F080E00895F0
:1006A000FC01EE0FFF1FEA5BFF4D0190F081E02D92
:1006B000199581E0089590EE980F933248F4E82F51
:1006C000F0E0B097DF01A85EBE4D8C91861711F067
:1006D00080E00895EE0FFF1FDF01AE52BF4D8D91F8
:1006E0009C9182179307A1F7E050F04E0190F081A2
:1006F000E02DCA0119940895089508950895089564
:10070000FC0180819181A281B38180FF03C021E03F
:100710002093450681FF03C021E02093E50682FF78
:1007200003C022E02093E50686FF03C028E0209363
:10073000250787FF03C020E12093250790FF03C012
:1007400020E22093250791FF03C028E0209325068F
:1007500092FF03C020E12093250693FF03C020E20F
:100760002093250694FF03C020E42093250695FFDF
:1007700003C022E02093450696FF03C024E02093A7
:10078000450697FF03C028E020934506A0FF03C05D
:1007900020E120934506A1FF03C021E020936506D8
:1007A000A2FF03C021E020938506A3FF03C022E03F
:1007B00020938506A5FF03C020E120936506A6FFD0
:1007C00003C020E220936506A7FF03C020E8209322
:1007D0006506B0FF03C020E420938506B1FF03C087
:1007E00020E820938506B2FF03C021E02093250670
:1007F000B3FF03C022E020932506B4FF03C084E0CA
:100800008093250681E008950895FC0180819181FF
:10081000A281B38180FF03C021E02093460681FFBF
:1008200003C021E02093E60682FF03C022E020936C
:10083000E60686FF03C028E02093260787FF03C053
:1008400020E12093260790FF03C020E22093260793
:1008500091FF03C028E02093260692FF03C020E109
:100860002093260693FF03C020E22093260694FFE0
:1008700003C020E42093260695FF03C022E02093C6
:10088000460696FF03C024E02093460697FF03C068
:1008900028E020934606A0FF03C020E120934606EF
:1008A000A1FF03C021E020936606A2FF03C021E060
:1008B00020938606A3FF03C022E020938606A5FFAF
:1008C00003C020E120936606A6FF03C020E2209328
:1008D0006606A7FF03C020E820936606B0FF03C0AA
:1008E00020E420938606B1FF03C020E8209386060B
:1008F000B2FF03C021E020932606B3FF03C022E02D
:1009000020932606B4FF03C084E08093260681E08E
:1009100008950895FC0180819181A281B38180FFB7
:1009200003C021E02093470681FF03C021E020930C
:10093000E70682FF03C022E02093E70686FF03C09C
:1009400028E02093270787FF03C020E12093270793
:1009500090FF03C020E22093270791FF03C028E007
:100960002093270692FF03C020E12093270693FFE0
:1009700003C020E22093270694FF03C020E42093C5
:10098000270695FF03C022E02093470696FF03C089
:1009900024E02093470697FF03C028E020934706F2
:1009A000A0FF03C020E120934706A1FF03C021E080
:1009B00020936706A2FF03C021E020938706A3FFD0
:1009C00003C022E020938706A5FF03C020E1209307
:1009D0006706A6FF03C020E220936706A7FF03C0B7
:1009E00020E820936706B0FF03C020E42093870629
:1009F000B1FF03C020E820938706B2FF03C021E0C7
:100A000020932706B3FF03C022E020932706B4FFFC
:100A100003C084E08093270681E008950895FC01D7
:100A200080819181A281B38121E080FF7CC02093ED
:100A3000450621E081FF7CC02093E50682FF7CC053
:100A400022E02093E50686FF7CC028E0209325075E
:100A500087FF7CC020E12093250790FF7CC020E227
:100A60002093250791FF7CC028E02093250692FF64
:100A70007CC020E12093250693FF7CC020E22093D8
:100A8000250694FF7CC020E42093250695FF7CC0BA
:100A900022E02093450696FF7CC024E02093450683
:100AA00097FF7CC028E020934506A0FF7CC020E192
:100AB0002093450621E0A1FF7CC02093650621E03C
:100AC000A2FF7CC020938506A3FF7CC022E0209378
:100AD0008506A5FF7CC020E120936506A6FF7CC0AB
:100AE00020E220936506A7FF7CC020E820936506DE
:100AF000B0FF7CC020E420938506B1FF7CC020E8D5
:100B00002093850621E0B2FF7CC020932506B3FF29
:100B10007CC022E020932506B4FD7CC081E0809358
:100B2000460681E008952093460621E081FD84CFAA
:100B30002093460682FD84CF21E02093460686FD61
:100B400084CF21E02093460687FD84CF21E02093C7
:100B5000460690FD84CF21E02093460691FD84CF88
:100B600021E02093460692FD84CF21E020934606A3
:100B700093FD84CF21E02093460694FD84CF21E0AD
:100B80002093460695FD84CF21E02093460696FDEE
:100B900084CF21E02093460697FD84CF21E0209367
:100BA0004606A0FD84CF21E02093460621E0A1FD6A
:100BB00084CF2093460621E0A2FD84CF20934606F1
:100BC000A3FD84CF21E020934606A5FD84CF21E03C
:100BD00020934506A6FD84CF21E020934606A7FD7D
:100BE00084CF21E020934606B0FD84CF21E02093FE
:100BF0004506B1FD84CF21E02093450621E0B2FDFA
:100C000084CF20934606B3FD84CF21E0209346068F
:100C1000B4FF84CF84E08093250681E0089520917D
:100C200048062170822F90E0A0E0B0E03091E80605
:100C300030FF05C0822F826090E0A0E0B0E02091FC
:100C4000E80621FD84602091E80622FD886020915D
:100C5000280721FD80612091280722FD80622091D4
:100C6000280723FD80642091280724FD80682091B7
:100C7000280725FF04C020E22093250780622091E9
:100C8000280623FD92602091280624FD946020917F
:100C9000280625FD98602091280626FD9061209168
:100CA000480621FD90622091480622FD9064209123
:100CB000480623FD90682091480624FDA1602091FC
:100CC000680620FDA2602091880620FDA460209186
:100CD000880621FDA8602091880622FDA061209150
:100CE000680624FF04C020E12093650680612091FE
:100CF000680625FDA0642091680627FD21C020918B
:100D0000880626FF04C020E4209385068064209195
:100D1000880627FD17C02091280620FDB460209189
:100D2000280621FDB8602091280622FDB06180933D
:100D30000E2290930F22A0931022B09311220895B7
:100D4000A068DDCF20E8209385068068E4CF80E0AE
:100D500008951092122280910008811104C084E04D
:100D600080931222089581E0809312220895809149
:100D7000480686958170809313229091480692FFD1
:100D800033C092E0892B809313229091480693FF01
:100D900033C094E0892B809313229091680690FFD2
:100DA00033C098E0892B809313229091880691FF9D
:100DB00033C090E1892B809313229091880690FF95
:100DC00033C090E2892B90911923992399F190E4F3
:100DD000892B809313229091880692FD33C090E076
:100DE000892B80931322089590E0892B80931322FE
:100DF0009091480693FDCDCF90E0892B80931322EC
:100E00009091680690FDCDCF90E0892B80931322BE
:100E10009091880691FDCDCF90E0892B809313228D
:100E20009091880690FDCDCF90E0892B9091192369
:100E30009111CDCF90E0892B809313229091880659
:100E400092FFCDCF90E8892B809313220895FC0167
:100E500080818093132281E008950895FC018081B0
:100E6000982F9E7F21F48093142281E0089580E0E2
:100E700008950895DC01A051BF4FE5E0F3E28E91A3
:100E8000829382E2E531F807D1F781E00895089571
:100E9000FC0180819FEF980F903F20F48093052301
:100EA00081E0089580E008950895FC01808191819A
:100EB0008838F3E19F0730F080930623909307234F
:100EC00081E0089580E008950895FC01808191817A
:100ED000809308239093092381E008950895FC01ED
:100EE000808191818A30910530F080930A2390931C
:100EF0000B2381E0089580E008950895FC0180812E
:100F000080930C2381E008950895FC0180818093F3
:100F10000D2381E008950895FC018081982F9C7F26
:100F200021F480930E2381E0089580E008950895D0
:100F3000FC018081982F9C7F21F480930F2381E016
:100F4000089580E008950895FC018081982F907F96
:100F500021F48093102381E0089580E0089508959E
:100F600008950895809188068695817090918806ED
:100F700090FD05C090E0892B80931423089592E0A2
:100F8000892B809314230895FC01808180FF04C085
:100F900082E080938506808181FF04C081E0809398
:100FA000850680818093112381E00895FC01808172
:100FB00080FF04C082E080938606808181FF04C0A8
:100FC00081E08093860680818093122381E00895DA
:100FD000FC01808180FF04C082E0809387068081CD
:100FE00081FF04C081E08093870680818093132372
:100FF00081E00895FC01808180FF0EC082E0809333
:101000008506808181FD0EC081E080938606808107
:101010008093142381E0089582E080938606808186
:1010200081FFF2CF81E08093870680818093142333
:1010300081E008958091880682FB882780F980935B
:101040001523089580E0089580E008950895FC0137
:101050008081982F9E7F51F49091122290FD04C0C0
:101060008093182381E0089581E0089580E0089539
:101070009091000981E0911101C080E080931923D3
:1010800008950895FC01808191819C0122503109CD
:101090002F353A4E30F480931A2390931B2381E02E
:1010A000089580E008950895FC01808191819C015C
:1010B0002150310920363A4E30F480931C2390930E
:1010C0001D2381E0089580E008950895FC0180814A
:1010D000918180931E2390931F2381E00895909126
:1010E000000B81E0911101C080E0809320230895DE
:1010F0000895FC01808191818838F3E19F0730F0E9
:10110000809321239093222381E0089580E0089525
:10111000CF93FC01C0816C2F80E097D8C093FA2157
:1011200081E0CF910895CF93FC01C0816C2F82E0C4
:101130008CD8C093FB2181E0CF910895CF93FC011F
:10114000C0816C2F81E081D8C093FC2181E0CF91D8
:101150000895CF93FC01C0816C2F83E076D8C093B3
:10116000FD2181E0CF91089585E056D68093162326
:10117000909317230895CF93FC01C0818C2F8E7F0D
:1011800061F520911C2330911D2380911A239091A9
:101190001B232817390708F5CC2311F180911E2352
:1011A00090911F23892B01F121E04DE750E066E08B
:1011B00080E099E0AED581E08093650610922A2305
:1011C00010922B2310922523109226231092232372
:1011D0001092242310922C2307C080E0CF91089511
:1011E00080910009811105C0C093192381E0CF913E
:1011F000089581E08093660680E099E0A9D5F4CF58
:10120000FC018081982F9E7F91F480932023882376
:1012100031F08091000B882361F081E00895809186
:10122000000B8823D1F381E080939121089580E021
:101230000895409121235091222356954795569524
:10124000479521E065E080E09BE063D582E08093F4
:10125000850661E081E40E947C131092912181E077
:101260000895EF920F93CF93DF93FC01C081C0FFED
:1012700005C080910008882309F43FC0C1FD1FC04C
:10128000C2FF04C08091000881110AC0C3FD0DC0D7
:10129000C093122281E0DF91CF910F91EF900895DA
:1012A00081E080932723C3FFF3CF10922023809106
:1012B000000B882369F381E080939121E9CF81E0DD
:1012C000809320238091000B8111DACF409121235C
:1012D00050912223569547955695479521E065E014
:1012E00080E09BE016D582E08093850661E081E492
:1012F0000E947C1310929121C3CF10922723109249
:101300002823D1E0D0932923109218232091082379
:101310003091092336952795409106235091072354
:1013200056954795EE24E39401E065E080E098E06F
:10133000FBD44091062350910723425051098091DC
:101340000A2390910B23481B590B5695479521E092
:1013500065E080E09AE0DDD4D093460680911422C7
:1013600081118CCF809148068695817080931322DD
:101370009091480692FD37C090E0892B809313220C
:101380009091480693FF3BC094E0892B80931322F1
:101390009091680690FF31C098E0892B80931322CA
:1013A0009091880691FF27C090E1892B80931322AA
:1013B0009091880690FF1DC090E2892B909119238F
:1013C0009923A9F090E4892B8093132290918806A9
:1013D00092FF0BC090E8892B8093132261E08AE290
:1013E0000E947C134BCF92E0C8CF90E0F4CF90E006
:1013F000EACF90E0E2CF90E0D8CF90E0CECF90E07F
:10140000C4CF0F93CF93DF9320E040E062E080EE03
:1014100096E01CD420E040E061E080E297E016D442
:1014200020E040E062E080E297E010D420E040E07D
:1014300062E080E896E00AD400E024E040E061E069
:1014400080EE96E030D422E040E061E080E297E078
:101450002AD424E041E061E080E297E024D424E053
:1014600040E061E080E896E01ED421E040E060E0EA
:1014700080E496E000D421E040E060E080EE96E079
:10148000FAD321E040E061E080EE96E0F4D321E081
:1014900040E063E080E297E0EED321E040E064E0EA
:1014A00080E297E0E8D321E040E065E080E297E069
:1014B000E2D321E040E063E080E296E0DCD321E08B
:1014C00040E064E080E296E0D6D321E040E065E0D1
:1014D00080E296E0D0D321E040E066E080E296E052
:1014E000CAD321E040E061E080E496E0C4D321E08B
:1014F00040E062E080E496E0BED321E040E063E0BB
:1015000080E496E0B8D321E040E064E080E496E037
:10151000B2D321E040E060E080E696E0ACD321E089
:1015200040E060E080E896E0A6D321E040E061E0A2
:1015300080E896E0A0D321E040E064E080E696E019
:101540009AD321E040E065E080E696E094D321E084
:1015500040E067E080E696E08ED321E040E066E080
:1015600080E896E088D321E040E067E080E896E0FC
:1015700082D321E040E060E080E296E07CD321E08D
:1015800040E061E080E296E076D321E040E062E076
:1015900080E296E070D3A0E4B6E081E016968C93EA
:1015A0001697E0EEF6E0868392E09683E0E2F7E0BD
:1015B00048E0458320E1258330E23683E0E2F6E02F
:1015C00046832683368360E4668316969C9316973B
:1015D00054E016965C93169716964C9316971696AB
:1015E0002C93C0E6D6E08E83A0E8B6E016968C93E6
:1015F000169716969C9316972D833E8320E82E838C
:1016000015966C93159716962C9385839583568320
:10161000DF91CF910F9108958091E80682FF65C018
:1016200080910E23823011F48093850680910F23E0
:10163000823019F481E080938506809114228130F4
:1016400009F060C08091E80682FF5CC08091480686
:1016500086958170809313229091480692FF02C074
:1016600092E001C090E0892B80931322909148066C
:1016700093FF02C094E001C090E0892B8093132275
:101680009091680690FF02C098E001C090E0892B1D
:10169000809313229091880691FF02C090E101C0CF
:1016A00090E0892B809313229091880690FF02C0CE
:1016B00090E201C090E0892B90911923992311F0B9
:1016C00090E401C090E0892B8093132290918806CA
:1016D00092FF02C090E801C090E0892B8093132212
:1016E00061E08AE20E947C130DC080910E2382305B
:1016F00011F48093860680910F23823019F481E0E3
:10170000809386061895189518958091880682FF13
:1017100049C080919221811183C081E08093922100
:1017200080911023982F9D7F913041F49093152341
:1017300061E08AE3E1D78091102300C0843011F08A
:10174000873041F481E08093122282E192E289DDC8
:1017500080911023853011F0883041F482E080932D
:10176000122282E192E27DDD80911023863011F019
:10177000893041F483E08093122282E192E271DDAC
:10178000809110238A50823008F04AC0C1E0C09393
:10179000152361E08AE3B0D7C093192389E193E26E
:1017A000EADC3EC080919221813009F039C010926C
:1017B0009221809110239EEF980F923040F4109266
:1017C000152361E08AE398D78091102300C0873009
:1017D00041F484E08093122282E192E242DD809122
:1017E0001023883039F48093122282E192E239DDAD
:1017F00080911023893041F48CE08093122282E1A1
:1018000092E22FDD809110238B3051F4109215233A
:1018100061E08AE371D71092192389E193E2ABDC8E
:101820001895E0912823F0E0E650FE4D838D8770F7
:10183000880F80934506189580912923882319F0F5
:101840001092292318951092200A1092210AE091F3
:10185000282381E08E0F80932823F0E0E650FE4D90
:10186000238D80911E2390911F23892B49F423FF00
:1018700004C081E08093650603C081E08093660622
:1018800090910E23933049F424FF04C082E08093AA
:10189000850603C082E08093860680910F23833003
:1018A00049F425FF04C031E03093850603C031E0E0
:1018B0003093860626FF0AC081E08093192389E1D0
:1018C00093E259DC90910E2380910F23913019F40B
:1018D00092E090938506813011F480938506809183
:1018E000142281114DC080914806869581708093A5
:1018F00013229091480692FF02C092E001C090E04E
:10190000892B809313229091480693FF02C094E0A4
:1019100001C090E0892B809313229091680690FF7C
:1019200002C098E001C090E0892B8093132290912F
:10193000880691FF02C090E101C090E0892B80935E
:1019400013229091880690FF02C090E201C090E0BF
:10195000892B90911923992311F090E401C090E014
:10196000892B809313229091880692FF02C090E801
:1019700001C090E0892B8093132261E08AE2BCD6FB
:101980009091052380912823981302C01092282358
:1019900018958EE08093460680911E2390911F2318
:1019A000009719F481E08093660680910E238130C0
:1019B00019F482E08093860680910F23813011F420
:1019C00080938606809127238823B1F010922723E5
:1019D00080E098E0BDD180E09AE0BAD180910E23FA
:1019E000833019F482E08093860680910F23833040
:1019F00019F481E08093860618958091880681FF0E
:101A00000FC082E08093860680919121882389F01F
:101A1000109291211092202380E09BE099D109C07F
:101A200082E08093850681E08093202361E081E459
:101A300063D618958091680680FF17C08091232394
:101A40009091242301968093232390932423209123
:101A50001C2330911D238217930739F410922323FE
:101A60001092242381E08093660680912523909133
:101A700026230196809325239093262320911A23D1
:101A800030911B238217930719F580912A23909197
:101A90002B23019680932A2390932B2320911E239E
:101AA00030911F238217930721F080912C238823E4
:101AB00041F010922C231092192380E099E048D134
:101AC00007C0109225231092262381E0809365069B
:101AD00018950E946F028091A20087688093A200EF
:101AE0007894FFCF222309F45BC030E23093520098
:101AF00038E0309350003091510033FFFCCF611536
:101B000038E4730738EE830731E0930709F482C0A5
:101B1000611534E2730734EF8307910509F47CC043
:101B2000611532E173073AE78307910509F44BC069
:101B3000611539E073073DE38307910509F46EC031
:101B4000603834E873073EE18307910509F460C00B
:101B5000603432E473073FE08307910509F462C003
:101B6000603231EA730737E08307910509F458C002
:101B7000603930ED730733E08307910509F454C0F1
:101B8000683438EE730731E08307910509F44EC0DD
:101B90006432744F8105910509F04AC084E414C091
:101BA00032E2309352003AE03093500030915100CD
:101BB00031FFFCCF3091510033FDA1CF3091510066
:101BC00033FFF8CF9CCF8CE098ED94BF222399F09F
:101BD00023E02093400094BF80934100442329F0E8
:101BE00088ED84BF81E08093420088ED84BF81E06E
:101BF00080938000089521E02093400094BF80935B
:101C0000410094BF82E08093560020936000E6CFAD
:101C10008CE1DACF80E0D8CF84E0D6CF84E1D4CF96
:101C20008CE2D2CF84E2D0CF84E3CECF8CE3CCCF92
:101C300080E0089588ED84BF81E08093800008955E
:101C400088ED84BF83E080938000FFCFFC0130816A
:101C500081E090E0062E01C0880F0A94EAF7809593
:101C6000832380837096E60FF11D8081422B807C58
:101C7000482B40830895FC01308181E090E0062EDE
:101C800001C0880F0A94EAF7382B30837096E60F6C
:101C9000F11D8081807C842B8083211103C0808191
:101CA0008760808308950F93FC013185842F90E035
:101CB000880F991FA3E0B0E0082E01C0AA0F0A9474
:101CC000EAF7A095A323082E01C0660F0A94EAF74D
:101CD000A62BA18741110FC00023A9F022872485DC
:101CE00081E090E0042E01C0880F0A94EAF7282BC7
:101CF00024870F910895413091F7011108C0838521
:101D0000822B8387ECCF8285822B8287E8CF238743
:101D1000E6CFFC0110828CE081874150510946A337
:101D200057A3268360830895EF920F93FC011082DE
:101D30008CE081874150510946A357A320A731A7C2
:101D40000683E78283E1818360830F91EF9008959A
:101D5000FC0110822CE021870895FC0110828CE0A8
:101D600081874150510946A357A326836083089574
:101D70002091CF0127FDFCCF8093C0019093C1013A
:101D80001092C20186E08093CA0188ED84BF81E091
:101D90008093CB018091C40108952091CF0127FD4C
:101DA000FCCF2091CF0121FF08C026E32093CA0178
:101DB00028ED24BF21E02093CB0123E32093CA0127
:101DC0008093C0019093C1011092C2016093C4013D
:101DD00085E38093CA0188ED84BF81E08093CB01C5
:101DE0000895E1E7F0E090819D7F908391E09093EA
:101DF0000002E1E0F2E020E620832081208380934E
:101E0000020285E08093040290932002E2E2F2E075
:101E10001082808180830895880F880F880F8093B7
:101E20002102809120028068809320028091230209
:101E300080FFFCCF81E08093230280912402909167
:101E400025029F7020913B2130913C21821B930BF6
:101E50000895FF920F931F93CF93DF938C01C7E0F8
:101E6000D0E0F12C08C0F1100BC0CE0196DF219616
:101E7000C032D10571F0F80161918F016111F3CF8A
:101E800060E0CE018ADFFF24F3942196C032D105B1
:101E900091F7DF91CF911F910F91FF900895CF930C
:101EA000962F803208F47FC0282F30E0205231096D
:101EB000F901E85EFE4D5081220F331FF901EE5209
:101EC000FF4DC081F901E457FF4D208131812093FE
:101ED000992130939A2190932D23252F2F702C9F99
:101EE000C02D1124EAE0EC0FE0932E2380932F23E2
:101EF0002FEF2093302350615093312341116BC059
:101F00008091952190919621A0919721B09198214F
:101F10008093322390933323A0933423B0933523BB
:101F200020919321309194212093362330933723AD
:101F30008E2F90E08E3F9105A4F52091992130914C
:101F40009A2140E0842F90E0F901E80FF91F5081B9
:101F5000FC01E85CFC4D50834F5F4C13F3CF2091A4
:101F60002E232E5F30E021503109121613060CF09B
:101F70009EC080E090E040E050E0FC01E35DFC4D5D
:101F80008081580F4F5F842F90E082179307ACF346
:101F9000F901E35DFC4D508380913D21813009F4CE
:101FA0006BC0CF9108958D30E0F7282F30E0F90114
:101FB000EE57FE4D5081220F331FF901E859FE4DB7
:101FC000C081F901E25BFE4D20813181209399218E
:101FD00030939A2180CF20914C084091AD215091AF
:101FE000AE216091AF217091B02120FF21C04F5FE1
:101FF0005F4F6F4F7F4F4093322350933323609353
:102000003423709335232091600830916108209328
:10201000362330933723883009F08ACF933009F084
:1020200087CF1092362310923723E0912E2380CF52
:10203000409332235093332360933423709335239A
:102040002091600830916108209336233093372324
:10205000F0919E21F03DF9F62F303105E0F64F5F0B
:102060005F4F6F4F7F4F40933223509333236093E2
:10207000342370933523CFCF83E88093A200C0919F
:10208000A30B9091A30B9C7F9093A30B60912E23A5
:102090006E5F8DE293E22ED79091A30B8C2F83700D
:1020A000892B8093A30B87E88093A2007ACF50E01E
:1020B0006FCFCF93E091303C2E2F30E024303105AC
:1020C000BCF090E020E030E0F901EC5CF34C4081A2
:1020D000F901E65CF34C40839F5F292F30E0E091EB
:1020E000303C4E2F50E0435051092417350764F31C
:1020F00080932F3CEA5FE093303C8091333C8061D9
:102100008093333C80914C0880FF40C08091AD218A
:102110009091AE21A091AF21B091B0210196A11D67
:10212000B11D8093343C9093353CA093363CB093E2
:10213000373C80916008909161088093383C90937F
:10214000393CF0E0E05DF34C10826091303C40E0BF
:10215000262F30E080E090E0F901E05DF34CDC01F7
:10216000A15DB34C20818C91280F20834F5F60913B
:10217000303C262F30E0842F90E02817390764F791
:1021800080913D21813079F1CF9108958091AD21E9
:102190009091AE21A091AF21B091B0218093343CB9
:1021A0009093353CA093363CB093373C2091600827
:1021B000309161082093383C3093393C40919E2106
:1021C000403D09F0BECF2F30310508F0BACF01965F
:1021D000A11DB11D8093343C9093353CA093363CB7
:1021E000B093373CAECF83E88093A200C091A30B9D
:1021F0009091A30B9C7F9093A30B6E5F8FE29CE367
:1022000079D69091A30B8C2F8370892B8093A30B8D
:1022100087E88093A200CF9108953F924F925F92FA
:102220006F927F928F929F92AF92BF92CF92DF92E6
:10223000EF92FF920F931F93CF93DF93CDB7DEB74B
:102240003C01962E142FF22E4D885E88F3DC21E09F
:1022500041E060E078E488EE91E044DC81E0809346
:1022600048006092A4217092A5219092A62110931B
:10227000A721E092A8218093A92186E08093AA213A
:10228000F092AB210093AC211092AD211092AE21BF
:102290001092AF211092B0211092B1211092B22170
:1022A00082E090E065DD382E83E090E061DD982EDD
:1022B0008FEF981609F4B7C0F31409F489C06FEDD5
:1022C00080E090E06ADD6F2D82E090E066DD61E005
:1022D00083E090E062DD0E94A40280E090E048DDAF
:1022E0008E3E09F480C080E68093B32180E4809321
:1022F000B4210E94B7020E94FF02A092A221B092D4
:10230000A321C092A021D092A12180929F2187E099
:1023100090E02EDD8F3F09F4BDC005EB11E2E6EF42
:10232000EE2EFF24FA94C701845A91427C01C70122
:10233000800F911F1DDDF80181938F01F1E20E3CAA
:102340001F07A9F789E1E5EBF1E2AEECB1E20190FC
:102350000D928A95E1F721E042E15AE767E080E4D7
:1023600098E0FBDCE0919E2181E08E0F80939E211E
:10237000F0E0EA5BFE4D808190E001978093680871
:102380009093690881E08093470820E040E066E090
:1023900080E096E070DC80E48093050640E060E039
:1023A00081E090E092D4F0D48DEA91E2DF91CF9178
:1023B0001F910F91FF90EF90DF90CF90BF90AF9063
:1023C0009F908F907F906F905F904F903F90C0C68E
:1023D00091E0991274CF0E94A40280E090E0C8DCE2
:1023E0008E3E09F080CF81E090E0C2DC8093B32183
:1023F000A114B10491F0760185010C0D1D1DF0E2D0
:102400006F2E712CC301B4DCF70181937F01FFEFC4
:102410006F1A7F0AE016F106A9F780E88093B421CD
:102420000E94FF026ACF6F2D82E090E0B6DC61E08F
:1024300083E090E0B2DC82E090E09ADC382E83E02A
:1024400090E096DC982E8201A7E06A2E712CE12C98
:102450000BC0E1100EC0C301A0DCFFEF6F1A7F0AB2
:1024600080E26816710489F0F80161918F016111B1
:10247000F0CF60E0C30191DCEE24E394FFEF6F1A2C
:102480007F0A80E26816710479F76FED80E090E0D2
:1024900084DC12CF720107E010E0D12C0AC0D11009
:1024A0000DC0C8017ADC0F5F1F4F0032110509F41F
:1024B00034CFF70161917F016111F1CF60E0C80174
:1024C0006CDCDD24D394EFCF0E94970220E480E0FF
:1024D00092EEA4E0B0E00197A109B1090097A1052F
:1024E000B105C9F720930706F2CF8091AD219091F5
:1024F000AE21A091AF21B091B0210196A11DB11DD7
:102500008093AD219093AE21A093AF21B093B021E1
:102510008091F2218F5F8093F2218EE090E0809392
:1025200068089093690881E080939E210E941403BB
:1025300080914C08806180934C080E9416030E9491
:1025400018034091B32147FD03C0842F8370B1C0AD
:10255000842F8370813009F0ACC08DEA91E28093C2
:10256000992190939A2183E080932D238EE080938C
:102570002E2388E080932F238FEF8093302384E1F4
:102580008093312380914C0880FF18C08091AD2149
:102590009091AE21A091AF21B091B0210196A11DE3
:1025A000B11D8093322390933323A0933423B093AF
:1025B0003523809160089091610826C08091AD21FB
:1025C0009091AE21A091AF21B091B02180933223A0
:1025D00090933323A0933423B09335232091600844
:1025E0003091610850919E21503D71F42F3031059A
:1025F00058F40196A11DB11D80933223909333238B
:10260000A0933423B09335231092362310923723AE
:102610008091AD219091AE21A091AF21B091B021D8
:102620008093382390933923A0933A23B0933B238C
:1026300020912E232E5F30E021503109121613060F
:1026400084F450E060E080E090E0FC01E35DFC4D4C
:102650008081680F5F5F852F90E082179307ACF34E
:1026600001C060E0F901E35DFC4D608380913D2194
:10267000813021F583E88093A200C091A30B909153
:10268000A30B9C7F9093A30B60912E236E5F8DE232
:1026900093E230D49091A30B8C2F8370892B80937D
:1026A000A30B87E88093A2004091B321842F83700D
:1026B00000C0882339F0813019F400C092E003C0D3
:1026C00091E001C094E08091AD21892321F080E464
:1026D0008093060605C046FF03C080E4809305068C
:1026E0000E94150380914C0884FF05C080919D21B4
:1026F000811101C0E9DE18959091B321937091305A
:1027000009F00895462F63E0CACBCF92DF92FF9283
:102710000F931F93CF93DF931F921F92CDB7DEB716
:102720008D3040F4E82FF0E0DF01AE57BE4D9C91B4
:10273000961759F080E00F900F90DF91CF911F9185
:102740000F91FF90DF90CF900895EE0FFF1FE85993
:10275000FE4D608171816217730761F7883009F45B
:102760007DC08A30C9F18B30F9F08C3019F78A01BD
:10277000B7E0CB2ED12CF12C0CC0F1100FC0C6014C
:102780000CDBFFEFCF1ADF0A80E2C816D10409F490
:102790007FC0F80161918F016111EFCF60E0C60148
:1027A000FCDAFF24F394EDCFFA018081813009F443
:1027B0008CC0823009F49AC0843009F4A7C08830F4
:1027C00011F081E0B8CF6FEF87E090E0E6DA83E0C8
:1027D00080939D2181E0AFCFFA01808186FD04C006
:1027E00080E48093060680811091B321837F8093DB
:1027F000B321FA01808185FF40C015FF5DC083FFD2
:1028000010C081E08093EA211092E8218093E921B1
:102810001092E7218091B321877F8093B321FA0141
:102820008081837071F4812F837059F21092EA21B4
:1028300049835A830E94110349815A81FA01808198
:102840008370813051F1833009F0BBCF13701330A6
:1028500009F4B7CF0E94130381E06DCFFA018081A4
:102860009181A281B3818093AD219093AE21A093F9
:10287000AF21B093B02181E05ECF15FFC0CF498377
:102880005A830E94100349815A81FA018081B7CF8F
:1028900083E080939D2181E04ECF812F8370813032
:1028A00009F48FCF49835A830E94120349815A81C8
:1028B000FA0180818370C7CF49835A830E940F0336
:1028C00049815A81FA0180819ACF8EEC91E2498345
:1028D0005A83BFDA6FED80E090E05FDA83E08093A7
:1028E0009D2149815A81FA01808163CF80E090E087
:1028F00049835A833DDA49815A818E3E09F01ACFC5
:1029000083E080939D21FA01808156CF6EEE80E0B6
:1029100090E049835A8341DA6091B32181E090E0ED
:102920003CDA8091A2219091A32149815A81892B7F
:10293000C9F000E010E0E091A021F091A121E00FAA
:10294000F11F6081C801809649835A8326DA0F5FA0
:102950001F4F8091A2219091A32149815A8108178C
:10296000190748F383E080939D21FA01808127CFE6
:102970000E9414038091680890916908E0919E215B
:1029800021E02E0F20939E21E770F0E0EA5BFE4DE0
:102990003081830F911D809368089093690820FD12
:1029A00026C180913D21813069F48093250783E819
:1029B0008093A2008091A30B8F7C8093A30B87E868
:1029C0008093A2008091F121811103C08091F021B8
:1029D0000FC081508093F121882319F08091F0215C
:1029E00007C01092F1211092F0211092EB219BC0B0
:1029F000882309F498C0A0912D24B0912E248091B1
:102A0000303C8F3F59F01091313C5091323C009155
:102A1000333C24E3E22E2CE3F22E0AC01091333C27
:102A20005091343C0091353C96E3E92E9CE3F92E1D
:102A3000FD01319681F090E040E020E030E0E901D6
:102A4000C15DD34C2881420F9F5F292F30E02E17A4
:102A50003F07A8F301C040E0E15DF34C90814913CA
:102A600060C05F3F09F05DC090912F3C913089F5C7
:102A70001D31B0F41D3008F01DC1E12FF0E0EE571C
:102A8000FE4D9081091316C1193009F00EC18091D5
:102A90006008909161088093B1219093B22105C1A3
:102AA000602F812F0E9442039091B32194FD39C081
:102AB000811103C08091303C05C041E061E0812F6D
:102AC000EED92FC090E0883F91055CF589E0F1DAFE
:102AD00028C0CD010497202F2F70622F70E001D401
:102AE0001D3130F49B01A701602F812F0EDE06C03F
:102AF0009B01A701602F812F0E945B039091B3215E
:102B000094FD0FC0882329F041E062E0812FC7D9EE
:102B100008C08091303C90E0883F910514F48AE031
:102B2000C8DA1092F02180913D21813009F05CC01B
:102B30008091080786FF46C080919B2190919C213F
:102B40000196883B2BE0920729F080939B2190937C
:102B50009C213CC010929B2110929C218091B3211A
:102B6000982F93709130E9F486FD03C090E4909320
:102B70000606982F907F9093B32183FF0BC010928D
:102B8000E82181E08093E9211092E721892F877F56
:102B90008093B3211092EA210E94110390913D216C
:102BA00001C091E01092EE211092EF211092EC21E1
:102BB0001092ED218091A30B8C7F8093A30B913019
:102BC00029F012C010929B2110929C2183E88093DF
:102BD000A2008091A30B80638093A30B87E880936E
:102BE000A20081E0809326070E94170302C00E9482
:102BF000180380919D21882331F0815080939D217D
:102C0000811101C01DD88091E9218823E1F08091D4
:102C10009E2183708230B9F48091E7218D3060F479
:102C2000893009F04CC020916008309161082093F0
:102C3000B1213093B22143C08F5F8093E7218C3163
:102C400011F41092E9218091EA21882309F1809101
:102C50009E218370E9F48091E821E82FF0E0E85E9E
:102C6000FE4D6081805E0E944203882331F0809196
:102C7000E82141E061E0805E12D98091E8218F5F18
:102C80008093E82190919F21891302C01092EA213C
:102C90000E94150380914C0884FF05C080919D21FE
:102CA000811101C011DC189510C08091B32184FFFF
:102CB00004CF37CF9091B32194FF04CF32CF41E0BE
:102CC00061E0EDD88091E721B7CFFF920F931F937A
:102CD000CF93DF931F921F92CDB7DEB789839A837C
:102CE000F62E142F20E040E060E080E297E00E94A2
:102CF0003B0E20E040E066E080E097E00E94260E78
:102D000001E020E440E063E080E097E00E94530EA1
:102D100081E08093260783E08093A50B89818093CF
:102D2000A60B8F2D90E18902B00111248A818F704A
:102D3000862B8093A70B112329F08091A40B84602C
:102D40008093A40B88E08093A50620E040E063E038
:102D500080EA96E00E943B0E20E040E062E080EADC
:102D600096E00E94260E8091080786FF05C080919C
:102D7000A30B8C7F8093A30B0F900F90DF91CF91CB
:102D80001F910F91FF900895E0EAFBE08481886134
:102D9000848380EE818383818063838308951F927F
:102DA0000F920FB60F92112408B60F9218BE09B6F3
:102DB0000F9219BE0BB60F921BBE2F933F934F93EA
:102DC0005F936F937F938F939F93AF93BF93EF9393
:102DD000FF930E943E032091EE213091EF21C90123
:102DE00001968093EE219093EF21F901E15DFB4D77
:102DF00020812093A00B811528E1920729F12091D1
:102E0000EC213091ED212817390729F48091A30B8B
:102E10008C7F8093A30B0E943F03FF91EF91BF91A2
:102E2000AF919F918F917F916F915F914F913F9162
:102E30002F910F900BBE0F9009BE0F9008BE0F9000
:102E40000FBE0F901F9018951092EE211092EF2157
:102E500080E090E0D4CF1F920F920FB60F92112412
:102E600008B60F9218BE09B60F9219BE0BB60F9294
:102E70001BBE2F933F934F935F936F937F938F93DB
:102E80009F93AF93BF93EF93FF930E944003809172
:102E9000080786FD29C02091EE213091EF21809115
:102EA000EC219091ED212817390729F08091A30B8F
:102EB00083608093A30B0E944103FF91EF91BF9128
:102EC000AF919F918F917F916F915F914F913F91C2
:102ED0002F910F900BBE0F9009BE0F9008BE0F9060
:102EE0000FBE0F901F9018958091A30B8C7F80933D
:102EF000A30BE1CFBF92CF92DF92EF92FF920F939D
:102F00001F93CF93DF936C01B62E8091080786FD47
:102F100005C08091A30B83608093A30B0091EC21EB
:102F20001091ED21C0E0D8E1C01BD10BEB2CF12CAE
:102F3000CE15DF0558F1A701B601C801815D9B4D93
:102F4000E4D18091EE219091EF21E00EF11EE0920C
:102F5000EC21F092ED21E11428E1F20609F446C0DB
:102F600008171907A8F5E816F90690F18FEFE81A87
:102F7000F80AE092EE21F092EF21E11428E1F20646
:102F800039F51092EE211092EF2122C0AE01B60168
:102F9000C801815D9B4DB9D1BC1AEB2CF12CBE014F
:102FA0006C0D7D1DA7018FE294E2AFD18091EE21DF
:102FB0009091EF21E092EC21F092ED210817190792
:102FC00088F42FEFE21AF20AE092EE21F092EF215C
:102FD000DF91CF911F910F91FF90EF90DF90CF90F5
:102FE000BF900895E816F90660F7F2CF1092EC2131
:102FF0001092ED21892B61F781E090E08093EE2122
:103000009093EF21E5CF1F920F920FB60F921124EC
:1030100008B60F9218BE09B60F9219BE0BB60F92E2
:103020001BBE2F933F934F935F936F937F938F9329
:103030009F93AF93BF93EF93FF930E943C039091B4
:10304000A00BE091EB2181E08E0F8093EB21F0E06B
:10305000E15DF34C9083813019F1843049F190E0C7
:1030600020912D2430912E248217930779F10E940C
:103070003D03FF91EF91BF91AF919F918F917F9110
:103080006F915F914F913F912F910F900BBE0F90D9
:1030900009BE0F9008BE0F900FBE0F901F9018959D
:1030A00080912F3C81508230D0F11092EB21DFCF04
:1030B0008091303C8F3F01F190E08E3F9105A9F364
:1030C000029680932D2490932E24D1CF20913D21E0
:1030D000213061F12091303C2F3F29F122E030E096
:1030E000821B930B80932D2490932E241092EB211E
:1030F00081E08093F021BBCF8091303C9091313CB6
:1031000004968F3F910509F080F68091313C9091B3
:10311000323C049680932D2490932E24A8CF82E3F2
:103120008093F121A4CF24E030E0DACF209325076B
:1031300083E88093A2008091A30B8F7C8093A30BE4
:1031400087E88093A20080912D2490912E24C2CFF5
:10315000CF93DF931F921F92CDB7DEB723E130E00C
:1031600029833A838093F4219093F52183E080931F
:10317000B50889818093B6088A818F708093B708DB
:1031800020E048E166E080E496E00E94260E80E1BF
:103190008093B408E3EBF8E08081806380830F9034
:1031A0000F90DF91CF9108951F920F920FB60F925B
:1031B000112408B60F9218BE09B60F9219BE0BB6AD
:1031C0000F921BBE2F938F939F93AF93BF93EF9359
:1031D000FF938091B0088A3AD1F18F3A09F44CC03C
:1031E0009091F321923009F44BC008F472C09430EE
:1031F00009F452C008F44AC0953061F58093F92172
:103200001092F3218091F2218A3008F44BC082EFB2
:1032100099E7809360089093610881E09AE7809332
:1032200068089093690826E020933E21E091F421FC
:10323000F091F5218091F6219091F721A091F8214C
:10324000B091F92180839183A283B38303C081E08D
:103250008093F321FF91EF91BF91AF919F918F9157
:103260002F910F900BBE0F9009BE0F9008BE0F90CC
:103270000FBE0F901F90189582E08093F321EACF44
:103280008093F62183E08093F321E4CF8093F721AC
:1032900084E08093F321DECF8093F82185E0809352
:1032A000F321D8CF1092F22120913E2189EF99E7A6
:1032B000821B9109809360089093610881E09AE7EE
:1032C0008093680890936908222309F4AFCF2150B6
:1032D000ABCF992319F0913009F0BCCF1092F321B4
:1032E000B9CFAA1BBB1B51E107C0AA1FBB1FA61762
:1032F000B70710F0A61BB70B881F991F5A95A9F79F
:1033000080959095BC01CD010895FB01DC0102C0C0
:1033100001900D9241505040D8F70895F894FFCF96
:10332000880893089E08A908800305048A040F05ED
:10333000A706310927072E073A07480755076507EB
:103340006F077E0785078C079807A407C407D60771
:10335000E807FA07220824082708BB08420854088F
:103360006608000979087B037C037D037E037F03E5
:10337000040489040E050F06A906B7062D073907B0
:103380004707540764076E077D0784078B07970775
:10339000A307AF07B007B107B2071A08B408260899
:1033A00038084108530865086F087808FA21FB219E
:1033B000FC21FD21FE21022206220A220E221222D7
:1033C0001322142215220523062308230A230C2383
:1033D0000D230E230F231023112312231323142351
:1033E00015231623182319231A231C231E232023F5
:1033F0002123010001000100010001000100010082
:1034000001000100010001000100F00001000100C5
:1034100001000100010001000100010001000100A4
:103420000100010001000100010001000100010094
:103430000100010001000100010101010404040474
:103440000401010101010202020101010101010166
:103450000101010201010202020102B4000107465A
:103460005033303032000F10100F100F1010A42105
:10347000A621A721A821A921AA21AB21AC21AD21F8
:10348000B121B321B421B5210100010001000100E7
:103490000100010001000100010001000100010024
:1034A00019000201010101010101040201010100F1
:00000001FF
